S013000050726F6A6563744D61696E2E73726563B5
S1130000B3C10000E0C10000EDC10000FAC100006E
S1130010C7C10000C5C10000C3C10000C1C10000C8
S1130020BFC10000BDC10000BBC10000B9C10000D8
S1130030B7C10000B5C10000B3C10000B1C10000E8
S1130040AFC10000ADC10000ABC10000AAC10000F7
S1130050A7C10000A5C10000A3C10000A1C1000008
S11300609FC100009DC100009BC1000099C1000018
S1130070000000000000000000065F5F06000000B2
S11300800007070007070000147F7F147F7F140018
S1130090242E6B6B3A120000466630180C66620020
S11300A0307A4F5D377A48000407030000000000EF
S11300B0001C3E63410000000041633E1C00000040
S11300C0082A3E1C1C3E2A0808083E3E0808000078
S11300D000A0E0600000000008080808080800000C
S11300E000006060000000006030180C060301008E
S11300F03E7F594D7F3E000042427F7F40400000DA
S1130100627359496F660000226349497F360000D3
S1130110181C16137F7F1000276745457D390000A2
S11301203C7E4B4979300000036371190F070000CE
S1130130367F49497F360000064F49693F1E00005B
S113014000006C6C0000000000A0EC6C00000000DB
S1130150081C366341000000141414141414000025
S1130160004163361C080000020351590F060000C9
S11301703E7F415D5D1F1E007C7E13137E7C00006C
S1130180417F7F49497F36001C3E63414163220021
S1130190417F7F41637F1C00417F7F495D41630054
S11301A0417F7F491D0103001C3E6341517372006E
S11301B07F7F08087F7F000000417F7F41000000AF
S11301C0307040417F3F0100417F7F081C7763000E
S11301D0417F7F41406070007F7F060C067F7F0077
S11301E07F7F060C187F7F001C3E6341633E1C002A
S11301F0417F7F49090F06001E3F21717F5E000089
S1130200417F7F19396F460026674D597B320000C4
S113021003417F7F410300007F7F40407F7F0000D8
S11302201F3F60603F1F00007F7F3018307F7F00DA
S113023063771C081C776300074F78784F0700002A
S11302406773594D47637100007F7F41410000008F
S11302500103060C183060000041417F7F0000005C
S1130260080C0603060C0800808080808080808053
S11302700000030704000000207454543C7840003C
S1130280413F7F44447C3800387C44446C2800005F
S1130290307848493F7F4000387C54545C18000053
S11302A0487E7F490302000098BCA4A4F87C0400A3
S11302B0417F7F08047C780000447D7D400000007D
S11302C040C484FD7D000000417F7F10386C4400F1
S11302D000417F7F400000007C7C0C180C7C78007F
S11302E07C7C04047C780000387C44447C38000026
S11302F084FCF8A4243C1800183C24A4F8FC8400D2
S1130300447C78441C180000485C54547424000055
S113031000043E7F442400003C7C40403C7C400080
S11303201C3C60603C1C00003C7C6030607C3C00F9
S1130330446C3810386C44009CBCA0A0FC7C0000C9
S11303404C64745C4C64000008083E774141000032
S113035000000077770000004141773E0808000064
S1130360020301030203010011241FBECFEFD4E0F6
S1130370DEBFCDBF13E0A0E0B1E0E0EEFAE102C0E1
S113038005900D92AA3AB107D9F723E0AAEAB3E09F
S113039001C01D92A33DB207E1F77ED00C946E0D0F
S11303A02FCE1F920F920FB60F9211248F938CB100
S11303B08093C30381E08093AE038F910F900FBEAF
S11303C00F901F9018951F920F920FB60F92112441
S11303D08F9381E08093AD038F910F900FBE0F90A8
S11303E01F9018951F920F920FB60F9211248F939E
S11303F081E08093AB038F910F900FBE0F901F90FD
S113040018951F920F920FB60F9211248F9381E0CB
S11304108093AA038F910F900FBE0F901F90189591
S1130420EF92FF920F931F931FE1E12EF12C00E056
S113043010E020E030E04BE450E060E875E280E05A
S113044090E076D681E07BD04DD68BD0C5D553D6FF
S11304508BB780648BBF85B7826085BF85B78E7F7D
S113046085BF8B98939A8BB780688BBF85B788605C
S113047085BF85B78B7F85BF32983A98B898C09866
S113048086B78E7F86BF8BB781608BBF78941F91B0
S11304900F91FF90EF900895C3DF8FE991E00E94E0
S11304A0800A80E035D680E037D680E031D680EC13
S11304B02BD680E031D680E02BD683E025D68EE0A3
S11304C023D680E029D680E023D680EA1DD680E0BA
S11304D023D6CFB11F92CF931F92CF9384EE91E096
S11304E09F938F93FCD78C2F807E0F900F900F904B
S11304F00F900F900F90803881F01F92CF931F922E
S1130500CF9382EB91E09F938F93E9D70F900F9055
S11305100F900F900F900F9003C085EF91E0F0D7EC
S1130520E0D18091AC03882319F02ED01092AC0353
S11305308091AB0381111ED48091C403F1CF95B790
S1130540906895BF96B7986096BF882319F080B7D6
S1130550806280BF0895FC0180810895FC0160835E
S113056008951092B1031092B0031092B303109245
S1130570B2031092B5031092B4031092B703109211
S1130580B6031092AF030895CF93DF931ED460E0B7
S113059070E080E090E0FCD38BE092E04FD485E102
S11305A092E0AED72FEF4FEF52E021504040504041
S11305B0E1F700C000C0C4E1D0E060910601709191
S11305C0070182E0CED58FEF9FE121E0815090407A
S11305D02040E1F700C000008091060190910701DE
S11305E0E4D590910D01981710F480930D01219793
S11305F0209719F760E070E081E090E0C9D38BE2C6
S113060092E01CD484E392E07BD74FEF5FEF82E06B
S1130610415050408040E1F700C000C0C4E1D0E048
S1130620609106017091070182E09BD59FEF2FE155
S113063041E0915020404040E1F700C0000080912B
S1130640060190910701B1D590910C01891710F41E
S113065080930C012197209719F760E070E082E005
S113066090E096D389E492E0E9D380E592E048D71C
S11306705FEF8FEF92E0515080409040E1F700C06F
S113068000C0C4E1D0E0609106017091070181E0EF
S113069068D52FEF4FE151E0215040405040E1F741
S11306A000C0000080910601909107017ED59091D1
S11306B00B01981710F480930B012197209719F7D9
S11306C060E070E083E090E063D38CE592E0B6D321
S11306D085E692E015D78FEF9FEF22E0815090409E
S11306E02040E1F700C000C0C4E1D0E06091060101
S11306F07091070181E035D54FEF5FE181E0415012
S113070050408040E1F700C00000809106019091C4
S113071007014BD590910A01891710F480930A01BF
S11307202197209719F730910A0120910B0190919C
S11307300C0180910D011F923F931F922F931F92E2
S11307409F931F928F9383E792E09F938F93C7D6D3
S113075020910B0180910A0130E0281B3109C90165
S11307604DB75EB7465F5F4F0FB6F8945EBF0FBEDE
S11307704DBF99230CF401969595879580930901B3
S113078020910D0180910C0130E0281B3109C90131
S113079099230CF40196959587958093080160E060
S11307A070E084E090E0F4D28DE992E047D3909138
S11307B00801809109011F929F931F928F9388EAE9
S11307C092E09F938F938BD65FEF8FEF9EE0515013
S11307D080409040E1F700C000000F900F900F9010
S11307E00F900F900F90DF91CF910895883739F4CF
S11307F0609106017091070182E0B3C408958937BE
S113080031F4609106017091070181E0AAC4089552
S11308108837F9F48091060190910701C6D490E0DD
S11308209093B1038093B003209108016091080173
S1130830AC01421B51099A0144E6429FC001439F07
S1130840900D112470E0B3D47093B5036093B40396
S113085008958937F1F48091060190910701A5D498
S113086090E09093B3038093B203209109016091C7
S11308700901AC01421B51099A0144E6429FC0019F
S1130880439F900D112470E092D47093B70360934A
S1130890B60308958091B4039091B5038B35910507
S11308A024F083E08093AF030895863A9F4F24F4A5
S11308B084E08093AF0308958091B6039091B703C9
S11308C08B35910524F081E08093AF030895863A37
S11308D09F4F24F482E08093AF0308951092AF03F6
S11308E0089588E783DF82E68A95F1F7000088E7B8
S11308F08FDF89E77BDF82E68A95F1F7000089E7DD
S113090087DFC8DF8091AF030895CF93DF935DD273
S113091060E070E080E090E03BD28DEC92E08ED21B
S113092060E070E083E090E033D2CEE0D0E083ED8D
S113093092E084D22FEF8FE797E0215080409040DF
S1130940E1F700C000002197209789F760E070E08C
S113095085E090E01DD285ED92E070D22FEF8FEF0D
S11309609CE2215080409040E1F700C000C0DF913C
S1130970CF910895CF92DF92EF92FF920F931F933E
S1130980CF93DF938C017B016A01E9018091BB0362
S11309909091BC03892B19F08EED92E0B1D58CE0D7
S11309A090E02CD4FC019093BC038093BB03F382AE
S11309B0E28211830083CD2B39F0D582C48281E099
S11309C090E09783868304C015821482178216826E
S11309D0DF91CF911F910F91FF90EF90DF90CF9017
S11309E00895CF93DF9386E190E008D4EC019093CF
S11309F0C2038093C10384EF92E0998388831D8AA4
S1130A001C8A85E090E09B838A8386E190E0F6D39C
S1130A10FC019093C0038093BF038DEF92E0918318
S1130A208083D58BC48B83E090E09383828320E022
S1130A3030E040E050E0BE018CE093E09BDF609149
S1130A40C1037091C203E091BB03F091BC03DB01CD
S1130A501596FC93EE93149785E894E09387828728
S1130A604091BF035091C00321E030E085E193E061
S1130A7081DF6091C1037091C2038091BB039091A7
S1130A80BC03FB019783868320E030E040E050E024
S1130A9080E293E06FDF6091C1037091C2038091A3
S1130AA0BB039091BC03DB0119969C938E9318971A
S1130AB020E030E040E050E08BE293E05BDF6091C7
S1130AC0C1037091C203E091BB03F091BC03DB014D
S1130AD01B96FC93EE931A9784EC92E0938782879B
S1130AE020E030E040E050E085E393E043DFE09134
S1130AF0C103F091C2038091BB039091BC0395871D
S1130B0084871092BC031092BB036091BF03709161
S1130B10C00320E030E040E050E08AE393E02ADFC5
S1130B206091BF037091C0038091BB039091BC039B
S1130B30FB019583848320E030E040E050E08FE3C4
S1130B4093E018DF6091BF037091C0038091BB03F1
S1130B509091BC03DB0117969C938E93169720E02B
S1130B6030E040E050E086E493E004DFE091BF032E
S1130B70F091C0038091BB039091BC03918780875F
S1130B80DF91CF910895CF93DF93EC01CB012097B0
S1130B9049F060910E0170910F01FAD0888199811A
S1130BA04DD107C08BE493E09F938F9398D40F901B
S1130BB00F90DF91CF910895CF92DF92EF92FF9241
S1130BC00F931F93CF93DF936C017B01FED080E0E2
S1130BD090E08BD11E141F047CF486010C5F1F4F20
S1130BE0C0E0D0E0BE01F801819191918F01CBDF8B
S1130BF02196CE15DF05B1F7D092BE03C092BD0396
S1130C001092B9031092B803F601848195819093F0
S1130C10BC038093BB03DF91CF911F910F91FF9091
S1130C20EF90DF90CF9008952091B8033091B903ED
S1130C3012161306BCF4C90101979093B90380936B
S1130C40B803E091BD03F091BE032F5F3F4F220F25
S1130C50331FE20FF31F208131813093BC032093B3
S1130C60BB0343C10895E091BD03F091BE032091FD
S1130C70B8033091B903828193810197281739070A
S1130C80A4F4C90101969093B9038093B8032D5F2E
S1130C903F4F220F331FE20FF31F20813181309326
S1130CA0BC032093BB0321C108951092B903109291
S1130CB0B803848195819093BC038093BB0380E047
S1130CC090E013C10895E091BD03F091BE038489BF
S1130CD09589009721F0FC01628173816DCF08959D
S1130CE08091BD039091BE03FC016281738164DF36
S1130CF018C00895E091BB03F091BC0386819781ED
S1130D00892B39F084819581FC016281738154CFF0
S1130D1008950284F385E02D309711F00995E0CF12
S1130D2008958091B8039091B903DFD08091BA03FC
S1130D308823F9F0D6DD823071F018F4813049F05F
S1130D400BC0833021F0843039F4BDDF05C0D2DF1D
S1130D5003C06ADF01C087DF2FEF8FE794E02150E3
S1130D6080409040E1F700C000008091BA038111F7
S1130D70E1CF089581E08093BA0333DE8091C1030B
S1130D809091C203FC016281738116DFCACF08957A
S1130D90262F2F7075956795759567957595679549
S1130DA075956795605F80559F4FE0911201F091B2
S1130DB013018083E0911201F09113012083E091EB
S1130DC01201F0911301608308951F93CF93DF9371
S1130DD0C1E0D0E080E090E010E060E070E0D8DFB7
S1130DE0812FE0911001F091110110828F5F803802
S1130DF0C1F78C2F9D2F2196C930D10571F7DF9152
S1130E00CF911F9108958052282F30E0220F331F75
S1130E10220F331F220F331F80E090E020593F4FF1
S1130E20F901E80FF91FE491A0911001B0911101AB
S1130E30EC9301968830910599F708951F93CF9309
S1130E40DF93EC0110E006C0FE01E80FF91F80817A
S1130E50DADF1F5F812F90E0FE0101900020E9F7A7
S1130E603197EC1BFD0B8E179F0770F3DF91CF9129
S1130E701F910895E0911001F091110188E18083A0
S1130E80E0911001F09111018083E0911001F09143
S1130E9011019EE79083E0911001F09111019CE310
S1130EA09083E0911001F0911101808308951F93C4
S1130EB0CF93DF93C1E0D0E080E090E010E060E009
S1130EC070E066DF812FE0911001F0911101108232
S1130ED08F5F8530C1F78C2F9D2F2196C930D105A6
S1130EE071F7DF91CF911F910895CF93DF93EC01B8
S1130EF0DEDF60E070E0CE014BDFBCDFDF91CF913D
S1130F000895E0911201F091130191E89083E0912A
S1130F101201F091130180830895CF93C0E08C2FC8
S1130F20F0DF83E393E10197F1F7CF5FCF3FB9F7A8
S1130F30CF9108952FEF8FEF92E0215080409040A1
S1130F40E1F700C000C080E0DCDF64E070E082E034
S1130F5090E01EDF8BE593E071DFDFDF2FEF8FE79B
S1130F6097E0215080409040E1F700C0000080E00D
S1130F70C8DF6CE170E084E090E00ADF89E693E08A
S1130F805DDF68E170E085E090E002DF81E793E0F7
S1130F9055DFC3DF2FEF8FE797E02150804090406B
S1130FA0E1F700C0000011DF80E0ABDF6CE170E02E
S1130FB083E090E0EDDE8AE793E040DFAEDF2FEFE1
S1130FC08FEF9EE0215080409040E1F700C0000088
S1130FD0FCDE80E596CF0895E0911201F0911301B3
S1130FE08EEA8083E0911201F091130181EA8083FB
S1130FF0E0911201F09113018AED8083E0911201D6
S1131000F091130182E18083E0911201F0911301C8
S113101088EC8083E0911201F091130188EA8083C7
S1131020E0911201F09113018FE38083E0911201AA
S1131030F091130185ED8083E0911201F091130189
S113104080E88083E0911201F091130181E88083AC
S1131050E0911201F091130180E58083E091120187
S1131060F091130189ED8083E0911201F091130155
S113107081E28083E0911201F091130180E2808388
S1131080E0911201F091130182E08083E09112015A
S1131090F09113018BED8083E0911201F091130123
S11310A080E38083E0911201F09113018DEA808343
S11310B0E0911201F09113011082E0911201F0917C
S11310C0130184EA8083E0911201F091130186EA0E
S11310D08083E0911201F09113018FEA808375DE21
S11310E029CF08951092C5031092C6031092C70326
S11310F01092C803089582E893E002D280EB87BB84
S113110080E58DB9C49A08958FB9779BFECF089571
S1131110811101C0C4980895811101C0C49A089531
S11311205D9BFECF8CB908955F9BFECF8CB1089573
S1131130EF92FF920F931F93BB27A12F902F8F2D18
S113114080BDE9B888E18AB9579A8EE880BD64E920
S113115078E080E998E079D11F910F91FF90EF90AA
S113116008959B01823069F018F4813031F015C084
S1131170833059F0843069F010C064E0C901EEC9CD
S1131180089565E0C901EAC9089566E0C901E6C9A0
S1131190089567E0C901E2C9089585E993E09F9342
S11311A08F939DD10F900F900895D5C9089597FB03
S11311B0072E16F4009406D077FD08D00BD007FC58
S11311C005D03EF4909581959F4F08957095619553
S11311D07F4F0895AA1BBB1B51E107C0AA1FBB1F69
S11311E0A617B70710F0A61BB70B881F991F5A95AF
S11311F0A9F780959095BC01CD010895CF93DF9315
S11312008230910510F482E090E0E091CB03F091FC
S1131210CC0320E030E0A0E0B0E0309739F1408129
S1131220518148175907B8F04817590771F482815A
S11312309381109729F013969C938E9312972CC048
S11312409093CC038093CB0327C02115310531F053
S11312504217530718F0A901DB0101C0EF019A01FD
S1131260BD01DF010280F381E02DD7CF21153105C7
S1131270F9F0281B390B2430310580F48A819B81D5
S11312806115710521F0FB019383828304C090935F
S1131290CC038093CB03FE01329644C0FE01E20FDF
S11312A0F31F8193919322503109398328833AC0E3
S11312B02091C9033091CA03232B41F420910201E8
S11312C0309103013093CA032093C9032091000194
S11312D0309101012115310541F42DB73EB74091FC
S11312E0040150910501241B350BE091C903F091D1
S11312F0CA03E217F307A0F42E1B3F0B2817390784
S113130078F0AC014E5F5F4F2417350748F04E0F5D
S11313105F1F5093CA034093C9038193919302C002
S1131320E0E0F0E0CF01DF91CF910895CF93DF9318
S1131330009709F487C0FC01329713821282C0918E
S1131340CB03D091CC03209781F420813181280FE5
S1131350391F8091C9039091CA038217930779F5C5
S1131360F093CA03E093C9036DC0DE0120E030E0CE
S1131370AE17BF0750F412964D915C9113979D01DF
S11313804115510509F1DA01F3CFB383A2834081FA
S11313905181840F951F8A179B0771F48D919C913D
S11313A01197840F951F02969183808312968D91D5
S11313B09C911397938382832115310529F4F0932B
S11313C0CC03E093CB033EC0D9011396FC93EE9378
S11313D012974D915D91A40FB51FEA17FB0779F49D
S11313E080819181840F951F0296D90111969C9357
S11313F08E938281938113969C938E931297E0E04F
S1131400F0E08A819B81009719F0FE01EC01F9CF8D
S1131410CE01029628813981820F931F2091C9033E
S11314203091CA032817390769F4309729F41092C8
S1131430CC031092CB0302C013821282D093CA034E
S1131440C093C903DF91CF9108950F931F93CF9356
S1131450DF93EC018B01009731F46115710519F4E8
S113146080E090E037C06EE070E081E090E038D238
S1131470FC010097A9F380E883830115110571F03D
S11314801387028781E883838091CD039091CE03F3
S1131490892B21F4F093CE03E093CD032097C9F078
S11314A0D187C0878381826083838091CF039091A9
S11314B0D003892B71F4F093D003E093CF03809190
S11314C0D1039091D203892B21F4F093D203E093BA
S11314D0D103CF01DF91CF911F910F910895A0E027
S11314E0B0E0E4E7FAE0D3C2FE0135966191719170
S11314F0AF018091CF039091D0032FD0E2E0E3C2FB
S11315000F931F93CF93DF93E091CF03F091D00318
S1131510238121FF1BC0EC0100E010E08991609160
S1131520CF037091D003DB011896ED91FC911997CC
S1131530882331F00995892B89F30FEF1FEFEECF44
S11315408AE00995892B11F4C80102C08FEF9FEF3F
S1131550DF91CF911F910F910895ACE0B0E0E2EBE1
S1131560FAE085C27C016B018A01FC0117821682B4
S1131570838181FFB0C1CE0101964C01F7019381B3
S1131580F60193FD859193FF81916F01882309F4FE
S11315909EC1853239F493FD859193FF81916F014A
S11315A0853221F4B70190E0D2D1E8CF512C312C0F
S11315B020E02032A0F48B3269F030F4803259F00C
S11315C0833269F420612CC08D3239F0803339F4D0
S11315D0216026C02260246023C0286021C027FD2A
S11315E027C030ED380F3A3078F426FF06C0FAE011
S11315F05F9E300D1124532E13C08AE0389E300DA7
S11316001124332E20620CC08E3221F426FD5FC1DA
S1131610206406C08C3611F4206802C0883641F478
S1131620F60193FD859193FF81916F018111C1CFE3
S1131630982F9F7D9554933028F40C5F1F4FFFE340
S1131640F9830DC0833631F0833771F0833509F0A7
S113165057C021C0F801808189830E5F1F4F442445
S11316604394512C540114C03801F2E06F0E711CE4
S1131670F801A080B18026FF03C0652D70E002C090
S11316806FEF7FEFC5012C8757D12C0183012C8587
S11316902F77222E16C03801F2E06F0E711CF8016C
S11316A0A080B18026FF03C0652D70E002C06FEFFB
S11316B07FEFC5012C872ED12C012C852068222E8A
S11316C0830123FC19C0832D90E048165906A0F429
S11316D0B70180E290E03BD13A94F5CFF50127FCC5
S11316E0859127FE81915F01B70190E030D13110DF
S11316F03A94F1E04F1A51084114510479F7DEC0CD
S1131700843611F0893631F5F80127FF07C060816E
S11317107181828193810C5F1F4F08C06081718148
S1131720882777FD8095982F0E5F1F4F2F76B22E56
S113173097FF09C090958095709561957F4F8F4F65
S11317409F4F2068B22E2AE030E0A40132D1A82EA7
S1131750A81843C0853729F42F7EB22E2AE030E042
S113176025C0F22FF97FBF2E8F36C1F018F48835CB
S113177079F0ADC0803719F0883721F0A8C02F2F39
S11317802061B22EB4FE0DC08B2D8460B82E09C02A
S113179024FF0AC09F2F9660B92E06C028E030E0CF
S11317A005C020E130E002C020E132E0F801B7FEDC
S11317B007C060817181828193810C5F1F4F06C0D5
S11317C06081718180E090E00E5F1F4FA401F1D031
S11317D0A82EA818FB2DFF77BF2EB6FE0BC02B2D0D
S11317E02E7FA51450F4B4FE0AC0B2FC08C02B2D01
S11317F02E7E05C07A2C2B2D03C07A2C01C0752CAB
S113180024FF0DC0FE01EA0DF11D8081803311F427
S1131810297E09C022FF06C07394739404C0822FEA
S1131820867809F0739423FD12C020FF06C05A2C59
S1131830731418F4530C5718732C731460F4B70111
S113184080E290E02C8783D073942C85F6CF7314B8
S113185010F4371801C0312C24FF11C0B70180E304
S113186090E02C8774D02C8522FF16C021FF03C082
S113187088E590E002C088E790E0B7010CC0822FB1
S1131880867851F021FD02C080E201C08BE227FD81
S11318908DE2B70190E05BD0A51430F4B70180E38A
S11318A090E055D05A94F8CFAA94F401EA0DF11DB2
S11318B08081B70190E04BD0A110F6CF332009F41A
S11318C05DCEB70180E290E042D03A94F7CFF701C1
S11318D08681978102C08FEF9FEF2C96E2E1E3C0EF
S11318E00F931F93CF93DF93869F8001879F100DE3
S11318F0969F100D1124C80181DCEC01009721F0A2
S1131900A80160E070E011D0CE01DF91CF911F916A
S11319100F910895FC010590615070400110D8F7B3
S1131920809590958E0F9F1F0895DC0101C06D93E3
S113193041505040E0F70895FC016150704001901F
S11319400110D8F7809590958E0F9F1F08950F93DF
S11319501F93CF93DF93182F092FEB018B8181FD08
S113196003C08FEF9FEF20C082FF10C04E815F81C4
S11319702C813D81421753077CF4E881F9819F0152
S11319802F5F3F4F39832883108306C0E885F9858C
S1131990812F0995892B29F72E813F812F5F3F4F96
S11319A03F832E83812F902FDF91CF911F910F9131
S11319B00895FA01AA27283051F1203181F1E894E1
S11319C06F936E7F6E5F7F4F8F4F9F4FAF4FB1E02E
S11319D03ED0B4E03CD0670F781F891F9A1FA11D29
S11319E0680F791F8A1F911DA11D6A0F711D811D2A
S11319F0911DA11D20D009F468943F912AE0269FEF
S1131A0011243019305D3193DEF6CF010895462F4D
S1131A104770405D4193B3E00FD0C9F7F6CF462F2E
S1131A204F70405D4A3318F0495D31FD4052419397
S1131A3002D0A9F7EACFB4E0A69597958795779554
S1131A406795BA95C9F700976105710508959B01DB
S1131A50AC010A2E06945795479537952795BA9564
S1131A60C9F7620F731F841F951FA01D08952F923D
S1131A703F924F925F926F927F928F929F92AF921A
S1131A80BF92CF92DF92EF92FF920F931F93CF9367
S1131A90DF93CDB7DEB7CA1BDB0B0FB6F894DEBFFE
S1131AA00FBECDBF09942A88398848885F846E8424
S1131AB07D848C849B84AA84B984C884DF80EE806E
S1131AC0FD800C811B81AA81B981CE0FD11D0FB677
S1131AD0F894DEBF0FBECDBFED010895F894FFCF9B
S1131AE00000D30320000014808019C819C80A001C
S1131AF0001200105374617274696E67205352416E
S1131B004D20746573742E2E2E005352414D207453
S1131B1065737420636F6D706C6574656420776998
S1131B2074680A20253464206572726F72732069A8
S1131B306E20777269746520706861736520616EC8
S1131B40640A253464206572726F727320696E2092
S1131B5072657472696576616C2070686173650A78
S1131B600A0043454E544552004A4F593A202573C2
S1131B702C20583A25642C20593A2025640A006DFB
S1131B80616E75616C206D637020696E69742E2EB0
S1131B902E004D435032353135206973204E4F5459
S1131BA020696E20636F6E66696775726174696F10
S1131BB06E206D6F64652061667465722072657352
S1131BC06574212056616C75653A202564202825AA
S1131BD02378290A0066696E6973686564204D4339
S1131BE050323531355F696E6974004A4F5920525D
S1131BF049474854004D6F7665204A4F5920746F09
S1131C0020746865207269676874004A4F59204CD3
S1131C10454654004D6F7665204A4F5920746F2015
S1131C20746865206C656674004A4F5920555000ED
S1131C304D6F7665204A4F59207570004A4F5920E0
S1131C40444F574E004D6F7665204A4F5920646FBC
S1131C50776E0063616C523A2025642C2063616CBA
S1131C604C3A2025642C2063616C55703A25642C11
S1131C702063616C446F776E3A25640A0043414CDB
S1131C80494220444F4E450043616C69627261745D
S1131C90696F6E20646F6E652E2E206E65772056F8
S1131CA04D3A20256420484D3A25640A0053544196
S1131CB05254002A005955504949203A2900437288
S1131CC0656174696E67206E657874206974656DEA
S1131CD02E2E2E004D61696E4D656E750044696649
S1131CE0666963756C74794D656E75004E65772011
S1131CF047616D6500446966666963756C74790053
S1131D004869676873636F726573004A6F7920432B
S1131D10616C696200496E666F0065617379006D7C
S1131D20656469756D0068617264004E554C4C20A1
S1131D30706F696E7465722E2E2E0047726F757007
S1131D4020343620536F66740070726F75646C793A
S1131D500070726573656E747300464946412031A4
S1131D6038000A0A496E697469616C697A696E6738
S1131D70205350490050726F626C656D732077690F
S10D1D807468204144432E2E2E0007
S9030000FC
