S013000050726F6A6563744D61696E2E73726563B5
S1130000C2C1000041C200004EC200005BC2000039
S1130010D6C10000D4C10000D2C10000D0C100008C
S1130020CEC10000CCC10000CAC10000C8C100009C
S1130030C6C10000C4C10000C2C10000C0C10000AC
S113004050C20000BCC10000BAC10000B9C1000028
S1130050B6C10000B4C10000B2C10000B0C10000CC
S1130060AEC10000ACC10000AAC10000A8C10000DC
S113007005A84CCDB2D44EB93836A9020C50B9916A
S11300808688083CA6AAAA2ABE000000803F000079
S113009000000000000000065F5F0600000000078B
S11300A0070007070000147F7F147F7F1400242EAD
S11300B06B6B3A120000466630180C666200307AA8
S11300C04F5D377A48000407030000000000001C5D
S11300D03E63410000000041633E1C000000082A0A
S11300E03E1C1C3E2A0808083E3E0808000000A0EA
S11300F0E06000000000080808080808000000008C
S11301006060000000006030180C060301003E7FB0
S1130110594D7F3E000042427F7F404000006273A1
S113012059496F660000226349497F360000181C54
S113013016137F7F1000276745457D3900003C7EFC
S11301404B4979300000036371190F070000367FB3
S113015049497F360000064F49693F1E00000000F0
S11301606C6C0000000000A0EC6C00000000081C97
S113017036634100000014141414141400000041E8
S113018063361C080000020351590F0600003E7F2D
S1130190415D5D1F1E007C7E13137E7C0000417F49
S11301A07F49497F36001C3E634141632200417F01
S11301B07F41637F1C00417F7F495D416300417F34
S11301C07F491D0103001C3E6341517372007F7F10
S11301D008087F7F000000417F7F410000003070ED
S11301E040417F3F0100417F7F081C776300417FCE
S11301F07F41406070007F7F060C067F7F007F7F19
S1130200060C187F7F001C3E6341633E1C00417F47
S11302107F49090F06001E3F21717F5E0000417F68
S11302207F19396F460026674D597B320000034120
S11302307F7F410300007F7F40407F7F00001F3F9E
S113024060603F1F00007F7F3018307F7F0063773E
S11302501C081C776300074F78784F07000067730A
S1130260594D47637100007F7F4141000000010345
S1130270060C183060000041417F7F000000080C2C
S11302800603060C08008080808080808080000047
S1130290030704000000207454543C784000413F9C
S11302A07F44447C3800387C44446C280000307817
S11302B048493F7F4000387C54545C180000487E15
S11302C07F490302000098BCA4A4F87C0400417F89
S11302D07F08047C780000447D7D4000000040C419
S11302E084FD7D000000417F7F10386C4400004194
S11302F07F7F400000007C7C0C180C7C78007C7CA8
S113030004047C780000387C44447C38000084FC7D
S1130310F8A4243C1800183C24A4F8FC8400447C71
S113032078441C180000485C5454742400000004F1
S11303303E7F442400003C7C40403C7C40001C3C0C
S113034060603C1C00003C7C6030607C3C00446C81
S11303503810386C44009CBCA0A0FC7C00004C64A9
S1130360745C4C64000008083E77414100000000C2
S11303700077770000004141773E0808000002033F
S113038001030203010011241FBECFEFD4E0DEBF3E
S1130390CDBF12E0A0E0B1E0E0EFFFE202C00590C3
S11303A00D92A83DB107D9F723E0A8EDB2E001C052
S11303B01D92A233B207E1F705D10C94F61720CEB3
S11303C01F920F920FB60F9211242F933F934F93C6
S11303D05F936F937F938F939F93AF93BF93EF93A9
S11303E0FF930E94BE1080930D039091E102992324
S11303F0F9F09091E002913061F018F0923089F0B8
S113040017C080930A031092E10291E09093DF02F7
S11304100FC080930B031092E10291E09093DF02EE
S113042007C080930C031092E10291E09093DF02E5
S11304308F3F31F481E08093E1021092E00210C01A
S11304408E3F31F481E08093E1028093E00208C0A2
S11304508D3F31F481E08093E10282E08093E002F9
S113046081E08093E202FF91EF91BF91AF919F9160
S11304708F917F916F915F914F913F912F910F9049
S11304800FBE0F901F9018951F920F920FB60F92E8
S113049011248F9381E08093DE028F910F900FBE21
S11304A00F901F9018951F920F920FB60F92112460
S11304B08F9381E08093DD028F910F900FBE0F9098
S11304C01F9018951F920F920FB60F9211248F93BD
S11304D081E08093D9028F910F900FBE0F901F90EF
S11304E018951F920F920FB60F9211242F933F93DA
S11304F04F935F936F937F938F939F93AF93BF9328
S1130500EF93FF930E94BB0B8091D8028F5F80937F
S1130510D8028091D802823021F40E94250E1092D4
S1130520D802FF91EF91BF91AF919F918F917F91ED
S11305306F915F914F913F912F910F900FBE0F904C
S11305401F901895EF92FF920F931F931FE1E12ED6
S1130550F12C00E010E020E030E04BE450E060E8F3
S113056075E280E090E00E94C21089E491E00E946C
S1130570E91481E013D20E944D10AAD30E94BF0F48
S11305800E949910B2D567D08BB780648BBF85B7B2
S1130590826085BF85B78E7F85BF8B98939A8BB712
S11305A080688BBF85B7886085BF85B78B7F85BF23
S11305B032983A98B898C09878941F910F91FF9008
S11305C0EF900895BFDF4AE06FE18FE30E94EE0EE3
S11305D010920D0310920A0310920B0310920C0355
S11305E011E0C1E0D0E002E08091DD02882399F0BF
S11305F08091DA029091DB02892B69F4109308014F
S11306006CED72E088E091E0F8D7D093DB02C09300
S1130610DA021092DD028091DD02882359F0809184
S1130620DA029091DB02019729F41093080197D71D
S11306301092DD02809108018111D6CFC1D12CED39
S113064032E04AE053E06FED72E089ED92E03BD294
S113065000930801C9CFCF93DF93CDB7DEB743E052
S11306606BE280E090E04DD540E660E680E090E00B
S113067048D520E040E86FE080E090E05AD5DF9173
S1130680CF910895CF93DF93CDB7DEB727970FB6F9
S1130690F894DEBF0FBECDBF9E838D836F838F81A1
S11306A0882F90E0009709F04DC08D819E81FC0158
S11306B0808191819C838B838B818295880F807E3E
S11306C0482F62E380E090E01CD58B819C81969555
S11306D087959695879596958795482F61E380E051
S11306E090E00FD58D819E81FC018281482F65E3C6
S11306F080E090E006D586E389831A8215C08A815A
S1130700882F90E02D813E81820F931F0396FC0178
S11307108081482F698180E090E0F3D489818F5FE4
S113072089838A818F5F8A838D819E81FC01928176
S11307308A81891720F32FEF48E060E380E090E09E
S1130740F8D4000027960FB6F894DEBF0FBECDBFD5
S1130750DF91CF9108950F931F93CF93DF93CDB77C
S1130760DEB761970FB6F894DEBF0FBECDBF988B8E
S11307708F87698B8989882F90E08230910509F4ED
S113078057C08330910521F08130910509F09FC055
S113079061E680E090E08DD4882F90E09D838C8387
S11307A08C819D818C01000F111F000F111F000F00
S11307B0111F62E680E090E07CD482958695877074
S11307C0882F90E0802B912B9D838C8365E680E0BD
S11307D090E06FD48E8386E689831A8214C08A815E
S11307E0082F10E0698180E090E063D4282FCE01C7
S11307F00796800F911FFC01208389818F5F898375
S11308008A818F5F8A839E818A81891740F320E0E1
S113081041E06CE280E090E08CD48F8598892BE0F5
S1130820FE013496DC0101900D922A95E1F74FC048
S113083061E780E090E03DD4882F90E09D838C8335
S11308408C819D818C01000F111F000F111F000F5F
S1130850111F62E780E090E02CD482958695877022
S1130860882F90E0802B912B9D838C8365E780E01B
S113087090E01FD48E8386E789831B8214C08B810A
S1130880082F10E0698180E090E013D4282FCE0176
S11308900796800F911FFC01208389818F5F8983D4
S11308A08B818F5F8B839E818B81891740F320E03E
S11308B042E06CE280E090E03CD48F8598892BE0A4
S11308C0FE013496DC0101900D922A95E1F78F85A3
S11308D0988961960FB6F894DEBF0FBECDBFDF9145
S11308E0CF911F910F910895CF93DF9300D01F9262
S11308F0CDB7DEB79B838A838A819B81FC01828189
S1130900282F30E08A819B81FC0180819181432FD3
S11309104F932F93292F2F938F9389E191E0892F60
S11309208F9389E191E08F930E94D3140F900F90DD
S11309300F900F900F900F9019821FC08981882FFC
S113094090E02A813B81820F931F0396FC018081F2
S1130950882F90E0292F2F938F9385E491E0892F9E
S11309608F9385E491E08F930E94D3140F900F909E
S11309700F900F9089818F5F89838A819B81FC010D
S1130980928189818917D0F28AE090E00E94E41470
S11309900F900F900F90DF91CF91089595B79068C5
S11309A095BF96B7986096BF882319F080B7806288
S11309B080BF0895FC0180810895FC01608308953F
S11309C00F931F93CF93DF931092E8021092E702E4
S11309D083E08093E6029AD664E070E080E090E0E1
S11309E0ECD682E891E048D763E170E083E090E0E0
S11309F0E4D682E991E040D76AE470E083E090E0D5
S1130A00DCD688E991E038D763E270E085E090E0D5
S1130A10D4D68091E6021F928F930EE911E01F93C2
S1130A200F93C9EED2E0DF93CF930E941615CE0147
S1130A3023D76AE570E085E090E0BFD68091E802B4
S1130A408F938091E7028F931F930F93DF93CF933C
S1130A500E941615CE0110D78DB79EB70C960FB60F
S1130A60F8949EBF0FBE8DBFDF91CF911F910F9160
S1130A7008958091E60281508093E60263E270E07B
S1130A8085E090E09AD68091E6021F928F938EE9DA
S1130A9091E09F938F9389EE92E09F938F930E94AE
S1130AA0161589EE92E0E8D660E370E087E090E006
S1130AB084D681EA91E0E0D60F900F900F900F90CA
S1130AC00F900F9008952F923F924F925F926F92E2
S1130AD07F928F929F92AF92BF92CF92DF92EF92CA
S1130AE0FF920F931F93CF93DF93CDB7DEB7A097F9
S1130AF00FB6F894DEBF0FBECDBF8A0179010F2E69
S1130B00F9E18F2EF3E09F2EF02D0F2EF7E16F2EDB
S1130B10712CF02D382C98A28F8E432C1C0171C09F
S1130B2068D229833A834B835C836D837E838F836E
S1130B3098872093E5020E9488108093E4022A9B00
S1130B4003C05092E30202C01092E302EF8DF8A1B9
S1130B5071826082EBE1F3E080829091E502ECE146
S1130B60F3E09083EDE1F3E080838091E302EEE132
S1130B70F3E08083F8018081EFE1F3E08083F80102
S1130B808181F6018083F8018281F5018083F70178
S1130B908081E2E2F3E0808360E0842D992D72DDB0
S1130BA080E090EF0197F1F7F1018081882309F447
S1130BB03AC06CE280E07DD2837019F1682FCE01D7
S1130BC04496C9DD8BE0FE017496DE01199601900E
S1130BD00D928A95E1F7CE01099686DE89859A857C
S1130BE0459709F446DF89859A850D9741F460E3BA
S1130BF070E087E090E0E1D586EA91E03DD6F1012E
S1130C001082552453940F2EF7E08F2EF02D0F2EC3
S1130C10F0E2CF2EF3E0DF2EF02D0F2EF1E2AF2E17
S1130C20F3E0BF2EF02D2091E602211179CF6ED58D
S1130C306CE170E082E090E0C0D58BEA91E01CD6D4
S1130C406CE270E084E090E0B8D585EB91E014D6D6
S1130C506CE370E085E090E0B0D58091E8028F937A
S1130C608091E7028F938EE991E09F938F9389EEB1
S1130C7092E09F938F930E94161589EE92E0FCD523
S1130C80FFEF2FEF8DE1F15020408040E1F700C0ED
S1130C9000000F900F900F900F900F900F90A09660
S1130CA00FB6F894DEBF0FBECDBFDF91CF911F9179
S1130CB00F91FF90EF90DF90CF90BF90AF909F90F7
S1130CC08F907F906F905F904F903F902F900895FA
S1130CD01092EE021092ED021092F0021092EF02C6
S1130CE01092F2021092F1021092F4021092F302A6
S1130CF01092EC020895CF93DF9308D560E070E082
S1130D0080E090E05AD58BEB91E0B6D52FEF8FEFD2
S1130D1092E0215080409040E1F700C000C0C4E15F
S1130D20D0E0609106017091070182E00E941013E7
S1130D302FEF8FE191E0215080409040E1F700C017
S1130D40000080910601909107010E943813909150
S1130D500E01981710F480930E012197209709F73C
S1130D6060E070E081E090E028D585EC91E084D5E6
S1130D702FEF8FEF92E0215080409040E1F700C0C8
S1130D8000C0C4E1D0E0609106017091070182E0E7
S1130D900E9410132FEF8FE191E02150804090408A
S1130DA0E1F700C0000080910601909107010E94C4
S1130DB0381390910D01891710F480930D01219738
S1130DC0209709F760E070E082E090E0F6D48EECC2
S1130DD091E052D52FEF8FEF92E021508040904068
S1130DE0E1F700C000C0C4E1D0E060910601709159
S1130DF0070181E00E9410132FEF8FE191E0215051
S1130E0080409040E1F700C000008091060190917D
S1130E1007010E94381390910C01981710F48093E5
S1130E200C012197209709F760E070E083E090E0DF
S1130E30C4D485ED91E020D52FEF8FEF92E02150BF
S1130E4080409040E1F700C000C0C4E1D0E0609170
S1130E5006017091070181E00E9410132FEF8FE1CA
S1130E6091E0215080409040E1F700C00000809163
S1130E700601909107010E94381390910B01891784
S1130E8010F480930B012197209709F720910C010E
S1130E9080910B0130E0281B3109C90199230CF41E
S1130EA001969595879580930A0120910E01809172
S1130EB00D0130E0281B3109C90199230CF4019676
S1130EC0959587958093090160E070E084E090E057
S1130ED074D48EED91E0D0D42FEF8FEF9EE02150AB
S1130EE080409040E1F700C00000DF91CF91089569
S1130EF0883741F4609106017091070182E00C94F7
S1130F0010130895893739F460910601709107012F
S1130F1081E00C9410130895883709F58091060137
S1130F20909107010E94381390E09093EE02809311
S1130F30ED022091090160910901AC01421B5109A4
S1130F409A0144E6429FC001439F900D112470E032
S1130F500E943B137093F2026093F1020895893763
S1130F6001F580910601909107010E94381390E0E9
S1130F709093F0028093EF0220910A0160910A019C
S1130F80AC01421B51099A0144E6429FC001439FB0
S1130F90900D112470E00E943B137093F40260934F
S1130FA0F30208958091F1029091F2028B3591053C
S1130FB024F083E08093EC020895863A9F4F24F452
S1130FC084E08093EC0208958091F3029091F402FE
S1130FD08B35910524F081E08093EC020895863AE4
S1130FE09F4F24F482E08093EC0208951092EC0267
S1130FF00895CF93DF93CDB7DEB728970FB6F89453
S1131000DEBF0FBECDBF88E773DF82E68A95F1F7B6
S1131010000088E781DF89E76BDF82E68A95F1F7D4
S1131020000089E779DF88E0EDEEF2E0DE01119659
S113103001900D928A95E1F729813A814B815C8177
S11310406D817E818F81988528960FB6F894DEBFD6
S11310500FBECDBFDF91CF91089588E749DF82E6C7
S11310608A95F1F7000088E757DF89E741DF82E6D8
S11310708A95F1F7000089E74FDF94DF8091EC0255
S11310800895CF93C82F0E94B21080EC0E94A8103C
S11310908CEC94E00197F1F700C000008C2F0E94C3
S11310A0B6108FEF9FE20197F1F700C00000CF91D7
S11310B00895CF93DF93C82FD62F0E94B21083E0F8
S11310C00E94A8108CEC94E00197F1F700C0000096
S11310D08D2F0E94A8100E94AC10D82F8C2F0E9434
S11310E0B6108D2FDF91CF91089580E0CADF6EE0B6
S11310F080E0DFDF982F907E81E0903809F480E073
S113110008951F93CF93DF93C82F162FD42F0E94D7
S1131110B21082E00E94A810812F0E94A8108D2F87
S11311200E94A8108C2F0E94B610DF91CF911F91BE
S113113008950F931F93CF93DF93C82F062F142F77
S1131140D22F0E94B21085E00E94A810802F0E9426
S1131150A810812FFDD78D2FFBD78C2F0E94B6109E
S1131160DF91CF911F910F910895CF93DF93E09179
S1131170F702F091F8021082C9D26CE270E080E0CC
S113118090E01BD389EE91E077D360E070E083E0D8
S113119090E013D3C0E1D0E080E991E06DD380E02A
S11311A090EF0197F1F721972097B1F79FEF2FE781
S11311B087E0915020408040E1F700C000006CE1DE
S11311C070E085E090E0F9D28FEE91E055D39FEF87
S11311D02FEF8DE1915020408040E1F700C00000E6
S11311E0DF91CF910895CF92DF92EF92FF920F9308
S11311F01F93CF93DF938C017B016A01E9018091F6
S1131200FC029091FD02892B21F089EF91E00E946C
S1131210E9148CE090E00E946213FC019093FD02BB
S11312208093FC02F382E28211830083CD2B39F098
S1131230D582C48281E090E09783868304C01582BE
S1131240148217821682DF91CF911F910F91FF9024
S1131250EF90DF90CF900895CF93DF9386E190E0F5
S11312600E946213EC0190930303809302038FE0C6
S113127092E0998388831D8A1C8A84E090E09B8392
S11312808A8386E190E00E946213FC01909301033B
S11312908093000388E192E091838083D58BC48B93
S11312A083E090E09383828320E030E040E050E0EC
S11312B0BE0181E292E097DF609102037091030323
S11312C0E091FC02F091FD02DB011596FC93EE9394
S11312D0149785EB98E0938782874091000350919F
S11312E0010321E030E08AE292E07DDF60910203B5
S11312F0709103038091FC029091FD02FB0197839E
S1131300868320E030E040E050E08FE292E06BDF43
S11313106091020370910303E091FC02F091FD02DD
S1131320DB011996FC93EE9318978BE796E093876D
S1131330828720E030E040E050E089E392E053DF30
S1131340E091FC02F091FD02A0910203B09103032D
S11313501B96FC93EE931A9783E19BE09387828715
S11313601092FD021092FC0260910003709101033F
S113137020E030E040E050E08EE392E034DF609122
S1131380000370910103E091FC02F091FD02DB0186
S11313901596FC93EE931497CFE3DBE0D387C287D3
S11313A020E030E040E050E085E492E01CDF609112
S11313B0000370910103E091FC02F091FD02DB0156
S11313C01796FC93EE931697D387C28720E030E0FC
S11313D040E050E08EE492E006DFE091FC02F09100
S11313E0FD02A0910003B09101031996FC93EE93C2
S11313F01897D387C287DF91CF910895CF93DF9356
S1131400EC01CB01209739F06AE070E0D6D18881F5
S1131410998132D208C081E592E09F938F930E9414
S1131420D3140F900F90DF91CF910895CF92DF9254
S1131430EF92FF920F931F93CF93DF936C017B0185
S113144065D1F7D31E141F047CF486010C5F1F4F73
S1131450C0E0D0E0BE01F801819191918F01CEDF0F
S11314602196CE15DF05B1F7D092FF02C092FE029D
S11314701092FA021092F902F601848195819093F8
S1131480FD028093FC02DF91CF911F910F91FF9099
S1131490EF90DF90CF9008952091F9023091FA02F5
S11314A012161306BCF4C90101979093FA028093B3
S11314B0F902E091FE02F091FF022F5F3F4F220FED
S11314C0331FE20FF31F208131813093FD022093FB
S11314D0FC0259C20895E091FE02F091FF022091AE
S11314E0F9023091FA028281938101972817390712
S11314F0A4F4C90101969093FA028093F9022D5F36
S11315003F4F220F331FE20FF31F208131813093AD
S1131510FD022093FC0237C208951092FA02109241
S1131520F902848195819093FD028093FC0281D31A
S11315302FEF8FEF92E0215080409040E1F700C000
S113154000C00895E091FE02F091FF02848995891C
S1131550009721F0FC016281738168CF0895809126
S1131560FE029091FF02FC01628173815FDF21C062
S11315700895E091FC02F091FD0286819781892B08
S113158039F084819581FC01628173814FDF07C04A
S11315900284F385E02D309711F00995E0DFFFEF29
S11315A02FEF82E0F15020408040E1F700C000C0FE
S11315B008958091F9029091FA02E5D112C04DDDAF
S11315C0823071F018F4813049F00BC0833021F07F
S11315D0843039F4B7DF05C0CCDF03C05DDF01C060
S11315E07ADF8091FB02882339F0E091F702F091D1
S11315F0F8028081813019F308959093F802809362
S1131600F7027093F6026093F50281E08093FB0287
S113161023DE8091020390910303FC0162817381B4
S113162005DFC7CF089572D060E070E080E090E0FD
S1131630C4D081E692E020D160E070E082E090E0E6
S1131640BCD08AE692E018D160E070E083E090E0DC
S1131650B4D085E792E010D160E070E084E090E0DF
S1131660ACD08EE792E008D12FEF8FEF9CE22150AF
S113167080409040E1F700C000C071CF0895CF933F
S1131680DF93C091F902D091FA0240D060E070E09B
S113169080E090E092D088E892E0EED060E070E0E4
S11316A081E090E08AD0CE0199278130910571F0D4
S11316B082309105A9F0892BE1F4E091F502F091D3
S11316C0F60210828FE892E0D7D013C0E091F502C1
S11316D0F091F60281E0808386E992E0CDD009C0E2
S11316E0E091F502F091F60282E080838EE492E0CC
S11316F0C3D02FEF8FEF9EE0215080409040E1F760
S113170000C000002CDFDF91CF910895809111017A
S113171090911201892B89F080E090E0E09113010F
S1131720F0911401E80FF91F108201962091110124
S1131730309112018217930788F30895262F2F7092
S1131740759567957595679575956795759567957D
S1131750605F80559F4FE0911701F09118018083DD
S1131760E0911701F09118012083E0911701F091A5
S113177018016083089560E070E080E090E0DEDFAF
S11317808091110190911201892BB1F080E090E0D9
S1131790E0911301F0911401E80FF91F2081E09109
S11317A01501F091160120830196209111013091C9
S11317B012018217930760F308959695982F88274E
S11317C097958795680F791F809113019091140163
S11317D0680F791F7093100160930F010895CF93E0
S11317E0C62F682F70E08C2F86958695869590E09D
S11317F0E4DF80910F0190911001DCD8C77021E0E3
S113180030E0B90102C0660F771FCA95E2F7862B54
S1131810E0910F01F09110018083CF9108950F930F
S11318201F93CF93DF938052082F10E0000F111FF6
S1131830000F111F000F111FC0E0D0E002571F4F0F
S1131840F801EC0FFD1F649170E080910F019091FD
S11318501001B3D880910F019091100101969093DB
S1131860100180930F012196C830D10549F7DF910B
S1131870CF911F910F9108951F93CF93DF93EC01A4
S113188010E006C0FE01E80FF91F8081C8DF1F5F6A
S1131890812F90E0FE0101900020E9F73197EC1BC5
S11318A0FD0B8E179F0770F3DF91CF911F91089561
S11318B068E170E080910F01909110017ED88091D1
S11318C00F019091100101969093100180930F01E4
S11318D068E170E072D880910F0190911001019637
S11318E09093100180930F016EE770E066D88091A9
S11318F00F019091100101969093100180930F01B4
S11319006CE370E05AD880910F0190911001019618
S11319109093100180930F0168E170E04ED880919C
S11319200F019091100101969093100180930F0183
S113193008950F931F93CF93DF93C1E0D0E080E02D
S113194090E005E060E070E038DF102F60E070E0C8
S113195080910F019091100130D880910F019091E6
S1131960100101969093100180930F01115071F7AB
S11319708C2F9D2F2196C930D10521F7DF91CF916E
S11319801F910F9108952F923F924F925F926F9201
S11319907F928F929F92AF92BF92CF92DF92EF92FB
S11319A0FF920F931F93CF93DF93CDB7DEB72A97A0
S11319B00FB6F894DEBF0FBECDBF8C0110920503A5
S11319C010920403809106039091070308171907E6
S11319D039F4AFDF60E070E0C801EFDE69DF10C109
S11319E0801791070CF084C085E0FE013696DF0174
S11319F0282F1D922A95E9F73597DF011D928A95C4
S1131A00E9F76894552453F8412C312C642C732C39
S1131A105FC0B801882D992DD0DE80910F0190917F
S1131A2010010E94DA04F70181937F010F5F1F4FB9
S1131A300530110571F79E012A5F3F4F7901CE01F0
S1131A4001965C01062D172DB801882D992DB5DE60
S1131A50D5012D905D01F7018081881F8827881F9B
S1131A60622D70E0660F771F682B80910F019091B3
S1131A7010010E94DD04D7012D927D010F5F1F4FDD
S1131A800530110509F78C2C9D2CBFEFCB1ADB0A0E
S1131A90E9E0CE16D10439F09E012F5F3F4F790162
S1131AA0062D172DB6CF809104039091050301975D
S1131AB049F000C000C00000809104039091050328
S1131AC00197B9F740920403309205035A9431F018
S1131AD0CC24C394D12C842C932CDECF8091060388
S1131AE0909107030196909307038093060388C09F
S1131AF085E0FE013696DF01282F1D922A95E9F72D
S1131B003597DF011D928A95E9F76894332433F8F9
S1131B100F2EF7E06F2E712CF02D512C412C61C04B
S1131B209E2C8F2CB801C70148DE80910F01909143
S1131B3010010E94DA04F50181935F010F5F1F4FCA
S1131B400530110569F79E012A5F3F4F7901CE01E7
S1131B5001965C01052D142DB801892D982D2DDEDB
S1131B60D5012D905D01F7016081F0E86F9FB00110
S1131B701124822D8695682B80910F01909110017C
S1131B800E94DD04D7012D927D010F5F1F4F0530A8
S1131B90110511F7C601BFEFCB1ADB0AE9E0CE1637
S1131BA0D10451F09E012F5F3F4F5901052D142D93
S1131BB07301E81AF90AB4CF8091040390910503E4
S1131BC0019749F000C000C0000080910403909187
S1131BD005030197B9F710920403109205033A9490
S1131BE031F0CC24C394D12C80E090E0DBCF809101
S1131BF006039091070301979093070380930603CC
S1131C002A960FB6F894DEBF0FBECDBFDF91CF91F9
S1131C101F910F91FF90EF90DF90CF90BF90AF9006
S1131C209F908F907F906F905F904F903F902F90F8
S1131C3008957FDE60E070E080E090E0BEDD38DE95
S1131C401092070310920603089581E090E09093A8
S1131C5005038093040308957F928F929F92AF921D
S1131C60BF92CF92DF92EF92FF920F931F93CF9385
S1131C70DF93D82F162F042F722E84130AC0261731
S1131C8008F49EC0612F8D2FAADD1F5F7116D0F757
S1131C9097C0621708F04BC06E3059F0673291F468
S1131CA00F2EC12CD12CFCE8EF2EF1E4FF2EF02DE9
S1131CB011C00F2EC12CD12CF0EFEF2EF0ECFF2E23
S1131CC0F02D08C00F2EC12CD12CFCEDEF2EF1EC21
S1131CD0FF2EF02D0D1708F473C01BC06C2F70E09D
S1131CE080E090E007D3A501940165D2A701960195
S1131CF062D220E030E0A901C3D2811103C06C2F6D
S1131D008D2F6DDDCF5F7C1648F7DF5F0D1708F46C
S1131D1057C06D2F70E080E090E0ECD220E030E01E
S1131D2040E05FE3D0D34B015C01C12FD7CF6E30CD
S1131D3059F0683191F40F2E812C912CFEE5AF2ED1
S1131D40F2E4BF2EF02D11C00F2E812C912CFEE059
S1131D50AF2EF2E4BF2EF02D08C00F2E812C912C53
S1131D60F1EAAF2EF2E4BF2EF02D0D1748F11AC0A0
S1131D706C2F70E080E090E0BDD2A70196011BD2E9
S1131D80A501940118D220E030E0A90179D2811193
S1131D9003C06C2F8D2F23DDCF5F1C1748F7DF5F47
S1131DA00D1770F06D2F70E080E090E0A3D220E07A
S1131DB030E040E05FEB87D36B017C01C72DD8CFC7
S1131DC0DF91CF911F910F91FF90EF90DF90CF9013
S1131DD0BF90AF909F908F907F9008952F923F92E5
S1131DE04F925F926F927F928F929F92AF92BF9227
S1131DF0CF92DF92EF92FF920F931F93CF93DF93D3
S1131E0000D01F92CDB7DEB7082F362E442EE7DC64
S1131E10232C220C802F880F8983E8E0F0E0FB83D9
S1131E20EA83C12CD12C7601512C612C712CC30175
S1131E30B20160D24B015C01C701B60125D29B01FE
S1131E40AC01C501B4013FD322D2102F160FC70134
S1131E50B6019CD39B01AC01C501B40134D317D2A4
S1131E60B32CB60E6B2D812FBADCA22CAB186A2DC5
S1131E70812FB5DCF981F11B1F2F6B2D8F2FAFDC68
S1131E806A2D812FACDC2AEF38EC45E65EE3C7010E
S1131E90B60192D16B017C018A819B8101979B835E
S1131EA08A83892B09F0C3CF0F900F900F90DF9195
S1131EB0CF911F910F91FF90EF90DF90CF90BF9043
S1131EC0AF909F908F907F906F905F904F903F90D6
S1131ED02F90089527E24BE26EE08BE2BDDE27E20D
S1131EE043E56EE083E5B8DE21E34FE368E18FE389
S1131EF0B3DE24E04FE36EE08BE2AEDE28E14FE395
S1131F006EE08BE2A9DE21E34FE367E28BE2A4DE1D
S1131F102EE043E564E08FE39FDE2EE043E564E0DA
S1131F208FE39ADE2EE043E568E18FE395DE27E256
S1131F3043E561E38FE390DE6BE370E081E090E0E2
S1131F403CDC87E46CDC61E370E084E090E035DC49
S1131F5084E365DC65E470E084E090E02EDC86E3F5
S1131F605ECC08958FE992E034D5B4DF6CE070E084
S1131F7087E090E022DC84EB92E07ECC0895CF935E
S1131F80E0911701F09118018EEA8083E091170126
S1131F90F091180181EA8083E0911701F091180112
S1131FA08AED8083E0911701F091180182E180832A
S1131FB0E0911701F091180188EC8083E0911701FA
S1131FC0F091180188EA8083E0911701F0911801DB
S1131FD08FE38083E0911701F091180185ED8083F0
S1131FE0E0911701F091180180E88083E0911701D6
S1131FF0F091180181E88083E0911701F0911801B4
S1132000C0E5C083E0911701F091180189ED808348
S1132010E0911701F091180181E28083E0911701AA
S1132020F091180180E28083E0911701F09118018A
S11320301082E0911701F09118018BED8083E091FB
S11320401701F091180180E38083E0911701F0916A
S113205018018DEA8083E0911701F0911801108234
S1132060E0911701F091180184EA8083E09117014F
S1132070F091180186EA8083E0911701F09118012C
S11320808FEA808343DB6EDF83B78D6083BF89B7BC
S1132090816089BFC1BFCF9108951092240310922B
S11320A02503109226031092270308958C3639F4E1
S11320B0609106017091070183E0B2C208958237EE
S11320C031F4609106017091070184E0A9C208957A
S11320D08C3671F48091060190910701C9D28093E6
S11320E0250324E6829FC0011124909327030895B9
S11320F0823769F48091060190910701B9D28093E7
S1132100240324E6829FC00111249093260308959A
S113211082E7CCDF82E68A95F1F7000082E7D8DF18
S113212060912403709125038091260390912703E5
S113213008958BB780628BBF86B78E7F86BF87B3C7
S1132140806B87BB80E58DB981E08EB9C49A089510
S11321508FB9779BFECF08958FEFFADF779BFECF81
S11321608FB10895811101C0C4980895811101C0EF
S1132170C49A08955D9BFECF8CB908955F9BFECFF2
S11321808CB10895EF92FF920F931F93BB27A12F59
S1132190902F8F2D80BDE9B888E18AB9579A8EE8CF
S11321A080BD6EEB70E18AEB90E1B3D31F910F9188
S11321B0FF90EF9008955058BB27AA270ED038C13E
S11321C001D130F006D120F031F49F3F11F41EF418
S11321D0F6C00EF4E095E7FBECC0E92F4BD180F399
S11321E0BA17620773078407950718F071F49EF510
S11321F063C10EF4E0950B2EBA2FA02D0B01B9018B
S113220090010C01CA01A0011124FF27591B99F068
S1132210593F50F4503E68F11A16F040A22F232F74
S1132220342F4427585FF3CF469537952795A795C4
S1132230F0405395C9F77EF41F16BA0B620B730B6B
S1132240840BBAF09150A1F0FF0FBB1F661F771FDC
S1132250881FC2F70EC0BA0F621F731F841F48F491
S1132260879577956795B795F7959E3F08F0B3CF17
S11322709395880F08F09927EE0F97958795089501
S113228074D008F481E00895ACD0E395E2C004D0A2
S11322906894B11112C10895F5D088F09F5790F059
S11322A0B92F9927B751A0F0D1F0660F771F881F77
S11322B0991F1AF0BA95C9F712C0B13081F0FCD059
S11322C0B1E00895F9C0672F782F8827B85F39F0F7
S11322D0B93FCCF3869577956795B395D9F73EF4D6
S11322E090958095709561957F4F8F4F9F4F08957E
S11322F0E89409C097FB3EF490958095709561959C
S11323007F4F8F4F9F4F9923A9F0F92F96E9BB2751
S11323109395F695879577956795B795F111F8CFCD
S1132320FAF4BB0F11F460FF1BC06F5F7F4F8F4F38
S11323309F4F16C0882311F096E911C0772321F02E
S11323409EE8872F762F05C0662371F096E8862FC6
S113235070E060E02AF09A95660F771F881FDAF71D
S1132360880F9695879597F90895990F0008550F4A
S1132370AA0BE0E8FEEF16161706E807F907C0F007
S113238012161306E407F50798F0621B730B840B0F
S1132390950B39F40A2661F0232B242B252B21F4E9
S11323A008950A2609F4A140A6958FEF811D811D89
S11323B0089597F99F6780E870E060E008959FEFC3
S11323C080EC089500240A941616170618060906C8
S11323D0089500240A941216130614060506089597
S11323E0EECF50D0E8F3E894E0E0BB279F57F0F03D
S11323F02AED3FE049EC06C0EE0FBB0F661F771FC6
S1132400881F28F0B23A62077307840728F0B25A8B
S1132410620B730B840BE3959A9572F7803830F452
S11324209A95BB0F661F771F881FD2F79048B6C0D6
S1132430092E0394000C11F4882352F0BB0F40F4CE
S1132440BF2B11F460FF04C06F5F7F4F8F4F9F4F0E
S11324500895EF93E0FF06C0A2EA2AED3FE049ECBD
S11324605FEBBBDEE5DF0F90039401FC9058E0E7DF
S1132470F0E0A0C057FD9058440F551F59F05F3F3E
S113248071F04795880F97FB991F61F09F3F79F092
S113249087950895121613061406551FF2CF469514
S11324A0F1DF08C0161617061806991FF1CF869596
S11324B07105610508940895E894BB27662777277A
S11324C0CB0197F908950BD0B3CF7CDF28F081DFDF
S11324D018F0952309F06DCF72CF1124EECFCADF27
S11324E0A0F3959FD1F3950F50E0551F629FF00123
S11324F0729FBB27F00DB11D639FAA27F00DB11D7C
S1132500AA1F649F6627B00DA11D661F829F222704
S1132510B00DA11D621F739FB00DA11D621F839F8B
S1132520A00D611D221F749F3327A00D611D231F61
S1132530849F600D211D822F762F6A2F11249F57AF
S113254050408AF0E1F088234AF0EE0FFF1FBB1FD2
S1132550661F771F881F91505040A9F79E3F510571
S113256070F027CFAACF5F3FECF3983EDCF386955B
S113257077956795B795F795E7959F5FC1F7FE2B1C
S1132580880F911D9695879597F908959F9329DF54
S11325900F9007FCEE5F5DCF9F3F31F0915020F428
S11325A0879577956795B795880F911D969587952B
S11325B097F908959F938F937F936F93FF93EF936E
S11325C09B01AC0180DFEF91FF9105D02F913F91EA
S11325D04F915F9178CFDF93CF931F930F93FF9227
S11325E0EF92DF927B018C01689405C0DA2EEF0133
S11325F076DFFE01E894A591259135914591559199
S1132600AEF3EF01EADDFE019701A801DA9479F750
S1132610DF90EF90FF900F911F91CF91DF9108957C
S11326209B01823071F018F4813031F019C083308D
S113263069F0843081F014C064E0C9010C94DD04B5
S1132640089565E0C9010C94DD04089566E0C901AC
S11326500C94DD04089567E0C9010C94DD04089529
S113266082EC92E09F938F939ED10F900F900895E8
S11326700C94DA04089597FB072E16F4009406D000
S113268077FD08D00BD007FC05D03EF490958195DA
S11326909F4F0895709561957F4F0895AA1BBB1BAA
S11326A051E107C0AA1FBB1FA617B70710F0A61B4E
S11326B0B70B881F991F5A95A9F780959095BC016F
S11326C0CD010895CF93DF938230910510F482E019
S11326D090E0E0912A03F0912B0320E030E0A0E0A9
S11326E0B0E0309739F14081518148175907B8F06B
S11326F04817590771F482819381109729F0139632
S11327009C938E9312972CC090932B0380932A034F
S113271027C02115310531F04217530718F0A901DC
S1132720DB0101C0EF019A01BD01DF010280F381E9
S1132730E02DD7CF21153105F9F0281B390B2430B2
S1132740310580F48A819B816115710521F0FB01BB
S11327509383828304C090932B0380932A03FE0106
S1132760329644C0FE01E20FF31F819391932250ED
S11327703109398328833AC02091280330912903F1
S1132780232B41F42091020130910301309329035A
S11327902093280320910001309101012115310576
S11327A041F42DB73EB74091040150910501241B1B
S11327B0350BE0912803F0912903E217F307A0F405
S11327C02E1B3F0B2817390778F0AC014E5F5F4F83
S11327D02417350748F04E0F5F1F50932903409389
S11327E028038193919302C0E0E0F0E0CF01DF91F0
S11327F0CF910895CF93DF93009709F487C0FC012C
S1132800329713821282C0912A03D0912B0320970E
S113281081F420813181280F391F80912803909100
S113282029038217930779F5F0932903E09328038A
S11328306DC0DE0120E030E0AE17BF0750F4129601
S11328404D915C9113979D014115510509F1DA01F0
S1132850F3CFB383A28340815181840F951F8A17DC
S11328609B0771F48D919C911197840F951F02968B
S11328709183808312968D919C9113979383828385
S11328802115310529F4F0932B03E0932A033EC06C
S1132890D9011396FC93EE9312974D915D91A40F79
S11328A0B51FEA17FB0779F480819181840F951F86
S11328B00296D90111969C938E93828193811396EB
S11328C09C938E931297E0E0F0E08A819B810097BD
S11328D019F0FE01EC01F9CFCE010296288139816D
S11328E0820F931F20912803309129032817390759
S11328F069F4309729F410922B0310922A0302C032
S113290013821282D0932903C0932803DF91CF91BD
S113291008950F931F93CF93DF93EC018B010097DE
S113292031F46115710519F480E090E037C06EE070
S113293070E081E090E05CD2FC010097A9F380E8AC
S113294083830115110571F01387028781E883835E
S113295080912C0390912D03892B21F4F0932D0366
S1132960E0932C032097C9F0D187C08783818260CC
S1132970838380912E0390912F03892B71F4F0931C
S11329802F03E0932E038091300390913103892B20
S113299021F4F0933103E0933003CF01DF91CF9121
S11329A01F910F910895A0E0B0E0E8EDF4E1F7C2C3
S11329B0FE01359661917191AF0180912E03909142
S11329C02F0353D0E2E007C360912E0370912F03CD
S11329D046C20F931F93CF93DF93E0912E03F091A0
S11329E02F03238121FF1BC0EC0100E010E089913B
S11329F060912E0370912F03DB011896ED91FC91E9
S1132A001997882331F00995892B89F30FEF1FEF6C
S1132A10EECF8AE00995892B11F4C80102C08FEF2B
S1132A209FEFDF91CF911F910F910895AEE0B0E039
S1132A30EBE1F5E1B2C20D891E8986E08C831A832D
S1132A4009838FEF9FE79E838D83AE01475E5F4FBF
S1132A506F89788DCE01019608D0EF81F885E00F5B
S1132A60F11F10822E96E4E0B4C2ACE0B0E0EAE3D9
S1132A70F5E185C27C016B018A01FC011782168293
S1132A80838181FFB0C1CE0101964C01F70193818E
S1132A90F60193FD859193FF81916F01882309F4D9
S1132AA09EC1853239F493FD859193FF81916F0125
S1132AB0853221F4B70190E0D2D1E8CF512C312CEA
S1132AC020E02032A0F48B3269F030F4803259F0E7
S1132AD0833269F420612CC08D3239F0803339F4AB
S1132AE0216026C02260246023C0286021C027FD05
S1132AF027C030ED380F3A3078F426FF06C0FAE0EC
S1132B005F9E300D1124532E13C08AE0389E300D81
S1132B101124332E20620CC08E3221F426FD5FC1B5
S1132B20206406C08C3611F4206802C0883641F453
S1132B30F60193FD859193FF81916F018111C1CFBE
S1132B40982F9F7D9554933028F40C5F1F4FFFE31B
S1132B50F9830DC0833631F0833771F0833509F082
S1132B6057C021C0F801808189830E5F1F4F442420
S1132B704394512C540114C03801F2E06F0E711CBF
S1132B80F801A080B18026FF03C0652D70E002C06B
S1132B906FEF7FEFC5012C8757D12C0183012C8562
S1132BA02F77222E16C03801F2E06F0E711CF80147
S1132BB0A080B18026FF03C0652D70E002C06FEFD6
S1132BC07FEFC5012C872ED12C012C852068222E65
S1132BD0830123FC19C0832D90E048165906A0F404
S1132BE0B70180E290E03BD13A94F5CFF50127FCA0
S1132BF0859127FE81915F01B70190E030D13110BA
S1132C003A94F1E04F1A51084114510479F7DEC0A7
S1132C10843611F0893631F5F80127FF07C0608149
S1132C207181828193810C5F1F4F08C06081718123
S1132C30882777FD8095982F0E5F1F4F2F76B22E31
S1132C4097FF09C090958095709561957F4F8F4F40
S1132C509F4F2068B22E2AE030E0A40132D1A82E82
S1132C60A81843C0853729F42F7EB22E2AE030E01D
S1132C7025C0F22FF97FBF2E8F36C1F018F48835A6
S1132C8079F0ADC0803719F0883721F0A8C02F2F14
S1132C902061B22EB4FE0DC08B2D8460B82E09C005
S1132CA024FF0AC09F2F9660B92E06C028E030E0AA
S1132CB005C020E130E002C020E132E0F801B7FEB7
S1132CC007C060817181828193810C5F1F4F06C0B0
S1132CD06081718180E090E00E5F1F4FA401F1D00C
S1132CE0A82EA818FB2DFF77BF2EB6FE0BC02B2DE8
S1132CF02E7FA51450F4B4FE0AC0B2FC08C02B2DDC
S1132D002E7E05C07A2C2B2D03C07A2C01C0752C85
S1132D1024FF0DC0FE01EA0DF11D8081803311F402
S1132D20297E09C022FF06C07394739404C0822FC5
S1132D30867809F0739423FD12C020FF06C05A2C34
S1132D40731418F4530C5718732C731460F4B701EC
S1132D5080E290E02C8783D073942C85F6CF731493
S1132D6010F4371801C0312C24FF11C0B70180E3DF
S1132D7090E02C8774D02C8522FF16C021FF03C05D
S1132D8088E590E002C088E790E0B7010CC0822F8C
S1132D90867851F021FD02C080E201C08BE227FD5C
S1132DA08DE2B70190E05BD0A51430F4B70180E365
S1132DB090E055D05A94F8CFAA94F401EA0DF11D8D
S1132DC08081B70190E04BD0A110F6CF332009F4F5
S1132DD05DCEB70180E290E042D03A94F7CFF7019C
S1132DE08681978102C08FEF9FEF2C96E2E1E3C0CA
S1132DF00F931F93CF93DF93869F8001879F100DBE
S1132E00969F100D1124C8015DDCEC01009721F0A0
S1132E10A80160E070E011D0CE01DF91CF911F9145
S1132E200F910895FC010590615070400110D8F78E
S1132E30809590958E0F9F1F0895DC0101C06D93BE
S1132E4041505040E0F70895FC01615070400190FA
S1132E500110D8F7809590958E0F9F1F08950F93BA
S1132E601F93CF93DF93182F092FEB018B8181FDE3
S1132E7003C08FEF9FEF20C082FF10C04E815F819F
S1132E802C813D81421753077CF4E881F9819F012D
S1132E902F5F3F4F39832883108306C0E885F98567
S1132EA0812F0995892B29F72E813F812F5F3F4F71
S1132EB03F832E83812F902FDF91CF911F910F910C
S1132EC00895FA01AA27283051F1203181F1E894BC
S1132ED06F936E7F6E5F7F4F8F4F9F4FAF4FB1E009
S1132EE03ED0B4E03CD0670F781F891F9A1FA11D04
S1132EF0680F791F8A1F911DA11D6A0F711D811D05
S1132F00911DA11D20D009F468943F912AE0269FC9
S1132F1011243019305D3193DEF6CF010895462F28
S1132F204770405D4193B3E00FD0C9F7F6CF462F09
S1132F304F70405D4A3318F0495D31FD4052419372
S1132F4002D0A9F7EACFB4E0A6959795879577952F
S1132F506795BA95C9F700976105710508959B01B6
S1132F60AC010A2E06945795479537952795BA953F
S1132F70C9F7620F731F841F951FA01D08952F9218
S1132F803F924F925F926F927F928F929F92AF92F5
S1132F90BF92CF92DF92EF92FF920F931F93CF9342
S1132FA0DF93CDB7DEB7CA1BDB0B0FB6F894DEBFD9
S1132FB00FBECDBF09942A88398848885F846E84FF
S1132FC07D848C849B84AA84B984C884DF80EE8049
S1132FD0FD800C811B81AA81B981CE0FD11D0FB652
S1132FE0F894DEBF0FBECDBFED010895F894FFCF76
S1132FF0000032032000001402808019C819C800A0
S11330001C0004001C00120010726563656976657B
S113301064206D6573736167653A2069643A20259D
S1133020642C206C656E6774683A2025642C2064D7
S11330306174613A00202563000A3D3D3D3D3D3DFC
S11330403D3D3D3D3D3D3D3D3D3D3D3D3D3D3D3DAC
S1133050535441525455503D3D3D3D3D3D3D3D3D14
S11330603D3D3D3D3D3D3D3D3D3D3D3D3D3D3D3D8C
S11330703D002A2A2050696E672D506F6E67202A02
S11330802A004C697665730053636F72650025648A
S1133090005761697400202020200047414D4520DD
S11330A04F5645520053434F5245004A4F59205200
S11330B049474854004A4F59204C454654004A4F0A
S11330C059205550004A4F5920444F574E00434110
S11330D04C494220444F4E450053544152540047FA
S11330E04F4F44204C55434B004372656174696EE5
S11330F067206E657874206974656D2E2E2E004DE0
S113310061696E4D656E75004D6F64654D656E75D4
S1133110004E65772047616D65004D6F6465004A18
S11331206F792043616C696200496E666F00536C6D
S113313069646572004A6F79737469636B00504304
S1133140004E554C4C20706F696E7465722E2E2E95
S11331500047524F5550203436004F2E4B61737048
S11331606572656B004C2E486167656C65004A2E7C
S113317048616265726E7900494E5055543A005365
S11331804C49444552004A4F59535449434B0072E9
S1133190756E2073706C6173682073637265656EFD
S11331A02E2E2E0047726F757020343620536F66B2
S11331B0740050726F626C656D7320776974682057
S10B31C04144432E2E2E0000B1
S9030000FC
