S013000050726F6A6563744D61696E2E73726563B5
S1130000B3C1000032C200003FC200004CC2000075
S1130010C7C10000C5C10000C3C10000C1C10000C8
S1130020BFC10000BDC10000BBC10000B9C10000D8
S1130030B7C10000B5C10000B3C10000B1C10000E8
S1130040AFC10000ADC10000ABC10000AAC10000F7
S1130050A7C10000A5C10000A3C10000A1C1000008
S11300609FC100009DC100009BC1000099C1000018
S1130070000000000000000000065F5F06000000B2
S11300800007070007070000147F7F147F7F140018
S1130090242E6B6B3A120000466630180C66620020
S11300A0307A4F5D377A48000407030000000000EF
S11300B0001C3E63410000000041633E1C00000040
S11300C0082A3E1C1C3E2A0808083E3E0808000078
S11300D000A0E0600000000008080808080800000C
S11300E000006060000000006030180C060301008E
S11300F03E7F594D7F3E000042427F7F40400000DA
S1130100627359496F660000226349497F360000D3
S1130110181C16137F7F1000276745457D390000A2
S11301203C7E4B4979300000036371190F070000CE
S1130130367F49497F360000064F49693F1E00005B
S113014000006C6C0000000000A0EC6C00000000DB
S1130150081C366341000000141414141414000025
S1130160004163361C080000020351590F060000C9
S11301703E7F415D5D1F1E007C7E13137E7C00006C
S1130180417F7F49497F36001C3E63414163220021
S1130190417F7F41637F1C00417F7F495D41630054
S11301A0417F7F491D0103001C3E6341517372006E
S11301B07F7F08087F7F000000417F7F41000000AF
S11301C0307040417F3F0100417F7F081C7763000E
S11301D0417F7F41406070007F7F060C067F7F0077
S11301E07F7F060C187F7F001C3E6341633E1C002A
S11301F0417F7F49090F06001E3F21717F5E000089
S1130200417F7F19396F460026674D597B320000C4
S113021003417F7F410300007F7F40407F7F0000D8
S11302201F3F60603F1F00007F7F3018307F7F00DA
S113023063771C081C776300074F78784F0700002A
S11302406773594D47637100007F7F41410000008F
S11302500103060C183060000041417F7F0000005C
S1130260080C0603060C0800808080808080808053
S11302700000030704000000207454543C7840003C
S1130280413F7F44447C3800387C44446C2800005F
S1130290307848493F7F4000387C54545C18000053
S11302A0487E7F490302000098BCA4A4F87C0400A3
S11302B0417F7F08047C780000447D7D400000007D
S11302C040C484FD7D000000417F7F10386C4400F1
S11302D000417F7F400000007C7C0C180C7C78007F
S11302E07C7C04047C780000387C44447C38000026
S11302F084FCF8A4243C1800183C24A4F8FC8400D2
S1130300447C78441C180000485C54547424000055
S113031000043E7F442400003C7C40403C7C400080
S11303201C3C60603C1C00003C7C6030607C3C00F9
S1130330446C3810386C44009CBCA0A0FC7C0000C9
S11303404C64745C4C64000008083E774141000032
S113035000000077770000004141773E0808000064
S1130360020301030203010011241FBECFEFD4E0F6
S1130370DEBFCDBF13E0A0E0B1E0EAE7F4E202C0E3
S113038005900D92A232B107D9F723E0A2E2B3E0BF
S113039001C01D92A737B207E1F7D4D00C943B12E9
S11303A02FCE1F920F920FB60F9211242F933F93CB
S11303B04F935F936F937F938F939F93AF93BF9369
S11303C0EF93FF930E94380D8093520390912A0378
S11303D09923F9F090912903913061F018F092304B
S11303E089F017C080934F0310922A0391E09093F1
S11303F028030FC08093500310922A0391E0909336
S1130400280307C08093510310922A0391E090932C
S113041028038F3F31F481E080932A03109229034B
S113042010C08E3F31F481E080932A038093290326
S113043008C08D3F31F481E080932A0382E08093E9
S1130440290381E080932B03FF91EF91BF91AF913A
S11304509F918F917F916F915F914F913F912F91D8
S11304600F900FBE0F901F9018951F920F920FB60A
S11304700F9211248F9381E0809327038F910F9023
S11304800FBE0F901F9018951F920F920FB60F92E8
S113049011248F9381E0809326038F910F900FBED8
S11304A00F901F9018951F920F920FB60F92112460
S11304B08F9381E0809322038F910F900FBE0F9052
S11304C01F901895EF92FF920F931F931FE1E12E57
S11304D0F12C00E010E020E030E04BE450E060E874
S11304E075E280E090E00E943C0D83E491E00E947C
S11304F02E0F81E00ED20E94C70C9CD30E94410CA7
S11305000E94130D8ED562D08BB780648BBF85B7E4
S1130510826085BF85B78E7F85BF8B98939A8BB792
S113052080688BBF85B7886085BF85B78B7F85BFA3
S113053032983A98B898C09878941F910F91FF9088
S1130540EF900895BFDF1092520310924F03109260
S113055050031092510311E0C1E0D0E002E0809119
S11305602603882399F08091230390912403892BF7
S113057069F41093080165E273E088E091E0BBD769
S1130580D0932403C093230310922603809126035F
S1130590882359F08091230390912403019729F42F
S11305A01093080150D710922603809108018111FD
S11305B0D6CFC1D125E233E04FE453E068E273E0E3
S11305C082E293E03BD200930801C9CFCF93DF933B
S11305D0CDB7DEB743E06BE280E090E02ED540E695
S11305E060E680E090E029D520E040E86FE080E01C
S11305F090E036D5DF91CF910895CF93DF93CDB7B7
S1130600DEB727970FB6F894DEBF0FBECDBF9E832B
S11306108D836F838F81882F90E0009709F04DC000
S11306208D819E81FC01808191819C838B838B8150
S11306308295880F807E482F62E380E090E0FDD4AD
S11306408B819C81969587959695879596958795A8
S1130650482F61E380E090E0F0D48D819E81FC011D
S11306608281482F65E380E090E0E7D486E38983C4
S11306701A8215C08A81882F90E02D813E81820FD5
S1130680931F0396FC018081482F698180E090E0EC
S1130690D4D489818F5F89838A818F5F8A838D8196
S11306A09E81FC0192818A81891720F32FEF48E013
S11306B060E380E090E0D4D4000027960FB6F8946D
S11306C0DEBF0FBECDBFDF91CF9108950F931F936F
S11306D0CF93DF93CDB7DEB761970FB6F894DEBF43
S11306E00FBECDBF988B8F87698B8989882F90E047
S11306F08230910509F457C08330910521F081308F
S1130700910509F09FC061E680E090E073D4882FE2
S113071090E09D838C838C819D818C01000F111F3F
S1130720000F111F000F111F62E680E090E062D4F9
S1130730829586958770882F90E0802B912B9D83DE
S11307408C8365E680E090E055D48E8386E68983C9
S11307501A8214C08A81082F10E0698180E090E039
S113076049D4282FCE010796800F911FFC012083C6
S113077089818F5F89838A818F5F8A839E818A8141
S1130780891740F320E041E06CE280E090E068D417
S11307908F8598892BE0FE013496DC0101900D923F
S11307A02A95E1F74FC061E780E090E023D4882FD9
S11307B090E09D838C838C819D818C01000F111F9F
S11307C0000F111F000F111F62E780E090E012D4A8
S11307D0829586958770882F90E0802B912B9D833E
S11307E08C8365E780E090E005D48E8386E7898377
S11307F01B8214C08B81082F10E0698180E090E097
S1130800F9D3282FCE010796800F911FFC01208376
S113081089818F5F89838B818F5F8B839E818B819D
S1130820891740F320E042E06CE280E090E018D4C5
S11308308F8598892BE0FE013496DC0101900D929E
S11308402A95E1F78F85988961960FB6F894DEBFF3
S11308500FBECDBFDF91CF911F910F910895CF931C
S1130860DF9300D01F92CDB7DEB79B838A838A8142
S11308709B81FC018281282F30E08A819B81FC01CD
S113088080819181432F4F932F93292F2F938F93FF
S113089083E191E0892F8F9383E191E08F930E940C
S11308A0180F0F900F900F900F900F900F901982C8
S11308B01FC08981882F90E02A813B81820F931F7A
S11308C00396FC018081882F90E0292F2F938F932A
S11308D08FE391E0892F8F938FE391E08F930E94B0
S11308E0180F0F900F900F900F9089818F5F89835D
S11308F08A819B81FC01928189818917D0F28AE0E7
S113090090E00E94290F0F900F900F90DF91CF91EC
S1130910089595B7906895BF96B7986096BF882359
S113092019F080B7806280BF0895FC01808108952A
S1130930FC01608308950F931F93CF93DF9310926C
S113094031031092300383E080932F037AD664E05E
S113095070E080E090E058D68CE791E0ABD664E19B
S113096070E083E090E050D68CE891E0A3D66BE38E
S113097070E083E090E048D682E991E09BD664E29F
S113098070E084E090E040D680912F031F928F9313
S113099008E911E01F930F93C2E3D3E0DF93CF93F1
S11309A00E945B0FCE0186D66BE470E084E090E099
S11309B02BD6809131038F93809130038F931F93B3
S11309C00F93DF93CF930E945B0FCE0173D68DB745
S11309D09EB70C960FB6F8949EBF0FBE8DBFDF91E5
S11309E0CF911F910F91089580912F03815080938F
S11309F02F0364E270E084E090E006D680912F0338
S1130A001F928F9388E991E09F938F9382E393E001
S1130A109F938F930E945B0F82E393E04BD66EE12A
S1130A2070E087E090E0F0D58BE991E043D60F9039
S1130A300F900F900F900F900F9008952F923F9268
S1130A404F925F926F927F928F929F92AF92BF92DA
S1130A50CF92DF92EF92FF920F931F93CF93DF9386
S1130A60CDB7DEB7A0970FB6F894DEBF0FBECDBFEB
S1130A708A0179010F2EFEE58F2EF3E09F2EF02DD3
S1130A800F2EF7E16F2E712CF02D382C98A28F8E3B
S1130A90432C1C0170C051D229833A834B835C835D
S1130AA06D837E838F83988720932E03ABD78093A7
S1130AB02D032A9B03C050922C0302C010922C03D6
S1130AC0EF8DF8A171826082E0E6F3E0808290917C
S1130AD02E03E1E6F3E09083E2E6F3E08083809185
S1130AE02C03E3E6F3E08083F8018081E4E6F3E09D
S1130AF08083F8018181F6018083F8018281F50108
S1130B008083F7018081E7E6F3E0808360E0842D51
S1130B10992D73DD80E090EF0197F1F7F101808169
S1130B20882309F43AC06CE280E064D2837019F13E
S1130B30682FCE014496CADD8BE0FE017496DE0177
S1130B40199601900D928A95E1F7CE01099687DEF8
S1130B5089859A85459709F447DF89859A850D9794
S1130B6041F46EE170E087E090E04ED580EA91E0D8
S1130B70A1D5F1011082552453940F2EF7E08F2E46
S1130B80F02D0F2EF5E6CF2EF3E0DF2EF02D0F2EF5
S1130B90F6E6AF2EF3E0BF2EF02D20912F032111A6
S1130BA07ACF4FD565E070E083E090E02DD585EAFB
S1130BB091E080D565E070E085E090E025D58091F6
S1130BC031038F93809130038F9388E991E09F9351
S1130BD08F9382E393E09F938F930E945B0F82E352
S1130BE093E068D5FFEF2FEF8DE1F1502040804076
S1130BF0E1F700C000000F900F900F900F900F903E
S1130C000F90A0960FB6F894DEBF0FBECDBFDF9154
S1130C10CF911F910F91FF90EF90DF90CF90BF90F5
S1130C20AF909F908F907F906F905F904F903F9088
S1130C302F900895109237031092360310923903BF
S1130C401092380310923B0310923A0310923D0322
S1130C5010923C03109235030895CF93DF93F1D49F
S1130C6060E070E080E090E0CFD48FEA91E022D59C
S1130C702FEF8FEF92E0215080409040E1F700C0C9
S1130C8000C0C4E1D0E0609106017091070182E0E8
S1130C900CD72FEF8FE191E0215080409040E1F795
S1130CA000C00000809106019091070126D7909121
S1130CB00E01981710F480930E012197209719F7CD
S1130CC060E070E081E090E09FD489EB91E0F2D4A1
S1130CD02FEF8FEF92E0215080409040E1F700C069
S1130CE000C0C4E1D0E0609106017091070182E088
S1130CF0DCD62FEF8FE191E0215080409040E1F766
S1130D0000C000008091060190910701F6D69091F1
S1130D100D01891710F480930D012197209719F77D
S1130D2060E070E082E090E06FD482EC91E0C2D4A5
S1130D302FEF8FEF92E0215080409040E1F700C008
S1130D4000C0C4E1D0E0609106017091070181E028
S1130D50ACD62FEF8FE191E0215080409040E1F735
S1130D6000C000008091060190910701C6D69091C1
S1130D700C01981710F480930C012197209719F710
S1130D8060E070E083E090E03FD489EC91E092D49D
S1130D902FEF8FEF92E0215080409040E1F700C0A8
S1130DA000C0C4E1D0E0609106017091070181E0C8
S1130DB07CD62FEF8FE191E0215080409040E1F705
S1130DC000C00000809106019091070196D6909191
S1130DD00B01891710F480930B012197209719F7C1
S1130DE020910C0180910B0130E0281B3109C901CD
S1130DF099230CF401969595879580930A01209187
S1130E000E0180910D0130E0281B3109C90199239D
S1130E100CF40196959587958093090160E070E044
S1130E2084E090E0F1D382ED91E044D42FEF8FEF92
S1130E309EE0215080409040E1F700C00000DF9127
S1130E40CF910895883739F46091060170910701B4
S1130E5082E02BC60895893731F4609106017091C0
S1130E60070181E022C608958837F9F480910601CC
S1130E709091070142D690E0909337038093360314
S1130E802091090160910901AC01421B51099A01A9
S1130E9044E6429FC001439F900D112470E030D678
S1130EA070933B0360933A0308958937F1F480917A
S1130EB006019091070121D690E090933903809325
S1130EC0380320910A0160910A01AC01421B5109C7
S1130ED09A0144E6429FC001439F900D112470E0A3
S1130EE00FD670933D0360933C03089580913A03B9
S1130EF090913B038B35910524F083E08093350377
S1130F000895863A9F4F24F484E08093350308952E
S1130F1080913C0390913D038B35910524F081E051
S1130F20809335030895863A9F4F24F482E080939A
S1130F3035030895109235030895CF93DF93CDB709
S1130F40DEB728970FB6F894DEBF0FBECDBF88E793
S1130F5079DF82E68A95F1F7000088E785DF89E783
S1130F6071DF82E68A95F1F7000089E77DDF88E08A
S1130F70E6E3F3E0DE01119601900D928A95E1F724
S1130F8029813A814B815C816D817E818F81988535
S1130F9028960FB6F894DEBF0FBECDBFDF91CF9178
S1130FA0089588E74FDF82E68A95F1F7000088E725
S1130FB05BDF89E747DF82E68A95F1F7000089E77E
S1130FC053DF94DF809135030895CF93C82F44D520
S1130FD080EC38D58CEC94E00197F1F700C0000068
S1130FE08C2F3ED58FEF9FE20197F1F700C00000F0
S1130FF0CF910895CF93DF93C82FD62F2DD583E0BB
S113100021D58CEC94E00197F1F700C000008D2FFE
S113101019D51CD5D82F8C2F23D58D2FDF91CF91A7
S1131020089580E0D2DF6EE080E0E4DF982F907EC8
S113103081E0903809F480E008951F93CF93DF9303
S1131040C82F162FD42F08D582E0FCD4812FFAD4D0
S11310508D2FF8D48C2F04D5DF91CF911F91089553
S11310600F931F93CF93DF93C82F062F142FD22FE4
S1131070F3D485E0E7D4802FE5D4812FE3D48D2FFA
S1131080E1D48C2FEDD4DF91CF911F910F9108956E
S1131090E0914003F09141031082D3D260E070E00C
S11310A080E090E0B1D28DED91E004D32FEF8FE793
S11310B097E0215080409040E1F700C0000060E0DC
S11310C070E085E090E0A0D283EE91E0F3D22FEFC0
S11310D08FEF9CE2215080409040E1F700C000C0B7
S11310E00895CF92DF92EF92FF920F931F93CF93C5
S11310F0DF938C017B016A01E901809145039091A2
S11311004603892B19F08CEE91E0A8D68CE090E090
S11311101ED5FC019093460380934503F382E2823B
S113112011830083CD2B39F0D582C48281E090E015
S11311309783868304C01582148217821682DF91F6
S1131140CF911F910F91FF90EF90DF90CF90089572
S1131150CF93DF9386E190E0FAD4EC0190934C03B3
S113116080934B0382E092E0998388831D8A1C8AD2
S113117084E090E09B838A8386E190E0E8D4FC01DC
S113118090934A03809349038BE092E09183808398
S1131190D58BC48B83E090E09383828320E030E09E
S11311A040E050E0BE0184E192E09BDF60914B039C
S11311B070914C03E0914503F0914603DB011596D1
S11311C0FC93EE93149788E498E093878287409188
S11311D0490350914A0321E030E08DE192E081DF40
S11311E060914B0370914C038091450390914603A9
S11311F0FB019783868320E030E040E050E082E208
S113120092E06FDF60914B0370914C03E0914503D2
S1131210F0914603DB011996FC93EE9318978DE247
S113122096E09387828720E030E040E050E08CE253
S113123092E057DFE0914503F0914603A0914B0300
S1131240B0914C031B96FC93EE931A9781E99AE0B4
S11312509387828710924603109245036091490355
S113126070914A0320E030E040E050E081E392E0F6
S113127038DF6091490370914A03E0914503F0918E
S11312804603DB011596FC93EE931497CDEBDAE05D
S1131290D387C28720E030E040E050E088E392E06A
S11312A020DF6091490370914A03E0914503F09176
S11312B04603DB011796FC93EE931697D387C287F8
S11312C020E030E040E050E081E492E00ADFE09189
S11312D04503F0914603A0914903B0914A0319963E
S11312E0FC93EE931897D387C287DF91CF9108952B
S11312F0CF93DF93EC01CB01209739F06AE070E0E3
S113130083D188819981D6D107C084E492E09F93E8
S11313108F938ED50F900F90DF91CF910895CF9238
S1131320DF92EF92FF920F931F93CF93DF936C01A1
S11313307B0187D180E090E014D21E141F047CF45A
S113134086010C5F1F4FC0E0D0E0BE01F80181911F
S113135091918F01CDDF2196CE15DF05B1F7D092A3
S11313604803C09247031092430310924203F601CC
S1131370848195819093460380934503DF91CF91B7
S11313801F910F91FF90EF90DF90CF9008952091DF
S113139042033091430312161306BCF4C9010197AA
S11313A09093430380934203E0914703F0914803F1
S11313B02F5F3F4F220F331FE20FF31F2081318134
S11313C03093460320934503CCC10895E09147032D
S11313D0F091480320914203309143038281938129
S11313E0019728173907A4F4C90101969093430380
S11313F0809342032D5F3F4F220F331FE20FF31FF1
S1131400208131813093460320934503AAC1089576
S11314101092430310924203848195819093460372
S11314208093450380E090E09CC10895E0914703D8
S1131430F091480384899589009721F0FC01628129
S113144073816DCF08958091470390914803FC0107
S11314506281738164DF18C00895E0914503F091BF
S1131460460386819781892B39F084819581FC011B
S11314706281738154CF08950284F385E02D3097FF
S113148011F00995E0CF08958091420390914303B0
S113149068D180914403882369F1E0914003F0917D
S11314A041038081813031F57CDD823071F018F4A4
S11314B0813049F00BC0833021F0843039F4B6DF39
S11314C005C0CBDF03C063DF01C080DF2FEF8FE7F0
S11314D094E0215080409040E1F700C000008091EA
S11314E04403882339F0E0914003F0914103808163
S11314F08130D1F208959093410380934003709317
S11315003F0360933E0381E08093440321DE809196
S11315104B0390914C03FC016281738100DFB4CFD3
S113152008958FD060E070E080E090E06DD084E5B5
S113153092E0C0D060E070E082E090E065D08DE59C
S113154092E0B8D060E070E083E090E05DD088E69F
S113155092E0B0D060E070E084E090E055D081E7A4
S113156092E0A8D02FEF8FEF9CE221508040904072
S1131570E1F700C000C067CF0895CF93DF93C09117
S11315804203D09143035DD060E070E080E090E0DE
S11315903BD08BE792E08ED060E070E081E090E099
S11315A033D0CE0199278130910571F082309105B5
S11315B0A9F0892BE1F4E0913E03F0913F031082FE
S11315C082E892E077D013C0E0913E03F0913F03AC
S11315D081E0808389E892E06DD009C0E0913E0308
S11315E0F0913F0382E0808381E492E063D02FEFA7
S11315F08FEF9EE0215080409040E1F700C0000052
S113160022DFDF91CF910895262F2F70759567956E
S1131610759567957595679575956795605F805520
S11316209F4FE0911101F09112018083E09111012B
S1131630F09112012083E0911101F0911201608375
S113164008951F93CF93DF93C1E0D0E080E090E052
S113165010E060E070E0D8DF812FE0910F01F0919D
S1131660100110828F5F8038C1F78C2F9D2F219637
S1131670C930D10571F7DF91CF911F910895805240
S1131680282F30E0220F331F220F331F220F331F66
S113169080E090E020593F4FF901E80FF91FE491F1
S11316A0A0910F01B0911001EC930196883091053F
S11316B099F708951F93CF93DF93EC0110E006C0D0
S11316C0FE01E80FF91F8081DADF1F5F812F90E0B0
S11316D0FE0101900020E9F73197EC1BFD0B8E17FA
S11316E09F0770F3DF91CF911F910895E0910F014F
S11316F0F091100188E18083E0910F01F0911001D5
S11317008083E0910F01F09110019EE79083E091B6
S11317100F01F09110019CE39083E0910F01F0918F
S11317201001808308951F93CF93DF93C1E0D0E02D
S113173080E090E010E060E070E066DF812FE091EF
S11317400F01F091100110828F5F8530C1F78C2F4B
S11317509D2F2196C930D10571F7DF91CF911F914B
S11317600895CF93DF93EC01DEDF60E070E0CE01FB
S11317704BDFBCDFDF91CF910895E0911101F0912F
S1131780120191E89083E0911101F091120180839C
S11317900895CF93C0E08C2FF0DF83E393E10197AA
S11317A0F1F7CF5FCF3FB9F7CF91089582E992E087
S11317B055D380E0E2DF2FEF8FE797E021508040A0
S11317C09040E1F700C0000064E070E082E090E047
S11317D01BDF87EA92E06EDFDCDF2FEF8FE797E015
S11317E0215080409040E1F700C000002ADF80E0F3
S11317F0C4DF2FEF8FEF92E0215080409040E1F75B
S113180000C000C06CE170E083E090E0FDDE85EB99
S113181092E050DF68E170E084E090E0F5DE8DEB6B
S113182092E048DFB6DF2FEF8FE797E0215080404A
S11318309040E1F700C0000004DF80E09EDF2FEF5E
S11318408FEF92E0215080409040E1F700C000C04B
S11318506CE170E083E090E0D7DE86EC92E02ADF72
S113186098DF2FEF8FEF9EE0215080409040E1F70A
S113187000C00000E6DE80E580DF8EEC92E0EEC280
S11318800895E0911101F09112018EEA8083E091B4
S11318901101F091120181EA8083E0911101F0912C
S11318A012018AED8083E0911101F091120182E12D
S11318B08083E0911101F091120188EC8083E09122
S11318C01101F091120188EA8083E0911101F091F5
S11318D012018FE38083E0911101F091120185EDF3
S11318E08083E0911101F091120180E88083E091FE
S11318F01101F091120181E88083E0911101F091CE
S1131900120180E58083E0911101F091120189EDCB
S11319108083E0911101F091120181E28083E091D2
S11319201101F091120180E28083E0911101F091A4
S1131930120182E08083E0911101F09112018BED9C
S11319408083E0911101F091120180E38083E091A2
S11319501101F09112018DEA8083E0911101F0915F
S113196012011082E0911101F091120184EA808346
S1131970E0911101F091120186EA8083E091110156
S1131980F09112018FEA80835CDE10CF08951092EB
S1131990690310926A0310926B0310926C0308950A
S11319A08C3639F4609106017091070183E07DC0A3
S11319B00895823731F4609106017091070184E043
S11319C074C008958C3671F48091060190910701DA
S11319D094D080936A0324E6829FC00111249093DB
S11319E06C030895823769F4809106019091070190
S11319F084D08093690324E6829FC00111249093CC
S1131A006B03089582E7CCDF82E68A95F1F7000044
S1131A1082E7D8DF6091690370916A0380916B0358
S1131A2090916C0308958BB780628BBF86B78E7FCD
S1131A3086BF87B3806B87BB80E58DB981E08EB9A3
S1131A40C49A08958FB9779BFECF08958FEFFADF7C
S1131A50779BFECF8FB10895811101C0C49808957A
S1131A60811101C0C49A08955D9BFECF8CB908957D
S1131A705F9BFECF8CB10895EF92FF920F931F935B
S1131A80BB27A12F902F8F2D80BDE9B888E18AB99B
S1131A90579A8EE880BD68E37DE084E39DE07ED1C3
S1131AA01F910F91FF90EF9008959B01823071F088
S1131AB018F4813031F019C0833069F0843081F03A
S1131AC014C064E0C9010C949804089565E0C90148
S1131AD00C949804089566E0C9010C949804089540
S1131AE067E0C9010C94980408958DE093E09F93F6
S1131AF08F939ED10F900F9008950C9495040895A0
S1131B0097FB072E16F4009406D077FD08D00BD06F
S1131B1007FC05D03EF4909581959F4F08957095EC
S1131B2061957F4F0895AA1BBB1B51E107C0AA1FF3
S1131B30BB1FA617B70710F0A61BB70B881F991F6A
S1131B405A95A9F780959095BC01CD010895CF933E
S1131B50DF938230910510F482E090E0E0916F030E
S1131B60F091700320E030E0A0E0B0E0309739F16C
S1131B704081518148175907B8F04817590771F443
S1131B8082819381109729F013969C938E931297D8
S1131B902CC09093700380936F0327C021153105E7
S1131BA031F04217530718F0A901DB0101C0EF011E
S1131BB09A01BD01DF010280F381E02DD7CF211509
S1131BC03105F9F0281B390B2430310580F48A8162
S1131BD09B816115710521F0FB019383828304C00D
S1131BE09093700380936F03FE01329644C0FE010C
S1131BF0E20FF31F81939193225031093983288393
S1131C003AC020916D0330916E03232B41F420914F
S1131C1002013091030130936E0320936D032091F0
S1131C200001309101012115310541F42DB73EB772
S1131C304091040150910501241B350BE0916D0383
S1131C40F0916E03E217F307A0F42E1B3F0B281745
S1131C50390778F0AC014E5F5F4F2417350748F021
S1131C604E0F5F1F50936E0340936D0381939193C6
S1131C7002C0E0E0F0E0CF01DF91CF910895CF936F
S1131C80DF93009709F487C0FC0132971382128214
S1131C90C0916F03D0917003209781F4208131812A
S1131CA0280F391F80916D0390916E03821793075B
S1131CB079F5F0936E03E0936D036DC0DE0120E0CF
S1131CC030E0AE17BF0750F412964D915C91139714
S1131CD09D014115510509F1DA01F3CFB383A283C4
S1131CE040815181840F951F8A179B0771F48D9150
S1131CF09C911197840F951F02969183808312966D
S1131D008D919C911397938382832115310529F436
S1131D10F0937003E0936F033EC0D9011396FC93D4
S1131D20EE9312974D915D91A40FB51FEA17FB072F
S1131D3079F480819181840F951F0296D9011196BF
S1131D409C938E938281938113969C938E93129786
S1131D50E0E0F0E08A819B81009719F0FE01EC013C
S1131D60F9CFCE01029628813981820F931F2091E9
S1131D706D0330916E032817390769F4309729F4FD
S1131D801092700310926F0302C013821282D093D8
S1131D906E03C0936D03DF91CF9108950F931F934A
S1131DA0CF93DF93EC018B01009731F4611571053A
S1131DB019F480E090E037C06EE070E081E090E0DC
S1131DC05CD2FC010097A9F380E883830115110517
S1131DD071F01387028781E8838380917103909166
S1131DE07203892B21F4F0937203E093710320971B
S1131DF0C9F0D187C0878381826083838091730314
S1131E0090917403892B71F4F0937403E09373033A
S1131E108091750390917603892B21F4F0937603D6
S1131E20E0937503CF01DF91CF911F910F91089536
S1131E30A0E0B0E0EDE1FFE0F7C2FE01359661916C
S1131E407191AF01809173039091740353D0E2E0D8
S1131E5007C3609173037091740346C20F931F9379
S1131E60CF93DF93E0917303F0917403238121FFF7
S1131E701BC0EC0100E010E0899160917303709144
S1131E807403DB011896ED91FC911997882331F0C6
S1131E900995892B89F30FEF1FEFEECF8AE009959F
S1131EA0892B11F4C80102C08FEF9FEFDF91CF910E
S1131EB01F910F910895AEE0B0E0E0E6FFE0B2C2FA
S1131EC00D891E8986E08C831A8309838FEF9FE72F
S1131ED09E838D83AE01475E5F4F6F89788DCE01FF
S1131EE0019608D0EF81F885E00FF11F10822E963D
S1131EF0E4E0B4C2ACE0B0E0EFE7FFE085C27C010F
S1131F006B018A01FC0117821682838181FFB0C1B3
S1131F10CE0101964C01F7019381F60193FD859161
S1131F2093FF81916F01882309F49EC1853239F4AE
S1131F3093FD859193FF81916F01853221F4B7015F
S1131F4090E0D2D1E8CF512C312C20E02032A0F403
S1131F508B3269F030F4803259F0833269F42061B5
S1131F602CC08D3239F0803339F4216026C02260D0
S1131F70246023C0286021C027FD27C030ED380F1E
S1131F803A3078F426FF06C0FAE05F9E300D112443
S1131F90532E13C08AE0389E300D1124332E206254
S1131FA00CC08E3221F426FD5FC1206406C08C363D
S1131FB011F4206802C0883641F4F60193FD85913E
S1131FC093FF81916F018111C1CF982F9F7D95540B
S1131FD0933028F40C5F1F4FFFE3F9830DC0833661
S1131FE031F0833771F0833509F057C021C0F8010F
S1131FF0808189830E5F1F4F44244394512C5401E4
S113200014C03801F2E06F0E711CF801A080B18099
S113201026FF03C0652D70E002C06FEF7FEFC5019E
S11320202C8757D12C0183012C852F77222E16C0A3
S11320303801F2E06F0E711CF801A080B18026FF18
S113204003C0652D70E002C06FEF7FEFC5012C87E0
S11320502ED12C012C852068222E830123FC19C04B
S1132060832D90E048165906A0F4B70180E290E071
S11320703BD13A94F5CFF50127FC859127FE819158
S11320805F01B70190E030D131103A94F1E04F1A7A
S113209051084114510479F7DEC0843611F08936B1
S11320A031F5F80127FF07C0608171818281938136
S11320B00C5F1F4F08C060817181882777FD809570
S11320C0982F0E5F1F4F2F76B22E97FF09C0909561
S11320D08095709561957F4F8F4F9F4F2068B22EEA
S11320E02AE030E0A40132D1A82EA81843C08537D5
S11320F029F42F7EB22E2AE030E025C0F22FF97F9A
S1132100BF2E8F36C1F018F4883579F0ADC0803712
S113211019F0883721F0A8C02F2F2061B22EB4FE09
S11321200DC08B2D8460B82E09C024FF0AC09F2FD8
S11321309660B92E06C028E030E005C020E130E00A
S113214002C020E132E0F801B7FE07C0608171816E
S1132150828193810C5F1F4F06C06081718180E092
S113216090E00E5F1F4FA401F1D0A82EA818FB2DFC
S1132170FF77BF2EB6FE0BC02B2D2E7FA51450F477
S1132180B4FE0AC0B2FC08C02B2D2E7E05C07A2CEA
S11321902B2D03C07A2C01C0752C24FF0DC0FE0129
S11321A0EA0DF11D8081803311F4297E09C022FFDC
S11321B006C07394739404C0822F867809F07394D4
S11321C023FD12C020FF06C05A2C731418F4530CBC
S11321D05718732C731460F4B70180E290E02C87D5
S11321E083D073942C85F6CF731410F4371801C080
S11321F0312C24FF11C0B70180E390E02C8774D008
S11322002C8522FF16C021FF03C088E590E002C0A0
S113221088E790E0B7010CC0822F867851F021FD49
S113222002C080E201C08BE227FD8DE2B70190E09D
S11322305BD0A51430F4B70180E390E055D05A94F4
S1132240F8CFAA94F401EA0DF11D8081B70190E062
S11322504BD0A110F6CF332009F45DCEB70180E254
S113226090E042D03A94F7CFF7018681978102C07B
S11322708FEF9FEF2C96E2E1E3C00F931F93CF9370
S1132280DF93869F8001879F100D969F100D112468
S1132290C8015DDCEC01009721F0A80160E070E06A
S11322A011D0CE01DF91CF911F910F910895FC01C0
S11322B00590615070400110D8F7809590958E0F6D
S11322C09F1F0895DC0101C06D9341505040E0F719
S11322D00895FC016150704001900110D8F7809579
S11322E090958E0F9F1F08950F931F93CF93DF93A5
S11322F0182F092FEB018B8181FD03C08FEF9FEF16
S113230020C082FF10C04E815F812C813D81421725
S113231053077CF4E881F9819F012F5F3F4F398394
S11323202883108306C0E885F985812F0995892BB8
S113233029F72E813F812F5F3F4F3F832E83812FCB
S1132340902FDF91CF911F910F910895FA01AA2741
S1132350283051F1203181F1E8946F936E7F6E5FE4
S11323607F4F8F4F9F4FAF4FB1E03ED0B4E03CD092
S1132370670F781F891F9A1FA11D680F791F8A1F75
S1132380911DA11D6A0F711D811D911DA11D20D0DC
S113239009F468943F912AE0269F11243019305D96
S11323A03193DEF6CF010895462F4770405D419387
S11323B0B3E00FD0C9F7F6CF462F4F70405D4A33D4
S11323C018F0495D31FD4052419302D0A9F7EACF9C
S11323D0B4E0A6959795879577956795BA95C9F7CB
S11323E000976105710508959B01AC010A2E0694BE
S11323F05795479537952795BA95C9F7620F731F77
S1132400841F951FA01D08952F923F924F925F92B3
S11324106F927F928F929F92AF92BF92CF92DF92F0
S1132420EF92FF920F931F93CF93DF93CDB7DEB755
S1132430CA1BDB0B0FB6F894DEBF0FBECDBF0994E9
S11324402A88398848885F846E847D848C849B8440
S1132450AA84B984C884DF80EE80FD800C811B814E
S1132460AA81B981CE0FD11D0FB6F894DEBF0FBE7D
S10D2470CDBFED010895F894FFCFED
S113247A000077032000001402808019C819C800DC
S113248A1200107265636569766564206D657373FD
S113249A6167653A2069643A2025642C206C656E6C
S11324AA6774683A2025642C20646174613A0020B8
S11324BA2563000A3D3D3D3D3D3D3D3D3D3D3D3DA0
S11324CA3D3D3D3D3D3D3D3D3D3D535441525455B9
S11324DA503D3D3D3D3D3D3D3D3D3D3D3D3D3D3D0B
S11324EA3D3D3D3D3D3D3D3D3D3D3D002A2A20507B
S11324FA696E672D506F6E67202A2A004C697665CB
S113250A730053636F726500256400576169740030
S113251A202020200047414D45204F564552004A6D
S113252A4F59205249474854004A4F59204C45466E
S113253A54004A4F59205550004A4F5920444F5786
S113254A4E0043414C494220444F4E4500535441A6
S113255A5254005955504949203A29004372656139
S113256A74696E67206E657874206974656D2E2EA1
S113257A2E004D61696E4D656E75004D6F64654D33
S113258A656E75004E65772047616D65004D6F6411
S113259A65004A6F792043616C696200496E666F0F
S11325AA00536C69646572004A6F79737469636B6A
S11325BA005043004E554C4C20706F696E7465721E
S11325CA2E2E2E0047524F5550203436004F2E4B94
S11325DA6173706572656B004C2E486167656C6542
S11325EA004A2E48616265726E7900494E5055540C
S11325FA3A00534C49444552004A4F5953544943AB
S113260A4B0072756E2073706C6173682073637209
S113261A65656E2E2E2E0047726F75702034362033
S113262A536F66740070726F75646C7900707265AA
S113263A73656E74730046494641203138007370DD
S113264A6C6173682073637265656E20646F6E656E
S113265A2E2E2E006C657420746865206172726F68
S113266A777320666C792E2E2E006172726F7773DF
S113267A2061726520646F6E652E2E2E0050726F73
S113268A626C656D732077697468204144432E2E09
S105269A2E000C
S9030000FC
