S013000050726F6A6563744D61696E2E73726563B5
S1130000B3C10000E0C10000EDC10000C9C100009F
S1130010C7C10000C5C10000C3C10000C1C10000C8
S1130020BFC10000BDC10000BBC10000B9C10000D8
S1130030B7C10000B5C10000B3C10000B1C10000E8
S1130040AFC10000ADC10000ABC10000AAC10000F7
S1130050A7C10000A5C10000A3C10000A1C1000008
S11300609FC100009DC100009BC1000099C1000018
S1130070000000000000000000065F5F06000000B2
S11300800007070007070000147F7F147F7F140018
S1130090242E6B6B3A120000466630180C66620020
S11300A0307A4F5D377A48000407030000000000EF
S11300B0001C3E63410000000041633E1C00000040
S11300C0082A3E1C1C3E2A0808083E3E0808000078
S11300D000A0E0600000000008080808080800000C
S11300E000006060000000006030180C060301008E
S11300F03E7F594D7F3E000042427F7F40400000DA
S1130100627359496F660000226349497F360000D3
S1130110181C16137F7F1000276745457D390000A2
S11301203C7E4B4979300000036371190F070000CE
S1130130367F49497F360000064F49693F1E00005B
S113014000006C6C0000000000A0EC6C00000000DB
S1130150081C366341000000141414141414000025
S1130160004163361C080000020351590F060000C9
S11301703E7F415D5D1F1E007C7E13137E7C00006C
S1130180417F7F49497F36001C3E63414163220021
S1130190417F7F41637F1C00417F7F495D41630054
S11301A0417F7F491D0103001C3E6341517372006E
S11301B07F7F08087F7F000000417F7F41000000AF
S11301C0307040417F3F0100417F7F081C7763000E
S11301D0417F7F41406070007F7F060C067F7F0077
S11301E07F7F060C187F7F001C3E6341633E1C002A
S11301F0417F7F49090F06001E3F21717F5E000089
S1130200417F7F19396F460026674D597B320000C4
S113021003417F7F410300007F7F40407F7F0000D8
S11302201F3F60603F1F00007F7F3018307F7F00DA
S113023063771C081C776300074F78784F0700002A
S11302406773594D47637100007F7F41410000008F
S11302500103060C183060000041417F7F0000005C
S1130260080C0603060C0800808080808080808053
S11302700000030704000000207454543C7840003C
S1130280413F7F44447C3800387C44446C2800005F
S1130290307848493F7F4000387C54545C18000053
S11302A0487E7F490302000098BCA4A4F87C0400A3
S11302B0417F7F08047C780000447D7D400000007D
S11302C040C484FD7D000000417F7F10386C4400F1
S11302D000417F7F400000007C7C0C180C7C78007F
S11302E07C7C04047C780000387C44447C38000026
S11302F084FCF8A4243C1800183C24A4F8FC8400D2
S1130300447C78441C180000485C54547424000055
S113031000043E7F442400003C7C40403C7C400080
S11303201C3C60603C1C00003C7C6030607C3C00F9
S1130330446C3810386C44009CBCA0A0FC7C0000C9
S11303404C64745C4C64000008083E774141000032
S113035000000077770000004141773E0808000064
S1130360020301030203010011241FBECFEFD4E0F6
S1130370DEBFCDBF12E0A0E0B1E0EEEDFBE102C0D4
S113038005900D92AE3EB107D9F723E0AEEEB2E090
S113039001C01D92A431B207E1F710D10C94ED0D08
S11303A02FCE1F920F920FB60F9211248F938CB100
S11303B08093050381E08093F0028F910F900FBE2C
S11303C00F901F9018951F920F920FB60F92112441
S11303D08F9381E08093EF028F910F900FBE0F9067
S11303E01F9018951F920F920FB60F9211248F939E
S11303F081E08093EE028F910F900FBE0F901F90BB
S11304001895EF92FF920F931F93CF93DF9388E198
S113041091E00E94A20A0E94390A7C010E943C0ACF
S1130420C0E0D8E100E010E00E94390A8883988196
S1130430981711F00F5F1F4F2196C11580E2D8075E
S113044099F7C7010E943C0AC0E0D8E1E12CF12CE5
S11304500E94390A9881981719F08FEFE81AF80A60
S11304602196C11580E2D80799F7FF92EF921F9366
S11304700F938EE291E09F938F930E94910A0F90C5
S11304800F900F900F900F900F90DF91CF911F91CD
S11304900F91FF90EF900895EF92FF920F931F93A7
S11304A01FE1E12EF12C00E010E020E030E04BE40D
S11304B050E060E875E280E090E005D681E089D004
S11304C0E8D599D0F7D492D48BB780648BBF85B725
S11304D0826085BF85B78E7F85BF8B98939A8BB7D3
S11304E080688BBF85B7886085BF85B78B7F85BFE4
S11304F032983A98B898C098789483DF1F910F91F6
S1130500FF90EF900895FF920F931F93CF93DF9383
S1130510CDB7DEB728970FB6F894DEBF0FBECDBFB8
S1130520F8D129833A834B835C836D837E838F83E5
S1130530988713D2F82EB6D5B09B85B182E0F81611
S113054091F08F1530F0FF20B9F091E0F91641F0E9
S113055015C083E0F81651F094E0F91651F00EC07E
S11305600DE811E00BC000E911E008C005E911E055
S113057005C00BE911E002C006E811E088858F93FD
S11305808F818F938E818F938D818F931F930F9380
S113059080EA91E09F938F93C4D70FB6F894DEBF9F
S11305A00FBECDBF28960FB6F894DEBF0FBECDBFE9
S11305B0DF91CF911F910F91FF9008956DDFA3DF1D
S11305C0CCD18091EE028823D1F328D01092EE0290
S11305D0F6CF95B7906895BF96B7986096BF882375
S11305E019F080B7806280BF0895FC01808108956E
S11305F0FC01608308951092F3021092F2021092AB
S1130600F5021092F4021092F7021092F602109280
S1130610F9021092F8021092F1020895CF93DF9339
S113062086EB91E08FD72FEF4FEF52E021504040FF
S11306305040E1F700C000C0C4E1D0E060910A017D
S113064070910B0182E058D58FEF9FE121E081503A
S113065090402040E1F700C0000080910A01909191
S11306600B016ED590911101981710F4809311012C
S11306702197209719F78CEC91E064D74FEF5FEF47
S113068082E0415050408040E1F700C000C0C4E126
S1130690D0E060910A0170910B0182E02DD59FEFAB
S11306A02FE141E0915020404040E1F700C00000BC
S11306B080910A0190910B0143D590911001891703
S11306C010F4809310012197209719F781EE91E09F
S11306D039D75FEF8FEF92E0515080409040E1F7BF
S11306E000C000C0C4E1D0E060910A0170910B0128
S11306F081E002D52FEF4FE151E0215040405040BE
S1130700E1F700C0000080910A0190910B0118D517
S113071090910F01981710F480930F01219720975F
S113072019F78DEE91E00ED78FEF9FEF22E0815005
S113073090402040E1F700C000C0C4E1D0E06091E7
S11307400A0170910B0181E0D7D44FEF5FE181E0A2
S1130750415050408040E1F700C0000080910A0100
S113076090910B01EDD490910E01891710F48093B0
S11307700E012197209719F730910E0120910F0156
S113078090911001809111011F923F931F922F931A
S11307901F929F931F928F938BEF91E09F938F9360
S11307A0C0D620910F0180910E0130E0281B310941
S11307B0C9014DB75EB7465F5F4F0FB6F8945EBF91
S11307C00FBE4DBF99230CF40196959587958093A0
S11307D00D01209111018091100130E0281B310995
S11307E0C90199230CF401969595879580930C0182
S11307F090910C0180910D011F929F931F928F93F2
S113080085E292E09F938F938CD60F900F900F9078
S11308100F900F900F90DF91CF910895883739F49E
S113082060910A0170910B0182E066C408958937D2
S113083031F460910A0170910B0181E05DC4089567
S11308408837F9F480910A0190910B0179D490E0F2
S11308509093F3028093F20220910C0160910C01B9
S1130860AC01421B51099A0144E6429FC001439FD7
S1130870900D112470E066D47093F7026093F60231
S113088008958937F1F480910A0190910B0158D4AD
S113089090E09093F5028093F40220910D01609111
S11308A00D01AC01421B51099A0144E6429FC0016B
S11308B0439F900D112470E045D47093F902609326
S11308C0F80208958091F6029091F7028B35910514
S11308D024F083E08093F1020895863A9F4F24F434
S11308E084E08093F10208958091F8029091F902D6
S11308F08B35910524F081E08093F1020895863AC6
S11309009F4F24F482E08093F10208951092F10243
S11309100895CF93DF93CDB7DEB728970FB6F89439
S1130920DEBF0FBECDBF88E0E2EFF2E0DE0111963C
S113093001900D928A95E1F729813A814B815C817E
S11309406D817E818F81988528960FB6F894DEBFDD
S11309500FBECDBFDF91CF91089588E75FDF82E6B8
S11309608A95F1F7000088E76BDF89E757DF82E6B5
S11309708A95F1F7000089E763DFA4DF8091F10233
S11309800895CF93DF935DD260E070E080E090E063
S11309903BD28AE492E01AD360E070E083E090E016
S11309A033D2CEE0D0E080E592E010D32FEF8FE792
S11309B097E0215080409040E1F700C0000021976B
S11309C0209789F760E070E085E090E01DD282E531
S11309D092E0FCD22FEF8FEF9CE2215080409040B8
S11309E0E1F700C000C0DF91CF910895CF92DF926C
S11309F0EF92FF920F931F93CF93DF938C017B01B0
S1130A006A01E9018091FD029091FE02892B19F09F
S1130A108BE592E097D58CE090E0BBD3FC019093FA
S1130A20FE028093FD02F382E28211830083CD2BC8
S1130A3039F0D582C48281E090E09783868304C034
S1130A401582148217821682DF91CF911F910F9124
S1130A50FF90EF90DF90CF900895CF93DF9386E1DE
S1130A6090E097D3EC01909304038093030381E710
S1130A7092E0998388831D8A1C8A85E090E09B8399
S1130A808A8386E190E085D3FC01909302038093EE
S1130A9001038AE792E091838083D58BC48B83E042
S1130AA090E09383828320E030E040E050E0BE0198
S1130AB089E892E09BDF6091030370910403E09165
S1130AC0FD02F091FE02DB011596FC93EE93149760
S1130AD081EC94E093878287409101035091020353
S1130AE021E030E082E992E081DF609103037091BC
S1130AF004038091FD029091FE02FB01978386839B
S1130B0020E030E040E050E08DE992E06FDF60915A
S1130B100303709104038091FD029091FE02DB01B6
S1130B2019969C938E93189720E030E040E050E0B3
S1130B3088EA92E05BDF6091030370910403E09123
S1130B40FD02F091FE02DB011B96FC93EE931A97D3
S1130B508EE093E09387828720E030E040E050E02D
S1130B6082EB92E043DFE0910303F0910403809170
S1130B70FD029091FE02958784871092FE021092E6
S1130B80FD02609101037091020320E030E040E037
S1130B9050E087EB92E02ADF609101037091020339
S1130BA08091FD029091FE02FB019583848320E0F5
S1130BB030E040E050E08CEB92E018DF60910103FC
S1130BC0709102038091FD029091FE02DB01179661
S1130BD09C938E93169720E030E040E050E083EC45
S1130BE092E004DFE0910103F09102038091FD02A1
S1130BF09091FE0291878087DF91CF910895CF93E2
S1130C00DF93EC01CB01209749F0609112017091C0
S1130C101301FAD088819981D9D107C088EC92E078
S1130C209F938F937ED40F900F90DF91CF9108956F
S1130C30CF92DF92EF92FF920F931F93CF93DF93A4
S1130C406C017B01FED080E090E017D21E141F04DB
S1130C507CF486010C5F1F4FC0E0D0E0BE01F801B8
S1130C60819191918F01CBDF2196CE15DF05B1F7EC
S1130C70D0920003C092FF021092FB021092FA027B
S1130C80F601848195819093FE028093FD02DF91A9
S1130C90CF911F910F91FF90EF90DF90CF90089527
S1130CA02091FA023091FB0212161306BCF4C9011A
S1130CB001979093FB028093FA02E091FF02F09176
S1130CC000032F5F3F4F220F331FE20FF31F2081DA
S1130CD031813093FE022093FD02CFC10895E0914B
S1130CE0FF02F09100032091FA023091FB0282810D
S1130CF09381019728173907A4F4C90101969093A9
S1130D00FB028093FA022D5F3F4F220F331FE20F45
S1130D10F31F208131813093FE022093FD02ADC187
S1130D2008951092FB021092FA02848195819093A7
S1130D30FE028093FD0280E090E09FC10895E0915F
S1130D40FF02F091000384899589009721F0FC014A
S1130D50628173816DCF08958091FF0290910003A9
S1130D60FC016281738164DF18C00895E091FD0283
S1130D70F091FE0286819781892B39F084819581D7
S1130D80FC016281738154CF08950284F385E02DC0
S1130D90309711F00995E0CF08958091FA0290916F
S1130DA0FB026BD18091FC028823F9F0D6DD8230FE
S1130DB071F018F4813049F00BC0833021F0843095
S1130DC039F4BDDF05C0D2DF03C06ADF01C087DFAD
S1130DD02FEF8FE794E0215080409040E1F700C06E
S1130DE000008091FC028111E1CF089581E080939D
S1130DF0FC0233DE8091030390910403FC016281C1
S1130E00738116DFCACF0895262F2F7075956795C5
S1130E10759567957595679575956795605F805528
S1130E209F4FE0911601F09117018083E091160124
S1130E30F09117012083E0911601F091170160836E
S1130E4008951F93CF93DF93C1E0D0E080E090E05A
S1130E5010E060E070E0D8DF812FE0911401F091A0
S1130E60150110828F5F8038C1F78C2F9D2F21963A
S1130E70C930D10571F7DF91CF911F910895805248
S1130E80282F30E0220F331F220F331F220F331F6E
S1130E9080E090E020593F4FF901E80FF91FE491F9
S1130EA0A0911401B0911501EC930196883091053D
S1130EB099F70895E0911601F09117018EEA808365
S1130EC0E0911601F091170181EA8083E091160107
S1130ED0F09117018AED8083E0911601F0911701DA
S1130EE082E18083E0911601F091170188EC808300
S1130EF0E0911601F091170188EA8083E0911601D0
S1130F00F09117018FE38083E0911601F0911701AE
S1130F1085ED8083E0911601F091170180E88083CC
S1130F20E0911601F091170181E88083E0911601A8
S1130F30F091170180E58083E0911601F09117018B
S1130F4089ED8083E0911601F091170181E280839D
S1130F50E0911601F091170180E28083E09116017F
S1130F60F091170182E08083E0911601F09117015E
S1130F708BED8083E0911601F091170180E380836B
S1130F80E0911601F09117018DEA8083E09116013A
S1130F90F09117011082E0911601F091170184EA93
S1130FA08083E0911601F091170186EA8083E09135
S1130FB01601F09117018FEA808343DF67E770E041
S1130FC087E090E021DF8AE25ACF08951F93CF9300
S1130FD0DF93EC0110E006C0FE01E80FF91F8081E9
S1130FE04EDF1F5F812F90E0FE0101900020E9F7A2
S1130FF03197EC1BFD0B8E179F0770F3DF91CF9198
S11310001F910895E0911401F091150188E1808306
S1131010E0911401F09115018083E0911401F091A5
S113102015019EE79083E0911401F09115019CE372
S11310309083E0911401F0911501808308951F932A
S1131040CF93DF93C1E0D0E080E090E010E060E077
S113105070E0DADE812FE0911401F0911501108225
S11310608F5F8530C1F78C2F9D2F2196C930D10514
S113107071F7DF91CF911F910895CF93DF93EC0126
S1131080DEDF60E070E0CE01BFDEBCDFDF91CF9138
S11310900895109206031092070310920803109209
S11310A00903089560910603709107038091080372
S11310B09091090308955D9BFECF8CB908955F9BC1
S11310C0FECF8CB10895EF92FF920F931F93BB272D
S11310D0A12F902F8F2D80BDE9B888E18AB9579A46
S11310E08EE880BD6FE578E08BE598E0D0D11F9164
S11310F00F91FF90EF9008959B01823069F018F4EE
S1131100813031F015C0833059F0843069F010C05B
S113111064E0C9016DCA089565E0C90169CA08950A
S113112066E0C90165CA089567E0C90161CA089506
S113113088ED92E09F938F93F4D10F900F900895D0
S113114054CA089597FB072E16F4009406D077FD31
S113115008D00BD007FC05D03EF4909581959F4FA5
S11311600895709561957F4F0895AA1BBB1B51E1AB
S113117007C0AA1FBB1FA617B70710F0A61BB70B03
S1131180881F991F5A95A9F780959095BC01CD01A8
S11311900895CF93DF938230910510F482E090E0BC
S11311A0E0910C03F0910D0320E030E0A0E0B0E00A
S11311B0309739F14081518148175907B8F04817E1
S11311C0590771F482819381109729F013969C93A7
S11311D08E9312972CC090930D0380930C0327C019
S11311E02115310531F04217530718F0A901DB012D
S11311F001C0EF019A01BD01DF010280F381E02DFE
S1131200D7CF21153105F9F0281B390B24303105CE
S113121080F48A819B816115710521F0FB01938320
S1131220828304C090930D0380930C03FE013296D5
S113123044C0FE01E20FF31F8193919322503109C0
S1131240398328833AC020910A0330910B03232B5E
S113125041F4209102013091030130930B03209358
S11312600A0320910001309101012115310541F457
S11312702DB73EB74091040150910501241B350B55
S1131280E0910A03F0910B03E217F307A0F42E1B7D
S11312903F0B2817390778F0AC014E5F5F4F2417D6
S11312A0350748F04E0F5F1F50930B0340930A031A
S11312B08193919302C0E0E0F0E0CF01DF91CF9100
S11312C00895CF93DF93009709F487C0FC01329708
S11312D013821282C0910C03D0910D03209781F4E4
S11312E020813181280F391F80910A0390910B03CB
S11312F08217930779F5F0930B03E0930A036DC00B
S1131300DE0120E030E0AE17BF0750F412964D9195
S11313105C9113979D014115510509F1DA01F3CF51
S1131320B383A28340815181840F951F8A179B0741
S113133071F48D919C911197840F951F029691835E
S1131340808312968D919C911397938382832115A8
S1131350310529F4F0930D03E0930C033EC0D90149
S11313601396FC93EE9312974D915D91A40FB51FC4
S1131370EA17FB0779F480819181840F951F029607
S1131380D90111969C938E938281938113969C9399
S11313908E931297E0E0F0E08A819B81009719F028
S11313A0FE01EC01F9CFCE01029628813981820F2A
S11313B0931F20910A0330910B032817390769F40E
S11313C0309729F410920D0310920C0302C013827B
S11313D01282D0930B03C0930A03DF91CF91089537
S11313E08F929F92AF92BF92CF92DF92EF92FF9231
S11313F0CF93DF93EC01688179818A819B816115A8
S113140071058105910521F464E279ED8BE597E09E
S11314102DE133EF41E050E04CD349015A019B01E7
S1131420AC01A7EAB1E461D36B017C01ACEEB4EF8B
S1131430A501940166D3C60ED71EE81EF91EF7FE59
S113144006C081E0C81AD108E10880E8F80AC88219
S1131450D982EA82FB82C6019F77DF91CF91FF9008
S1131460EF90DF90CF90BF90AF909F908F900895B2
S1131470B7CF86E091E0B4CFA0E0B0E0809306015E
S113148090930701A0930801B093090108950F9365
S11314901F93CF93DF93EC018B01009731F4611517
S11314A0710519F480E090E037C06EE070E081E0EF
S11314B090E038D2FC010097A9F380E883830115FA
S11314C0110571F01387028781E8838380910E03ED
S11314D090910F03892B21F4F0930F03E0930E03F3
S11314E02097C9F0D187C0878381826083838091EC
S11314F0100390911103892B71F4F0931103E0937D
S113150010038091120390911303892B21F4F0931B
S11315101303E0931203CF01DF91CF911F910F9139
S11315200895A0E0B0E0E6E9FAE0FFC2FE013596D6
S113153061917191AF0180911003909111032FD0AB
S1131540E2E00FC30F931F93CF93DF93E091100357
S1131550F0911103238121FF1BC0EC0100E010E096
S113156089916091100370911103DB011896ED913C
S1131570FC911997882331F00995892B89F30FEF92
S11315801FEFEECF8AE00995892B11F4C80102C040
S11315908FEF9FEFDF91CF911F910F910895ACE0F2
S11315A0B0E0E4EDFAE0B1C27C016B018A01FC0118
S11315B017821682838181FFB0C1CE0101964C014E
S11315C0F7019381F60193FD859193FF81916F015A
S11315D0882309F49EC1853239F493FD859193FFE4
S11315E081916F01853221F4B70190E0D2D1E8CF27
S11315F0512C312C20E02032A0F48B3269F030F4ED
S1131600803259F0833269F420612CC08D3239F074
S1131610803339F4216026C02260246023C028600E
S113162021C027FD27C030ED380F3A3078F426FF6B
S113163006C0FAE05F9E300D1124532E13C08AE0D9
S1131640389E300D1124332E20620CC08E3221F4CA
S113165026FD5FC1206406C08C3611F4206802C0E8
S1131660883641F4F60193FD859193FF81916F01D2
S11316708111C1CF982F9F7D9554933028F40C5F2E
S11316801F4FFFE3F9830DC0833631F0833771F0C8
S1131690833509F057C021C0F801808189830E5F2A
S11316A01F4F44244394512C540114C03801F2E0D8
S11316B06F0E711CF801A080B18026FF03C0652D58
S11316C070E002C06FEF7FEFC5012C8757D12C016A
S11316D083012C852F77222E16C03801F2E06F0E7D
S11316E0711CF801A080B18026FF03C0652D70E055
S11316F002C06FEF7FEFC5012C872ED12C012C8502
S11317002068222E830123FC19C0832D90E0481603
S11317105906A0F4B70180E290E03BD13A94F5CFAA
S1131720F50127FC859127FE81915F01B70190E0C7
S113173030D131103A94F1E04F1A51084114510458
S113174079F7DEC0843611F0893631F5F80127FFC8
S113175007C060817181828193810C5F1F4F08C033
S113176060817181882777FD8095982F0E5F1F4FC8
S11317702F76B22E97FF09C090958095709561954C
S11317807F4F8F4F9F4F2068B22E2AE030E0A40194
S113179032D1A82EA81843C0853729F42F7EB22E43
S11317A02AE030E025C0F22FF97FBF2E8F36C1F03A
S11317B018F4883579F0ADC0803719F0883721F0F6
S11317C0A8C02F2F2061B22EB4FE0DC08B2D8460D3
S11317D0B82E09C024FF0AC09F2F9660B92E06C0F8
S11317E028E030E005C020E130E002C020E132E032
S11317F0F801B7FE07C060817181828193810C5F1B
S11318001F4F06C06081718180E090E00E5F1F4F22
S1131810A401F1D0A82EA818FB2DFF77BF2EB6FE89
S11318200BC02B2D2E7FA51450F4B4FE0AC0B2FCBD
S113183008C02B2D2E7E05C07A2C2B2D03C07A2CAC
S113184001C0752C24FF0DC0FE01EA0DF11D80813D
S1131850803311F4297E09C022FF06C07394739467
S113186004C0822F867809F0739423FD12C020FFF0
S113187006C05A2C731418F4530C5718732C731491
S113188060F4B70180E290E02C8783D073942C85B8
S1131890F6CF731410F4371801C0312C24FF11C093
S11318A0B70180E390E02C8774D02C8522FF16C00A
S11318B021FF03C088E590E002C088E790E0B7010B
S11318C00CC0822F867851F021FD02C080E201C055
S11318D08BE227FD8DE2B70190E05BD0A51430F4D4
S11318E0B70180E390E055D05A94F8CFAA94F4015C
S11318F0EA0DF11D8081B70190E04BD0A110F6CF25
S1131900332009F45DCEB70180E290E042D03A94EE
S1131910F7CFF7018681978102C08FEF9FEF2C9656
S1131920E2E10FC10F931F93CF93DF93869F800152
S1131930879F100D969F100D1124C8012ADCEC011D
S1131940009721F0A80160E070E011D0CE01DF9192
S1131950CF911F910F910895FC0105906150704043
S11319600110D8F7809590958E0F9F1F0895DC0184
S113197001C06D9341505040E0F70895FC0161505F
S1131980704001900110D8F7809590958E0F9F1F9D
S113199008950F931F93CF93DF93182F092FEB0113
S11319A08B8181FD03C08FEF9FEF20C082FF10C0A9
S11319B04E815F812C813D81421753077CF4E8817D
S11319C0F9819F012F5F3F4F39832883108306C01D
S11319D0E885F985812F0995892B29F72E813F8187
S11319E02F5F3F4F3F832E83812F902FDF91CF9125
S11319F01F910F910895FA01AA27283051F120313F
S1131A0081F1E8946F936E7F6E5F7F4F8F4F9F4F8E
S1131A10AF4FB1E03ED0B4E03CD0670F781F891FD0
S1131A209A1FA11D680F791F8A1F911DA11D6A0F9E
S1131A30711D811D911DA11D20D009F468943F9151
S1131A402AE0269F11243019305D3193DEF6CF0150
S1131A500895462F4770405D4193B3E00FD0C9F716
S1131A60F6CF462F4F70405D4A3318F0495D31FD83
S1131A704052419302D0A9F7EACFB4E0A6959795D6
S1131A80879577956795BA95C9F7009761057105AC
S1131A9008959B01AC010A2E0694579547953795F6
S1131AA02795BA95C9F7620F731F841F951FA01D50
S1131AB00895052E97FB16F400940FD057FD05D01A
S1131AC05BD007FC02D046F408C050954095309591
S1131AD021953F4F4F4F5F4F089590958095709596
S1131AE061957F4F8F4F9F4F089568D0A59F900DAC
S1131AF0B49F900DA49F800D911D11240895B7FFEC
S1131B00F4CFF3DF821B930B08952F923F924F92F1
S1131B105F926F927F928F929F92AF92BF92CF9279
S1131B20DF92EF92FF920F931F93CF93DF93CDB782
S1131B30DEB7CA1BDB0B0FB6F894DEBF0FBECDBFFA
S1131B4009942A88398848885F846E847D848C84CB
S1131B509B84AA84B984C884DF80EE80FD800C81D4
S1131B601B81AA81B981CE0FD11D0FB6F894DEBFB7
S1131B700FBECDBFED010895A1E21A2EAA1BBB1B17
S1131B80FD010DC0AA1FBB1FEE1FFF1FA217B30745
S1131B90E407F50720F0A21BB30BE40BF50B661F5B
S1131BA0771F881F991F1A9469F76095709580951F
S1131BB090959B01AC01BD01CF010895A29FB00196
S1131BC0B39FC001A39F700D811D1124911DB29F6D
S1111BD0700D811D1124911D0895F894FFCF0E
S1131BDE000014032000010000000014808019C8C6
S1131BEE19C80A00001200105374617274696E678A
S1131BFE205352414D20746573742E2E2E00535271
S1131C0E414D207465737420636F6D706C657465DB
S1131C1E6420776974680A20253464206572726FB3
S1131C2E727320696E2077726974652070686173AF
S1131C3E6520616E640A253464206572726F727356
S1131C4E20696E2072657472696576616C207068A5
S1131C5E6173650A0A0043454E54455200555000BF
S1131C6E444F574E005249474854004C4546540081
S1131C7E4A4F593A2025732C20583A25642C205962
S1131C8E3A2025640A004D6F7665204A4F59207418
S1131C9E6F20746865207269676874004D6F76658D
S1131CAE204A4F5920746F20746865206C656674E1
S1131CBE004D6F7665204A4F59207570004D6F7632
S1131CCE65204A4F5920646F776E0063616C523AF7
S1131CDE2025642C2063616C4C3A2025642C2063EF
S1131CEE616C55703A25642C2063616C446F776E79
S1131CFE3A25640A0043616C6962726174696F6E9D
S1131D0E20646F6E652E2E206E657720564D3A2018
S1131D1E256420484D3A25640A0053544152540018
S1131D2E2A005955504949203A2900437265617475
S1131D3E696E67206E657874206974656D2E2E2E1B
S1131D4E004D61696E4D656E750044696666696322
S1131D5E756C74794D656E75004E65772047616DAF
S1131D6E6500446966666963756C747900486967D1
S1131D7E6873636F726573004A6F792043616C698F
S1131D8E6200496E666F0065617379006D65646902
S1131D9E756D0068617264004E554C4C20706F690D
S1131DAE6E7465722E2E2E0050726F626C656D739A
S1111DBE2077697468204144432E2E2E0000C5
S9030000FC
