S013000050726F6A6563744D61696E2E73726563B5
S1130000B3C10000E0C10000EDC10000FAC100006E
S1130010C7C10000C5C10000C3C10000C1C10000C8
S1130020BFC10000BDC10000BBC10000B9C10000D8
S1130030B7C10000B5C10000B3C10000B1C10000E8
S1130040AFC10000ADC10000ABC10000AAC10000F7
S1130050A7C10000A5C10000A3C10000A1C1000008
S11300609FC100009DC100009BC1000099C1000018
S1130070000000000000000000065F5F06000000B2
S11300800007070007070000147F7F147F7F140018
S1130090242E6B6B3A120000466630180C66620020
S11300A0307A4F5D377A48000407030000000000EF
S11300B0001C3E63410000000041633E1C00000040
S11300C0082A3E1C1C3E2A0808083E3E0808000078
S11300D000A0E0600000000008080808080800000C
S11300E000006060000000006030180C060301008E
S11300F03E7F594D7F3E000042427F7F40400000DA
S1130100627359496F660000226349497F360000D3
S1130110181C16137F7F1000276745457D390000A2
S11301203C7E4B4979300000036371190F070000CE
S1130130367F49497F360000064F49693F1E00005B
S113014000006C6C0000000000A0EC6C00000000DB
S1130150081C366341000000141414141414000025
S1130160004163361C080000020351590F060000C9
S11301703E7F415D5D1F1E007C7E13137E7C00006C
S1130180417F7F49497F36001C3E63414163220021
S1130190417F7F41637F1C00417F7F495D41630054
S11301A0417F7F491D0103001C3E6341517372006E
S11301B07F7F08087F7F000000417F7F41000000AF
S11301C0307040417F3F0100417F7F081C7763000E
S11301D0417F7F41406070007F7F060C067F7F0077
S11301E07F7F060C187F7F001C3E6341633E1C002A
S11301F0417F7F49090F06001E3F21717F5E000089
S1130200417F7F19396F460026674D597B320000C4
S113021003417F7F410300007F7F40407F7F0000D8
S11302201F3F60603F1F00007F7F3018307F7F00DA
S113023063771C081C776300074F78784F0700002A
S11302406773594D47637100007F7F41410000008F
S11302500103060C183060000041417F7F0000005C
S1130260080C0603060C0800808080808080808053
S11302700000030704000000207454543C7840003C
S1130280413F7F44447C3800387C44446C2800005F
S1130290307848493F7F4000387C54545C18000053
S11302A0487E7F490302000098BCA4A4F87C0400A3
S11302B0417F7F08047C780000447D7D400000007D
S11302C040C484FD7D000000417F7F10386C4400F1
S11302D000417F7F400000007C7C0C180C7C78007F
S11302E07C7C04047C780000387C44447C38000026
S11302F084FCF8A4243C1800183C24A4F8FC8400D2
S1130300447C78441C180000485C54547424000055
S113031000043E7F442400003C7C40403C7C400080
S11303201C3C60603C1C00003C7C6030607C3C00F9
S1130330446C3810386C44009CBCA0A0FC7C0000C9
S11303404C64745C4C64000008083E774141000032
S113035000000077770000004141773E0808000064
S1130360020301030203010011241FBECFEFD4E0F6
S1130370DEBFCDBF12E0A0E0B1E0E8EEFFE102C0D5
S113038005900D92A23DB107D9F723E0A2EDB2E0AA
S113039001C01D92A230B207E1F782D00C94F20F93
S11303A02FCE1F920F920FB60F9211248F938CB100
S11303B08093F20281E08093DD028F910F900FBE53
S11303C00F901F9018951F920F920FB60F92112441
S11303D08F9381E08093DC028F910F900FBE0F907A
S11303E01F9018951F920F920FB60F9211248F939E
S11303F081E08093DB028F910F900FBE0F901F90CE
S113040018951F920F920FB60F9211248F9381E0CB
S11304108093DA028F910F900FBE0F901F90189562
S1130420EF92FF920F931F931FE1E12EF12C00E056
S113043010E020E030E04BE450E060E875E280E05A
S113044090E00E94170B82E491E00E94040D81E089
S11304503DD20E94E50A4CD20E945F0A0E94EE0A35
S11304603ED491D08BB780648BBF85B7826085BF43
S113047085B78E7F85BF8B98939A8BB780688BBF27
S113048085B7886085BF85B78B7F85BF32983A98DA
S1130490B898C09878941F910F91FF90EF900895A9
S11304A0CF93DF93CDB7DEB7A1970FB6F894DEBF35
S11304B00FBECDBFB5DF60E070E080E090E087D68E
S11304C08BE791E0DAD61AE001E0212F4FE7612FA4
S11304D080E04FD7185F1234B9F710E01A3438F4BB
S11304E001E027E0412F61E0812F43D706C001E0FE
S11304F027E0412F60E0812F3CD7185F103871F757
S113050002ED12E00F2EF7E1EF2EF12CF02DDD2499
S1130510D3940F2EFBE0CF2EF02D6DD3F801208362
S11305203183428353836483758386839783FA82FA
S1130530E982DB822C8360E0CE0101963BD080E02F
S113054090EF0197F1F78091DB02811132D680910F
S1130550DA02882311F36CE280E0AAD38370E9F213
S1130560682FCE0147968FD0FE017796DE011C9648
S11305708C2D01900D928A95E1F7CE010C964CD109
S11305801092DA02CACFCF93DF93CDB7DEB743E040
S11305906BE280E090E0AFD340E660E680E090E07C
S11305A0AAD320E040E86FE080E090E0B7D3DF9189
S11305B0CF910895CF93DF93CDB7DEB727970FB6CA
S11305C0F894DEBF0FBECDBF9E838D836F838F8172
S11305D0882F90E0009709F04DC08D819E81FC0129
S11305E0808191819C838B838B818295880F807E0F
S11305F0482F62E380E090E07ED38B819C819695C6
S113060087959695879596958795482F61E380E021
S113061090E071D38D819E81FC018281482F65E336
S113062080E090E068D386E389831A8215C08A81CA
S1130630882F90E02D813E81820F931F0396FC0149
S11306408081482F698180E090E055D389818F5F54
S113065089838A818F5F8A838D819E81FC01928147
S11306608A81891720F32FEF48E060E380E090E06F
S113067055D3000027960FB6F894DEBF0FBECDBF4A
S1130680DF91CF9108950F931F93CF93DF93CDB74D
S1130690DEB761970FB6F894DEBF0FBECDBF988B5F
S11306A08F87698B8989882F90E08230910509F4BE
S11306B057C08330910521F08130910509F09FC026
S11306C061E680E090E0F4D2882F90E09D838C83F3
S11306D08C819D818C01000F111F000F111F000FD1
S11306E0111F62E680E090E0E3D2829586958770E0
S11306F0882F90E0802B912B9D838C8365E680E08E
S113070090E0D6D28E8386E689831A8214C08A81C9
S1130710082F10E0698180E090E0CAD2282FCE0132
S11307200796800F911FFC01208389818F5F898345
S11307308A818F5F8A839E818A81891740F320E0B2
S113074041E06CE280E090E0E9D28F8598892BE06B
S1130750FE013496DC0101900D922A95E1F74FC019
S113076061E780E090E0A4D2882F90E09D838C83A1
S11307708C819D818C01000F111F000F111F000F30
S1130780111F62E780E090E093D28295869587708E
S1130790882F90E0802B912B9D838C8365E780E0EC
S11307A090E086D28E8386E789831B8214C08B8176
S11307B0082F10E0698180E090E07AD2282FCE01E2
S11307C00796800F911FFC01208389818F5F8983A5
S11307D08B818F5F8B839E818B81891740F320E00F
S11307E042E06CE280E090E099D28F8598892BE01A
S11307F0FE013496DC0101900D922A95E1F78F8574
S1130800988961960FB6F894DEBF0FBECDBFDF9115
S1130810CF911F910F910895CF93DF9300D01F9232
S1130820CDB7DEB79B838A838A819B81FC01828159
S1130830282F30E08A819B81FC0180819181432FA4
S11308404F932F93292F2F938F9382E191E0892F38
S11308508F9382E191E08F930E94EE0C0F900F90A2
S11308600F900F900F900F9019821FC08981882FCD
S113087090E02A813B81820F931F0396FC018081C3
S1130880882F90E0292F2F938F938EE391E0892F67
S11308908F938EE391E08F930E94EE0C0F900F9054
S11308A00F900F9089818F5F89838A819B81FC01DE
S11308B0928189818917D0F28AE090E00E94FF0C2E
S11308C00F900F900F90DF91CF91089595B7906896
S11308D095BF96B7986096BF882319F080B7806259
S11308E080BF0895FC0180810895FC016083089510
S11308F01092E0021092DF021092E2021092E102E2
S11309001092E4021092E3021092E6021092E502C1
S11309101092DE020895CF93DF9376D460E070E006
S113092080E090E054D485E891E0A7D42FEF8FEFD6
S113093092E0215080409040E1F700C000C0C4E143
S1130940D0E0609106017091070182E089D62FEF13
S11309508FE191E0215080409040E1F700C0000019
S113096080910601909107019FD690910D019817EF
S113097010F480930D012197209719F760E070E03F
S113098081E090E024D48FE891E077D42FEF8FEFCB
S113099092E0215080409040E1F700C000C0C4E1E3
S11309A0D0E0609106017091070182E059D62FEFE3
S11309B08FE191E0215080409040E1F700C00000B9
S11309C080910601909107016FD690910C018917CF
S11309D010F480930C012197209719F760E070E0E0
S11309E082E090E0F4D388E991E047D42FEF8FEFD1
S11309F092E0215080409040E1F700C000C0C4E183
S1130A00D0E0609106017091070181E029D62FEFB3
S1130A108FE191E0215080409040E1F700C0000058
S1130A2080910601909107013FD690910B01981790
S1130A3010F480930B012197209719F760E070E080
S1130A4083E090E0C4D38FE991E017D42FEF8FEFC8
S1130A5092E0215080409040E1F700C000C0C4E122
S1130A60D0E0609106017091070181E0F9D52FEF84
S1130A708FE191E0215080409040E1F700C00000F8
S1130A8080910601909107010FD690910A01891770
S1130A9010F480930A012197209719F720910B01F4
S1130AA080910A0130E0281B3109C90199230CF413
S1130AB00196959587958093090120910D01809168
S1130AC00C0130E0281B3109C90199230CF401966B
S1130AD0959587958093080160E070E084E090E04C
S1130AE076D388EA91E0C9D32FEF8FEF9EE02150AF
S1130AF080409040E1F700C00000DF91CF9108955D
S1130B00883739F4609106017091070182E0A8C525
S1130B100895893731F4609106017091070181E0ED
S1130B209FC508958837F9F48091060190910701D3
S1130B30BBD590E09093E0028093DF0220910801FE
S1130B4060910801AC01421B51099A0144E6429F9D
S1130B50C001439F900D112470E0A8D57093E40266
S1130B606093E30208958937F1F48091060190912E
S1130B7007019AD590E09093E2028093E1022091DC
S1130B80090160910901AC01421B51099A0144E633
S1130B90429FC001439F900D112470E087D570934C
S1130BA0E6026093E50208958091E3029091E402E5
S1130BB08B35910524F083E08093DE020895863A14
S1130BC09F4F24F484E08093DE0208958091E5022F
S1130BD09091E6028B35910524F081E08093DE024A
S1130BE00895863A9F4F24F482E08093DE020895AC
S1130BF01092DE020895CF93DF93CDB7DEB7289726
S1130C000FB6F894DEBF0FBECDBF88E779DF82E66A
S1130C108A95F1F7000088E785DF89E771DF82E6CE
S1130C208A95F1F7000089E77DDF88E0EFEDF2E0D7
S1130C30DE01119601900D928A95E1F729813A819E
S1130C404B815C816D817E818F81988528960FB65A
S1130C50F894DEBF0FBECDBFDF91CF91089588E732
S1130C604FDF82E68A95F1F7000088E75BDF89E7CA
S1130C7047DF82E68A95F1F7000089E753DF94DFC6
S1130C808091DE020895CF93C82FC1D480ECB5D4EF
S1130C908CEC94E00197F1F700C000008C2FBBD4DA
S1130CA08FEF9FE20197F1F700C00000CF91089504
S1130CB0CF93DF93C82FD62FAAD483E09ED48CEC95
S1130CC094E00197F1F700C000008D2F96D499D4D9
S1130CD0D82F8C2FA0D48D2FDF91CF91089580E051
S1130CE0D2DF6EE080E0E4DF982F907E81E09038E0
S1130CF009F480E008951F93CF93DF93C82F162F34
S1130D00D42F85D482E079D4812F77D48D2F75D4D4
S1130D108C2F81D4DF91CF911F9108950F931F934E
S1130D20CF93DF93C82F062F142FD22F70D485E0D2
S1130D3064D4802F62D4812F60D48D2F5ED48C2F05
S1130D406AD4DF91CF911F910F910895CF93DF93D0
S1130D505BD260E070E080E090E039D283EB91E018
S1130D608CD260E070E083E090E031D2CEE0D0E05D
S1130D7089EB91E082D22FEF8FE797E021508040FA
S1130D809040E1F700C000002197209789F760E0C8
S1130D9070E085E090E01BD28BEB91E06ED22FEFF8
S1130DA08FEF9CE2215080409040E1F700C000C0EA
S1130DB0DF91CF910895CF92DF92EF92FF920F933C
S1130DC01F93CF93DF938C017B016A01E90180912A
S1130DD0EA029091EB02892B19F084EC91E014D68D
S1130DE08CE090E08AD4FC019093EB028093EA02B9
S1130DF0F382E28211830083CD2B39F0D582C48241
S1130E0081E090E09783868304C015821482178260
S1130E101682DF91CF911F910F91FF90EF90DF9099
S1130E20CF900895CF93DF9386E190E066D4EC01F0
S1130E309093F1028093F0028AED91E09983888384
S1130E401D8A1C8A85E090E09B838A8386E190E07A
S1130E5054D4FC019093EF028093EE0283EE91E070
S1130E6091838083D58BC48B83E090E093838283CA
S1130E7020E030E040E050E0BE0182EF91E09BDFF3
S1130E806091F0027091F102E091EA02F091EB02BC
S1130E90DB011596FC93EE93149786EA96E093870C
S1130EA082874091EE025091EF0221E030E08BEF17
S1130EB091E081DF6091F0027091F1028091EA0289
S1130EC09091EB02FB019783868320E030E040E0C1
S1130ED050E086E092E06FDF6091F0027091F102E1
S1130EE08091EA029091EB02DB0119969C938E9318
S1130EF0189720E030E040E050E081E192E05BDFD1
S1130F006091F0027091F102E091EA02F091EB023B
S1130F10DB011B96FC93EE931A978BE894E093877E
S1130F20828720E030E040E050E08BE192E043DF54
S1130F30E091F002F091F1028091EA029091EB02CB
S1130F40958784871092EB021092EA026091EE0278
S1130F507091EF0220E030E040E050E080E292E067
S1130F602ADF6091EE027091EF028091EA02909183
S1130F70EB02FB019583848320E030E040E050E005
S1130F8085E292E018DF6091EE027091EF028091A9
S1130F90EA029091EB02DB0117969C938E931697CD
S1130FA020E030E040E050E08CE292E004DFE091A9
S1130FB0EE02F091EF028091EA029091EB029187A8
S1130FC08087DF91CF910895CF93DF93EC01CB011C
S1130FD0209739F06AE070E0FAD0888199814DD188
S1130FE007C081E392E09F938F93F8D40F900F9002
S1130FF0DF91CF910895CF92DF92EF92FF920F93FA
S11310001F93CF93DF936C017B01FED080E090E0CF
S11310108BD11E141F047CF486010C5F1F4FC0E0AB
S1131020D0E0BE01F801819191918F01CDDF21962D
S1131030CE15DF05B1F7D092ED02C092EC0210920A
S1131040E8021092E702F601848195819093EB0205
S11310508093EA02DF91CF911F910F91FF90EF905F
S1131060DF90CF9008952091E7023091E8021216A4
S11310701306BCF4C90101979093E8028093E70238
S1131080E091EC02F091ED022F5F3F4F220F331FEE
S1131090E20FF31F208131813093EB022093EA02A7
S11310A043C10895E091EC02F091ED022091E70232
S11310B03091E80282819381019728173907A4F4BB
S11310C0C90101969093E8028093E7022D5F3F4F98
S11310D0220F331FE20FF31F208131813093EB0283
S11310E02093EA0221C108951092E8021092E702C7
S11310F0848195819093EB028093EA0280E090E0F2
S113110013C10895E091EC02F091ED028489958970
S1131110009721F0FC01628173816DCF0895809165
S1131120EC029091ED02FC016281738164DF18C0CE
S11311300895E091EA02F091EB0286819781892B70
S113114039F084819581FC016281738154CF0895C3
S11311500284F385E02D309711F00995E0CF0895CE
S11311608091E7029091E802DFD08091E902882320
S1131170F9F075DD823071F018F4813049F00BC05C
S1131180833021F0843039F4BDDF05C0D2DF03C0E1
S11311906ADF01C087DF2FEF8FE794E021508040A2
S11311A09040E1F700C000008091E9028111E1CF95
S11311B0089581E08093E90235DE8091F0029091F8
S11311C0F102FC016281738116DFCACF0895262FD4
S11311D02F70759567957595679575956795759550
S11311E06795605F80559F4FE0911001F091110168
S11311F08083E0911001F09111012083E0911001AE
S1131200F0911101608308951F93CF93DF93C1E0A0
S1131210D0E080E090E010E060E070E0D8DF812F63
S1131220E0910E01F0910F0110828F5F8038C1F7B9
S11312308C2F9D2F2196C930D10571F7DF91CF9165
S11312401F9108958052282F30E0220F331F220F60
S1131250331F220F331F80E090E020593F4FF901E4
S1131260E80FF91FE491A0910E01B0910F01EC93E6
S113127001968830910599F708951F93CF93DF93D2
S1131280EC0110E006C0FE01E80FF91F8081DADFEF
S11312901F5F812F90E0FE0101900020E9F7319754
S11312A0EC1BFD0B8E179F0770F3DF91CF911F91FD
S11312B00895E0910E01F0910F0188E18083E0919F
S11312C00E01F0910F018083E0910E01F0910F0166
S11312D09EE79083E0910E01F0910F019CE39083CF
S11312E0E0910E01F0910F01808308951F93CF9335
S11312F0DF93C1E0D0E080E090E010E060E070E0D7
S113130066DF812FE0910E01F0910F0110828F5F53
S11313108530C1F78C2F9D2F2196C930D10571F7E7
S1131320DF91CF911F910895CF93DF93EC01DEDF1E
S113133060E070E0CE014BDFBCDFDF91CF91089518
S1131340E0911001F091110191E89083E091100176
S1131350F091110180830895CF93C0E08C2FF0DFCA
S113136083E393E10197F1F7CF5FCF3FB9F7CF91D3
S11313700895FF920F931F93CF93DF93082FC42FE9
S1131380621319C0862F869586958695D1E0082E1E
S113139001C0DD0F0A94EAF7602F70E090E017DFD8
S11313A0C01748F0902FE0910E01F0910F01D08307
S11313B09F5FC917C0F70C1311C0C0E0D0E010E064
S11313C0FF24FA94B801CE0102DFE0910E01F091FE
S11313D00F01F0822196C830D105A1F7DF91CF919A
S11313E01F910F91FF90089581E492E00DD380E066
S11313F0A7DF2FEF8FE797E0215080409040E1F77F
S113140000C0000064E070E082E090E0E0DE86E589
S113141092E033DFA1DF2FEF8FE797E02150804088
S11314209040E1F700C00000EFDE80E089DF2FEF9D
S11314308FEF92E0215080409040E1F700C000C05F
S11314406CE170E083E090E0C2DE84E692E015DFB8
S113145068E170E084E090E0BADE8CE692E00DDFB3
S11314607BDF2FEF8FE797E0215080409040E1F73A
S113147000C00000C9DE80E063DF2FEF8FEF92E051
S1131480215080409040E1F700C000C06CE170E062
S113149083E090E09CDE85E792E0EFDE5DDF2FEFF6
S11314A08FEF9EE0215080409040E1F700C00000A3
S11314B0ABDE80E545DF8DE792E0A6C20895E091BA
S11314C01001F09111018EEA8083E0911001F091F6
S11314D0110181EA8083E0911001F09111018AEDFC
S11314E08083E0911001F091110182E18083E09109
S11314F01001F091110188EC8083E0911001F091CA
S1131500110188EA8083E0911001F09111018FE3C9
S11315108083E0911001F091110185ED8083E091C9
S11315201001F091110180E88083E0911001F091A5
S1131530110181E88083E0911001F091110180E5AF
S11315408083E0911001F091110189ED8083E09195
S11315501001F091110181E28083E0911001F0917A
S1131560110180E28083E0911001F091110182E089
S11315708083E0911001F09111018BED8083E09163
S11315801001F091110180E38083E0911001F0914A
S113159011018DEA8083E0911001F0911101108214
S11315A0E0911001F091110184EA8083E09110012F
S11315B0F091110186EA8083E0911001F09111010C
S11315C08FEA808321DE10CF08951092F4021092E6
S11315D0F5021092F6021092F70208958BB780621A
S11315E08BBF86B78E7F86BF87B3806B87BB80E552
S11315F08DB981E08EB9C49A08958FB9779BFECFD7
S113160008958FEFFADF779BFECF8FB10895811194
S113161001C0C4980895811101C0C49A08955D9BC6
S1131620FECF8CB908955F9BFECF8CB10895EF92E5
S1131630FF920F931F93BB27A12F902F8F2D80BD57
S1131640E9B888E18AB9579A8EE880BD63E17BE006
S11316508FE09BE079D11F910F91FF90EF90089557
S11316609B01823069F018F4813031F015C0833069
S113167059F0843069F010C064E0C90136C9089596
S113168065E0C90132C9089566E0C9012EC908950B
S113169067E0C9012AC908958CEB92E09F938F9368
S11316A09DD10F900F9008951DC9089597FB072EA3
S11316B016F4009406D077FD08D00BD007FC05D0B3
S11316C03EF4909581959F4F0895709561957F4F55
S11316D00895AA1BBB1B51E107C0AA1FBB1FA61775
S11316E0B70710F0A61BB70B881F991F5A95A9F7C7
S11316F080959095BC01CD010895CF93DF938230FE
S1131700910510F482E090E0E091FA02F091FB027E
S113171020E030E0A0E0B0E0309739F14081518121
S113172048175907B8F04817590771F48281938113
S1131730109729F013969C938E9312972CC0909334
S1131740FB028093FA0227C02115310531F04217BC
S1131750530718F0A901DB0101C0EF019A01BD0193
S1131760DF010280F381E02DD7CF21153105F9F097
S1131770281B390B2430310580F48A819B81611543
S1131780710521F0FB019383828304C09093FB02D3
S11317908093FA02FE01329644C0FE01E20FF31F69
S11317A08193919322503109398328833AC020913F
S11317B0F8023091F902232B41F420910201309177
S11317C003013093F9022093F80220910001309133
S11317D001012115310541F42DB73EB740910401B3
S11317E050910501241B350BE091F802F091F902A8
S11317F0E217F307A0F42E1B3F0B2817390778F0E4
S1131800AC014E5F5F4F2417350748F04E0F5F1F42
S11318105093F9024093F8028193919302C0E0E05F
S1131820F0E0CF01DF91CF910895CF93DF9300973C
S113183009F487C0FC01329713821282C091FA0224
S1131840D091FB02209781F420813181280F391F28
S11318508091F8029091F9028217930779F5F09339
S1131860F902E093F8026DC0DE0120E030E0AE172B
S1131870BF0750F412964D915C9113979D01411549
S1131880510509F1DA01F3CFB383A2834081518179
S1131890840F951F8A179B0771F48D919C91119762
S11318A0840F951F02969183808312968D919C914B
S11318B01397938382832115310529F4F093FB0256
S11318C0E093FA023EC0D9011396FC93EE9312976B
S11318D04D915D91A40FB51FEA17FB0779F4808140
S11318E09181840F951F0296D90111969C938E9332
S11318F08281938113969C938E931297E0E0F0E09B
S11319008A819B81009719F0FE01EC01F9CFCE0189
S1131910029628813981820F931F2091F802309119
S1131920F9022817390769F4309729F41092FB0259
S11319301092FA0202C013821282D093F902C09369
S1131940F802DF91CF9108950F931F93CF93DF9304
S1131950EC018B01009731F46115710519F480E0F5
S113196090E037C06EE070E081E090E03DD2FC0191
S11319700097A9F380E883830115110571F013879B
S1131980028781E883838091FC029091FD02892B78
S113199021F4F093FD02E093FC022097C9F0D18773
S11319A0C0878381826083838091FE029091FF02CD
S11319B0892B71F4F093FF02E093FE0280910003FF
S11319C090910103892B21F4F0930103E093000328
S11319D0CF01DF91CF911F910F910895A0E0B0E066
S11319E0E3EFFCE0D8C2FE01359661917191AF013D
S11319F08091FE029091FF0234D0E2E0E8C260914F
S1131A00FE027091FF0227C20F931F93CF93DF93BF
S1131A10E091FE02F091FF02238121FF1BC0EC0143
S1131A2000E010E089916091FE027091FF02DB01F9
S1131A301896ED91FC911997882331F00995892B1B
S1131A4089F30FEF1FEFEECF8AE00995892B11F48C
S1131A50C80102C08FEF9FEFDF91CF911F910F91CB
S1131A600895ACE0B0E0E6E3FDE085C27C016B01E3
S1131A708A01FC0117821682838181FFB0C1CE01E5
S1131A8001964C01F7019381F60193FD859193FF33
S1131A9081916F01882309F49EC1853239F493FD45
S1131AA0859193FF81916F01853221F4B70190E014
S1131AB0D2D1E8CF512C312C20E02032A0F48B324B
S1131AC069F030F4803259F0833269F420612CC01B
S1131AD08D3239F0803339F4216026C022602460CD
S1131AE023C0286021C027FD27C030ED380F3A30CD
S1131AF078F426FF06C0FAE05F9E300D1124532EC1
S1131B0013C08AE0389E300D1124332E20620CC09D
S1131B108E3221F426FD5FC1206406C08C3611F498
S1131B20206802C0883641F4F60193FD859193FF45
S1131B3081916F018111C1CF982F9F7D955493306E
S1131B4028F40C5F1F4FFFE3F9830DC0833631F097
S1131B50833771F0833509F057C021C0F8018081C3
S1131B6089830E5F1F4F44244394512C540114C0A5
S1131B703801F2E06F0E711CF801A080B18026FFDD
S1131B8003C0652D70E002C06FEF7FEFC5012C87A5
S1131B9057D12C0183012C852F77222E16C03801B2
S1131BA0F2E06F0E711CF801A080B18026FF03C023
S1131BB0652D70E002C06FEF7FEFC5012C872ED139
S1131BC02C012C852068222E830123FC19C0832D2F
S1131BD090E048165906A0F4B70180E290E03BD1AA
S1131BE03A94F5CFF50127FC859127FE81915F0199
S1131BF0B70190E030D131103A94F1E04F1A510816
S1131C004114510479F7DEC0843611F0893631F578
S1131C10F80127FF07C060817181828193810C5F85
S1131C201F4F08C060817181882777FD8095982FA8
S1131C300E5F1F4F2F76B22E97FF09C090958095A7
S1131C40709561957F4F8F4F9F4F2068B22E2AE089
S1131C5030E0A40132D1A82EA81843C0853729F456
S1131C602F7EB22E2AE030E025C0F22FF97FBF2E5E
S1131C708F36C1F018F4883579F0ADC0803719F08B
S1131C80883721F0A8C02F2F2061B22EB4FE0DC0DA
S1131C908B2D8460B82E09C024FF0AC09F2F966044
S1131CA0B92E06C028E030E005C020E130E002C0D3
S1131CB020E132E0F801B7FE07C0608171818281C2
S1131CC093810C5F1F4F06C06081718180E090E0BA
S1131CD00E5F1F4FA401F1D0A82EA818FB2DFF778B
S1131CE0BF2EB6FE0BC02B2D2E7FA51450F4B4FED0
S1131CF00AC0B2FC08C02B2D2E7E05C07A2C2B2DD9
S1131D0003C07A2C01C0752C24FF0DC0FE01EA0D1E
S1131D10F11D8081803311F4297E09C022FF06C0A1
S1131D207394739404C0822F867809F0739423FD0E
S1131D3012C020FF06C05A2C731418F4530C571801
S1131D40732C731460F4B70180E290E02C8783D085
S1131D5073942C85F6CF731410F4371801C0312C0A
S1131D6024FF11C0B70180E390E02C8774D02C8548
S1131D7022FF16C021FF03C088E590E002C088E777
S1131D8090E0B7010CC0822F867851F021FD02C08B
S1131D9080E201C08BE227FD8DE2B70190E05BD0C9
S1131DA0A51430F4B70180E390E055D05A94F8CFED
S1131DB0AA94F401EA0DF11D8081B70190E04BD0A3
S1131DC0A110F6CF332009F45DCEB70180E290E094
S1131DD042D03A94F7CFF7018681978102C08FEF02
S1131DE09FEF2C96E2E1E3C00F931F93CF93DF9311
S1131DF0869F8001879F100D969F100D1124C801A6
S1131E007CDCEC01009721F0A80160E070E011D0C7
S1131E10CE01DF91CF911F910F910895FC010590A0
S1131E20615070400110D8F7809590958E0F9F1FD8
S1131E300895DC0101C06D9341505040E0F70895CE
S1131E40FC016150704001900110D8F78095909585
S1131E508E0F9F1F08950F931F93CF93DF93182F17
S1131E60092FEB018B8181FD03C08FEF9FEF20C011
S1131E7082FF10C04E815F812C813D814217530740
S1131E807CF4E881F9819F012F5F3F4F39832883D8
S1131E90108306C0E885F985812F0995892B29F7D8
S1131EA02E813F812F5F3F4F3F832E83812F902FC1
S1131EB0DF91CF911F910F910895FA01AA2728303D
S1131EC051F1203181F1E8946F936E7F6E5F7F4F03
S1131ED08F4F9F4FAF4FB1E03ED0B4E03CD0670F7F
S1131EE0781F891F9A1FA11D680F791F8A1F911DD2
S1131EF0A11D6A0F711D811D911DA11D20D009F422
S1131F0068943F912AE0269F11243019305D319363
S1131F10DEF6CF010895462F4770405D4193B3E04C
S1131F200FD0C9F7F6CF462F4F70405D4A3318F0F3
S1131F30495D31FD4052419302D0A9F7EACFB4E0A4
S1131F40A6959795879577956795BA95C9F700975C
S1131F506105710508959B01AC010A2E06945795FD
S1131F60479537952795BA95C9F7620F731F841F54
S1131F70951FA01D08952F923F924F925F926F92EA
S1131F807F928F929F92AF92BF92CF92DF92EF9205
S1131F90FF920F931F93CF93DF93CDB7DEB7CA1B86
S1131FA0DB0B0FB6F894DEBF0FBECDBF09942A88B1
S1131FB0398848885F846E847D848C849B84AA8459
S1131FC0B984C884DF80EE80FD800C811B81AA81E6
S1131FD0B981CE0FD11D0FB6F894DEBF0FBECDBFB1
S10B1FE0ED010895F894FFCF10
S1131FE80000020320000014808019C819C80012D8
S1131FF800107265636569766564206D6573736145
S113200867653A2069643A2025642C206C656E67FC
S113201874683A2025642C20646174613A00202590
S113202863000A3D3D3D3D3D3D3D3D3D3D3D3D3D1E
S11320383D3D3D3D3D3D3D3D3D535441525455503C
S11320483D3D3D3D3D3D3D3D3D3D3D3D3D3D3D3DB4
S11320583D3D3D3D3D3D3D3D3D3D0049276D2061B4
S11320686C697665004A4F59205249474854004ADA
S11320784F59204C454654004A4F59205550004A60
S11320884F5920444F574E0043414C494220444F36
S11320984E45005354415254002A00595550494959
S11320A8203A29004372656174696E67206E657809
S11320B874206974656D2E2E2E004D61696E4D6510
S11320C86E7500446966666963756C74794D656EEE
S11320D875004E65772047616D65004469666669D9
S11320E863756C7479004869676873636F726573A4
S11320F8004A6F792043616C696200496E666F001B
S113210865617379006D656469756D0068617264F1
S1132118004E554C4C20706F696E7465722E2E2ECD
S11321280072756E2073706C6173682073637265D6
S1132138656E2E2E2E0047726F757020343620532C
S11321486F66740070726F75646C79007072657371
S1132158656E747300464946412031380073706CCB
S11321686173682073637265656E20646F6E652E93
S11321782E2E006C657420746865206172726F7706
S11321887320666C792E2E2E006172726F7773201D
S113219861726520646F6E652E2E2E0050726F6218
S11321A86C656D732077697468204144432E2E2E24
S10521B8000021
S9030000FC
