S013000050726F6A6563744D61696E2E73726563B5
S1130000B3C10000E0C10000EDC10000FAC100006E
S1130010C7C10000C5C10000C3C10000C1C10000C8
S1130020BFC10000BDC10000BBC10000B9C10000D8
S1130030B7C10000B5C10000B3C10000B1C10000E8
S1130040AFC10000ADC10000ABC10000AAC10000F7
S1130050A7C10000A5C10000A3C10000A1C1000008
S11300609FC100009DC100009BC1000099C1000018
S1130070000000000000000000065F5F06000000B2
S11300800007070007070000147F7F147F7F140018
S1130090242E6B6B3A120000466630180C66620020
S11300A0307A4F5D377A48000407030000000000EF
S11300B0001C3E63410000000041633E1C00000040
S11300C0082A3E1C1C3E2A0808083E3E0808000078
S11300D000A0E0600000000008080808080800000C
S11300E000006060000000006030180C060301008E
S11300F03E7F594D7F3E000042427F7F40400000DA
S1130100627359496F660000226349497F360000D3
S1130110181C16137F7F1000276745457D390000A2
S11301203C7E4B4979300000036371190F070000CE
S1130130367F49497F360000064F49693F1E00005B
S113014000006C6C0000000000A0EC6C00000000DB
S1130150081C366341000000141414141414000025
S1130160004163361C080000020351590F060000C9
S11301703E7F415D5D1F1E007C7E13137E7C00006C
S1130180417F7F49497F36001C3E63414163220021
S1130190417F7F41637F1C00417F7F495D41630054
S11301A0417F7F491D0103001C3E6341517372006E
S11301B07F7F08087F7F000000417F7F41000000AF
S11301C0307040417F3F0100417F7F081C7763000E
S11301D0417F7F41406070007F7F060C067F7F0077
S11301E07F7F060C187F7F001C3E6341633E1C002A
S11301F0417F7F49090F06001E3F21717F5E000089
S1130200417F7F19396F460026674D597B320000C4
S113021003417F7F410300007F7F40407F7F0000D8
S11302201F3F60603F1F00007F7F3018307F7F00DA
S113023063771C081C776300074F78784F0700002A
S11302406773594D47637100007F7F41410000008F
S11302500103060C183060000041417F7F0000005C
S1130260080C0603060C0800808080808080808053
S11302700000030704000000207454543C7840003C
S1130280413F7F44447C3800387C44446C2800005F
S1130290307848493F7F4000387C54545C18000053
S11302A0487E7F490302000098BCA4A4F87C0400A3
S11302B0417F7F08047C780000447D7D400000007D
S11302C040C484FD7D000000417F7F10386C4400F1
S11302D000417F7F400000007C7C0C180C7C78007F
S11302E07C7C04047C780000387C44447C38000026
S11302F084FCF8A4243C1800183C24A4F8FC8400D2
S1130300447C78441C180000485C54547424000055
S113031000043E7F442400003C7C40403C7C400080
S11303201C3C60603C1C00003C7C6030607C3C00F9
S1130330446C3810386C44009CBCA0A0FC7C0000C9
S11303404C64745C4C64000008083E774141000032
S113035000000077770000004141773E0808000064
S1130360020301030203010011241FBECFEFD4E0F6
S1130370DEBFCDBF13E0A0E0B1E0E8E9FEE102C0DA
S113038005900D92A63DB107D9F723E0A6EDB3E0A1
S113039001C01D92AF3FB207E1F781D00C944A0F20
S11303A02FCE1F920F920FB60F9211248F938CB100
S11303B08093EF0381E08093DA038F910F900FBE57
S11303C00F901F9018951F920F920FB60F92112441
S11303D08F9381E08093D9038F910F900FBE0F907C
S11303E01F9018951F920F920FB60F9211248F939E
S11303F081E08093D7038F910F900FBE0F901F90D1
S113040018951F920F920FB60F9211248F9381E0CB
S11304108093D6038F910F900FBE0F901F90189565
S1130420EF92FF920F931F931FE1E12EF12C00E056
S113043010E020E030E04BE450E060E875E280E05A
S113044090E00E946F0A82EB91E00E945C0C81E0D4
S11304503BD20E943D0A4AD20DD70E94460A46D496
S113046092D08BB780648BBF85B7826085BF85B718
S11304708E7F85BF8B98939A8BB780688BBF85B727
S1130480886085BF85B78B7F85BF32983A98B898C6
S1130490C09878941F910F91FF90EF900895CF9397
S11304A0DF93CDB7DEB7AC970FB6F894DEBF0FBEBF
S11304B0CDBFB6DF87E190E09A83898388E08B83A0
S11304C080E48C838EE78D8388E48E838CE68F832F
S11304D081E388878EE289878FE28A8785E38B8729
S11304E060E0CE01019666D02FEF8FE791E02150B6
S11304F080409040E1F700C000C08CE090E09D8710
S11305008C8782E08E8781E68F878BE2888B10E070
S11305100BE0FF24F394AAD38091D803882319F025
S1130520F8D11092D8038091D70381115AD68091C3
S1130530D603882381F36CE280E0C1D3837059F33E
S1130540682FCE0182969FD0FE01B296DE015796A7
S1130550802F01900D928A95E1F7CE0147965CD1E8
S11305601092D6031111D7CF60E0CE010C9622D0A1
S11305702FEF8FE791E0215080409040E1F700C0D9
S113058000C01F2DC8CFCF93DF93CDB7DEB743E0B4
S11305906BE280E090E0C5D340E660E680E090E066
S11305A0C0D320E440EC6FE080E090E0CDD3DF9155
S11305B0CF910895CF93DF93CDB7DEB727970FB6CA
S11305C0F894DEBF0FBECDBF9E838D836F838F8172
S11305D0882F90E0009709F04DC08D819E81FC0129
S11305E0808191819C838B838B818295880F807E0F
S11305F0482F62E380E090E094D38B819C819695B0
S113060087959695879596958795482F61E380E021
S113061090E087D38D819E81FC018281482F65E320
S113062080E090E07ED386E389831A8215C08A81B4
S1130630882F90E02D813E81820F931F0396FC0149
S11306408081482F698180E090E06BD389818F5F3E
S113065089838A818F5F8A838D819E81FC01928147
S11306608A81891720F32FEF48E060E380E090E06F
S11306706BD3000027960FB6F894DEBF0FBECDBF34
S1130680DF91CF9108950F931F93CF93DF93CDB74D
S1130690DEB761970FB6F894DEBF0FBECDBF988B5F
S11306A08F87698B8989882F90E08230910509F4BE
S11306B057C08330910521F08130910509F09FC026
S11306C061E680E090E0FBD2882F90E09D838C83EC
S11306D08C819D818C01000F111F000F111F000FD1
S11306E0111F62E680E090E0EAD2829586958770D9
S11306F0882F90E0802B912B9D838C8365E680E08E
S113070090E0DDD28E8386E689831A8214C08A81C2
S1130710082F10E0698180E090E0D1D2282FCE012B
S11307200796800F911FFC01208389818F5F898345
S11307308A818F5F8A839E818A81891740F320E0B2
S113074041E06CE280E090E0FFD28F8598892BE055
S1130750FE013496DC0101900D922A95E1F74FC019
S113076061E780E090E0ABD2882F90E09D838C839A
S11307708C819D818C01000F111F000F111F000F30
S1130780111F62E780E090E09AD282958695877087
S1130790882F90E0802B912B9D838C8365E780E0EC
S11307A090E08DD28E8386E789831B8214C08B816F
S11307B0082F10E0698180E090E081D2282FCE01DB
S11307C00796800F911FFC01208389818F5F8983A5
S11307D08B818F5F8B839E818B81891740F320E00F
S11307E042E06CE280E090E0AFD28F8598892BE004
S11307F0FE013496DC0101900D922A95E1F78F8574
S1130800988961960FB6F894DEBF0FBECDBFDF9115
S1130810CF911F910F910895CF93DF9300D01F9232
S1130820CDB7DEB79B838A838A819B81FC01828159
S1130830282F30E08A819B81FC0180819181432FA4
S11308404F932F93292F2F938F9384E191E0892F36
S11308508F9384E191E08F930E94460C0F900F9048
S11308600F900F900F900F9019821EC08981882FCE
S113087090E02A813B81820F931F0396FC018081C3
S1130880882F90E0292F2F938F9380E491E0892F74
S11308908F9380E491E08F93F9D70F900F900F908E
S11308A00F9089818F5F89838A819B81FC0192816A
S11308B089818917D8F28AE090E0F9D70F900F90D8
S11308C00F90DF91CF91089595B7906895BF96B733
S11308D0986096BF882319F080B7806280BF08951E
S11308E0FC0180810895FC01608308951092DD036A
S11308F01092DC031092DF031092DE031092E103E6
S11309001092E0031092E3031092E2031092DB03CF
S11309100895CF93DF9390D460E070E080E090E09E
S11309206ED488E092E046D582E192E0C5D72FEFFD
S11309304FEF52E0215040405040E1F700C000C06A
S1130940C4E1D0E0609106017091070182E0E0D536
S11309508FEF9FE121E0815090402040E1F700C0FB
S113096000008091060190910701F6D590910D0148
S1130970981710F480930D012197209719F760E0E0
S113098070E081E090E03BD488E292E013D581E30B
S113099092E092D74FEF5FEF82E0415050408040A9
S11309A0E1F700C000C0C4E1D0E06091060170919D
S11309B0070182E0ADD59FEF2FE141E09150204047
S11309C04040E1F700C000008091060190910701CA
S11309D0C3D590910C01891710F480930C012197D1
S11309E0209719F760E070E082E090E008D486E494
S11309F092E0E0D48DE492E05FD75FEF8FEF92E076
S1130A00515080409040E1F700C000C0C4E1D0E004
S1130A10609106017091070181E07AD52FEF4FE1D3
S1130A2051E0215040405040E1F700C00000809167
S1130A3006019091070190D590910B01981710F43D
S1130A4080930B012197209719F760E070E083E011
S1130A5090E0D5D389E592E0ADD482E692E02CD73C
S1130A608FEF9FEF22E0815090402040E1F700C0DB
S1130A7000C0C4E1D0E0609106017091070181E0FB
S1130A8047D54FEF5FE181E0415050408040E1F7AE
S1130A9000C0000080910601909107015DD59091FE
S1130AA00A01891710F480930A012197209719F7F6
S1130AB030910A0120910B0190910C0180910D015C
S1130AC01F923F931F922F931F929F931F928F9376
S1130AD080E792E09F938F93D9D620910B01809168
S1130AE00A0130E0281B3109C9014DB75EB7465FE2
S1130AF05F4F0FB6F8945EBF0FBE4DBF99230CF441
S1130B000196959587958093090120910D01809117
S1130B100C0130E0281B3109C90199230CF401961A
S1130B20959587958093080160E070E084E090E0FB
S1130B3066D38AE992E03ED490910801809109013C
S1130B401F929F931F928F9385EA92E09F938F93B6
S1130B509DD65FEF8FEF9EE0515080409040E1F7CB
S1130B6000C000000F900F900F900F900F900F9007
S1130B70DF91CF910895883739F46091060170911F
S1130B80070182E0C5C40895893731F460910601F4
S1130B907091070181E0BCC408958837F9F480910D
S1130BA0060190910701D8D490E09093DD038093DF
S1130BB0DC032091080160910801AC01421B51093A
S1130BC09A0144E6429FC001439F900D112470E0B6
S1130BD0C5D47093E1036093E00308958937F1F479
S1130BE08091060190910701B7D490E09093DF03C0
S1130BF08093DE032091090160910901AC01421B3D
S1130C0051099A0144E6429FC001439F900D11246B
S1130C1070E0A4D47093E3036093E2030895809199
S1130C20E0039091E1038B35910524F083E08093F8
S1130C30DB030895863A9F4F24F484E08093DB031A
S1130C4008958091E2039091E3038B35910524F09C
S1130C5081E08093DB030895863A9F4F24F482E079
S1130C608093DB0308951092DB03089588E783DF04
S1130C7082E68A95F1F7000088E78FDF89E77BDF5A
S1130C8082E68A95F1F7000089E787DFC8DF809163
S1130C90DB030895CF93C82F12D480EC06D48CECD8
S1130CA094E00197F1F700C000008C2F0CD48FEF73
S1130CB09FE20197F1F700C00000CF910895CF9310
S1130CC0DF93C82FD62FFBD383E0EFD38CEC94E0D3
S1130CD00197F1F700C000008D2FE7D3EAD3D82F96
S1130CE08C2FF1D38D2FDF91CF91089580E0D2DF47
S1130CF06EE080E0E4DF982F907E903869F01F92D8
S1130D008F938AEC92E09F938F93C0D50F900F90AE
S1130D100F900F9081E0089587E093E0CDD580E0B7
S1130D2008951F93CF93DF93C82F162FD42FC7D3C3
S1130D3082E0BBD3812FB9D38D2FB7D38C2FC3D3EC
S1130D40DF91CF911F9108950F931F93CF93DF935A
S1130D50C82F062F142FD22FB2D385E0A6D3802F0D
S1130D60A4D3812FA2D38D2FA0D38C2FACD3DF910A
S1130D70CF911F910F910895CF93DF935DD260E0DF
S1130D8070E080E090E03BD283E393E013D360E033
S1130D9070E083E090E033D2CEE0D0E089E393E0EA
S1130DA009D32FEF8FE797E0215080409040E1F77F
S1130DB000C000002197209789F760E070E085E08B
S1130DC090E01DD28BE393E0F5D22FEF8FEF9CE2FE
S1130DD0215080409040E1F700C000C0DF91CF91E6
S1130DE00895CF92DF92EF92FF920F931F93CF93C8
S1130DF0DF938C017B016A01E9018091E703909103
S1130E00E803892B19F084E493E056D58CE090E054
S1130E10CCD3FC019093E8038093E703F382E2824E
S1130E2011830083CD2B39F0D582C48281E090E018
S1130E309783868304C01582148217821682DF91F9
S1130E40CF911F910F91FF90EF90DF90CF90089575
S1130E50CF93DF9386E190E0A8D3EC019093EE0367
S1130E608093ED038AE593E0998388831D8A1C8A25
S1130E7085E090E09B838A8386E190E096D3FC0131
S1130E809093EC038093EB0383E693E09183808358
S1130E90D58BC48B83E090E09383828320E030E0A1
S1130EA040E050E0BE0182E793E09BDF6091ED03F8
S1130EB07091EE03E091E703F091E803DB011596EE
S1130EC0FC93EE9314978CEB96E093878287409182
S1130ED0EB035091EC0321E030E08BE793E081DFFA
S1130EE06091ED037091EE038091E7039091E80324
S1130EF0FB019783868320E030E040E050E086E801
S1130F0093E06FDF6091ED037091EE038091E7034E
S1130F109091E803DB0119969C938E93189720E037
S1130F2030E040E050E081E993E05BDF6091ED0365
S1130F307091EE03E091E703F091E803DB011B9667
S1130F40FC93EE931A9789E894E09387828720E0D4
S1130F5030E040E050E08BE993E043DFE091ED03C3
S1130F60F091EE038091E7039091E80395878487DD
S1130F701092E8031092E7036091EB037091EC0385
S1130F8020E030E040E050E080EA93E02ADF609126
S1130F90EB037091EC038091E7039091E803FB016C
S1130FA09583848320E030E040E050E085EA93E0DC
S1130FB018DF6091EB037091EC038091E70390914B
S1130FC0E803DB0117969C938E93169720E030E09C
S1130FD040E050E08CEA93E004DFE091EB03F09111
S1130FE0EC038091E7039091E80391878087DF9178
S1130FF0CF910895CF93DF93EC01CB01209749F073
S113100060910E0170910F01FAD088819981D2D13B
S113101007C081EB93E09F938F9338D40F900F9088
S1131020DF91CF910895CF92DF92EF92FF920F93C9
S11310301F93CF93DF936C017B01FED080E090E09F
S113104010D21E141F047CF486010C5F1F4FC0E0F5
S1131050D0E0BE01F801819191918F01CBDF2196FF
S1131060CE15DF05B1F7D092EA03C092E9031092DE
S1131070E5031092E403F601848195819093E803DB
S11310808093E703DF91CF911F910F91FF90EF9031
S1131090DF90CF9008952091E4033091E503121678
S11310A01306BCF4C90101979093E5038093E4030C
S11310B0E091E903F091EA032F5F3F4F220F331FC2
S11310C0E20FF31F208131813093E8032093E7037B
S11310D0C8C10895E091E903F091EA032091E40383
S11310E03091E50382819381019728173907A4F48D
S11310F0C90101969093E5038093E4032D5F3F4F6C
S1131100220F331FE20FF31F208131813093E80354
S11311102093E703A6C108951092E5031092E40317
S1131120848195819093E8038093E70380E090E0C5
S113113098C10895E091E903F091EA0384899589BF
S1131140009721F0FC01628173816DCF0895809135
S1131150E9039091EA03FC016281738164DF18C0A2
S11311600895E091E703F091E80386819781892B44
S113117039F084819581FC016281738154CF089593
S11311800284F385E02D309711F00995E0CF08959E
S11311908091E4039091E50364D18091E603882370
S11311A0F9F064DD823071F018F4813049F00BC03D
S11311B0833021F0843039F4BDDF05C0D2DF03C0B1
S11311C06ADF01C087DF2FEF8FE794E02150804072
S11311D09040E1F700C000008091E6038111E1CF67
S11311E0089581E08093E60333DE8091ED039091CE
S11311F0EE03FC016281738116DFCACF0895262FA6
S11312002F7075956795759567957595679575951F
S11312106795605F80559F4FE0911201F091130133
S11312208083E0911201F09113012083E091120177
S1131230F0911301608308951F93CF93DF93C1E06E
S1131240D0E080E090E010E060E070E0D8DF812F33
S1131250E0911001F091110110828F5F8038C1F785
S11312608C2F9D2F2196C930D10571F7DF91CF9135
S11312701F910895E0911201F09113018EEA808389
S1131280E0911201F091130181EA8083E09112014F
S1131290F09113018AED8083E0911201F091130122
S11312A082E18083E0911201F091130188EC808344
S11312B0E0911201F091130188EA8083E091120118
S11312C0F09113018FE38083E0911201F0911301F7
S11312D085ED8083E0911201F091130180E8808311
S11312E0E0911201F091130181E88083E0911201F1
S11312F0F091130180E58083E0911201F0911301D4
S113130089ED8083E0911201F091130181E28083E1
S1131310E0911201F091130180E28083E0911201C7
S1131320F091130182E08083E0911201F0911301A6
S11313308BED8083E0911201F091130180E38083AF
S1131340E0911201F09113018DEA8083E091120182
S1131350F09113011082E0911201F091130184EADB
S11313608083E0911201F091130186EA8083E09179
S11313701201F09113018FEA80835ECF08958052A9
S1131380282F30E0220F331F220F331F220F331F69
S113139080E090E020593F4FF901E80FF91FE491F4
S11313A0A0911001B0911101EC9301968830910540
S11313B099F708951F93CF93DF93EC0110E006C0D3
S11313C0FE01E80FF91F8081DADF1F5F812F90E0B3
S11313D0FE0101900020E9F73197EC1BFD0B8E17FD
S11313E09F0770F3DF91CF911F910895E091100151
S11313F0F091110188E18083E0911001F0911101D5
S11314008083E0911001F09111019EE79083E091B7
S11314101001F09111019CE39083E0911001F0918F
S11314201101808308951F93CF93DF93C1E0D0E02F
S113143080E090E010E060E070E0E1DE812FE09178
S11314401001F091110110828F5F8530C1F78C2F4C
S11314509D2F2196C930D10571F7DF91CF911F914E
S11314600895CF93DF93EC01DEDF60E070E0CE01FE
S1131470C6DEBCDFDF91CF9108951092F103109284
S1131480F2031092F3031092F40308958BB7806271
S11314908BBF86B78E7F86BF87B3806B87BB80E5A3
S11314A08DB981E08EB9C49A08958FB9779BFECF28
S11314B008958FEFFADF779BFECF8FB108958111E6
S11314C001C0C4980895811101C0C49A08955D9B18
S11314D0FECF8CB908955F9BFECF8CB10895EF9237
S11314E0FF920F931F93BB27A12F902F8F2D80BDA9
S11314F0E9B888E18AB9579A8EE880BD6BE67AE04C
S113150087E69AE079D11F910F91FF90EF900895AB
S11315109B01823069F018F4813031F015C08330BA
S113152059F0843069F010C064E0C901DCC9089541
S113153065E0C901D8C9089566E0C901D4C9089510
S113154067E0C901D0C9089581EC93E09F938F931C
S11315509DD10F900F900895C3C9089597FB072E4E
S113156016F4009406D077FD08D00BD007FC05D004
S11315703EF4909581959F4F0895709561957F4FA6
S11315800895AA1BBB1B51E107C0AA1FBB1FA617C6
S1131590B70710F0A61BB70B881F991F5A95A9F718
S11315A080959095BC01CD010895CF93DF9382304F
S11315B0910510F482E090E0E091F703F091F803D4
S11315C020E030E0A0E0B0E0309739F14081518173
S11315D048175907B8F04817590771F48281938165
S11315E0109729F013969C938E9312972CC0909386
S11315F0F8038093F70327C02115310531F0421712
S1131600530718F0A901DB0101C0EF019A01BD01E4
S1131610DF010280F381E02DD7CF21153105F9F0E8
S1131620281B390B2430310580F48A819B81611594
S1131630710521F0FB019383828304C09093F80326
S11316408093F703FE01329644C0FE01E20FF31FBC
S11316508193919322503109398328833AC0209190
S1131660F5033091F603232B41F4209102013091CC
S113167003013093F6032093F50320910001309188
S113168001012115310541F42DB73EB74091040104
S113169050910501241B350BE091F503F091F603FD
S11316A0E217F307A0F42E1B3F0B2817390778F035
S11316B0AC014E5F5F4F2417350748F04E0F5F1F94
S11316C05093F6034093F5038193919302C0E0E0B5
S11316D0F0E0CF01DF91CF910895CF93DF9300978E
S11316E009F487C0FC01329713821282C091F70378
S11316F0D091F803209781F420813181280F391F7C
S11317008091F5039091F6038217930779F5F0938E
S1131710F603E093F5036DC0DE0120E030E0AE1780
S1131720BF0750F412964D915C9113979D0141159A
S1131730510509F1DA01F3CFB383A28340815181CA
S1131740840F951F8A179B0771F48D919C911197B3
S1131750840F951F02969183808312968D919C919C
S11317601397938382832115310529F4F093F803A9
S1131770E093F7033EC0D9011396FC93EE931297BE
S11317804D915D91A40FB51FEA17FB0779F4808191
S11317909181840F951F0296D90111969C938E9383
S11317A08281938113969C938E931297E0E0F0E0EC
S11317B08A819B81009719F0FE01EC01F9CFCE01DB
S11317C0029628813981820F931F2091F50330916D
S11317D0F6032817390769F4309729F41092F803AF
S11317E01092F70302C013821282D093F603C093BF
S11317F0F503DF91CF9108950F931F93CF93DF9358
S1131800EC018B01009731F46115710519F480E046
S113181090E037C06EE070E081E090E03DD2FC01E2
S11318200097A9F380E883830115110571F01387EC
S1131830028781E883838091F9039091FA03892BCD
S113184021F4F093FA03E093F9032097C9F0D187C8
S1131850C0878381826083838091FB039091FC0322
S1131860892B71F4F093FC03E093FB038091FD0357
S11318709091FE03892B21F4F093FE03E093FD0382
S1131880CF01DF91CF911F910F910895A0E0B0E0B7
S1131890EBE4FCE0D8C2FE01359661917191AF0191
S11318A08091FB039091FC0334D0E2E0E8C26091A4
S11318B0FB037091FC0327C20F931F93CF93DF9315
S11318C0E091FB03F091FC03238121FF1BC0EC0199
S11318D000E010E089916091FB037091FC03DB014F
S11318E01896ED91FC911997882331F00995892B6D
S11318F089F30FEF1FEFEECF8AE00995892B11F4DE
S1131900C80102C08FEF9FEFDF91CF911F910F911C
S11319100895ACE0B0E0EEE8FCE085C27C016B0128
S11319208A01FC0117821682838181FFB0C1CE0136
S113193001964C01F7019381F60193FD859193FF84
S113194081916F01882309F49EC1853239F493FD96
S1131950859193FF81916F01853221F4B70190E065
S1131960D2D1E8CF512C312C20E02032A0F48B329C
S113197069F030F4803259F0833269F420612CC06C
S11319808D3239F0803339F4216026C0226024601E
S113199023C0286021C027FD27C030ED380F3A301E
S11319A078F426FF06C0FAE05F9E300D1124532E12
S11319B013C08AE0389E300D1124332E20620CC0EF
S11319C08E3221F426FD5FC1206406C08C3611F4EA
S11319D0206802C0883641F4F60193FD859193FF97
S11319E081916F018111C1CF982F9F7D95549330C0
S11319F028F40C5F1F4FFFE3F9830DC0833631F0E9
S1131A00833771F0833509F057C021C0F801808114
S1131A1089830E5F1F4F44244394512C540114C0F6
S1131A203801F2E06F0E711CF801A080B18026FF2E
S1131A3003C0652D70E002C06FEF7FEFC5012C87F6
S1131A4057D12C0183012C852F77222E16C0380103
S1131A50F2E06F0E711CF801A080B18026FF03C074
S1131A60652D70E002C06FEF7FEFC5012C872ED18A
S1131A702C012C852068222E830123FC19C0832D80
S1131A8090E048165906A0F4B70180E290E03BD1FB
S1131A903A94F5CFF50127FC859127FE81915F01EA
S1131AA0B70190E030D131103A94F1E04F1A510867
S1131AB04114510479F7DEC0843611F0893631F5CA
S1131AC0F80127FF07C060817181828193810C5FD7
S1131AD01F4F08C060817181882777FD8095982FFA
S1131AE00E5F1F4F2F76B22E97FF09C090958095F9
S1131AF0709561957F4F8F4F9F4F2068B22E2AE0DB
S1131B0030E0A40132D1A82EA81843C0853729F4A7
S1131B102F7EB22E2AE030E025C0F22FF97FBF2EAF
S1131B208F36C1F018F4883579F0ADC0803719F0DC
S1131B30883721F0A8C02F2F2061B22EB4FE0DC02B
S1131B408B2D8460B82E09C024FF0AC09F2F966095
S1131B50B92E06C028E030E005C020E130E002C024
S1131B6020E132E0F801B7FE07C060817181828113
S1131B7093810C5F1F4F06C06081718180E090E00B
S1131B800E5F1F4FA401F1D0A82EA818FB2DFF77DC
S1131B90BF2EB6FE0BC02B2D2E7FA51450F4B4FE21
S1131BA00AC0B2FC08C02B2D2E7E05C07A2C2B2D2A
S1131BB003C07A2C01C0752C24FF0DC0FE01EA0D70
S1131BC0F11D8081803311F4297E09C022FF06C0F3
S1131BD07394739404C0822F867809F0739423FD60
S1131BE012C020FF06C05A2C731418F4530C571853
S1131BF0732C731460F4B70180E290E02C8783D0D7
S1131C0073942C85F6CF731410F4371801C0312C5B
S1131C1024FF11C0B70180E390E02C8774D02C8599
S1131C2022FF16C021FF03C088E590E002C088E7C8
S1131C3090E0B7010CC0822F867851F021FD02C0DC
S1131C4080E201C08BE227FD8DE2B70190E05BD01A
S1131C50A51430F4B70180E390E055D05A94F8CF3E
S1131C60AA94F401EA0DF11D8081B70190E04BD0F4
S1131C70A110F6CF332009F45DCEB70180E290E0E5
S1131C8042D03A94F7CFF7018681978102C08FEF53
S1131C909FEF2C96E2E1E3C00F931F93CF93DF9362
S1131CA0869F8001879F100D969F100D1124C801F7
S1131CB07CDCEC01009721F0A80160E070E011D019
S1131CC0CE01DF91CF911F910F910895FC010590F2
S1131CD0615070400110D8F7809590958E0F9F1F2A
S1131CE00895DC0101C06D9341505040E0F7089520
S1131CF0FC016150704001900110D8F780959095D7
S1131D008E0F9F1F08950F931F93CF93DF93182F68
S1131D10092FEB018B8181FD03C08FEF9FEF20C062
S1131D2082FF10C04E815F812C813D814217530791
S1131D307CF4E881F9819F012F5F3F4F3983288329
S1131D40108306C0E885F985812F0995892B29F729
S1131D502E813F812F5F3F4F3F832E83812F902F12
S1131D60DF91CF911F910F910895FA01AA2728308E
S1131D7051F1203181F1E8946F936E7F6E5F7F4F54
S1131D808F4F9F4FAF4FB1E03ED0B4E03CD0670FD0
S1131D90781F891F9A1FA11D680F791F8A1F911D23
S1131DA0A11D6A0F711D811D911DA11D20D009F473
S1131DB068943F912AE0269F11243019305D3193B5
S1131DC0DEF6CF010895462F4770405D4193B3E09E
S1131DD00FD0C9F7F6CF462F4F70405D4A3318F045
S1131DE0495D31FD4052419302D0A9F7EACFB4E0F6
S1131DF0A6959795879577956795BA95C9F70097AE
S1131E006105710508959B01AC010A2E069457954E
S1131E10479537952795BA95C9F7620F731F841FA5
S1131E20951FA01D08952F923F924F925F926F923B
S1131E307F928F929F92AF92BF92CF92DF92EF9256
S1131E40FF920F931F93CF93DF93CDB7DEB7CA1BD7
S1131E50DB0B0FB6F894DEBF0FBECDBF09942A8802
S1131E60398848885F846E847D848C849B84AA84AA
S1131E70B984C884DF80EE80FD800C811B81AA8137
S1131E80B981CE0FD11D0FB6F894DEBF0FBECDBF02
S10B1E90ED010895F894FFCF61
S1131E980000FF0320000014808019C819C80A0034
S1131EA8001200107265636569766564206D657358
S1131EB8736167653A2069643A2025642C206C654F
S1131EC86E6774683A2025642C20646174613A0052
S1131ED8202563005374617274696E6720535241FC
S1131EE84D20746573742E2E2E005352414D207468
S1131EF865737420636F6D706C65746564207769AD
S1131F0874680A20253464206572726F72732069BC
S1131F186E20777269746520706861736520616EDC
S1131F28640A253464206572726F727320696E20A6
S1131F3872657472696576616C2070686173650A8C
S1131F480A000A3D3D3D3D3D3D3D3D3D3D3D3D3D58
S1131F583D3D3D3D3D3D3D3D3D535441525455501D
S1131F683D3D3D3D3D3D3D3D3D3D3D3D3D3D3D3D95
S1131F783D3D3D3D3D3D3D3D3D3D0043454E544584
S1131F8852004A4F593A2025732C20583A25642C7C
S1131F9820593A2025640A004A4F59205249474893
S1131FA854004D6F7665204A4F5920746F20746829
S1131FB865207269676874004A4F59204C45465435
S1131FC8004D6F7665204A4F5920746F20746865F8
S1131FD8206C656674004A4F59205550004D6F7641
S1131FE865204A4F59207570004A4F5920444F576D
S1131FF84E004D6F7665204A4F5920646F776E0006
S113200863616C523A2025642C2063616C4C3A203D
S113201825642C2063616C55703A25642C20636117
S11320286C446F776E3A25640A0043414C49422058
S1132038444F4E450043616C6962726174696F6E06
S113204820646F6E652E2E206E657720564D3A20DB
S1132058256420484D3A25640A004D4350323531F1
S113206835206973204E4F5420696E20636F6E6665
S1132078696775726174696F6E206D6F646520613C
S113208866746572207265736574212056616C7577
S1132098653A2025640A0066696E69736865642078
S11320A84D4350323531355F696E6974005254536B
S11320B83A20496E737472756374696F6E3A202599
S11320C8640A005354415254002A0059555049494E
S11320D8203A29004372656174696E67206E6578D9
S11320E874206974656D2E2E2E004D61696E4D65E0
S11320F86E7500446966666963756C74794D656EBE
S113210875004E65772047616D65004469666669A8
S113211863756C7479004869676873636F72657373
S1132128004A6F792043616C696200496E666F00EA
S113213865617379006D656469756D0068617264C1
S1132148004E554C4C20706F696E7465722E2E2E9D
S11321580050726F626C656D7320776974682041F2
S109216844432E2E2E005C
S9030000FC
