S013000050726F6A6563744D61696E2E73726563B5
S1130000C2C1000041C200004EC200005BC2000039
S1130010D6C10000D4C10000D2C10000D0C100008C
S1130020CEC10000CCC10000CAC10000C8C100009C
S1130030C6C10000C4C10000C2C10000C0C10000AC
S113004050C20000BCC10000BAC10000B9C1000028
S1130050B6C10000B4C10000B2C10000B0C10000CC
S1130060AEC10000ACC10000AAC10000A8C10000DC
S113007005A84CCDB2D44EB93836A9020C50B9916A
S11300808688083CA6AAAA2ABE000000803F000079
S113009000000000000000065F5F0600000000078B
S11300A0070007070000147F7F147F7F1400242EAD
S11300B06B6B3A120000466630180C666200307AA8
S11300C04F5D377A48000407030000000000001C5D
S11300D03E63410000000041633E1C000000082A0A
S11300E03E1C1C3E2A0808083E3E0808000000A0EA
S11300F0E06000000000080808080808000000008C
S11301006060000000006030180C060301003E7FB0
S1130110594D7F3E000042427F7F404000006273A1
S113012059496F660000226349497F360000181C54
S113013016137F7F1000276745457D3900003C7EFC
S11301404B4979300000036371190F070000367FB3
S113015049497F360000064F49693F1E00000000F0
S11301606C6C0000000000A0EC6C00000000081C97
S113017036634100000014141414141400000041E8
S113018063361C080000020351590F0600003E7F2D
S1130190415D5D1F1E007C7E13137E7C0000417F49
S11301A07F49497F36001C3E634141632200417F01
S11301B07F41637F1C00417F7F495D416300417F34
S11301C07F491D0103001C3E6341517372007F7F10
S11301D008087F7F000000417F7F410000003070ED
S11301E040417F3F0100417F7F081C776300417FCE
S11301F07F41406070007F7F060C067F7F007F7F19
S1130200060C187F7F001C3E6341633E1C00417F47
S11302107F49090F06001E3F21717F5E0000417F68
S11302207F19396F460026674D597B320000034120
S11302307F7F410300007F7F40407F7F00001F3F9E
S113024060603F1F00007F7F3018307F7F0063773E
S11302501C081C776300074F78784F07000067730A
S1130260594D47637100007F7F4141000000010345
S1130270060C183060000041417F7F000000080C2C
S11302800603060C08008080808080808080000047
S1130290030704000000207454543C784000413F9C
S11302A07F44447C3800387C44446C280000307817
S11302B048493F7F4000387C54545C180000487E15
S11302C07F490302000098BCA4A4F87C0400417F89
S11302D07F08047C780000447D7D4000000040C419
S11302E084FD7D000000417F7F10386C4400004194
S11302F07F7F400000007C7C0C180C7C78007C7CA8
S113030004047C780000387C44447C38000084FC7D
S1130310F8A4243C1800183C24A4F8FC8400447C71
S113032078441C180000485C5454742400000004F1
S11303303E7F442400003C7C40403C7C40001C3C0C
S113034060603C1C00003C7C6030607C3C00446C81
S11303503810386C44009CBCA0A0FC7C00004C64A9
S1130360745C4C64000008083E77414100000000C2
S11303700077770000004141773E0808000002033F
S113038001030203010011241FBECFEFD4E0DEBF3E
S1130390CDBF12E0A0E0B1E0ECE6F0E302C00590CE
S11303A00D92A83DB107D9F723E0A8EDB2E001C052
S11303B01D92A333B207E1F70AD10C94341820CE6E
S11303C01F920F920FB60F9211242F933F934F93C6
S11303D05F936F937F938F939F93AF93BF93EF93A9
S11303E0FF930E94FC1080930E039091E2029923E4
S11303F0F9F09091E102913061F018F0923089F0B7
S113040017C080930B031092E20291E09093E002F4
S11304100FC080930C031092E20291E09093E002EB
S113042007C080930D031092E20291E09093E002E2
S11304308F3F31F481E08093E2021092E10210C018
S11304408E3F31F481E08093E2028093E10208C0A0
S11304508D3F31F481E08093E20282E08093E102F7
S113046081E08093E302FF91EF91BF91AF919F915F
S11304708F917F916F915F914F913F912F910F9049
S11304800FBE0F901F9018951F920F920FB60F92E8
S113049011248F9381E08093DF028F910F900FBE20
S11304A00F901F9018951F920F920FB60F92112460
S11304B08F9381E08093DE028F910F900FBE0F9097
S11304C01F9018951F920F920FB60F9211248F93BD
S11304D081E08093DA028F910F900FBE0F901F90EE
S11304E018951F920F920FB60F9211242F933F93DA
S11304F04F935F936F937F938F939F93AF93BF9328
S1130500EF93FF930E94E70B8091D9028F5F809352
S1130510D9028091D8028F5F8093D8028091D9024A
S1130520823021F40E94520E1092D902FF91EF9171
S1130530BF91AF919F918F917F916F915F914F91F7
S11305403F912F910F900FBE0F901F901895EF922F
S1130550FF920F931F931FE1E12EF12C00E010E0B6
S113056020E030E04BE450E060E875E280E090E0A9
S11305700E9400118AE491E00E94271581E007D2CD
S11305800E948B10CFD30E94FD0F0E94D710D7D5A5
S11305905BD08BB780648BBF85B7826085BF85B71E
S11305A08E7F85BF8B98939A8BB780688BBF85B7F6
S11305B0886085BF85B78B7F85BF32983A98B89895
S11305C0C09878941F910F91FF90EF900895BFDF2A
S11305D011E0C1E0D0E002E08091DE028823A1F0C6
S11305E08091DB029091DC02892B71F41093080155
S11305F06DED72E088E091E00E94290BD093DC025B
S1130600C093DB021092DE028091DE02882359F04F
S11306108091DB029091DC02019729F41093080188
S1130620CAD71092DE02809108018111D5CFC1D1C1
S11306302DED32E04BE053E060EE72E08AED92E0A3
S113064065D200930801C8CFCF93DF93CDB7DEB74F
S113065043E06BE280E090E07ED540E660E680E037
S113066090E079D520E040E86FE080E090E08BD521
S1130670DF91CF910895CF93DF93CDB7DEB727975E
S11306800FB6F894DEBF0FBECDBF9E838D836F83FC
S11306908F81882F90E0009709F04DC08D819E8155
S11306A0FC01808191819C838B838B818295880F4F
S11306B0807E482F62E380E090E04DD58B819C8161
S11306C0969587959695879596958795482F61E396
S11306D080E090E040D58D819E81FC018281482F8D
S11306E065E380E090E037D586E389831A8215C0FC
S11306F08A81882F90E02D813E81820F931F03967B
S1130700FC018081482F698180E090E024D58981B3
S11307108F5F89838A818F5F8A838D819E81FC01AB
S113072092818A81891720F32FEF48E060E380E00B
S113073090E029D5000027960FB6F894DEBF0FBECF
S1130740CDBFDF91CF9108950F931F93CF93DF9384
S1130750CDB7DEB761970FB6F894DEBF0FBECDBF3D
S1130760988B8F87698B8989882F90E082309105D7
S113077009F457C08330910521F08130910509F0C7
S11307809FC061E680E090E0BED4882F90E09D8316
S11307908C838C819D818C01000F111F000F111F10
S11307A0000F111F62E680E090E0ADD4829586953B
S11307B08770882F90E0802B912B9D838C8365E636
S11307C080E090E0A0D48E8386E689831A8214C0E8
S11307D08A81082F10E0698180E090E094D4282F6A
S11307E0CE010796800F911FFC01208389818F5FC2
S11307F089838A818F5F8A839E818A81891740F3E6
S113080020E041E06CE280E090E0BDD48F859889DF
S11308102BE0FE013496DC0101900D922A95E1F75C
S11308204FC061E780E090E06ED4882F90E09D8314
S11308308C838C819D818C01000F111F000F111F6F
S1130840000F111F62E780E090E05DD482958695E9
S11308508770882F90E0802B912B9D838C8365E794
S113086080E090E050D48E8386E789831B8214C095
S11308708B81082F10E0698180E090E044D4282F18
S1130880CE010796800F911FFC01208389818F5F21
S113089089838B818F5F8B839E818B81891740F342
S11308A020E042E06CE280E090E06DD48F8598898E
S11308B02BE0FE013496DC0101900D922A95E1F7BC
S11308C08F85988961960FB6F894DEBF0FBECDBFB1
S11308D0DF91CF911F910F910895CF93DF9300D0B3
S11308E01F92CDB7DEB79B838A838A819B81FC01EB
S11308F08281282F30E08A819B81FC018081918153
S1130900432F4F932F93292F2F938F938AE191E0B5
S1130910892F8F938AE191E08F930E9411150F9094
S11309200F900F900F900F900F9019821FC0898124
S1130930882F90E02A813B81820F931F0396FC014C
S11309408081882F90E0292F2F938F9386E491E064
S1130950892F8F9386E491E08F930E9411150F9055
S11309600F900F900F9089818F5F89838A819B817B
S1130970FC01928189818917D0F28AE090E00E947B
S113098022150F900F900F90DF91CF91089595B796
S1130990906895BF96B7986096BF882319F080B782
S11309A0806280BF0895FC0180810895FC0160830A
S11309B008950F931F93CF93DF931092E90210923F
S11309C0E80283E08093E702CDD664E070E080E043
S11309D090E01FD783E891E07BD763E170E083E088
S11309E090E017D783E991E073D76CE470E083E07B
S11309F090E00FD789E991E06BD763E270E085E07E
S1130A0090E007D78091E7021F928F930FE911E0DE
S1130A101F930F93CAEED2E0DF93CF930E94541535
S1130A20CE0156D764E570E085E090E0F2D680917F
S1130A30E9028F938091E8028F931F930F93DF93C2
S1130A40CF930E945415CE0143D78DB79EB70C9611
S1130A500FB6F8949EBF0FBE8DBFDF91CF911F914B
S1130A600F9108958091E70281508093E70263E239
S1130A7070E085E090E0CDD68091E7021F928F93DD
S1130A808FE991E09F938F938AEE92E09F938F93E7
S1130A900E9454158AEE92E01BD760E370E087E071
S1130AA090E0B7D682EA91E013D7109209010F9033
S1130AB00F900F900F900F900F9008958091E8027F
S1130AC09091E90201969093E9028093E80264E52B
S1130AD070E085E090E09DD68091E9028F9380914B
S1130AE0E8028F938FE991E09F938F938AEE92E0CF
S1130AF09F938F930E9454158AEE92E0E9D60F904B
S1130B000F900F900F900F900F9008952F923F9297
S1130B104F925F926F927F928F929F92AF92BF9209
S1130B20CF92DF92EF92FF920F931F93CF93DF93B5
S1130B30CDB7DEB7A0970FB6F894DEBF0FBECDBF1A
S1130B408A0179010F2EFAE18F2EF3E09F2EF02D0A
S1130B500F2EF7E16F2E712CF02D382C98A28F8E6A
S1130B60432C1C0178C0809109018111A7DF6BD24D
S1130B7029833A834B835C836D837E838F83988739
S1130B802093E6020E94C6108093E5022A9B03C0CC
S1130B905092E40202C01092E402EF8DF8A1718237
S1130BA06082ECE1F3E080829091E602EDE1F3E013
S1130BB09083EEE1F3E080838091E402EFE1F3E0DF
S1130BC08083F8018081E0E2F3E08083F801818191
S1130BD0F6018083F8018281F5018083F701808129
S1130BE0E3E2F3E0808360E0842D992D44DD80E02E
S1130BF090EF0197F1F7F1018081882309F43DC05A
S1130C006CE280E080D2837031F1682FCE0144968B
S1130C109BDD8BE0FE017496DE01199601900D9226
S1130C208A95E1F7CE01099658DE89859A8545971C
S1130C3009F418DF89859A850D9759F460E370E00B
S1130C4087E090E0E6D587EA91E042D681E08093A0
S1130C500901F1011082552453940F2EF7E08F2ED1
S1130C60F02D0F2EF1E2CF2EF3E0DF2EF02D0F2E1C
S1130C70F2E2AF2EF3E0BF2EF02D2091E702211116
S1130C8072CF70D56CE170E082E090E0C2D58CEA5E
S1130C9091E01ED66CE270E084E090E0BAD586EB79
S1130CA091E016D664E370E085E090E0B2D58091DF
S1130CB0E9028F938091E8028F938FE991E09F93EB
S1130CC08F938AEE92E09F938F930E9454158AEE3D
S1130CD092E0FED5FFEF2FEF8DE1F15020408040F0
S1130CE0E1F700C000000F900F900F900F900F904D
S1130CF00F90A0960FB6F894DEBF0FBECDBFDF9164
S1130D00CF911F910F91FF90EF90DF90CF90BF9004
S1130D10AF909F908F907F906F905F904F903F9097
S1130D202F9008951092EF021092EE021092F102A9
S1130D301092F0021092F3021092F2021092F50255
S1130D401092F4021092ED020895CF93DF930AD526
S1130D5060E070E080E090E05CD58CEB91E0B8D589
S1130D602FEF8FEF92E0215080409040E1F700C0D8
S1130D7000C0C4E1D0E0609106017091070182E0F7
S1130D800E944E132FEF8FE191E02150804090405C
S1130D90E1F700C0000080910601909107010E94D4
S1130DA0761390910F01981710F480930F012197F7
S1130DB0209709F760E070E081E090E02AD586ECA6
S1130DC091E086D52FEF8FEF92E021508040904044
S1130DD0E1F700C000C0C4E1D0E060910601709169
S1130DE0070182E00E944E132FEF8FE191E0215022
S1130DF080409040E1F700C000008091060190918E
S1130E0007010E94761390910E01891710F48093C4
S1130E100E012197209709F760E070E082E090E0EE
S1130E20F8D48FEC91E054D52FEF8FEF92E021505E
S1130E3080409040E1F700C000C0C4E1D0E0609180
S1130E4006017091070181E00E944E132FEF8FE19C
S1130E5091E0215080409040E1F700C00000809173
S1130E600601909107010E94761390910D01981745
S1130E7010F480930D012197209709F760E070E04A
S1130E8083E090E0C6D486ED91E022D52FEF8FEF7A
S1130E9092E0215080409040E1F700C000C0C4E1DE
S1130EA0D0E0609106017091070181E00E944E1329
S1130EB02FEF8FE191E0215080409040E1F700C096
S1130EC0000080910601909107010E947613909191
S1130ED00C01891710F480930C012197209709F7CE
S1130EE020910D0180910C0130E0281B3109C901CA
S1130EF099230CF401969595879580930B01209185
S1130F000F0180910E0130E0281B3109C90199239A
S1130F100CF401969595879580930A0160E070E042
S1130F2084E090E076D48FED91E0D2D42FEF8FEF70
S1130F309EE0215080409040E1F700C00000DF9126
S1130F40CF910895883741F46091060170910701AB
S1130F5082E00C944E130895893739F460910601A8
S1130F607091070181E00C944E130895883709F5B8
S1130F7080910601909107010E94761390E090936E
S1130F80EF028093EE0220910A0160910A01AC0104
S1130F90421B51099A0144E6429FC001439F900DB0
S1130FA0112470E00E9479137093F3026093F202AB
S1130FB00895893701F580910601909107010E94F7
S1130FC0761390E09093F1028093F00220910B014C
S1130FD060910B01AC01421B51099A0144E6429F06
S1130FE0C001439F900D112470E00E947913709307
S1130FF0F5026093F40208958091F2029091F30255
S11310008B35910524F083E08093ED020895863AB0
S11310109F4F24F484E08093ED0208958091F402BC
S11310209091F5028B35910524F081E08093ED02D7
S11310300895863A9F4F24F482E08093ED02089548
S11310401092ED020895CF93DF93CDB7DEB72897C2
S11310500FB6F894DEBF0FBECDBF88E773DF82E61C
S11310608A95F1F7000088E781DF89E76BDF82E684
S11310708A95F1F7000089E779DF88E0EEEEF2E087
S1131080DE01119601900D928A95E1F729813A814A
S11310904B815C816D817E818F81988528960FB606
S11310A0F894DEBF0FBECDBFDF91CF91089588E7DE
S11310B049DF82E68A95F1F7000088E757DF89E780
S11310C041DF82E68A95F1F7000089E74FDF94DF7C
S11310D08091ED020895CF93C82F0E94F01080EC08
S11310E00E94E6108CEC94E00197F1F700C0000038
S11310F08C2F0E94F4108FEF9FE20197F1F700C04C
S11311000000CF910895CF93DF93C82FD62F0E946C
S1131110F01083E00E94E6108CEC94E00197F1F764
S113112000C000008D2F0E94E6100E94EA10D82F04
S11311308C2F0E94F4108D2FDF91CF91089580E0C1
S1131140CADF6EE080E0DFDF982F907E81E0903888
S113115009F480E008951F93CF93DF93C82F162FCF
S1131160D42F0E94F01082E00E94E610812F0E948A
S1131170E6108D2F0E94E6108C2F0E94F410DF9150
S1131180CF911F9108950F931F93CF93DF93C82F8F
S1131190062F142FD22F0E94F01085E00E94E61033
S11311A0802F0E94E610812F0E94E6108D2F0E944E
S11311B0E6108C2F0E94F410DF91CF911F910F91B4
S11311C00895CF93DF93E091F802F091F902108231
S11311D0C9D26CE270E080E090E01BD38AEE91E02B
S11311E077D360E070E083E090E013D3C0E1D0E017
S11311F081E991E06DD380E090EF0197F1F72197B9
S11312002097B1F79FEF2FE787E09150204080406F
S1131210E1F700C000006CE170E086E090E0F9D2F4
S113122080EF91E055D39FEF2FEF8DE19150204057
S11312308040E1F700C00000DF91CF910895CF9284
S1131240DF92EF92FF920F931F93CF93DF938C0162
S11312507B016A01E9018091FD029091FE02892BD4
S113126021F08AEF91E00E9427158CE090E00E9423
S1131270A013FC019093FE028093FD02F382E282AC
S113128011830083CD2B39F0D582C48281E090E0B4
S11312909783868304C01582148217821682DF9195
S11312A0CF911F910F91FF90EF90DF90CF90089511
S11312B0CF93DF9386E190E00E94A013EC0190931A
S11312C004038093030380E192E0998388831D8A59
S11312D01C8A84E090E09B838A8386E190E00E94EC
S11312E0A013FC01909302038093010389E192E02F
S11312F091838083D58BC48B83E090E09383828336
S113130020E030E040E050E0BE0182E292E097DF6E
S11313106091030370910403E091FD02F091FE02D9
S1131320DB011596FC93EE93149781EE98E0938776
S11313308287409101035091020321E030E08BE267
S113134092E07DDF60910303709104038091FD02BC
S11313509091FE02FB019783868320E030E040E019
S113136050E080E392E06BDF60910303709104032B
S1131370E091FD02F091FE02DB011996FC93EE93DD
S1131380189785EA96E09387828720E030E040E072
S113139050E08AE392E053DFE091FD02F091FE0217
S11313A0A0910303B09104031B96FC93EE931A9748
S11313B08FE39BE0938782871092FE021092FD02D6
S11313C0609101037091020320E030E040E050E0BE
S11313D08FE392E034DF6091010370910203E091A6
S11313E0FD02F091FE02DB011596FC93EE93149737
S11313F0CBE6DBE0D387C28720E030E040E050E07A
S113140086E492E01CDF6091010370910203E09195
S1131410FD02F091FE02DB011796FC93EE93169702
S1131420D387C28720E030E040E050E08FE492E0D0
S113143006DFE091FD02F091FE02A0910103B0915C
S113144002031996FC93EE931897D387C287DF9112
S1131450CF910895CF93DF93EC01CB01209739F01E
S11314606AE070E0D6D18881998132D208C082E5E1
S113147092E09F938F930E9411150F900F90DF912C
S1131480CF910895CF92DF92EF92FF920F931F9323
S1131490CF93DF936C017B0165D1F8D31E141F0435
S11314A07CF486010C5F1F4FC0E0D0E0BE01F80160
S11314B0819191918F01CEDF2196CE15DF05B1F791
S11314C0D0920003C092FF021092FB021092FA0223
S11314D0F601848195819093FE028093FD02DF9151
S11314E0CF911F910F91FF90EF90DF90CF900895CF
S11314F02091FA023091FB0212161306BCF4C901C2
S113150001979093FB028093FA02E091FF02F0911D
S113151000032F5F3F4F220F331FE20FF31F208181
S113152031813093FE022093FD025AC20895E09166
S1131530FF02F09100032091FA023091FB028281B4
S11315409381019728173907A4F4C9010196909350
S1131550FB028093FA022D5F3F4F220F331FE20FED
S1131560F31F208131813093FE022093FD0238C2A3
S113157008951092FB021092FA028481958190934F
S1131580FE028093FD0282D32FEF8FEF92E0215071
S113159080409040E1F700C000C00895E091FF0250
S11315A0F091000384899589009721F0FC01628100
S11315B0738168CF08958091FF0290910003FC012C
S11315C0628173815FDF21C00895E091FD02F09193
S11315D0FE0286819781892B39F084819581FC01F3
S11315E0628173814FDF07C00284F385E02D309759
S11315F011F00995E0DFFFEF2FEF82E0F15020407A
S11316008040E1F700C000C008958091FA029091F3
S1131610FB02E6D112C04BDD823071F018F4813048
S113162049F00BC0833021F0843039F4B7DF05C0B2
S1131630CCDF03C05DDF01C07ADF8091FC02882328
S113164039F0E091F802F091F9028081813019F3C8
S113165008959093F9028093F8027093F7026093CF
S1131660F60281E08093FC0223DE809103039091D3
S11316700403FC016281738105DFC7CF089572D032
S113168060E070E080E090E0C4D082E692E020D197
S113169060E070E082E090E0BCD08BE692E018D18C
S11316A060E070E083E090E0B4D086E792E010D18F
S11316B060E070E084E090E0ACD08FE792E008D185
S11316C02FEF8FEF9CE2215080409040E1F700C063
S11316D000C071CF0895CF93DF93C091FA02D091E7
S11316E0FB0240D060E070E080E090E092D089E8B6
S11316F092E0EED060E070E081E090E08AD0CE012C
S113170099278130910571F082309105A9F0892BD8
S1131710E1F4E091F602F091F702108280E992E0A0
S1131720D7D013C0E091F602F091F70281E08083F4
S113173087E992E0CDD009C0E091F602F091F7027A
S113174082E080838FE492E0C3D02FEF8FEF9EE09E
S1131750215080409040E1F700C000002CDFDF9171
S1131760CF9108958091120190911301892B89F0F2
S113177080E090E0E0911401F0911501E80FF91F69
S11317801082019620911201309113018217930760
S113179088F30895262F2F7075956795759567952D
S11317A07595679575956795605F80559F4FE09136
S11317B01801F09119018083E0911801F091190149
S11317C02083E0911801F09119016083089560E08D
S11317D070E080E090E0DEDF8091120190911301CF
S11317E0892BB1F080E090E0E0911401F0911501B3
S11317F0E80FF91F2081E0911601F0911701208371
S1131800019620911201309113018217930760F31E
S113181008959695982F882797958795680F791F2F
S11318208091140190911501680F791F7093110133
S1131830609310010895CF93C62F682F70E08C2F0A
S113184086958695869590E0E4DF809110019091CD
S11318501101A9D8C77021E030E0B90102C0660FB8
S1131860771FCA95E2F7862BE0911001F0911101E0
S11318708083CF9108950F931F93CF93DF9380526A
S1131880082F10E0000F111F000F111F000F111F70
S1131890C0E0D0E002571F4FF801EC0FFD1F649128
S11318A070E0809110019091110180D88091100115
S11318B0909111010196909311018093100121964A
S11318C0C830D10549F7DF91CF911F910F91089549
S11318D01F93CF93DF93EC0110E006C0FE01E80FE5
S11318E0F91F8081C8DF1F5F812F90E0FE01019006
S11318F00020E9F73197EC1BFD0B8E179F0770F35F
S1131900DF91CF911F91089568E170E080911001FB
S1131910909111014BD88091100190911101019681
S1131920909311018093100168E170E03FD8809199
S1131930100190911101019690931101809310016F
S11319406EE770E033D880911001909111010196F7
S113195090931101809310016CE370E027D880917B
S1131960100190911101019690931101809310013F
S113197068E170E01BD880911001909111010196EB
S1131980909311018093100108950F931F93CF93A7
S1131990DF93C1E0D0E080E090E005E060E070E03B
S11319A038DF102F60E070E08091100190911101F8
S11319B00E94D60480911001909111010196909398
S11319C0110180931001115069F78C2F9D2F2196DE
S11319D0C930D10519F7DF91CF911F910F91089567
S11319E02F923F924F925F926F927F928F929F922B
S11319F0AF92BF92CF92DF92EF92FF920F931F9319
S1131A00CF93DF93CDB7DEB72A970FB6F894DEBF36
S1131A100FBECDBF8C011092060310920503809176
S1131A200703909108030817190739F4AEDF60E043
S1131A3070E0C801EEDE68DF10C1801791070CF07A
S1131A4084C085E0FE013696DF01282F1D922A9579
S1131A50E9F73597DF011D928A95E9F768945524D3
S1131A6053F8412C312C642C732C5FC0B801882DA1
S1131A70992DCFDE80911001909111010E94D30421
S1131A80F70181937F010F5F1F4F0530110571F737
S1131A909E012A5F3F4F7901CE0101965C01062D1C
S1131AA0172DB801882D992DB4DED5012D905D0137
S1131AB0F7018081881F8827881F622D70E0660FD8
S1131AC0771F682B80911001909111010E94D60418
S1131AD0D7012D927D010F5F1F4F0530110509F7C6
S1131AE08C2C9D2CBFEFCB1ADB0AE9E0CE16D10477
S1131AF039F09E012F5F3F4F7901062D172DB6CF88
S1131B008091050390910603019749F000C000C03D
S1131B10000080910503909106030197B9F7409264
S1131B200503309206035A9431F0CC24C394D12C8B
S1131B30842C932CDECF80910703909108030196A7
S1131B40909308038093070388C085E0FE013696CE
S1131B50DF01282F1D922A95E9F73597DF011D92A1
S1131B608A95E9F76894332433F80F2EF7E06F2E43
S1131B70712CF02D512C412C61C09E2C8F2CB8015E
S1131B80C70147DE80911001909111010E94D30496
S1131B90F50181935F010F5F1F4F0530110569F750
S1131BA09E012A5F3F4F7901CE0101965C01052D0C
S1131BB0142DB801892D982D2CDED5012D905D01B1
S1131BC0F7016081F0E86F9FB0011124822D8695A2
S1131BD0682B80911001909111010E94D604D701C5
S1131BE02D927D010F5F1F4F0530110511F7C601BE
S1131BF0BFEFCB1ADB0AE9E0CE16D10451F09E0107
S1131C002F5F3F4F5901052D142D7301E81AF90A6E
S1131C10B4CF8091050390910603019749F000C069
S1131C2000C0000080910503909106030197B9F765
S1131C3010920503109206033A9431F0CC24C39415
S1131C40D12C80E090E0DBCF8091070390910803D2
S1131C50019790930803809307032A960FB6F8948C
S1131C60DEBF0FBECDBFDF91CF911F910F91FF90CB
S1131C70EF90DF90CF90BF90AF909F908F907F9028
S1131C806F905F904F903F902F9008957EDE60E0BC
S1131C9070E080E090E0BDDD37DE10920803109222
S1131CA00703089581E090E0909306038093050371
S1131CB008957F928F929F92AF92BF92CF92DF92BC
S1131CC0EF92FF920F931F93CF93DF93D82F162F8A
S1131CD0042F722E84130AC0261708F4ABC0612F98
S1131CE08D2FA9DD1F5F7116D0F7A4C062130BC03E
S1131CF0841708F056C0C82F612F8C2F9CDDCF5F4E
S1131D00C017D0F34EC0621708F04BC06E3059F0C4
S1131D10673291F40F2EC12CD12CFCE8EF2EF1E4A4
S1131D20FF2EF02D11C00F2EC12CD12CF0EFEF2E71
S1131D30F0ECFF2EF02D08C00F2EC12CD12CFCEDA1
S1131D40EF2EF1ECFF2EF02D0D1708F473C01BC01D
S1131D506C2F70E080E090E00BD3A501940169D270
S1131D60A701960166D220E030E0A901C7D2811113
S1131D7003C06C2F8D2F5FDDCF5F7C1648F7DF5FCC
S1131D800D1708F457C06D2F70E080E090E0F0D29A
S1131D9020E030E040E05FE3D4D34B015C01C12F8D
S1131DA0D7CF1E3059F0183191F40F2E812C912C7D
S1131DB0FEE5AF2EF2E4BF2EF02D11C00F2E812CC4
S1131DC0912CFEE0AF2EF2E4BF2EF02D08C00F2EB2
S1131DD0812C912CF1EAAF2EF2E4BF2EF02D0D17D9
S1131DE048F11AC06C2F70E080E090E0C1D2A701E6
S1131DF096011FD2A50194011CD220E030E0A90174
S1131E007DD2811103C06C2F8D2F15DDCF5F1C1780
S1131E1048F7DF5F0D1770F06D2F70E080E090E001
S1131E20A7D220E030E040E05FEB8BD36B017C0174
S1131E30C72DD8CFDF91CF911F910F91FF90EF90D5
S1131E40DF90CF90BF90AF909F908F907F90089538
S1131E502F923F924F925F926F927F928F929F92B6
S1131E60AF92BF92CF92DF92EF92FF920F931F93A4
S1131E70CF93DF9300D01F92CDB7DEB7082F362E55
S1131E80442ED9DC232C220C802F880F8983E8E090
S1131E90F0E0FB83EA83C12CD12C7601512C612C18
S1131EA0712CC301B20164D24B015C01C701B601BC
S1131EB029D29B01AC01C501B40143D326D2102F12
S1131EC0160FC701B601A0D39B01AC01C501B40133
S1131ED038D31BD2B32CB60E6B2D812FACDCA22CC5
S1131EE0AB186A2D812FA7DCF981F11B1F2F6B2DF5
S1131EF08F2FA1DC6A2D812F9EDC2AEF38EC45E67A
S1131F005EE3C701B60196D16B017C018A819B8196
S1131F1001979B838A83892B09F0C3CF0F900F907D
S1131F200F90DF91CF911F910F91FF90EF90DF9071
S1131F30CF90BF90AF909F908F907F906F905F9065
S1131F404F903F902F90089527E24BE26EE08BE292
S1131F50B0DE27E243E56EE083E5ABDE21E34FE349
S1131F6068E18FE3A6DE24E04FE36EE08BE2A1DEBE
S1131F7028E14FE36EE08BE29CDE21E34FE367E26E
S1131F808BE297DE2EE043E564E08FE392DE2EE001
S1131F9043E564E08FE38DDE2EE043E568E18FE303
S1131FA088DE27E243E561E38FE383DE6BE370E0E1
S1131FB081E090E02EDC87E45EDC61E370E084E0A5
S1131FC090E027DC84E357DC65E470E084E090E093
S1131FD020DC86E350DC4AE068E18FE339CF0895E2
S1131FE080EA92E034D5B0DF6CE070E087E090E006
S1131FF010DC85EB92E06CCC0895CF93E09118014E
S1132000F09119018EEA8083E0911801F091190191
S113201081EA8083E0911801F09119018AED8083AF
S1132020E0911801F091190182E18083E091180197
S1132030F091190188EC8083E0911801F091190165
S113204088EA8083E0911801F09119018FE380837D
S1132050E0911801F091190185ED8083E091180158
S1132060F091190180E88083E0911801F091190141
S113207081E88083E0911801F0911901C0E5C083E3
S1132080E0911801F091190189ED8083E091180124
S1132090F091190181E28083E0911801F091190116
S11320A080E28083E0911801F09119011082E0919F
S11320B01801F09119018BED8083E0911801F091E2
S11320C0190180E38083E0911801F09119018DEAF0
S11320D08083E0911801F09119011082E0911801B8
S11320E0F091190184EA8083E0911801F0911901BB
S11320F086EA8083E0911801F09119018FEA8083C8
S113210031DB6EDF83B78D6083BF89B7816089BFA0
S1132110C1BFCF9108951092250310922603109207
S113212027031092280308958C3639F46091060130
S11321307091070183E0B2C20895823731F460914F
S113214006017091070184E0A9C208958C3671F4E8
S11321508091060190910701C9D28093260324E659
S1132160829FC0011124909328030895823769F453
S11321708091060190910701B9D28093250324E64A
S1132180829FC001112490932703089582E7CCDF36
S113219082E68A95F1F7000082E7D8DF6091250393
S11321A070912603809127039091280308958BB79B
S11321B080628BBF86B78E7F86BF87B3806B87BBF9
S11321C080E58DB981E08EB9C49A08958FB9779B63
S11321D0FECF08958FEFFADF779BFECF8FB108957E
S11321E0811101C0C4980895811101C0C49A089551
S11321F05D9BFECF8CB908955F9BFECF8CB1089593
S1132200EF92FF920F931F93BB27A12F902F8F2D37
S113221080BDE9B888E18AB9579A8EE880BD6CEF31
S113222070E188EF90E1B3D31F910F91FF90EF908D
S113223008955058BB27AA270ED038C101D130F0D9
S113224006D120F031F49F3F11F41EF4F6C00EF4D1
S1132250E095E7FBECC0E92F4BD180F3BA17620796
S113226073078407950718F071F49EF563C10EF4A3
S1132270E0950B2EBA2FA02D0B01B90190010C0192
S1132280CA01A0011124FF27591B99F0593F50F4AA
S1132290503E68F11A16F040A22F232F342F442702
S11322A0585FF3CF469537952795A795F0405395FA
S11322B0C9F77EF41F16BA0B620B730B840BBAF0CA
S11322C09150A1F0FF0FBB1F661F771F881FC2F735
S11322D00EC0BA0F621F731F841F48F48795779549
S11322E06795B795F7959E3F08F0B3CF9395880F00
S11322F008F09927EE0F97958795089574D008F400
S113230081E00895ACD0E395E2C004D06894B111A3
S113231012C10895F5D088F09F5790F0B92F9927EE
S1132320B751A0F0D1F0660F771F881F991F1AF0DC
S1132330BA95C9F712C0B13081F0FCD0B1E008956C
S1132340F9C0672F782F8827B85F39F0B93FCCF3ED
S1132350869577956795B395D9F73EF490958095D2
S1132360709561957F4F8F4F9F4F0895E89409C0F2
S113237097FB3EF490958095709561957F4F8F4FB4
S11323809F4F9923A9F0F92F96E9BB279395F695CA
S1132390879577956795B795F111F8CFFAF4BB0F48
S11323A011F460FF1BC06F5F7F4F8F4F9F4F16C0AC
S11323B0882311F096E911C0772321F09EE8872F36
S11323C0762F05C0662371F096E8862F70E060E0F2
S11323D02AF09A95660F771F881FDAF7880F96956B
S11323E0879597F90895990F0008550FAA0BE0E80F
S11323F0FEEF16161706E807F907C0F012161306C3
S1132400E407F50798F0621B730B840B950B39F402
S11324100A2661F0232B242B252B21F408950A2668
S113242009F4A140A6958FEF811D811D089597F9A8
S11324309F6780E870E060E008959FEF80EC089566
S113244000240A941616170618060906089500248F
S11324500A9412161306140605060895EECF50D0FA
S1132460E8F3E894E0E0BB279F57F0F02AED3FE063
S113247049EC06C0EE0FBB0F661F771F881F28F0BC
S1132480B23A62077307840728F0B25A620B730BDF
S1132490840BE3959A9572F7803830F49A95BB0FC4
S11324A0661F771F881FD2F79048B6C0092E039481
S11324B0000C11F4882352F0BB0F40F4BF2B11F42D
S11324C060FF04C06F5F7F4F8F4F9F4F0895EF935E
S11324D0E0FF06C0A2EA2AED3FE049EC5FEBBBDE79
S11324E0E5DF0F90039401FC9058E0E7F0E0A0C012
S11324F057FD9058440F551F59F05F3F71F04795B1
S1132500880F97FB991F61F09F3F79F08795089595
S1132510121613061406551FF2CF4695F1DF08C0B4
S1132520161617061806991FF1CF869571056105D1
S113253008940895E894BB2766277727CB0197F979
S113254008950BD0B3CF7CDF28F081DF18F09523FA
S113255009F06DCF72CF1124EECFCADFA0F3959F9F
S1132560D1F3950F50E0551F629FF001729FBB2776
S1132570F00DB11D639FAA27F00DB11DAA1F649F22
S11325806627B00DA11D661F829F2227B00DA11DD5
S1132590621F739FB00DA11D621F839FA00D611D5B
S11325A0221F749F3327A00D611D231F849F600D7C
S11325B0211D822F762F6A2F11249F5750408AF0B5
S11325C0E1F088234AF0EE0FFF1FBB1F661F771F41
S11325D0881F91505040A9F79E3F510570F027CFB6
S11325E0AACF5F3FECF3983EDCF386957795679529
S11325F0B795F795E7959F5FC1F7FE2B880F911D5F
S11326009695879597F908959F9329DF0F9007FC76
S1132610EE5F5DCF9F3F31F0915020F48795779521
S11326206795B795880F911D9695879597F90895A5
S11326309F938F937F936F93FF93EF939B01AC01D1
S113264080DFEF91FF9105D02F913F914F915F91E2
S113265078CFDF93CF931F930F93FF92EF92DF9284
S11326607B018C01689405C0DA2EEF0176DFFE0150
S1132670E894A5912591359145915591AEF3EF01DB
S1132680EADDFE019701A801DA9479F7DF90EF9073
S1132690FF900F911F91CF91DF9108959B0182309C
S11326A071F018F4813031F019C0833069F084304E
S11326B081F014C064E0C9010C94D604089565E067
S11326C0C9010C94D604089566E0C9010C94D6049B
S11326D0089567E0C9010C94D604089583EC92E050
S11326E09F938F939ED10F900F9008950C94D304D1
S11326F0089597FB072E16F4009406D077FD08D0B2
S11327000BD007FC05D03EF4909581959F4F08951A
S1132710709561957F4F0895AA1BBB1B51E107C0BB
S1132720AA1FBB1FA617B70710F0A61BB70B881F5D
S1132730991F5A95A9F780959095BC01CD010895EC
S1132740CF93DF938230910510F482E090E0E09122
S11327502B03F0912C0320E030E0A0E0B0E03097B0
S113276039F14081518148175907B8F04817590782
S113277071F482819381109729F013969C938E9320
S113278012972CC090932C0380932B0327C0211500
S1132790310531F04217530718F0A901DB0101C0DC
S11327A0EF019A01BD01DF010280F381E02DD7CF53
S11327B021153105F9F0281B390B2430310580F43B
S11327C08A819B816115710521F0FB0193838283CA
S11327D004C090932C0380932B03FE01329644C0D3
S11327E0FE01E20FF31F8193919322503109398343
S11327F028833AC02091290330912A03232B41F4E2
S1132800209102013091030130932A03209329037C
S113281020910001309101012115310541F42DB7BA
S11328203EB74091040150910501241B350BE09102
S11328302903F0912A03E217F307A0F42E1B3F0BA0
S11328402817390778F0AC014E5F5F4F241735071E
S113285048F04E0F5F1F50932A034093290381933E
S1132860919302C0E0E0F0E0CF01DF91CF910895B1
S1132870CF93DF93009709F487C0FC01329713824A
S11328801282C0912B03D0912C03209781F42081D4
S11328903181280F391F8091290390912A038217CF
S11328A0930779F5F0932A03E09329036DC0DE01C1
S11328B020E030E0AE17BF0750F412964D915C91C2
S11328C013979D014115510509F1DA01F3CFB38343
S11328D0A28340815181840F951F8A179B0771F44D
S11328E08D919C911197840F951F029691838083FB
S11328F012968D919C9113979383828321153105B0
S113290029F4F0932C03E0932B033EC0D9011396D2
S1132910FC93EE9312974D915D91A40FB51FEA17A6
S1132920FB0779F480819181840F951F0296D90168
S113293011969C938E938281938113969C938E938C
S11329401297E0E0F0E08A819B81009719F0FE0184
S1132950EC01F9CFCE01029628813981820F931FB1
S11329602091290330912A032817390769F43097F5
S113297029F410922C0310922B0302C013821282AA
S1132980D0932A03C0932903DF91CF9108950F9325
S11329901F93CF93DF93EC018B01009731F4611502
S11329A0710519F480E090E037C06EE070E081E0DA
S11329B090E05CD2FC010097A9F380E883830115C1
S11329C0110571F01387028781E8838380912D03B9
S11329D090912E03892B21F4F0932E03E0932D0381
S11329E02097C9F0D187C0878381826083838091D7
S11329F02F0390913003892B71F4F0933003E0930B
S1132A002F038091310390913203892B21F4F093A9
S1132A103203E0933103CF01DF91CF911F910F91E6
S1132A200895A0E0B0E0E6E1F5E1F7C2FE013596D5
S1132A3061917191AF0180912F039091300353D034
S1132A40E2E007C360912F037091300346C20F93F5
S1132A501F93CF93DF93E0912F03F09130032381F1
S1132A6021FF1BC0EC0100E010E0899160912F036D
S1132A7070913003DB011896ED91FC91199788232E
S1132A8031F00995892B89F30FEF1FEFEECF8AE020
S1132A900995892B11F4C80102C08FEF9FEFDF91D4
S1132AA0CF911F910F910895AEE0B0E0E9E5F5E113
S1132AB0B2C20D891E8986E08C831A8309838FEF45
S1132AC09FE79E838D83AE01475E5F4F6F89788D4C
S1132AD0CE01019608D0EF81F885E00FF11F108236
S1132AE02E96E4E0B4C2ACE0B0E0E8E7F5E185C2DC
S1132AF07C016B018A01FC0117821682838181FFAC
S1132B00B0C1CE0101964C01F7019381F60193FD0A
S1132B10859193FF81916F01882309F49EC18532C9
S1132B2039F493FD859193FF81916F01853221F4EE
S1132B30B70190E0D2D1E8CF512C312C20E02032E3
S1132B40A0F48B3269F030F4803259F0833269F4A6
S1132B5020612CC08D3239F0803339F4216026C0D5
S1132B602260246023C0286021C027FD27C030EDE7
S1132B70380F3A3078F426FF06C0FAE05F9E300D35
S1132B801124532E13C08AE0389E300D1124332EA5
S1132B9020620CC08E3221F426FD5FC1206406C081
S1132BA08C3611F4206802C0883641F4F60193FD96
S1132BB0859193FF81916F018111C1CF982F9F7DE2
S1132BC09554933028F40C5F1F4FFFE3F9830DC035
S1132BD0833631F0833771F0833509F057C021C053
S1132BE0F801808189830E5F1F4F44244394512C44
S1132BF0540114C03801F2E06F0E711CF801A0807A
S1132C00B18026FF03C0652D70E002C06FEF7FEF37
S1132C10C5012C8757D12C0183012C852F77222EB7
S1132C2016C03801F2E06F0E711CF801A080B1806B
S1132C3026FF03C0652D70E002C06FEF7FEFC50172
S1132C402C872ED12C012C852068222E830123FC75
S1132C5019C0832D90E048165906A0F4B70180E20C
S1132C6090E03BD13A94F5CFF50127FC859127FEFE
S1132C7081915F01B70190E030D131103A94F1E0D5
S1132C804F1A51084114510479F7DEC0843611F00B
S1132C90893631F5F80127FF07C06081718182818F
S1132CA093810C5F1F4F08C060817181882777FD75
S1132CB08095982F0E5F1F4F2F76B22E97FF09C075
S1132CC090958095709561957F4F8F4F9F4F2068A9
S1132CD0B22E2AE030E0A40132D1A82EA81843C0B5
S1132CE0853729F42F7EB22E2AE030E025C0F22F5A
S1132CF0F97FBF2E8F36C1F018F4883579F0ADC056
S1132D00803719F0883721F0A8C02F2F2061B22E08
S1132D10B4FE0DC08B2D8460B82E09C024FF0AC0F8
S1132D209F2F9660B92E06C028E030E005C020E150
S1132D3030E002C020E132E0F801B7FE07C0608154
S1132D407181828193810C5F1F4F06C06081718104
S1132D5080E090E00E5F1F4FA401F1D0A82EA818C8
S1132D60FB2DFF77BF2EB6FE0BC02B2D2E7FA51497
S1132D7050F4B4FE0AC0B2FC08C02B2D2E7E05C050
S1132D807A2C2B2D03C07A2C01C0752C24FF0DC086
S1132D90FE01EA0DF11D8081803311F4297E09C002
S1132DA022FF06C07394739404C0822F867809F0BE
S1132DB0739423FD12C020FF06C05A2C731418F418
S1132DC0530C5718732C731460F4B70180E290E02D
S1132DD02C8783D073942C85F6CF731410F4371892
S1132DE001C0312C24FF11C0B70180E390E02C878F
S1132DF074D02C8522FF16C021FF03C088E590E023
S1132E0002C088E790E0B7010CC0822F867851F0A9
S1132E1021FD02C080E201C08BE227FD8DE2B701F3
S1132E2090E05BD0A51430F4B70180E390E055D076
S1132E305A94F8CFAA94F401EA0DF11D8081B701E8
S1132E4090E04BD0A110F6CF332009F45DCEB7014A
S1132E5080E290E042D03A94F7CFF70186819781DF
S1132E6002C08FEF9FEF2C96E2E1E3C00F931F9314
S1132E70CF93DF93869F8001879F100D969F100D3F
S1132E801124C8015DDCEC01009721F0A80160E089
S1132E9070E011D0CE01DF91CF911F910F91089571
S1132EA0FC010590615070400110D8F78095909511
S1132EB08E0F9F1F0895DC0101C06D934150504057
S1132EC0E0F70895FC016150704001900110D8F7BB
S1132ED0809590958E0F9F1F08950F931F93CF9306
S1132EE0DF93182F092FEB018B8181FD03C08FEF36
S1132EF09FEF20C082FF10C04E815F812C813D81F5
S1132F00421753077CF4E881F9819F012F5F3F4FFB
S1132F1039832883108306C0E885F985812F0995B4
S1132F20892B29F72E813F812F5F3F4F3F832E83CB
S1132F30812F902FDF91CF911F910F910895FA0166
S1132F40AA27283051F1203181F1E8946F936E7FE4
S1132F506E5F7F4F8F4F9F4FAF4FB1E03ED0B4E0D5
S1132F603CD0670F781F891F9A1FA11D680F791F16
S1132F708A1F911DA11D6A0F711D811D911DA11D27
S1132F8020D009F468943F912AE0269F1124301937
S1132F90305D3193DEF6CF010895462F4770405DD2
S1132FA04193B3E00FD0C9F7F6CF462F4F70405D81
S1132FB04A3318F0495D31FD4052419302D0A9F7DC
S1132FC0EACFB4E0A6959795879577956795BA95D6
S1132FD0C9F700976105710508959B01AC010A2E9C
S1132FE006945795479537952795BA95C9F7620F73
S1132FF0731F841F951FA01D08952F923F924F9217
S11330005F926F927F928F929F92AF92BF92CF9274
S1133010DF92EF92FF920F931F93CF93DF93CDB77D
S1133020DEB7CA1BDB0B0FB6F894DEBF0FBECDBFF5
S113303009942A88398848885F846E847D848C84C6
S11330409B84AA84B984C884DF80EE80FD800C81CF
S11330501B81AA81B981CE0FD11D0FB6F894DEBFB2
S10F30600FBECDBFED010895F894FFCF22
S113306C00003303200000140201808019C819C821
S113307C001C0004001C0012001072656365697664
S113308C6564206D6573736167653A2069643A20E1
S113309C25642C206C656E6774683A2025642C209A
S11330AC646174613A00202563000A3D3D3D3D3D59
S11330BC3D3D3D3D3D3D3D3D3D3D3D3D3D3D3D3D30
S11330CC3D535441525455503D3D3D3D3D3D3D3D98
S11330DC3D3D3D3D3D3D3D3D3D3D3D3D3D3D3D3D10
S11330EC3D3D002A2A2050696E672D506F6E672073
S11330FC2A2A004C697665730053636F7265002548
S113310C64005761697400202020200047414D451C
S113311C204F5645520053434F5245004A4F5920B5
S113312C5249474854004A4F59204C454654004A8A
S113313C4F59205550004A4F5920444F574E004385
S113314C414C494220444F4E450053544152540083
S113315C474F4F44204C55434B004372656174698F
S113316C6E67206E657874206974656D2E2E2E0042
S113317C4D61696E4D656E75004D6F64654D656E80
S113318C75004E65772047616D65004D6F64650071
S113319C4A6F792043616C696200496E666F005313
S11331AC6C69646572004A6F79737469636B00505F
S11331BC43004E554C4C20706F696E7465722E2E04
S11331CC2E0047524F5550203436004F2E4B61730E
S11331DC706572656B004C2E486167656C65004ABE
S11331EC2E48616265726E7900494E5055543A000E
S11331FC534C49444552004A4F59535449434B008C
S113320C72756E2073706C6173682073637265657C
S113321C6E2E2E2E0047726F757020343620536F2D
S113322C66740050726F626C656D73207769746894
S10B323C204144432E2E2E0014
S9030000FC
