S013000050726F6A6563744D61696E2E73726563B5
S113000037C0000063C000004EC000004CC00000B8
S11300104AC0000048C0000046C0000044C00000C0
S113002042C0000040C000003EC000003CC00000D0
S11300303AC0000038C0000036C0000034C00000E0
S113004032C0000030C000002EC000002DC00000EF
S11300502AC0000028C0000026C0000024C0000000
S113006022C0000020C000001EC000001CC0000010
S113007011241FBECFEFD4E0DEBFCDBF11E0A0E05E
S1130080B1E0EEE0FBE002C005900D92A23AB107A8
S1130090D9F721E0A2EAB1E001C01D92A43BB20766
S11300A0E1F723D032C5ACCF1F920F920FB60F9257
S11300B011248F938CB18093A40181E08093A301D8
S11300C08F910F900FBE0F901F9018951F920F9253
S11300D00FB60F9211248F9381E08093A2018F9128
S11300E00F900FBE0F901F9018951FE1E12EF12C79
S11300F000E010E020E030E04BE450E060E875E21E
S113010080E090E091D081E044D08BB780648BBFD5
S113011085B7826085BF85B78E7F85BF789487E772
S113012091E09F938F93F8D088E74BD00F900F9076
S113013003E811E0C2E9D1E0FF24F39480910601C1
S11301409091A2019923E1F3813079F08230C1F7D3
S113015089E748D033D01F928F93DF93CF93DCD0BD
S113016088E72FD0F09206010FC088E73BD023D058
S11301701F928F931F930F93CFD089E722D0809142
S113018006018F5F809306010F900F900F900F90E0
S1130190D5CF95B7906895BF96B7986096BF8823DA
S11301A019F080B7806280BF0895FC0180810895B2
S11301B0FC01608308958091A60108958091A801AF
S11301C00895883731F4609107017091080182E045
S11301D007C0893731F4609107017091080181E00B
S11301E03BC00895883759F4809107019091080124
S11301F048D090E09093A7018093A6010895893791
S113020051F480910701909108013BD090E09093C4
S1130210A9018093A80108955D9BFECF8CB9089530
S11302205F9BFECF8CB10895EF92FF920F931F93C3
S1130230BB27A12F902F8F2D80BDE9B888E18AB903
S1130240579A8EE880BD60E171E08CE091E01F91E7
S11302500F91FF90EF9016C0282FCB01223059F058
S113026018F4213031F00895233039F0243039F076
S1130270089564E003C065E001C066E099CF67E0DB
S113028097CF93CF0F931F93CF93DF93EC018B0101
S1130290009731F46115710519F480E090E037C0DE
S11302A06EE070E081E090E00BD2FC010097A9F3CE
S11302B080E883830115110571F01387028781E8B3
S11302C083838091AA019091AB01892B21F4F0934F
S11302D0AB01E093AA012097C9F0D187C08783813D
S11302E0826083838091AC019091AD01892B71F47C
S11302F0F093AD01E093AC018091AE019091AF0118
S1130300892B21F4F093AF01E093AE01CF01DF918B
S1130310CF911F910F910895A0E0B0E0E1E9F1E0E1
S1130320CDC3FE01359661917191AF018091AC010D
S11303309091AD0102D0E2E0DDC3ACE0B0E0E2EACE
S1130340F1E0ACC37C016B018A01FC0117821682C7
S1130350838181FFB0C1CE0101964C01F7019381E5
S1130360F60193FD859193FF81916F01882309F430
S11303709EC1853239F493FD859193FF81916F017C
S1130380853221F4B70190E0F9D2E8CF512C312C19
S113039020E02032A0F48B3269F030F4803259F03E
S11303A0833269F420612CC08D3239F0803339F402
S11303B0216026C02260246023C0286021C027FD5C
S11303C027C030ED380F3A3078F426FF06C0FAE043
S11303D05F9E300D1124532E13C08AE0389E300DD9
S11303E01124332E20620CC08E3221F426FD5FC10D
S11303F0206406C08C3611F4206802C0883641F4AB
S1130400F60193FD859193FF81916F018111C1CF15
S1130410982F9F7D9554933028F40C5F1F4FFFE372
S1130420F9830DC0833631F0833771F0833509F0D9
S113043057C021C0F801808189830E5F1F4F442477
S11304404394512C540114C03801F2E06F0E711C16
S1130450F801A080B18026FF03C0652D70E002C0C2
S11304606FEF7FEFC5012C877ED22C0183012C8591
S11304702F77222E16C03801F2E06F0E711CF8019E
S1130480A080B18026FF03C0652D70E002C06FEF2D
S11304907FEFC5012C8755D22C012C852068222E94
S11304A0830123FC19C0832D90E048165906A0F45B
S11304B0B70180E290E062D23A94F5CFF50127FCCF
S11304C0859127FE81915F01B70190E057D23110E9
S11304D03A94F1E04F1A51084114510479F7DEC0FF
S11304E0843611F0893631F5F80127FF07C06081A1
S11304F07181828193810C5F1F4F08C0608171817B
S1130500882777FD8095982F0E5F1F4F2F76B22E88
S113051097FF09C090958095709561957F4F8F4F97
S11305209F4F2068B22E2AE030E0A40159D2A82EB1
S1130530A81843C0853729F42F7EB22E2AE030E074
S113054025C0F22FF97FBF2E8F36C1F018F48835FD
S113055079F0ADC0803719F0883721F0A8C02F2F6B
S11305602061B22EB4FE0DC08B2D8460B82E09C05C
S113057024FF0AC09F2F9660B92E06C028E030E001
S113058005C020E130E002C020E132E0F801B7FE0E
S113059007C060817181828193810C5F1F4F06C007
S11305A06081718180E090E00E5F1F4FA40118D23A
S11305B0A82EA818FB2DFF77BF2EB6FE0BC02B2D3F
S11305C02E7FA51450F4B4FE0AC0B2FC08C02B2D33
S11305D02E7E05C07A2C2B2D03C07A2C01C0752CDD
S11305E024FF0DC0FE01EA0DF11D8081803311F45A
S11305F0297E09C022FF06C07394739404C0822F1D
S1130600867809F0739423FD12C020FF06C05A2C8B
S1130610731418F4530C5718732C731460F4B70143
S113062080E290E02C87AAD173942C85F6CF7314C2
S113063010F4371801C0312C24FF11C0B70180E336
S113064090E02C879BD12C8522FF16C021FF03C08C
S113065088E590E002C088E790E0B7010CC0822FE3
S1130660867851F021FD02C080E201C08BE227FDB3
S11306708DE2B70190E082D1A51430F4B70180E394
S113068090E07CD15A94F8CFAA94F401EA0DF11DBC
S11306908081B70190E072D1A110F6CF332009F424
S11306A05DCEB70180E290E069D13A94F7CFF701CB
S11306B08681978102C08FEF9FEF2C96E2E10AC2F8
S11306C00F931F93CF93DF93869F8001879F100D15
S11306D0969F100D1124C8010DD0EC01009721F054
S11306E0A80160E070E038D1CE01DF91CF911F9175
S11306F00F910895CF93DF938230910510F482E037
S113070090E0E091B201F091B30120E030E0A0E08C
S1130710B0E0309739F14081518148175907B8F05A
S11307204817590771F482819381109729F0139621
S11307309C938E9312972CC09093B3018093B20133
S113074027C02115310531F04217530718F0A901CC
S1130750DB0101C0EF019A01BD01DF010280F381D9
S1130760E02DD7CF21153105F9F0281B390B2430A2
S1130770310580F48A819B816115710521F0FB01AB
S11307809383828304C09093B3018093B201FE01EA
S1130790329644C0FE01E20FF31F819391932250DD
S11307A03109398328833AC02091B0013091B101D5
S11307B0232B41F420910201309103013093B101C4
S11307C02093B001209100013091010121153105E0
S11307D041F42DB73EB74091040150910501241B0B
S11307E0350BE091B001F091B101E217F307A0F4E9
S11307F02E1B3F0B2817390778F0AC014E5F5F4F73
S11308002417350748F04E0F5F1F5093B1014093F2
S1130810B0018193919302C0E0E0F0E0CF01DF9159
S1130820CF910895CF93DF93009709F487C0FC011B
S1130830329713821282C091B201D091B3012097F2
S113084081F420813181280F391F8091B00190916A
S1130850B1018217930779F5F093B101E093B001E8
S11308606DC0DE0120E030E0AE17BF0750F41296F1
S11308704D915C9113979D014115510509F1DA01E0
S1130880F3CFB383A28340815181840F951F8A17CC
S11308909B0771F48D919C911197840F951F02967B
S11308A09183808312968D919C9113979383828375
S11308B02115310529F4F093B301E093B2013EC050
S11308C0D9011396FC93EE9312974D915D91A40F69
S11308D0B51FEA17FB0779F480819181840F951F76
S11308E00296D90111969C938E93828193811396DB
S11308F09C938E931297E0E0F0E08A819B810097AD
S113090019F0FE01EC01F9CFCE010296288139815C
S1130910820F931F2091B0013091B101281739073C
S113092069F4309729F41092B3011092B20102C015
S113093013821282D093B101C093B001DF91CF91A1
S11309400895FC010590615070400110D8F780951E
S113095090958E0F9F1F0895DC0101C06D93415047
S11309605040E0F70895FC0161507040019001107F
S1130970D8F7809590958E0F9F1F08950F931F931E
S1130980CF93DF93182F092FEB018B8181FD03C0D7
S11309908FEF9FEF20C082FF10C04E815F812C81BA
S11309A03D81421753077CF4E881F9819F012F5F51
S11309B03F4F39832883108306C0E885F985812F4A
S11309C00995892B29F72E813F812F5F3F4F3F8364
S11309D02E83812F902FDF91CF911F910F91089536
S11309E0FA01AA27283051F1203181F1E8946F935C
S11309F06E7F6E5F7F4F8F4F9F4FAF4FB1E03ED002
S1130A00B4E03CD0670F781F891F9A1FA11D680F9F
S1130A10791F8A1F911DA11D6A0F711D811D911DD2
S1130A20A11D20D009F468943F912AE0269F112447
S1130A303019305D3193DEF6CF010895462F4770AB
S1130A40405D4193B3E00FD0C9F7F6CF462F4F7006
S1130A50405D4A3318F0495D31FD4052419302D064
S1130A60A9F7EACFB4E0A69597958795779567950A
S1130A70BA95C9F700976105710508959B01AC010A
S1130A800A2E06945795479537952795BA95C9F731
S1130A90620F731F841F951FA01D08952F923F920C
S1130AA04F925F926F927F928F929F92AF92BF927A
S1130AB0CF92DF92EF92FF920F931F93CF93DF9326
S1130AC0CDB7DEB7CA1BDB0B0FB6F894DEBF0FBE83
S1130AD0CDBF09942A88398848885F846E847D84D0
S1130AE08C849B84AA84B984C884DF80EE80FD80D2
S1130AF00C811B81AA81B981CE0FD11D0FB6F89448
S1110B00DEBF0FBECDBFED010895F894FFCF08
S1130B0E0000B40120000100145374617274696E04
S1130B1E67205352414D20746573742E2E2E00534C
S1130B2E52414D207465737420636F6D706C6574DF
S1130B3E656420776974680A2025346420657272AE
S1130B4E6F727320696E20777269746520706861A4
S1130B5E736520616E640A253464206572726F7247
S1130B6E7320696E2072657472696576616C20708B
S1130B7E686173650A0A004920616D20616C6976AB
S1130B8E6521000A43757272656E7420583A2025E9
S1130B9E64002043757272656E7420593A20256480
S1050BAE000041
S9030000FC
