S013000050726F6A6563744D61696E2E73726563B5
S113000037C0000050C000004EC000004CC00000CB
S11300104AC0000048C0000046C0000044C00000C0
S113002042C0000040C000003EC000003CC00000D0
S11300303AC0000038C0000036C0000034C00000E0
S113004032C0000030C000002EC000002DC00000EF
S11300502AC0000028C0000026C0000024C0000000
S113006022C0000020C000001EC000001CC0000010
S113007011241FBECFEFD4E0DEBFCDBF11E0A0E05E
S1130080B1E0E4EAFCE002C005900D92A23CB107A5
S1130090D9F721E0A2ECB1E001C01D92AE3CB20759
S11300A0E1F759D0FDC5ACCF1F920F920FB60F9256
S11300B011248F938CB18093C30181E08093C2019A
S11300C08F910F900FBE0F901F901895EF92FF9293
S11300D00F931F93CF93DF938AE091E06FD105D103
S11300E07C0106D1C0E0D8E100E010E0FED08883B6
S11300F09881981711F00F5F1F4F2196C11580E268
S1130100D807A1F7C701F4D0E12C88E1F82EC0E0AC
S1130110D0E0EBD0F701908198132196FFEFEF1A0E
S1130120FF0AE11480E2F806A1F7DF93CF931F934F
S11301300F9380E291E09F938F932FD10F900F90B4
S11301400F900F900F900F90DF91CF911F910F910F
S1130150FF90EF9008951FE1E12EF12C00E010E0F4
S113016020E030E04BE450E060E875E280E090E0AD
S11301705BD081E03DD0789408E711E027E8E22ED7
S113018021E0F22ECDEAD1E031EAC32E31E0D32EC4
S11301908091C2018130E1F71092C2018091C301C4
S11301A01F928F931F930F93F8D090DFFF92EF92DB
S11301B0F4D06AE080E098E12AD080E098E124D08D
S11301C00F900F900F900F900F900F908A3031F492
S11301D0DF92CF92E2D00F900F90DACF1F928F93DD
S11301E0DF93CF93DAD00F900F900F900F90D0CF72
S11301F095B7906895BF96B7986096BF882319F015
S113020080B7806280BF0895FC018081089570E00A
S1130210FC017183608308955D9BFECF8CB90895C2
S11302205F9BFECF8CB10895EF92FF920F931F93C3
S1130230BB27A12F902F8F2D80BDE9B888E18AB903
S1130240579A8EE880BD60E171E08CE091E01F91E7
S11302500F91FF90EF9057C08F929F92AF92BF92F1
S1130260CF92DF92EF92FF92CF93DF93EC016881FC
S113027079818A819B81611571058105910521F43C
S113028064E279ED8BE597E02DE133EF41E050E056
S113029073D449015A019B01AC01A7EAB1E488D4A3
S11302A06B017C01ACEEB4EFA50194018DD4C60EB4
S11302B0D71EE81EF91EF7FE06C081E0C81AD10851
S11302C0E10880E8F80AC882D982EA82FB82C60182
S11302D09F77DF91CF91FF90EF90DF90CF90BF9009
S11302E0AF909F908F900895B7CF80E091E0B4CF06
S11302F0A0E0B0E08093000190930101A09302017B
S1130300B093030108950F931F93CF93DF93EC01F0
S11303108B01009731F46115710519F480E090E0C8
S113032037C06EE070E081E090E038D2FC010097C5
S1130330A9F380E883830115110571F013870287FF
S113034081E883838091C4019091C501892B21F4B4
S1130350F093C501E093C4012097C9F0D187C08709
S11303608381826083838091C6019091C701892B28
S113037071F4F093C701E093C6018091C801909194
S1130380C901892B21F4F093C901E093C801CF017D
S1130390DF91CF911F910F910895A0E0B0E0E2EDBD
S11303A0F1E026C4FE01359661917191AF0180910F
S11303B0C6019091C7012FD0E2E036C40F931F937A
S11303C0CF93DF93E091C601F091C701238121FF10
S11303D01BC0EC0100E010E089916091C6017091AE
S11303E0C701DB011896ED91FC911997882331F030
S11303F00995892B89F30FEF1FEFEECF8AE009955A
S1130400892B11F4C80102C08FEF9FEFDF91CF91C8
S11304101F910F910895ACE0B0E0E0E1F2E0D8C3A1
S11304207C016B018A01FC0117821682838181FFA2
S1130430B0C1CE0101964C01F7019381F60193FD01
S1130440859193FF81916F01882309F49EC18532C0
S113045039F493FD859193FF81916F01853221F4E5
S1130460B70190E0F9D2E8CF512C312C20E02032B2
S1130470A0F48B3269F030F4803259F0833269F49D
S113048020612CC08D3239F0803339F4216026C0CC
S11304902260246023C0286021C027FD27C030EDDE
S11304A0380F3A3078F426FF06C0FAE05F9E300D2C
S11304B01124532E13C08AE0389E300D1124332E9C
S11304C020620CC08E3221F426FD5FC1206406C078
S11304D08C3611F4206802C0883641F4F60193FD8D
S11304E0859193FF81916F018111C1CF982F9F7DD9
S11304F09554933028F40C5F1F4FFFE3F9830DC02C
S1130500833631F0833771F0833509F057C021C049
S1130510F801808189830E5F1F4F44244394512C3A
S1130520540114C03801F2E06F0E711CF801A08070
S1130530B18026FF03C0652D70E002C06FEF7FEF2E
S1130540C5012C877ED22C0183012C852F77222E86
S113055016C03801F2E06F0E711CF801A080B18062
S113056026FF03C0652D70E002C06FEF7FEFC50169
S11305702C8755D22C012C852068222E830123FC44
S113058019C0832D90E048165906A0F4B70180E203
S113059090E062D23A94F5CFF50127FC859127FECD
S11305A081915F01B70190E057D231103A94F1E0A4
S11305B04F1A51084114510479F7DEC0843611F002
S11305C0893631F5F80127FF07C060817181828186
S11305D093810C5F1F4F08C060817181882777FD6C
S11305E08095982F0E5F1F4F2F76B22E97FF09C06C
S11305F090958095709561957F4F8F4F9F4F2068A0
S1130600B22E2AE030E0A40159D2A82EA81843C083
S1130610853729F42F7EB22E2AE030E025C0F22F50
S1130620F97FBF2E8F36C1F018F4883579F0ADC04C
S1130630803719F0883721F0A8C02F2F2061B22EFF
S1130640B4FE0DC08B2D8460B82E09C024FF0AC0EF
S11306509F2F9660B92E06C028E030E005C020E147
S113066030E002C020E132E0F801B7FE07C060814B
S11306707181828193810C5F1F4F06C060817181FB
S113068080E090E00E5F1F4FA40118D2A82EA81896
S1130690FB2DFF77BF2EB6FE0BC02B2D2E7FA5148E
S11306A050F4B4FE0AC0B2FC08C02B2D2E7E05C047
S11306B07A2C2B2D03C07A2C01C0752C24FF0DC07D
S11306C0FE01EA0DF11D8081803311F4297E09C0F9
S11306D022FF06C07394739404C0822F867809F0B5
S11306E0739423FD12C020FF06C05A2C731418F40F
S11306F0530C5718732C731460F4B70180E290E024
S11307002C87AAD173942C85F6CF731410F4371860
S113071001C0312C24FF11C0B70180E390E02C8785
S11307209BD12C8522FF16C021FF03C088E590E0F1
S113073002C088E790E0B7010CC0822F867851F0A0
S113074021FD02C080E201C08BE227FD8DE2B701EA
S113075090E082D1A51430F4B70180E390E07CD11D
S11307605A94F8CFAA94F401EA0DF11D8081B701DF
S113077090E072D1A110F6CF332009F45DCEB70119
S113078080E290E069D13A94F7CFF70186819781AE
S113079002C08FEF9FEF2C96E2E136C20F931F93B6
S11307A0CF93DF93869F8001879F100D969F100D36
S11307B01124C8010DD0EC01009721F0A80160E0DC
S11307C070E038D1CE01DF91CF911F910F91089540
S11307D0CF93DF938230910510F482E090E0E091B2
S11307E0CC01F091CD0120E030E0A0E0B0E0309702
S11307F039F14081518148175907B8F04817590712
S113080071F482819381109729F013969C938E93AF
S113081012972CC09093CD018093CC0127C0211551
S1130820310531F04217530718F0A901DB0101C06B
S1130830EF019A01BD01DF010280F381E02DD7CFE2
S113084021153105F9F0281B390B2430310580F4CA
S11308508A819B816115710521F0FB019383828359
S113086004C09093CD018093CC01FE01329644C024
S1130870FE01E20FF31F81939193225031093983D2
S113088028833AC02091CA013091CB01232B41F433
S113089020910601309107013093CB012093CA01C6
S11308A020910401309105012115310541F42DB742
S11308B03EB74091080150910901241B350BE0918A
S11308C0CA01F091CB01E217F307A0F42E1B3F0BF2
S11308D02817390778F0AC014E5F5F4F24173507AE
S11308E048F04E0F5F1F5093CB014093CA01819390
S11308F0919302C0E0E0F0E0CF01DF91CF91089541
S1130900CF93DF93009709F487C0FC0132971382D9
S11309101282C091CC01D091CD01209781F4208125
S11309203181280F391F8091CA019091CB01821720
S1130930930779F5F093CB01E093CA016DC0DE0112
S113094020E030E0AE17BF0750F412964D915C9151
S113095013979D014115510509F1DA01F3CFB383D2
S1130960A28340815181840F951F8A179B0771F4DC
S11309708D919C911197840F951F0296918380838A
S113098012968D919C91139793838283211531053F
S113099029F4F093CD01E093CC013EC0D901139624
S11309A0FC93EE9312974D915D91A40FB51FEA1736
S11309B0FB0779F480819181840F951F0296D901F8
S11309C011969C938E938281938113969C938E931C
S11309D01297E0E0F0E08A819B81009719F0FE0114
S11309E0EC01F9CFCE01029628813981820F931F41
S11309F02091CA013091CB012817390769F4309747
S1130A0029F41092CD011092CC0102C013821282FB
S1130A10D093CB01C093CA01DF91CF910895FC011B
S1130A200590615070400110D8F7809590958E0F15
S1130A309F1F0895DC0101C06D9341505040E0F7C1
S1130A400895FC016150704001900110D8F7809521
S1130A5090958E0F9F1F08950F931F93CF93DF934D
S1130A60182F092FEB018B8181FD03C08FEF9FEFBE
S1130A7020C082FF10C04E815F812C813D814217CE
S1130A8053077CF4E881F9819F012F5F3F4F39833D
S1130A902883108306C0E885F985812F0995892B61
S1130AA029F72E813F812F5F3F4F3F832E83812F74
S1130AB0902FDF91CF911F910F910895FA01AA27EA
S1130AC0283051F1203181F1E8946F936E7F6E5F8D
S1130AD07F4F8F4F9F4FAF4FB1E03ED0B4E03CD03B
S1130AE0670F781F891F9A1FA11D680F791F8A1F1E
S1130AF0911DA11D6A0F711D811D911DA11D20D085
S1130B0009F468943F912AE0269F11243019305D3E
S1130B103193DEF6CF010895462F4770405D41932F
S1130B20B3E00FD0C9F7F6CF462F4F70405D4A337C
S1130B3018F0495D31FD4052419302D0A9F7EACF44
S1130B40B4E0A6959795879577956795BA95C9F773
S1130B5000976105710508959B01AC010A2E069466
S1130B605795479537952795BA95C9F7620F731F1F
S1130B70841F951FA01D0895052E97FB16F400945D
S1130B800FD057FD05D05BD007FC02D046F408C057
S1130B9050954095309521953F4F4F4F5F4F0895A5
S1130BA090958095709561957F4F8F4F9F4F0895D5
S1130BB068D0A59F900DB49F900DA49F800D911DAA
S1130BC011240895B7FFF4CFF3DF821B930B08952C
S1130BD02F923F924F925F926F927F928F929F9249
S1130BE0AF92BF92CF92DF92EF92FF920F931F9337
S1130BF0CF93DF93CDB7DEB7CA1BDB0B0FB6F894E8
S1130C00DEBF0FBECDBF09942A88398848885F8427
S1130C106E847D848C849B84AA84B984C884DF8098
S1130C20EE80FD800C811B81AA81B981CE0FD11D7C
S1130C300FB6F894DEBF0FBECDBFED010895A1E25B
S1130C401A2EAA1BBB1BFD010DC0AA1FBB1FEE1F42
S1130C50FF1FA217B307E407F50720F0A21BB30B8D
S1130C60E40BF50B661F771F881F991F1A9469F709
S1130C7060957095809590959B01AC01BD01CF0165
S1130C800895A29FB001B39FC001A39F700D811D61
S1130C901124911DB29F700D811D1124911D089581
S1070CA0F894FFCFF2
S1130CA4010000000000CE012000537461727469D5
S1130CB46E67205352414D20746573742E2E2E009A
S1130CC45352414D207465737420636F6D706C6569
S1130CD474656420776974680A2025346420657215
S1130CE4726F727320696E207772697465207068FC
S1130CF461736520616E640A253464206572726FC1
S1130D04727320696E2072657472696576616C20F1
S1130D1470686173650A0A0052656365697665647F
S1130D243A202563200A004F7572206F776E205392
S1130D3452414D206C6962726172792074657374D6
S1130D44005465737420706173736564005465732F
S1130D5474206661696C65642C2076616C3A202584
S1050D64640025
S9030000FC
