S013000050726F6A6563744D61696E2E73726563B5
S1130000C2C10000EFC10000FCC1000009C2000031
S1130010D6C10000D4C10000D2C10000D0C100008C
S1130020CEC10000CCC10000CAC10000C8C100009C
S1130030C6C10000C4C10000C2C10000C0C10000AC
S1130040FEC10000BCC10000BAC10000B9C100007B
S1130050B6C10000B4C10000B2C10000B0C10000CC
S1130060AEC10000ACC10000AAC10000A8C10000DC
S113007005A84CCDB2D44EB93836A9020C50B9916A
S11300808688083CA6AAAA2ABE000000803F000079
S113009000000000000000065F5F0600000000078B
S11300A0070007070000147F7F147F7F1400242EAD
S11300B06B6B3A120000466630180C666200307AA8
S11300C04F5D377A48000407030000000000001C5D
S11300D03E63410000000041633E1C000000082A0A
S11300E03E1C1C3E2A0808083E3E0808000000A0EA
S11300F0E06000000000080808080808000000008C
S11301006060000000006030180C060301003E7FB0
S1130110594D7F3E000042427F7F404000006273A1
S113012059496F660000226349497F360000181C54
S113013016137F7F1000276745457D3900003C7EFC
S11301404B4979300000036371190F070000367FB3
S113015049497F360000064F49693F1E00000000F0
S11301606C6C0000000000A0EC6C00000000081C97
S113017036634100000014141414141400000041E8
S113018063361C080000020351590F0600003E7F2D
S1130190415D5D1F1E007C7E13137E7C0000417F49
S11301A07F49497F36001C3E634141632200417F01
S11301B07F41637F1C00417F7F495D416300417F34
S11301C07F491D0103001C3E6341517372007F7F10
S11301D008087F7F000000417F7F410000003070ED
S11301E040417F3F0100417F7F081C776300417FCE
S11301F07F41406070007F7F060C067F7F007F7F19
S1130200060C187F7F001C3E6341633E1C00417F47
S11302107F49090F06001E3F21717F5E0000417F68
S11302207F19396F460026674D597B320000034120
S11302307F7F410300007F7F40407F7F00001F3F9E
S113024060603F1F00007F7F3018307F7F0063773E
S11302501C081C776300074F78784F07000067730A
S1130260594D47637100007F7F4141000000010345
S1130270060C183060000041417F7F000000080C2C
S11302800603060C08008080808080808080000047
S1130290030704000000207454543C784000413F9C
S11302A07F44447C3800387C44446C280000307817
S11302B048493F7F4000387C54545C180000487E15
S11302C07F490302000098BCA4A4F87C0400417F89
S11302D07F08047C780000447D7D4000000040C419
S11302E084FD7D000000417F7F10386C4400004194
S11302F07F7F400000007C7C0C180C7C78007C7CA8
S113030004047C780000387C44447C38000084FC7D
S1130310F8A4243C1800183C24A4F8FC8400447C71
S113032078441C180000485C5454742400000004F1
S11303303E7F442400003C7C40403C7C40001C3C0C
S113034060603C1C00003C7C6030607C3C00446C81
S11303503810386C44009CBCA0A0FC7C00004C64A9
S1130360745C4C64000008083E77414100000000C2
S11303700077770000004141773E0808000002033F
S113038001030203010011241FBECFEFD4E0DEBF3E
S1130390CDBF12E0A0E0B1E0E6E3F7E202C00590D1
S11303A00D92A035B107D9F722E0A0E5B2E001C073
S11303B01D92A538B207E1F7B1D00C94991320CE61
S11303C01F920F920FB60F9211248F938CB18093CA
S11303D0750281E080935C028F910F900FBE0F90A5
S11303E01F9018951F920F920FB60F9211248F939E
S11303F081E080935B028F910F900FBE0F901F904E
S113040018951F920F920FB60F9211248F9381E0CB
S113041080935A028F910F900FBE0F901F901895E2
S11304201F920F920FB60F9211248F9381E0809345
S113043058028F910F900FBE0F901F9018951F9226
S11304400F920FB60F9211242F933F934F935F9304
S11304506F937F938F939F93AF93BF93EF93FF9388
S11304609DD7809159028F5F8093590280915902E0
S1130470823021F40E94030C10925902FF91EF91F3
S1130480BF91AF919F918F917F916F915F914F91A8
S11304903F912F910F900FBE0F901F901895EF92E0
S11304A0FF920F931F931FE1E12EF12C00E010E067
S11304B020E030E04BE450E060E875E280E090E05A
S11304C00E94BA0C88E491E00E94AB1081E01CD237
S11304D00E94880C53D2BBD60E94910C28D471D0B0
S11304E08BB780648BBF85B7826085BF85B78E7FED
S11304F085BF8B98939A8BB780688BBF85B78860CC
S113050085BF85B78B7F85BF32983A98B898C098D5
S113051078941F910F91FF90EF900895CF93DF93FC
S1130520CDB7DEB7A1970FB6F894DEBF0FBECDBF2F
S1130530B6DF4AE06FE18FE30E940A0C07E110E0A6
S1130540EE24E3949BE0F92E79D320935002309368
S11305505102409352025093530260935402709399
S1130560550280935602909357021D870C87EE869E
S11305702F8760E0CE010C963BD080E090EF01978E
S1130580F1F780915A02811142D680915802882352
S1130590D9F26CE280E0ABD3682F6370A9F2CE018C
S11305A047968FD0FE017796DE0111968F2D01902C
S11305B00D928A95E1F7CE0101964CD11092580222
S11305C0C3CFCF93DF93CDB7DEB743E06BE280E0D8
S11305D090E0B9D340E660E680E090E0B4D320E058
S11305E040E86FE080E090E0C7D3DF91CF910895B9
S11305F0CF93DF93CDB7DEB727970FB6F894DEBF5E
S11306000FBECDBF9E838D836F838F81882F90E033
S1130610009709F04DC08D819E81FC0180819181FC
S11306209C838B838B818295880F807E482F62E325
S113063080E090E088D38B819C81969587959695F0
S1130640879596958795482F61E380E090E07BD36A
S11306508D819E81FC018281482F65E380E090E0DA
S113066072D386E389831A8215C08A81882F90E029
S11306702D813E81820F931F0396FC018081482FB8
S1130680698180E090E05FD389818F5F89838A816B
S11306908F5F8A838D819E81FC0192818A81891773
S11306A020F32FEF48E060E380E090E065D30000A2
S11306B027960FB6F894DEBF0FBECDBFDF91CF9162
S11306C008950F931F93CF93DF93CDB7DEB7619750
S11306D00FB6F894DEBF0FBECDBF988B8F87698BA2
S11306E08989882F90E08230910509F457C08330BE
S11306F0910521F08130910509F09FC061E680E009
S113070090E0F5D2882F90E09D838C838C819D812D
S11307108C01000F111F000F111F000F111F62E643
S113072080E090E0E4D2829586958770882F90E0EF
S1130730802B912B9D838C8365E680E090E0D7D25B
S11307408E8386E689831A8214C08A81082F10E07A
S1130750698180E090E0CBD2282FCE010796800FEC
S1130760911FFC01208389818F5F89838A818F5F38
S11307708A839E818A81891740F320E041E06CE2FC
S113078080E090E0F9D28F8598892BE0FE013496C1
S1130790DC0101900D922A95E1F74FC061E780E0FA
S11307A090E0A5D2882F90E09D838C838C819D81DD
S11307B08C01000F111F000F111F000F111F62E7A2
S11307C080E090E094D2829586958770882F90E09F
S11307D0802B912B9D838C8365E780E090E087D20A
S11307E08E8386E789831B8214C08B81082F10E0D7
S11307F0698180E090E07BD2282FCE010796800F9C
S1130800911FFC01208389818F5F89838B818F5F96
S11308108B839E818B81891740F320E042E06CE258
S113082080E090E0A9D28F8598892BE0FE01349670
S1130830DC0101900D922A95E1F78F8598896196E4
S11308400FB6F894DEBF0FBECDBFDF91CF911F91DD
S11308500F910895CF93DF9300D01F92CDB7DEB7E9
S11308609B838A838A819B81FC018281282F30E0CB
S11308708A819B81FC0180819181432F4F932F9327
S1130880292F2F938F9388E191E0892F8F9388E10B
S113089091E08F930E9495100F900F900F900F90FE
S11308A00F900F9019821FC08981882F90E02A81B0
S11308B03B81820F931F0396FC018081882F90E077
S11308C0292F2F938F9384E491E0892F8F9384E4CD
S11308D091E08F930E9495100F900F900F900F90BE
S11308E089818F5F89838A819B81FC0192818981BF
S11308F08917D0F28AE090E00E94A6100F900F9022
S11309000F90DF91CF91089595B7906895BF96B7F2
S1130910986096BF882319F080B7806280BF0895DD
S1130920FC0180810895FC016083089560910601B3
S11309307091070182E00C94DF0E80910601909182
S113094007010E94FB0E90E090935F0280935E0289
S11309502091080160910801AC01421B51099A01E0
S113096044E6429FC001439F900D112470E00E9411
S1130970FD0E7093630260936202089510925F0209
S113098010925E0210926102109260021092630251
S113099010926202109265021092640210925D023B
S11309A00895CF93DF9340D460E070E080E090E05E
S11309B012D58EE791E068D52FEF8FEF92E02150AA
S11309C080409040E1F700C000C0C4E1D0E06091F5
S11309D006017091070182E00E94DF0E2FEF8FE184
S11309E091E0215080409040E1F700C000008091E8
S11309F00601909107010E94FB0E90910D0198173A
S1130A0010F480930D012197209709F760E070E0BE
S1130A1081E090E0E0D488E891E036D52FEF8FEFC5
S1130A2092E0215080409040E1F700C000C0C4E152
S1130A30D0E0609106017091070182E00E94DF0E10
S1130A402FEF8FE191E0215080409040E1F700C00A
S1130A50000080910601909107010E94FB0E909185
S1130A600C01891710F480930C012197209709F742
S1130A7060E070E082E090E0AED481E991E004D5DA
S1130A802FEF8FEF92E0215080409040E1F700C0BB
S1130A9000C0C4E1D0E0609106017091070181E0DB
S1130AA00E94DF0E2FEF8FE191E0215080409040B3
S1130AB0E1F700C0000080910601909107010E94B7
S1130AC0FB0E90910B01981710F480930B01219762
S1130AD0209709F760E070E083E090E07CD488E937
S1130AE091E0D2D42FEF8FEF92E0215080409040DC
S1130AF0E1F700C000C0C4E1D0E06091060170914C
S1130B00070181E00E94DF0E2FEF8FE191E0215079
S1130B1080409040E1F700C0000080910601909170
S1130B2007010E94FB0E90910A01891710F480932B
S1130B300A012197209709F780910B0120910A015E
S1130B4090E0821B910997FD019695958795809376
S1130B50090180910D0120910C0190E0821B910903
S1130B6097FD0196959587958093080160E070E064
S1130B7084E090E030D481EA91E086D42FEF8FEFC7
S1130B809EE0215080409040E1F700C00000DF91DA
S1130B90CF910895883709F4C9CE893739F4609123
S1130BA006017091070181E00C94DF0E08958837E7
S1130BB009F4C3CE893701F58091060190910701AC
S1130BC00E94FB0E90E0909361028093600220915A
S1130BD0090160910901AC01421B51099A0144E6E3
S1130BE0429FC001439F900D112470E00E94FD0EAE
S1130BF070936502609364020895809162029091FB
S1130C0063028B35910514F083E012C0863A9F4F3E
S1130C1014F484E00DC080916402909165028B35D8
S1130C20910514F081E004C0863A9F4F24F482E0D9
S1130C3080935D02089510925D020895CF93DF932F
S1130C40CDB7DEB728970FB6F894DEBF0FBECDBF81
S1130C506DDE82E68A95F1F700006FDE89E79ADFA0
S1130C6082E68A95F1F7000089E7A1DF88E0EEE5E6
S1130C70F2E0DE01119601900D928A95E1F7298147
S1130C803A814B815C816D817E818F819885289624
S1130C900FB6F894DEBF0FBECDBFDF91CF9108959C
S1130CA045DE82E68A95F1F7000047DE89E772DFC8
S1130CB082E68A95F1F7000089E779DF9EDF80916B
S1130CC05D020895CF93C82F45D680EC39D68CECBD
S1130CD094E00197F1F700C000008C2F3FD68FEF0E
S1130CE09FE20197F1F700C00000CF9108950F93A0
S1130CF01F93CF93DF931F92CDB7DEB7182F69836D
S1130D0029D683E01DD68CEC94E00197F1F700C05E
S1130D1000006981862F14D617D6082F812F1ED67E
S1130D20802F0F90DF91CF911F910F91089580E054
S1130D30C9DF6EE080E0DBDF982F907E81E09038A1
S1130D4009F480E008951F93CF93DF9300D0CDB7CB
S1130D50DEB7182F4A836983FDD582E0F1D5698116
S1130D60862FEED54A81842FEBD5812F0F900F90DB
S1130D70DF91CF911F91F2C51F93CF93DF9300D0E2
S1130D801F92CDB7DEB7182F2B834A836983E2D530
S1130D9085E0D6D56981862FD3D54A81842FD0D5D5
S1130DA02B81822FCDD5812F0F900F900F90DF9143
S1130DB0CF911F91D3C5CF93DF9336D260E070E01B
S1130DC080E090E008D38CEA91E05ED360E070E0CC
S1130DD083E090E000D3CEE0D0E082EB91E054D306
S1130DE02FEF8FE797E0215080409040E1F700C05B
S1130DF000002197209789F760E070E085E090E09B
S1130E00EAD284EB91E040D32FEF8FEF9CE22150A4
S1130E1080409040E1F700C000C0DF91CF91089579
S1130E20CF92DF92EF92FF920F931F93CF93DF93B2
S1130E308C016B017A01E9018091690290916A0247
S1130E40892B21F08DEB91E00E94AB108CE090E0B7
S1130E50FBD7FC0190936A0280936902D382C28219
S1130E6011830083CD2B39F0F582E48281E090E098
S1130E709783868304C01582148217821682DF91B9
S1130E80CF911F910F91FF90EF90DF90CF90089535
S1130E90CF93DF9386E190E0D7D7EC019093700273
S1130EA080936F0283ED91E0998388831D8A1C8A65
S1130EB085E090E09B838A8386E190E0C5D7FC01BE
S1130EC090936E0280936D028CED91E09183808308
S1130ED0D58BC48B83E090E09383828320E030E061
S1130EE040E050E0BE018BEE91E09ADF60916F022A
S1130EF070917002E0916902F0916A02DB0115962B
S1130F00FC93EE9314978BED96E093878287409140
S1130F106D0250916E0221E030E084EF91E080DFB9
S1130F2060916F02709170028091690290916A02DF
S1130F30FB019783868320E030E040E050E08FEFB0
S1130F4091E06EDF60916F0270917002809169028E
S1130F5090916A02DB0119969C938E93189720E076
S1130F6030E040E050E08AE092E05ADF60916F02A6
S1130F7070917002E0916902F0916A02DB011B96A4
S1130F80FC93EE931A9781ED94E09387828720E097
S1130F9030E040E050E084E192E042DFE0916F0213
S1130FA0F09170028091690290916A02958784871A
S1130FB010926A021092690260916D0270916E0241
S1130FC020E030E040E050E089E192E029DF6091E8
S1130FD06D0270916E028091690290916A02FB0128
S1130FE09583848320E030E040E050E08EE192E09D
S1130FF017DF60916D0270916E0280916902909189
S11310006A02DB0117969C938E93169720E030E0DA
S113101040E050E085E292E003DFE0916D02F09160
S11310206E028091690290916A0291878087DF91B4
S1131030CF910895CF93DF93EC01CB01209741F03A
S11310406AE070E0C8D188819981DF91CF911CC298
S11310508AE292E09F938F930E9495100F900F90D5
S1131060DF91CF910895CF92DF92EF92FF920F9389
S11310701F93CF93DF938C016B01D6D0B5D3780146
S1131080C0E0D0E0F2E0EF0EF11CCC15DD053CF43D
S1131090BE01F70182819381CDDF2196F3CF1093B6
S11310A06C0200936B021092670210926602F801C0
S11310B08481958190936A0280936902DF91CF9134
S11310C01F910F91FF90EF90DF90CF9008952091A2
S11310D066023091670212161306BCF4C901019727
S11310E09093670280936602E0916B02F0916C0228
S11310F02F5F3F4F220F331FE20FF31F20813181F7
S113110030936A022093690241C20895E091660215
S1131110F0916702A0916B02B0916C0212968D91CE
S11311209C9113970197E817F90794F4CF0101965E
S113113090936702809366023396EE0FFF1FEA0FC7
S1131140FB1F2081318130936A02209369021EC201
S1131150109267021092660214968D919C911597D5
S113116090936A02809369023FD32FEF8FEF92E04E
S1131170215080409040E1F700C000C00895E09104
S11311806B02F0916C0284899589009721F0FC012F
S11311906281738168CF089580916B0290916C0293
S11311A0FC01628173815FDF16C0E0916902F091F6
S11311B06A0286819781892B31F084819581FC01B3
S11311C06281738150CF0284F385E02D309711F052
S11311D00995E2CF08958091660290916702D6D175
S11311E080916802882391F05BDD823069F020F4FD
S11311F08130B1F76CDFF4CF833021F0843081F794
S1131200BEDFEECFD2DFECCF81DFEACF089581E0FD
S1131210809368023DDE80916F0290917002FC0120
S11312206281738120DFD7CF80E090E020911001AC
S1131230309111018217930748F4E0911201F09163
S11312401301E80FF91F10820196F0CF0895CF9390
S1131250E0911601F09117018EEA8083E091160166
S1131260F091170181EA8083E0911601F091170152
S11312708AED8083E0911601F091170182E1808369
S1131280E0911601F091170188EC8083E09116013A
S1131290F091170188EA8083E0911601F09117011B
S11312A08FE38083E0911601F091170185ED80832F
S11312B0E0911601F091170180E88083E091160116
S11312C0F091170181E88083E0911601F0911701F4
S11312D0C0E5C083E0911601F091170189ED808388
S11312E0E0911601F091170181E28083E0911601EB
S11312F0F091170180E28083E0911601F0911701CB
S11313001082E0911601F09117018BED8083E0913A
S11313101601F091170180E38083E0911601F091AA
S113132017018DEA8083E0911601F0911701108274
S1131330E0911601F091170184EA8083E09116018F
S1131340F091170186EA8083E0911601F09117016C
S11313508FEA808369DF83B78D6083BF89B781603B
S113136089BFC1BFCF910895262F2F7034E07595A2
S113137067953A95E1F7605F80559F4FE0911601BC
S1131380F09117018083E0911601F09117012083F9
S1131390E0911601F09117016083089560E070E018
S11313A080E090E0E1DF80E090E020911001309156
S11313B011018217930770F4E0911201F091130167
S11313C0E80FF91F2081E0911401F09115012083A9
S11313D00196EBCF08959695982F88279795879532
S11313E0860F971F2091120130911301280F391F86
S11313F030930F0120930E010895CF93C62F682FC9
S113140070E08C2F86958695869590E0E4DF809138
S11314100E0190910F0184DAC77021E030E001C021
S1131420220FCA95EAF7822BE0910E01F0910F0189
S11314308083CF9108950F931F93CF93DF938052AE
S113144098E0899F80011124C0E0D0E002571F4F2B
S1131450F801EC0FFD1F649170E080910E019091F2
S11314600F0161DA80910E0190910F010196909322
S11314700F0180930E012196C830D10549F7DF9101
S1131480CF911F910F9108951F93CF93DF93EC0198
S113149010E0812F90E0FE0101900020E9F73197E0
S11314A0EC1BFD0B8E179F0738F4FE01E80FF91FA4
S11314B08081C1DF1F5FEDCFDF91CF911F91089530
S11314C068E170E080910E0190910F012CDA809117
S11314D00E0190910F01019690930F0180930E01DC
S11314E068E170E020DA80910E0190910F0101967D
S11314F090930F0180930E016EE770E014DA8091EF
S11315000E0190910F01019690930F0180930E01AB
S11315106CE370E008DA80910E0190910F0101965E
S113152090930F0180930E0168E170E0FCD98091E3
S11315300E0190910F01019690930F0180930E017B
S113154008951F93CF93DF93C0E0D0E0C830D10556
S1131550C9F060E070E0CE013EDF15E060E070E0CD
S113156080910E0190910F01DED980910E0190912E
S11315700F01019690930F0180930E01115071F7A2
S11315802196E4CFDF91CF911F9108954F925F92FE
S11315906F927F928F929F92AF92BF92CF92DF927F
S11315A0EF92FF920F931F93CF93DF93CDB7DEB7E4
S11315B02C970FB6F894DEBF0FBECDBF1092720207
S11315C01092710220917302309174028217930772
S11315D0F9F48B879C87B5DF60E070E08B859C8590
S11315E0FADE2C960FB6F894DEBF0FBECDBFDF91A6
S11315F0CF911F910F91FF90EF90DF90CF90BF900C
S1131600AF909F908F907F906F905F904F9058CF46
S1131610AE014A5F5F4F6A018E010F5F1F4F2817AB
S113162039070CF066C085E0FA01482F11924A95FB
S1131630E9F7F80111928A95E9F7F8E05F2EE12CB9
S1131640F12C88E0E816F10409F43CC04801A12C0F
S1131650B12CB501C701BFDE80910E0190910F013D
S11316605FD9F40181934F01FFEFAF1ABF0A45E040
S1131670A416B10471F756014801612C712CB30111
S1131680C701A9DEF40141904F01F5018081881F53
S11316908827881F642D70E0660F771F682B809160
S11316A00E0190910F013FD9F50141925F01FFEFC7
S11316B06F1A7F0A45E06416710409F75FEFE51AB3
S11316C0F50ABFCF8091710290917202019721F0C7
S11316D000C000C00000F6CF109272021092710296
S11316E05A9409F0ACCF80917302909174020196E0
S11316F060C085E0FA01482F11924A95E9F7F80194
S113170011928A95E9F768E0562E57E0E52EF12C00
S11317104801A12CB12CB501C7015DDE80910E01F9
S113172090910F01FDD8F40181934F01FFEFAF1A9F
S1131730BF0A45E0A416B10471F756014801612CB3
S1131740712CB301C70147DEF40141904F01F5014B
S11317506081F0E86F9FB0011124842D8695682B79
S113176080910E0190910F01DED8F50141925F0145
S1131770FFEF6F1A7F0A45E06416710411F751E018
S1131780E51AF10828F6809171029091720201978E
S113179021F000C000C00000F6CF10927202109237
S11317A071025A9409F0B1CF80917302909174023E
S11317B0019790937402809373022C960FB6F89459
S11317C0DEBF0FBECDBFDF91CF911F910F91FF9070
S11317D0EF90DF90CF90BF90AF909F908F907F90CD
S11317E06F905F904F900895ACDE809112019091BC
S11317F0130190930F0180930E0162DE1092740224
S113180010927302089581E090E0909372028093A5
S1131810710208952F923F924F925F926F927F923E
S11318208F929F92AF92BF92CF92DF92EF92FF92EC
S11318300F931F93CF93DF9300D01F92CDB7DEB7E2
S1131840382E062F442ED9DD202E220C832D880F0E
S11318508983E8E0F0E0FB83EA83C12CD12C760194
S1131860512C612C712CC301B20137D14B015C01A5
S1131870C701B601FCD09B01AC01C501B401F2D192
S1131880F9D0132D160FC701B6014FD29B01AC013D
S1131890C501B401E7D1EED0B02EB60E6B2D812F69
S11318A0ACDD922C9B18692D812FA7DDA980A11A8C
S11318B06B2D8A2DA2DD692D8A2D9FDD6B2D812F45
S11318C09CDD2AEF38EC45E65EE3C701B6016BD038
S11318D06B017C018A819B8101979B838A83892B7D
S11318E009F0C1CF0F900F900F90DF91CF911F910E
S11318F00F91FF90EF90DF90CF90BF90AF909F90AB
S11319008F907F906F905F904F903F902F900895AD
S113191010927702109278021092790210927A0251
S113192008958BB780628BBF86B78E7F86BF87B3DF
S1131930806B87BB80E58DB981E08EB9C49A089528
S11319408FB9779BFECF08958FEFFADF779BFECF99
S11319508FB10895811101C0C4980895811101C007
S1131960C49A08955D9BFECF8CB908955F9BFECF0A
S11319708CB10895EF92FF920F931F93BB27A12F71
S1131980902F8F2D80BDE9B888E18AB9579A8EE8E7
S113199080BD66EB7CE082EB9CE01F910F91FF9091
S11319A0EF9079C35058BB27AA270ED010C1D9D0C5
S11319B030F0DED020F031F49F3F11F41EF4CEC09D
S11319C00EF4E095E7FBC4C0E92F23D180F3BA17E6
S11319D0620773078407950718F071F49EF53BC1FD
S11319E00EF4E0950B2EBA2FA02D0B01B901900136
S11319F00C01CA01A0011124FF27591B99F0593F7A
S1131A0050F4503E68F11A16F040A22F232F342FC1
S1131A104427585FF3CF469537952795A795F0400F
S1131A205395C9F77EF41F16BA0B620B730B840B24
S1131A30BAF09150A1F0FF0FBB1F661F771F881FDC
S1131A40C2F70EC0BA0F621F731F841F48F4879534
S1131A5077956795B795F7959E3F08F0B3CF939523
S1131A60880F08F09927EE0F97958795089588D0E9
S1131A70E395BEC004D06894B111EEC00895D1D0EE
S1131A8088F09F5790F0B92F9927B751A0F0D1F063
S1131A90660F771F881F991F1AF0BA95C9F712C0ED
S1131AA0B13081F0D8D0B1E00895D5C0672F782F38
S1131AB08827B85F39F0B93FCCF386957795679559
S1131AC0B395D9F73EF490958095709561957F4FC5
S1131AD08F4F9F4F0895E89409C097FB3EF490956B
S1131AE08095709561957F4F8F4F9F4F9923A9F0F3
S1131AF0F92F96E9BB279395F69587957795679582
S1131B00B795F111F8CFFAF4BB0F11F460FF1BC0C5
S1131B106F5F7F4F8F4F9F4F16C0882311F096E958
S1131B2011C0772321F09EE8872F762F05C0662306
S1131B3071F096E8862F70E060E02AF09A95660FBF
S1131B40771F881FDAF7880F9695879597F9089578
S1131B5097F99F6780E870E060E008959FEF80EC5C
S1131B60089500240A9416161706180609060895FF
S1131B7000240A9412161306140605060895EECFDF
S1131B8050D0E8F3E894E0E0BB279F57F0F02AED4B
S1131B903FE049EC06C0EE0FBB0F661F771F881F9E
S1131BA028F0B23A62077307840728F0B25A620B2E
S1131BB0730B840BE3959A9572F7803830F49A95F9
S1131BC0BB0F661F771F881FD2F79048B6C0092E37
S1131BD00394000C11F4882352F0BB0F40F4BF2B84
S1131BE011F460FF04C06F5F7F4F8F4F9F4F0895C4
S1131BF0EF93E0FF06C0A2EA2AED3FE049EC5FEB79
S1131C00E3DEE5DF0F90039401FC9058E0E7F0E099
S1131C10A0C057FD9058440F551F59F05F3F71F015
S1131C204795880F97FB991F61F09F3F79F087953F
S1131C300895121613061406551FF2CF4695F1DFC8
S1131C4008C0161617061806991FF1CF8695710558
S1131C50610508940895E894BB2766277727CB018C
S1131C6097F908950BD0B3CF7CDF28F081DF18F00B
S1131C70952309F06DCF72CF1124EECFCADFA0F304
S1131C80959FD1F3950F50E0551F629FF001729F0D
S1131C90BB27F00DB11D639FAA27F00DB11DAA1F2C
S1131CA0649F6627B00DA11D661F829F2227B00D79
S1131CB0A11D621F739FB00DA11D621F839FA00D04
S1131CC0611D221F749F3327A00D611D231F849F54
S1131CD0600D211D822F762F6A2F11249F575040AB
S1131CE08AF0E1F088234AF0EE0FFF1FBB1F661F46
S1131CF0771F881F91505040A9F79E3F510570F0FF
S1131D0027CFAACF5F3FECF3983EDCF38695779517
S1131D106795B795F795E7959F5FC1F7FE2B880FF9
S1131D20911D9695879597F908959F9329DF0F90B4
S1131D3007FCEE5F5DCF9F3F31F0915020F4879513
S1131D4077956795B795880F911D9695879597F91F
S1131D5008959F938F937F936F93FF93EF939B01CA
S1131D60AC0180DFEF91FF9105D02F913F914F910E
S1131D705F9178CFDF93CF931F930F93FF92EF92EE
S1131D80DF927B018C01689405C0DA2EEF0176DFC7
S1131D90FE01E894A5912591359145915591AEF3B5
S1131DA0EF0112DEFE019701A801DA9479F7DF90C2
S1131DB0EF90FF900F911F91CF91DF910895282FFD
S1131DC0CB01223059F020F4213069F464E009C0D9
S1131DD0233031F0243039F467E003C065E001C0FA
S1131DE066E00C9493048AE392E09F938F939DD1D1
S1131DF00F900F9008950C94900497FB072E16F4FF
S1131E00009406D077FD08D00BD007FC05D03EF433
S1131E10909581959F4F0895709561957F4F089592
S1131E20AA1BBB1B51E107C0AA1FBB1FA617B707FC
S1131E3010F0A61BB70B881F991F5A95A9F7809518
S1131E409095BC01CD010895CF93DF938230910525
S1131E5010F482E090E0E0917D02F0917E0220E0B7
S1131E6030E0A0E0B0E0309739F14081518148176B
S1131E705907B8F04817590771F482819381109774
S1131E8029F013969C938E9312972CC090937E0204
S1131E9080937D0227C02115310531F04217530785
S1131EA018F0A901DB0101C0EF019A01BD01DF01B6
S1131EB00280F381E02DD7CF21153105F9F0281BDD
S1131EC0390B2430310580F48A819B8161157105B9
S1131ED021F0FB019383828304C090937E0280935C
S1131EE07D02FE01329644C0FE01E20FF31F81938E
S1131EF0919322503109398328833AC020917B027F
S1131F0030917C02232B41F4209102013091030192
S1131F1030937C0220937B022091000130910101D7
S1131F202115310541F42DB73EB74091040150917C
S1131F300501241B350BE0917B02F0917C02E21732
S1131F40F307A0F42E1B3F0B2817390778F0AC01D8
S1131F504E5F5F4F2417350748F04E0F5F1F5093B5
S1131F607C0240937B028193919302C0E0E0F0E015
S1131F70CF01DF91CF910895CF93DF93009709F4B8
S1131F8087C0FC01329713821282C0917D02D091E6
S1131F907E02209781F420813181280F391F80919E
S1131FA07B0290917C028217930779F5F0937C026F
S1131FB0E0937B026DC0DE0120E030E0AE17BF0786
S1131FC050F412964D915C9113979D014115510562
S1131FD009F1DA01F3CFB383A28340815181840FE5
S1131FE0951F8A179B0771F48D919C911197840F0B
S1131FF0951F02969183808312968D919C911397DD
S1132000938382832115310529F4F0937E02E093B2
S11320107D023EC0D9011396FC93EE9312974D9125
S11320205D91A40FB51FEA17FB0779F480819181B4
S1132030840F951F0296D90111969C938E938281E9
S1132040938113969C938E931297E0E0F0E08A813B
S11320509B81009719F0FE01EC01F9CFCE010296A5
S113206028813981820F931F20917B0230917C0259
S11320702817390769F4309729F410927E021092D8
S11320807D0202C013821282D0937C02C0937B0231
S1132090DF91CF9108950F931F93CF93DF93EC01BA
S11320A08B01009731F46115710519F480E090E01B
S11320B037C06EE070E081E090E03DD2FC01009713
S11320C0A9F380E883830115110571F01387028752
S11320D081E8838380917F0290918002892B21F48F
S11320E0F0938002E0937F022097C9F0D187C087E4
S11320F08381826083838091810290918202892B03
S113210071F4F0938202E0938102809183029091B2
S11321108402892B21F4F0938402E0938302CF019B
S1132120DF91CF911F910F910895A0E0B0E0EAE90B
S1132130F0E1D8C2FE01359661917191AF018091B1
S113214081029091820234D0E2E0E8C2609181027F
S11321507091820227C20F931F93CF93DF93E09174
S11321608102F0918202238121FF1BC0EC0100E077
S113217010E089916091810270918202DB011896CE
S1132180ED91FC911997882331F00995892B89F3F6
S11321900FEF1FEFEECF8AE00995892B11F4C801E8
S11321A002C08FEF9FEFDF91CF911F910F910895A0
S11321B0ACE0B0E0EDEDF0E185C27C016B018A0199
S11321C0FC0117821682838181FFB0C1CE01019682
S11321D04C01F7019381F60193FD859193FF819161
S11321E06F01882309F49EC1853239F493FD8591EA
S11321F093FF81916F01853221F4B70190E0D2D130
S1132200E8CF512C312C20E02032A0F48B3269F03D
S113221030F4803259F0833269F420612CC08D325D
S113222039F0803339F4216026C02260246023C051
S1132230286021C027FD27C030ED380F3A3078F4EC
S113224026FF06C0FAE05F9E300D1124532E13C002
S11322508AE0389E300D1124332E20620CC08E3259
S113226021F426FD5FC1206406C08C3611F4206879
S113227002C0883641F4F60193FD859193FF819164
S11322806F018111C1CF982F9F7D9554933028F40D
S11322900C5F1F4FFFE3F9830DC0833631F08337A2
S11322A071F0833509F057C021C0F801808189831A
S11322B00E5F1F4F44244394512C540114C0380121
S11322C0F2E06F0E711CF801A080B18026FF03C0FC
S11322D0652D70E002C06FEF7FEFC5012C8757D1E9
S11322E02C0183012C852F77222E16C03801F2E0B1
S11322F06F0E711CF801A080B18026FF03C0652D0C
S113230070E002C06FEF7FEFC5012C872ED12C0146
S11323102C852068222E830123FC19C0832D90E094
S113232048165906A0F4B70180E290E03BD13A94F4
S1132330F5CFF50127FC859127FE81915F01B70157
S113234090E030D131103A94F1E04F1A5108411421
S1132350510479F7DEC0843611F0893631F5F8017D
S113236027FF07C060817181828193810C5F1F4FB9
S113237008C060817181882777FD8095982F0E5F52
S11323801F4F2F76B22E97FF09C0909580957095B8
S113239061957F4F8F4F9F4F2068B22E2AE030E027
S11323A0A40132D1A82EA81843C0853729F42F7E62
S11323B0B22E2AE030E025C0F22FF97FBF2E8F36EF
S11323C0C1F018F4883579F0ADC0803719F088373A
S11323D021F0A8C02F2F2061B22EB4FE0DC08B2D8A
S11323E08460B82E09C024FF0AC09F2F9660B92EBE
S11323F006C028E030E005C020E130E002C020E162
S113240032E0F801B7FE07C0608171818281938157
S11324100C5F1F4F06C06081718180E090E00E5F09
S11324201F4FA401F1D0A82EA818FB2DFF77BF2EB3
S1132430B6FE0BC02B2D2E7FA51450F4B4FE0AC09B
S1132440B2FC08C02B2D2E7E05C07A2C2B2D03C088
S11324507A2C01C0752C24FF0DC0FE01EA0DF11D7C
S11324608081803311F4297E09C022FF06C0739451
S1132470739404C0822F867809F0739423FD12C0EC
S113248020FF06C05A2C731418F4530C5718732CDD
S1132490731460F4B70180E290E02C8783D07394C6
S11324A02C85F6CF731410F4371801C0312C24FF97
S11324B011C0B70180E390E02C8774D02C8522FFF3
S11324C016C021FF03C088E590E002C088E790E0D1
S11324D0B7010CC0822F867851F021FD02C080E242
S11324E001C08BE227FD8DE2B70190E05BD0A5141B
S11324F030F4B70180E390E055D05A94F8CFAA9411
S1132500F401EA0DF11D8081B70190E04BD0A110D8
S1132510F6CF332009F45DCEB70180E290E042D0DB
S11325203A94F7CFF7018681978102C08FEF9FEF2E
S11325302C96E2E1E3C00F931F93CF93DF93869F22
S11325408001879F100D969F100D1124C8017CDC1B
S1132550EC01009721F0A80160E070E011D0CE01F9
S1132560DF91CF911F910F910895FC010590615067
S113257070400110D8F7809590958E0F9F1F089595
S1132580DC0101C06D9341505040E0F70895FC0117
S11325906150704001900110D8F7809590958E0F8E
S11325A09F1F08950F931F93CF93DF93182F092F25
S11325B0EB018B8181FD03C08FEF9FEF20C082FF71
S11325C010C04E815F812C813D81421753077CF4FA
S11325D0E881F9819F012F5F3F4F3983288310835E
S11325E006C0E885F985812F0995892B29F72E8165
S11325F03F812F5F3F4F3F832E83812F902FDF91A9
S1132600CF911F910F910895FA01AA27283051F113
S1132610203181F1E8946F936E7F6E5F7F4F8F4F0F
S11326209F4FAF4FB1E03ED0B4E03CD0670F781F6E
S1132630891F9A1FA11D680F791F8A1F911DA11D53
S11326406A0F711D811D911DA11D20D009F468948C
S11326503F912AE0269F11243019305D3193DEF634
S1132660CF010895462F4770405D4193B3E00FD0EA
S1132670C9F7F6CF462F4F70405D4A3318F0495DD5
S113268031FD4052419302D0A9F7EACFB4E0A695B8
S11326909795879577956795BA95C9F700976105DA
S11326A0710508959B01AC010A2E06945795479530
S11326B037952795BA95C9F7620F731F841F951F25
S11326C0A01D08952F923F924F925F926F927F9236
S11326D08F929F92AF92BF92CF92DF92EF92FF922E
S11326E00F931F93CF93DF93CDB7DEB7CA1BDB0BDA
S11326F00FB6F894DEBF0FBECDBF09942A8839887F
S113270048885F846E847D848C849B84AA84B98485
S1132710C884DF80EE80FD800C811B81AA81B98191
S1132720CE0FD11D0FB6F894DEBF0FBECDBFED01A5
S10927300895F894FFCFA8
S11327360000850220000014808019C819C8001CF6
S11327460004001C001200107265636569766564F6
S1132756206D6573736167653A2069643A20256460
S11327662C206C656E6774683A2025642C2064619D
S113277674613A00202563000A3D3D3D3D3D3D3DE3
S11327863D3D3D3D3D3D3D3D3D3D3D3D3D3D535442
S113279641525455503D3D3D3D3D3D3D3D3D3D3D04
S11327A63D3D3D3D3D3D3D3D3D3D3D3D3D004A4F6D
S11327B659205249474854004A4F59204C454654DB
S11327C6004A4F59205550004A4F5920444F574EFE
S11327D60043414C494220444F4E45005354415214
S11327E654002A005955504949203A290043726534
S11327F66174696E67206E657874206974656D2EE0
S11328062E2E004D61696E4D656E750044696666CF
S11328166963756C74794D656E75004E65772047EE
S1132826616D6500446966666963756C7479004810
S113283669676873636F726573004A6F79204361D1
S11328466C696200496E666F0065617379006D6537
S11328566469756D0068617264004E554C4C207055
S11328666F696E7465722E2E2E0050726F626C65DF
S11328766D732077697468204144432E2E2E000020
S9030000FC
