S013000050726F6A6563744D61696E2E73726563B5
S113000037C0000050C000004EC000004CC00000CB
S11300104AC0000048C0000046C0000044C00000C0
S113002042C0000040C000003EC000003CC00000D0
S11300303AC0000038C0000036C0000034C00000E0
S113004032C0000030C000002EC000002DC00000EF
S11300502AC0000028C0000026C0000024C0000000
S113006022C0000020C000001EC000001CC0000010
S113007011241FBECFEFD4E0DEBFCDBF21E0A6E048
S1130080B1E001C01D92A231B207E1F711E0A0E096
S1130090B1E0E6EDF4E002C005900D92A630B107A0
S11300A0D9F714D016C2ACCF1F920F920FB60F928D
S11300B011248F938CB18093070181E08093060112
S11300C08F910F900FBE0F901F9018951FE1E12E96
S11300D0F12C00E010E020E030E04BE450E060E878
S11300E075E280E090E014D078948091060181302C
S11300F0E1F7109206018091070190E06BD0F5CFF3
S11301005D9BFECF8CB908955F9BFECF8CB10895A3
S1130110EF92FF920F931F93BB27A12F902F8F2D48
S113012080BDE9B888E18AB9579A8EE880BD64E851
S113013070E080E890E01F910F91FF90EF9000C075
S11301400F931F93CF93DF93EC018B01009731F44E
S11301506115710519F480E090E037C06EE070E03D
S113016081E090E03CD0FC010097A9F380E8838310
S11301700115110571F01387028781E8838380914B
S1130180080190910901892B21F4F0930901E0936E
S113019008012097C9F0D187C08783818260838357
S11301A080910A0190910B01892B71F4F0930B015A
S11301B0E0930A0180910C0190910D01892B21F4A7
S11301C0F0930D01E0930C01CF01DF91CF911F91CA
S11301D00F91089560910A0170910B0148C10F932A
S11301E01F93CF93DF93869F8001879F100D969F67
S11301F0100D1124C8010DD0EC01009721F0A801C5
S113020060E070E02DD1CE01DF91CF911F910F916D
S11302100895CF93DF938230910510F482E090E04B
S1130220E0911001F091110120E030E0A0E0B0E095
S1130230309739F14081518148175907B8F0481770
S1130240590771F482819381109729F013969C9336
S11302508E9312972CC0909311018093100127C0A4
S11302602115310531F04217530718F0A901DB01BC
S113027001C0EF019A01BD01DF010280F381E02D8D
S1130280D7CF21153105F9F0281B390B243031055E
S113029080F48A819B816115710521F0FB019383B0
S11302A0828304C09093110180931001FE01329661
S11302B044C0FE01E20FF31F819391932250310950
S11302C0398328833AC020910E0130910F01232BEA
S11302D041F4209102013091030130930F012093E6
S11302E00E0120910001309101012115310541F4E5
S11302F02DB73EB74091040150910501241B350BE5
S1130300E0910E01F0910F01E217F307A0F42E1B08
S11303103F0B2817390778F0AC014E5F5F4F241765
S1130320350748F04E0F5F1F50930F0140930E01A5
S11303308193919302C0E0E0F0E0CF01DF91CF918F
S11303400895CF93DF93009709F487C0FC01329797
S113035013821282C0911001D0911101209781F46F
S113036020813181280F391F80910E0190910F0156
S11303708217930779F5F0930F01E0930E016DC096
S1130380DE0120E030E0AE17BF0750F412964D9125
S11303905C9113979D014115510509F1DA01F3CFE1
S11303A0B383A28340815181840F951F8A179B07D1
S11303B071F48D919C911197840F951F02969183EE
S11303C0808312968D919C91139793838283211538
S11303D0310529F4F0931101E09310013EC0D901D5
S11303E01396FC93EE9312974D915D91A40FB51F54
S11303F0EA17FB0779F480819181840F951F029697
S1130400D90111969C938E938281938113969C9328
S11304108E931297E0E0F0E08A819B81009719F0B7
S1130420FE01EC01F9CFCE01029628813981820FB9
S1130430931F20910E0130910F012817390769F499
S1130440309729F4109211011092100102C0138206
S11304501282D0930F01C0930E01DF91CF910895C2
S1130460DC0101C06D9341505040E0F708950F93B3
S11304701F93CF93DF93182F092FEB018B8181FDFD
S113048003C08FEF9FEF20C082FF10C04E815F81B9
S11304902C813D81421753077CF4E881F9819F0147
S11304A02F5F3F4F39832883108306C0E885F98581
S11304B0812F0995892B29F72E813F812F5F3F4F8B
S11304C03F832E83812F902FDF91CF911F910F9126
S10904D00895F894FFCF2B
S10904D6000012012000E9
S9030000FC
