S013000050726F6A6563744D61696E2E73726563B5
S1130000B3C10000E0C10000EDC10000FAC100006E
S1130010C7C10000C5C10000C3C10000C1C10000C8
S1130020BFC10000BDC10000BBC10000B9C10000D8
S1130030B7C10000B5C10000B3C10000B1C10000E8
S1130040EFC10000ADC10000ABC10000AAC10000B7
S1130050A7C10000A5C10000A3C10000A1C1000008
S11300609FC100009DC100009BC1000099C1000018
S1130070000000000000000000065F5F06000000B2
S11300800007070007070000147F7F147F7F140018
S1130090242E6B6B3A120000466630180C66620020
S11300A0307A4F5D377A48000407030000000000EF
S11300B0001C3E63410000000041633E1C00000040
S11300C0082A3E1C1C3E2A0808083E3E0808000078
S11300D000A0E0600000000008080808080800000C
S11300E000006060000000006030180C060301008E
S11300F03E7F594D7F3E000042427F7F40400000DA
S1130100627359496F660000226349497F360000D3
S1130110181C16137F7F1000276745457D390000A2
S11301203C7E4B4979300000036371190F070000CE
S1130130367F49497F360000064F49693F1E00005B
S113014000006C6C0000000000A0EC6C00000000DB
S1130150081C366341000000141414141414000025
S1130160004163361C080000020351590F060000C9
S11301703E7F415D5D1F1E007C7E13137E7C00006C
S1130180417F7F49497F36001C3E63414163220021
S1130190417F7F41637F1C00417F7F495D41630054
S11301A0417F7F491D0103001C3E6341517372006E
S11301B07F7F08087F7F000000417F7F41000000AF
S11301C0307040417F3F0100417F7F081C7763000E
S11301D0417F7F41406070007F7F060C067F7F0077
S11301E07F7F060C187F7F001C3E6341633E1C002A
S11301F0417F7F49090F06001E3F21717F5E000089
S1130200417F7F19396F460026674D597B320000C4
S113021003417F7F410300007F7F40407F7F0000D8
S11302201F3F60603F1F00007F7F3018307F7F00DA
S113023063771C081C776300074F78784F0700002A
S11302406773594D47637100007F7F41410000008F
S11302500103060C183060000041417F7F0000005C
S1130260080C0603060C0800808080808080808053
S11302700000030704000000207454543C7840003C
S1130280413F7F44447C3800387C44446C2800005F
S1130290307848493F7F4000387C54545C18000053
S11302A0487E7F490302000098BCA4A4F87C0400A3
S11302B0417F7F08047C780000447D7D400000007D
S11302C040C484FD7D000000417F7F10386C4400F1
S11302D000417F7F400000007C7C0C180C7C78007F
S11302E07C7C04047C780000387C44447C38000026
S11302F084FCF8A4243C1800183C24A4F8FC8400D2
S1130300447C78441C180000485C54547424000055
S113031000043E7F442400003C7C40403C7C400080
S11303201C3C60603C1C00003C7C6030607C3C00F9
S1130330446C3810386C44009CBCA0A0FC7C0000C9
S11303404C64745C4C64000008083E774141000032
S113035000000077770000004141773E0808000064
S1130360020301030203010011241FBECFEFD4E0F6
S1130370DEBFCDBF12E0A0E0B1E0E6E2F2E202C0EF
S113038005900D92AA35B107D9F722E0AAE5B2E0AB
S113039001C01D92AF38B207E1F7B1D00C9411112E
S11303A02FCE1F920F920FB60F9211248F938CB100
S11303B080937F0281E0809366028F910F900FBE3D
S11303C00F901F9018951F920F920FB60F92112441
S11303D08F9381E0809365028F910F900FBE0F90F1
S11303E01F9018951F920F920FB60F9211248F939E
S11303F081E0809364028F910F900FBE0F901F9045
S113040018951F920F920FB60F9211248F9381E0CB
S1130410809362028F910F900FBE0F901F901895DA
S11304201F920F920FB60F9211242F933F934F9365
S11304305F936F937F938F939F93AF93BF93EF9348
S1130440FF93CFD7809163028F5F80936302809183
S11304506302823021F40E94080C10926302FF911F
S1130460EF91BF91AF919F918F917F916F915F9128
S11304704F913F912F910F900FBE0F901F901895A1
S1130480EF92FF920F931F931FE1E12EF12C00E0F6
S113049010E020E030E04BE450E060E875E280E0FA
S11304A090E00E94410C88E491E00E94230E81E0D8
S11304B05FD20E940F0C93D2EDD60E94180C5DD42B
S11304C0B4D08BB780648BBF85B7826085BF85B796
S11304D08E7F85BF8B98939A8BB780688BBF85B7C7
S11304E0886085BF85B78B7F85BF32983A98B89866
S11304F0C09878941F910F91FF90EF900895CF9337
S1130500DF93CDB7DEB7A1970FB6F894DEBF0FBE69
S1130510CDBFB6DF60E070E080E090E07FD78EE78B
S113052091E0B7D760E070E081E090E077D78EE7A4
S113053091E0AFD760E070E082E090E06FD78EE7A3
S113054091E0A7D760E070E083E090E067D78EE7A2
S113055091E09FD760E070E084E090E05FD78EE7A1
S113056091E097D760E070E085E090E057D78EE7A0
S113057091E08FD760E070E086E090E04FD78EE79F
S113058091E087D760E070E087E090E047D78EE79E
S113059091E07FD769E980EC9FE1F9D160E88FEFC2
S11305A09FE1F5D107E110E0EE24E3949BE0F92EFE
S11305B06BD320935A0230935B0240935C025093B6
S11305C05D0260935E0270935F0280936002909379
S11305D061021D870C87EE862F8760E0CE010C96A2
S11305E03BD080E090EF0197F1F780916402811194
S11305F031D6809162028823D9F26CE280E09DD3E7
S1130600682F6370A9F2CE0147968FD0FE017796CA
S1130610DE0111968F2D01900D928A95E1F7CE019E
S113062001964CD110926202C3CFCF93DF93CDB722
S1130630DEB743E06BE280E090E0ABD340E660E6F7
S113064080E090E0A6D320E040E86FE080E090E016
S1130650B9D3DF91CF910895CF93DF93CDB7DEB7B0
S113066027970FB6F894DEBF0FBECDBF9E838D8350
S11306706F838F81882F90E0009709F04DC08D81A2
S11306809E81FC01808191819C838B838B818295E7
S1130690880F807E482F62E380E090E07AD38B81DC
S11306A09C81969587959695879596958795482FDD
S11306B061E380E090E06DD38D819E81FC018281B5
S11306C0482F65E380E090E064D386E389831A824F
S11306D015C08A81882F90E02D813E81820F931F5F
S11306E00396FC018081482F698180E090E051D31A
S11306F089818F5F89838A818F5F8A838D819E81BF
S1130700FC0192818A81891720F32FEF48E060E38E
S113071080E090E057D3000027960FB6F894DEBF30
S11307200FBECDBFDF91CF9108950F931F93CF9349
S1130730DF93CDB7DEB761970FB6F894DEBF0FBE77
S1130740CDBF988B8F87698B8989882F90E0823001
S1130750910509F457C08330910521F0813091054A
S113076009F09FC061E680E090E0E7D2882F90E036
S11307709D838C838C819D818C01000F111F000F40
S1130780111F000F111F62E680E090E0D6D282951F
S113079086958770882F90E0802B912B9D838C8386
S11307A065E680E090E0C9D28E8386E689831A826A
S11307B014C08A81082F10E0698180E090E0BDD2E6
S11307C0282FCE010796800F911FFC012083898179
S11307D08F5F89838A818F5F8A839E818A8189174B
S11307E040F320E041E06CE280E090E0EBD28F85C2
S11307F098892BE0FE013496DC0101900D922A9534
S1130800E1F74FC061E780E090E097D2882F90E055
S11308109D838C838C819D818C01000F111F000F9F
S1130820111F000F111F62E780E090E086D28295CD
S113083086958770882F90E0802B912B9D838C83E5
S113084065E780E090E079D28E8386E789831B8216
S113085014C08B81082F10E0698180E090E06DD294
S1130860282FCE010796800F911FFC0120838981D8
S11308708F5F89838B818F5F8B839E818B818917A7
S113088040F320E042E06CE280E090E09BD28F8570
S113089098892BE0FE013496DC0101900D922A9593
S11308A0E1F78F85988961960FB6F894DEBF0FBE85
S11308B0CDBFDF91CF911F910F910895CF93DF9317
S11308C000D01F92CDB7DEB79B838A838A819B8138
S11308D0FC018281282F30E08A819B81FC01808188
S11308E09181432F4F932F93292F2F938F9388E137
S11308F091E0892F8F9388E191E08F930E940D0EF0
S11309000F900F900F900F900F900F9019821FC0AF
S11309108981882F90E02A813B81820F931F03965F
S1130920FC018081882F90E0292F2F938F9384E4FA
S113093091E0892F8F9384E491E08F930E940D0EB0
S11309400F900F900F900F9089818F5F89838A8118
S11309509B81FC01928189818917D0F28AE090E021
S11309600E941E0E0F900F900F90DF91CF9108956B
S113097095B7906895BF96B7986096BF882319F08D
S113098080B7806280BF0895FC0180810895FC01D6
S113099060830895609106017091070182E089C720
S11309A080910601909107019FD790E0909369028E
S11309B0809368022091080160910801AC01421BF8
S11309C051099A0144E6429FC001439F900D1124AE
S11309D070E08BD770936D0260936C02089510924F
S11309E069021092680210926B0210926A021092CD
S11309F06D0210926C0210926F0210926E021092AD
S1130A0067020895CF93DF9332D460E070E080E012
S1130A1090E004D588E891E03CD52FEF8FEF92E089
S1130A20215080409040E1F700C000C0C4E1D0E014
S1130A30609106017091070182E03BD72FEF8FE1AF
S1130A4091E0215080409040E1F700C00000809187
S1130A5006019091070148D790910D01981710F461
S1130A6080930D012197209719F760E070E081E0F1
S1130A7090E0D4D482E991E00CD52FEF8FEF92E08F
S1130A80215080409040E1F700C000C0C4E1D0E0B4
S1130A90609106017091070182E00BD72FEF8FE17F
S1130AA091E0215080409040E1F700C00000809127
S1130AB006019091070118D790910C01891710F441
S1130AC080930C012197209719F760E070E082E091
S1130AD090E0A4D48BE991E0DCD42FEF8FEF92E087
S1130AE0215080409040E1F700C000C0C4E1D0E054
S1130AF0609106017091070181E0DBD62FEF8FE151
S1130B0091E0215080409040E1F700C000008091C6
S1130B10060190910701E8D690910B01981710F403
S1130B2080930B012197209719F760E070E083E030
S1130B3090E074D482EA91E0ACD42FEF8FEF92E08E
S1130B40215080409040E1F700C000C0C4E1D0E0F3
S1130B50609106017091070181E0ABD62FEF8FE120
S1130B6091E0215080409040E1F700C00000809166
S1130B70060190910701B8D690910A01891710F4E3
S1130B8080930A012197209719F780910B012091F6
S1130B900A0190E0821B910997FD0196959587952E
S1130BA08093090180910D0120910C0190E0821B3A
S1130BB0910997FD0196959587958093080160E0CA
S1130BC070E084E090E02AD48BEA91E062D42FEFC5
S1130BD08FEF9EE0215080409040E1F700C000007C
S1130BE0DF91CF910895883709F4D4CE893731F451
S1130BF0609106017091070181E05BC60895883712
S1130C0009F4CECE8937F1F4809106019091070161
S1130C106BD690E090936B0280936A022091090155
S1130C2060910901AC01421B51099A0144E6429FBB
S1130C30C001439F900D112470E057D670936F024A
S1130C4060936E02089580916C0290916D028B35D1
S1130C50910514F083E012C0863A9F4F14F484E0A7
S1130C600DC080916E0290916F028B35910514F046
S1130C7081E004C0863A9F4F24F482E080936702A7
S1130C800895109267020895CF93DF93CDB7DEB72E
S1130C9028970FB6F894DEBF0FBECDBF7BDE82E689
S1130CA08A95F1F700007CDE89E79DDF82E68A956C
S1130CB0F1F7000089E7A3DF88E0E8E6F2E0DE016F
S1130CC0119601900D928A95E1F729813A814B8121
S1130CD05C816D817E818F81988528960FB6F8940A
S1130CE0DEBF0FBECDBFDF91CF91089553DE82E604
S1130CF08A95F1F7000054DE89E775DF82E68A956C
S1130D00F1F7000089E77BDF9EDF80916702089599
S1130D10CF93C82FA6D580EC9AD58CEC94E001979C
S1130D20F1F700C000008C2FA0D58FEF9FE2019750
S1130D30F1F700C00000CF9108950F931F93CF9354
S1130D40DF931F92CDB7DEB7182F69838AD583E06E
S1130D507ED58CEC94E00197F1F700C00000698126
S1130D60862F75D578D5082F812F7FD5802F0F90AA
S1130D70DF91CF911F910F91089580E0C9DF6EE05C
S1130D8080E0DBDF982F907E81E0903809F480E0EA
S1130D9008951F93CF93DF9300D0CDB7DEB7182FFC
S1130DA04A8369835ED582E052D56981862F4FD507
S1130DB04A81842F4CD5812F0F900F90DF91CF91D2
S1130DC01F9153C51F93CF93DF9300D01F92CDB7CC
S1130DD0DEB7182F2B834A83698343D585E037D543
S1130DE06981862F34D54A81842F31D52B81822F76
S1130DF02ED5812F0F900F900F90DF91CF911F91DF
S1130E0034C5CF93DF9333D260E070E080E090E0AC
S1130E1005D386EB91E03DD360E070E083E090E0A1
S1130E20FDD2CEE0D0E08CEB91E033D32FEF8FE70F
S1130E3097E0215080409040E1F700C000002197E6
S1130E40209789F760E070E085E090E0E7D28EEBD0
S1130E5091E01FD32FEF8FEF9CE221508040904010
S1130E60E1F700C000C0DF91CF910895CF92DF92E7
S1130E70EF92FF920F931F93CF93DF938C016B013B
S1130E807A01E9018091730290917402892B19F01F
S1130E9087EC91E0D8D68CE090E04ED5FC0190939D
S1130EA0740280937302D382C28211830083CD2B98
S1130EB039F0F582E48281E090E09783868304C070
S1130EC01582148217821682DF91CF911F910F91A0
S1130ED0FF90EF90DF90CF900895CF93DF9386E15A
S1130EE090E02AD5EC0190937A02809379028DEDFB
S1130EF091E0998388831D8A1C8A85E090E09B8316
S1130F008A8386E190E018D5FC019093780280935F
S1130F10770286EE91E091838083D58BC48B83E046
S1130F2090E09383828320E030E040E050E0BE0113
S1130F3085EF91E09BDF6091790270917A02E091F4
S1130F407302F0917402DB011596FC93EE931497EF
S1130F5081E097E0938782874091770250917802ED
S1130F6021E030E08EEF91E081DF609179027091B1
S1130F707A028091730290917402FB0197838683B5
S1130F8020E030E040E050E089E092E06FDF6091E3
S1130F90790270917A028091730290917402DB015C
S1130FA019969C938E93189720E030E040E050E02F
S1130FB084E192E05BDF6091790270917A02E091C2
S1130FC07302F0917402DB011B96FC93EE931A9763
S1130FD082E095E09387828720E030E040E050E0B3
S1130FE08EE192E043DFE0917902F0917A02809100
S1130FF07302909174029587848710927402109200
S11310007302609177027091780220E030E040E052
S113101050E083E292E02ADF6091770270917802D7
S11310208091730290917402FB019583848320E084
S113103030E040E050E088E292E018DF609177020F
S1131040709178028091730290917402DB0117967B
S11310509C938E93169720E030E040E050E08FE2BE
S113106092E004DFE0917702F091780280917302BC
S11310709091740291878087DF91CF910895CF93E7
S1131080DF93EC01CB01209741F06AE070E0C6D118
S113109088819981DF91CF91FCC184E392E09F9391
S11310A08F93BBD50F900F90DF91CF910895CF927E
S11310B0DF92EF92FF920F931F93CF93DF938C01F4
S11310C06B01D5D096D37801C0E0D0E0F2E0EF0E0A
S11310D0F11CCC15DD053CF4BE01F701828193813E
S11310E0CEDF2196F3CF109376020093750210920F
S11310F0710210927002F8018481958190937402B8
S113110080937302DF91CF911F910F91FF90EF9025
S1131110DF90CF90089520917002309171021216E1
S11311201306BCF4C9010197909371028093700275
S1131130E0917502F09176022F5F3F4F220F331F2B
S1131140E20FF31F208131813093740220937302E4
S113115022C20895E0917002F0917102A09175028B
S1131160B091760212968D919C9113970197E8178E
S1131170F90794F4CF010196909371028093700261
S11311803396EE0FFF1FEA0FFB1F2081318130934E
S1131190740220937302FFC11092710210927002C4
S11311A014968D919C911597909374028093730279
S11311B020C3E0917502F0917602848995890097A5
S11311C021F0FC016281738172CF089580917502D0
S11311D090917602FC016281738169DF16C0E0910F
S11311E07302F091740286819781892B31F0848196
S11311F09581FC01628173815ACF0284F385E02DCD
S1131200309711F00995E2CF089580917002909182
S11312107102C1D1809172028823D9F067DD8230D6
S113122069F020F4813059F476DF09C0833021F06D
S1131230843029F4BEDF03C0D2DF01C08BDF2FEF7F
S11312408FE794E0215080409040E1F700C0000017
S1131250E1CF089581E0809372023FDE80917902AC
S113126090917A02FC016281738121DFCECF80E00C
S113127090E020911001309111018217930748F4F6
S1131280E0911201F0911301E80FF91F1082019609
S1131290F0CF0895CF93E0911601F09117018EEAF3
S11312A08083E0911601F091170181EA8083E09137
S11312B01601F09117018AED8083E0911601F091F7
S11312C0170182E18083E0911601F091170188EC07
S11312D08083E0911601F091170188EA8083E09100
S11312E01601F09117018FE38083E0911601F091CC
S11312F0170185ED8083E0911601F091170180E8D4
S11313008083E0911601F091170181E88083E091D8
S11313101601F0911701C0E5C083E0911601F09128
S1131320170189ED8083E0911601F091170181E2A4
S11313308083E0911601F091170180E28083E091AF
S11313401601F09117011082E0911601F091170136
S11313508BED8083E0911601F091170180E3808387
S1131360E0911601F09117018DEA8083E091160156
S1131370F09117011082E0911601F091170184EAAF
S11313808083E0911601F091170186EA8083E09151
S11313901601F09117018FEA808369DF83B78D60AE
S11313A083BF89B7816089BFC1BFCF910895262FBC
S11313B02F7034E0759567953A95E1F7605F805535
S11313C09F4FE0911601F09117018083E09116017F
S11313D0F09117012083E0911601F09117016083C9
S11313E0089560E070E080E090E0E1DF80E090E06C
S11313F020911001309111018217930770F4E0914C
S11314001201F0911301E80FF91F2081E0911401FA
S1131410F091150120830196EBCF08959695982FAE
S1131420882797958795860F971F209112013091F1
S11314301301280F391F30930F0120930E010895D3
S11314400F931F93CF93DF93805298E0899F80017D
S11314501124C0E0D0E000591F4FF801EC0FFD1F2C
S1131460649170E080910E0190910F0190DA809167
S11314700E0190910F01019690930F0180930E013C
S11314802196C830D10549F7DF91CF911F910F9173
S113149008951F93CF93DF93EC0110E0812F90E028
S11314A0FE0101900020E9F73197EC1BFD0B8E172C
S11314B09F0738F4FE01E80FF91F8081C1DF1F5F29
S11314C0EDCFDF91CF911F91089568E170E0809195
S11314D00E0190910F015BDA80910E0190910F0142
S11314E0019690930F0180930E0168E170E04FDA4A
S11314F080910E0190910F01019690930F018093BA
S11315000E016EE770E043DA80910E0190910F01B5
S1131510019690930F0180930E016CE370E037DA2B
S113152080910E0190910F01019690930F01809389
S11315300E0168E170E02BDA80910E0190910F01A9
S1131540019690930F0180930E0108951F93CF93FA
S1131550DF93C0E0D0E0C830D105C9F060E070E0AE
S1131560CE015CDF15E060E070E080910E019091A7
S11315700F010DDA80910E0190910F010196909365
S11315800F0180930E01115071F72196E4CFDF9182
S1131590CF911F9108954F925F926F927F928F9295
S11315A09F92AF92BF92CF92DF92EF92FF920F93EE
S11315B01F93CF93DF93CDB7DEB72C970FB6F89474
S11315C0DEBF0FBECDBF10927C0210927B02209131
S11315D07D0230917E0282179307F9F48B879C87F2
S11315E0B5DF60E070E08B859C8518DF2C960FB624
S11315F0F894DEBF0FBECDBFDF91CF911F910F9145
S1131600FF90EF90DF90CF90BF90AF909F908F901E
S11316107F906F905F904F9058CFAE014A5F5F4FBD
S11316206A018E010F5F1F4F281739070CF066C03F
S113163085E0FA01482F11924A95E9F7F8011192D1
S11316408A95E9F7F8E05F2EE12CF12C88E0E816A2
S1131650F10409F43CC04801A12CB12CB501C70127
S1131660DDDE80910E0190910F018ED9F4018193FA
S11316704F01FFEFAF1ABF0A45E0A416B10471F79A
S113168056014801612C712CB301C701C7DEF40176
S113169041904F01F5018081881F8827881F642DA0
S11316A070E0660F771F682B80910E0190910F01F7
S11316B06ED9F50141925F01FFEF6F1A7F0A45E091
S11316C06416710409F75FEFE51AF50ABFCF80913C
S11316D07B0290917C02019721F000C000C00000C1
S11316E0F6CF10927C0210927B025A9409F0ACCF90
S11316F080917D0290917E02019660C085E0FA019E
S1131700482F11924A95E9F7F80111928A95E9F761
S113171068E0562E57E0E52EF12C4801A12CB12C9F
S1131720B501C7017BDE80910E0190910F012CD988
S1131730F40181934F01FFEFAF1ABF0A45E0A416ED
S1131740B10471F756014801612C712CB301C70132
S113175065DEF40141904F01F5016081F0E86F9F6F
S1131760B0011124842D8695682B80910E019091EF
S11317700F010DD9F50141925F01FFEF6F1A7F0A46
S113178045E06416710411F751E0E51AF10828F6F2
S113179080917B0290917C02019721F000C000C0EF
S11317A00000F6CF10927C0210927B025A9409F04A
S11317B0B1CF80917D0290917E02019790937E0239
S11317C080937D022C960FB6F894DEBF0FBECDBF7A
S11317D0DF91CF911F910F91FF90EF90DF90CF9009
S11317E0BF90AF909F908F907F906F905F904F903D
S11317F00895ACDE809112019091130190930F0132
S113180080930E0162DE10927E0210927D02089592
S113181081E090E090937C0280937B020895109283
S1131820810210928202109283021092840208951F
S11318308BB780628BBF86B78E7F86BF87B3806B82
S113184087BB80E58DB981E08EB9C49A08958FB9BC
S1131850779BFECF08958FEFFADF779BFECF8FB192
S11318600895811101C0C4980895811101C0C49ADA
S113187008955D9BFECF8CB908955F9BFECF8CB11C
S11318800895EF92FF920F931F93BB27A12F902FE0
S11318908F2D80BDE9B888E18AB9579A8EE880BD5A
S11318A06DE37CE089E39CE01F910F91FF90EF9042
S11318B06AC1282FCB01223059F020F4213061F481
S11318C064E009C0233031F0243031F467E003C010
S11318D065E001C066E05BC884E492E09F938F9367
S11318E09CD10F900F9008954FC897FB072E16F4C4
S11318F0009406D077FD08D00BD007FC05D03EF449
S1131900909581959F4F0895709561957F4F0895A7
S1131910AA1BBB1B51E107C0AA1FBB1FA617B70711
S113192010F0A61BB70B881F991F5A95A9F780952D
S11319309095BC01CD010895CF93DF93823091053A
S113194010F482E090E0E0918702F091880220E0B8
S113195030E0A0E0B0E0309739F140815181481780
S11319605907B8F04817590771F482819381109789
S113197029F013969C938E9312972CC0909388020F
S11319808093870227C02115310531F04217530790
S113199018F0A901DB0101C0EF019A01BD01DF01CB
S11319A00280F381E02DD7CF21153105F9F0281BF2
S11319B0390B2430310580F48A819B8161157105CE
S11319C021F0FB019383828304C090938802809367
S11319D08702FE01329644C0FE01E20FF31F819399
S11319E0919322503109398328833AC0209185028A
S11319F030918602232B41F420910201309103019E
S1131A0030938602209385022091000130910101D8
S1131A102115310541F42DB73EB740910401509191
S1131A200501241B350BE0918502F0918602E21733
S1131A30F307A0F42E1B3F0B2817390778F0AC01ED
S1131A404E5F5F4F2417350748F04E0F5F1F5093CA
S1131A508602409385028193919302C0E0E0F0E016
S1131A60CF01DF91CF910895CF93DF93009709F4CD
S1131A7087C0FC01329713821282C0918702D091F1
S1131A808802209781F420813181280F391F8091A9
S1131A908502909186028217930779F5F093860266
S1131AA0E09385026DC0DE0120E030E0AE17BF0791
S1131AB050F412964D915C9113979D014115510577
S1131AC009F1DA01F3CFB383A28340815181840FFA
S1131AD0951F8A179B0771F48D919C911197840F20
S1131AE0951F02969183808312968D919C911397F2
S1131AF0938382832115310529F4F0938802E093BE
S1131B0087023EC0D9011396FC93EE9312974D9130
S1131B105D91A40FB51FEA17FB0779F480819181C9
S1131B20840F951F0296D90111969C938E938281FE
S1131B30938113969C938E931297E0E0F0E08A8150
S1131B409B81009719F0FE01EC01F9CFCE010296BA
S1131B5028813981820F931F20918502309186025A
S1131B602817390769F4309729F4109288021092E3
S1131B70870202C013821282D0938602C093850228
S1131B80DF91CF9108950F931F93CF93DF93EC01CF
S1131B908B01009731F46115710519F480E090E030
S1131BA037C06EE070E081E090E03DD2FC01009728
S1131BB0A9F380E883830115110571F01387028767
S1131BC081E883838091890290918A02892B21F490
S1131BD0F0938A02E09389022097C9F0D187C087E5
S1131BE083818260838380918B0290918C02892B04
S1131BF071F4F0938C02E0938B0280918D029091AA
S1131C008E02892B21F4F0938E02E0938D02CF0192
S1131C10DF91CF911F910F910895A0E0B0E0E2E130
S1131C20FEE0D8C2FE01359661917191AF018091B9
S1131C308B0290918C0234D0E2E0E8C260918B0276
S1131C4070918C0227C20F931F93CF93DF93E0917F
S1131C508B02F0918C02238121FF1BC0EC0100E078
S1131C6010E0899160918B0270918C02DB011896CF
S1131C70ED91FC911997882331F00995892B89F30B
S1131C800FEF1FEFEECF8AE00995892B11F4C801FD
S1131C9002C08FEF9FEFDF91CF911F910F910895B5
S1131CA0ACE0B0E0E5E5FEE085C27C016B018A01B1
S1131CB0FC0117821682838181FFB0C1CE01019697
S1131CC04C01F7019381F60193FD859193FF819176
S1131CD06F01882309F49EC1853239F493FD8591FF
S1131CE093FF81916F01853221F4B70190E0D2D145
S1131CF0E8CF512C312C20E02032A0F48B3269F053
S1131D0030F4803259F0833269F420612CC08D3272
S1131D1039F0803339F4216026C02260246023C066
S1131D20286021C027FD27C030ED380F3A3078F401
S1131D3026FF06C0FAE05F9E300D1124532E13C017
S1131D408AE0389E300D1124332E20620CC08E326E
S1131D5021F426FD5FC1206406C08C3611F420688E
S1131D6002C0883641F4F60193FD859193FF819179
S1131D706F018111C1CF982F9F7D9554933028F422
S1131D800C5F1F4FFFE3F9830DC0833631F08337B7
S1131D9071F0833509F057C021C0F801808189832F
S1131DA00E5F1F4F44244394512C540114C0380136
S1131DB0F2E06F0E711CF801A080B18026FF03C011
S1131DC0652D70E002C06FEF7FEFC5012C8757D1FE
S1131DD02C0183012C852F77222E16C03801F2E0C6
S1131DE06F0E711CF801A080B18026FF03C0652D21
S1131DF070E002C06FEF7FEFC5012C872ED12C015C
S1131E002C852068222E830123FC19C0832D90E0A9
S1131E1048165906A0F4B70180E290E03BD13A9409
S1131E20F5CFF50127FC859127FE81915F01B7016C
S1131E3090E030D131103A94F1E04F1A5108411436
S1131E40510479F7DEC0843611F0893631F5F80192
S1131E5027FF07C060817181828193810C5F1F4FCE
S1131E6008C060817181882777FD8095982F0E5F67
S1131E701F4F2F76B22E97FF09C0909580957095CD
S1131E8061957F4F8F4F9F4F2068B22E2AE030E03C
S1131E90A40132D1A82EA81843C0853729F42F7E77
S1131EA0B22E2AE030E025C0F22FF97FBF2E8F3604
S1131EB0C1F018F4883579F0ADC0803719F088374F
S1131EC021F0A8C02F2F2061B22EB4FE0DC08B2D9F
S1131ED08460B82E09C024FF0AC09F2F9660B92ED3
S1131EE006C028E030E005C020E130E002C020E177
S1131EF032E0F801B7FE07C060817181828193816D
S1131F000C5F1F4F06C06081718180E090E00E5F1E
S1131F101F4FA401F1D0A82EA818FB2DFF77BF2EC8
S1131F20B6FE0BC02B2D2E7FA51450F4B4FE0AC0B0
S1131F30B2FC08C02B2D2E7E05C07A2C2B2D03C09D
S1131F407A2C01C0752C24FF0DC0FE01EA0DF11D91
S1131F508081803311F4297E09C022FF06C0739466
S1131F60739404C0822F867809F0739423FD12C001
S1131F7020FF06C05A2C731418F4530C5718732CF2
S1131F80731460F4B70180E290E02C8783D07394DB
S1131F902C85F6CF731410F4371801C0312C24FFAC
S1131FA011C0B70180E390E02C8774D02C8522FF08
S1131FB016C021FF03C088E590E002C088E790E0E6
S1131FC0B7010CC0822F867851F021FD02C080E257
S1131FD001C08BE227FD8DE2B70190E05BD0A51430
S1131FE030F4B70180E390E055D05A94F8CFAA9426
S1131FF0F401EA0DF11D8081B70190E04BD0A110EE
S1132000F6CF332009F45DCEB70180E290E042D0F0
S11320103A94F7CFF7018681978102C08FEF9FEF43
S11320202C96E2E1E3C00F931F93CF93DF93869F37
S11320308001879F100D969F100D1124C8017CDC30
S1132040EC01009721F0A80160E070E011D0CE010E
S1132050DF91CF911F910F910895FC01059061507C
S113206070400110D8F7809590958E0F9F1F0895AA
S1132070DC0101C06D9341505040E0F70895FC012C
S11320806150704001900110D8F7809590958E0FA3
S11320909F1F08950F931F93CF93DF93182F092F3A
S11320A0EB018B8181FD03C08FEF9FEF20C082FF86
S11320B010C04E815F812C813D81421753077CF40F
S11320C0E881F9819F012F5F3F4F39832883108373
S11320D006C0E885F985812F0995892B29F72E817A
S11320E03F812F5F3F4F3F832E83812F902FDF91BE
S11320F0CF911F910F910895FA01AA27283051F129
S1132100203181F1E8946F936E7F6E5F7F4F8F4F24
S11321109F4FAF4FB1E03ED0B4E03CD0670F781F83
S1132120891F9A1FA11D680F791F8A1F911DA11D68
S11321306A0F711D811D911DA11D20D009F46894A1
S11321403F912AE0269F11243019305D3193DEF649
S1132150CF010895462F4770405D4193B3E00FD0FF
S1132160C9F7F6CF462F4F70405D4A3318F0495DEA
S113217031FD4052419302D0A9F7EACFB4E0A695CD
S11321809795879577956795BA95C9F700976105EF
S1132190710508959B01AC010A2E06945795479545
S11321A037952795BA95C9F7620F731F841F951F3A
S11321B0A01D08952F923F924F925F926F927F924B
S11321C08F929F92AF92BF92CF92DF92EF92FF9243
S11321D00F931F93CF93DF93CDB7DEB7CA1BDB0BEF
S11321E00FB6F894DEBF0FBECDBF09942A88398894
S11321F048885F846E847D848C849B84AA84B9849B
S1132200C884DF80EE80FD800C811B81AA81B981A6
S1132210CE0FD11D0FB6F894DEBF0FBECDBFED01BA
S10922200895F894FFCFBD
S113222600008F0220000014808019C819C8001C01
S11322360004001C0012001072656365697665640B
S1132246206D6573736167653A2069643A20256475
S11322562C206C656E6774683A2025642C206461B2
S113226674613A00202563000A3D3D3D3D3D3D3DF8
S11322763D3D3D3D3D3D3D3D3D3D3D3D3D3D535457
S113228641525455503D3D3D3D3D3D3D3D3D3D3D19
S11322963D3D3D3D3D3D3D3D3D3D3D3D3D004927AB
S11322A66D20616C697665004A4F5920524947484A
S11322B654004A4F59204C454654004A4F5920551C
S11322C650004A4F5920444F574E0043414C49420F
S11322D620444F4E45005354415254002A00595548
S11322E6504949203A29004372656174696E672032
S11322F66E657874206974656D2E2E2E004D6169A5
S11323066E4D656E7500446966666963756C7479AD
S11323164D656E75004E65772047616D65004469AD
S113232666666963756C7479004869676873636F78
S1132336726573004A6F792043616C696200496E65
S1132346666F0065617379006D656469756D006813
S1132356617264004E554C4C20706F696E746572E0
S11323662E2E2E0050726F626C656D732077697421
S10D237668204144432E2E2E00007F
S9030000FC
