S013000050726F6A6563744D61696E2E73726563B5
S113000037C0000064C0000071C000004DC0000093
S11300104BC0000049C0000047C0000045C00000BC
S113002043C0000041C000003FC000003DC00000CC
S11300303BC0000039C0000037C0000035C00000DC
S113004033C0000031C000002FC000002EC00000EB
S11300502BC0000029C0000027C0000025C00000FC
S113006023C0000021C000001FC000001DC000000C
S113007011241FBECFEFD4E0DEBFCDBF12E0A0E05D
S1130080B1E0ECECF3E102C005900D92A039B107A8
S1130090D9F722E0A0E9B2E001C01D92AB3AB20761
S11300A0E1F7E5D00C94E409ABCF1F920F920FB6A1
S11300B00F9211248F938CB18093930281E08093EB
S11300C092028F910F900FBE0F901F9018951F9260
S11300D00F920FB60F9211248F9381E080939102B7
S11300E08F910F900FBE0F901F9018951F920F9233
S11300F00FB60F9211248F9381E0809390028F9119
S11301000F900FBE0F901F901895EF92FF920F93D0
S11301101F93CF93DF938BE191E0E4D47AD47C01F5
S11301207BD4C0E0D8E100E010E073D488839881E8
S1130130981711F00F5F1F4F2196C11580E2D80761
S1130140A1F7C70169D4E12C88E1F82EC0E0D0E022
S113015060D4F701908198132196FFEFEF1AFF0AFC
S1130160E11480E2F806A1F7DF93CF931F930F9376
S113017081E391E09F938F93A4D40F900F900F90FD
S11301800F900F900F90DF91CF911F910F91FF90DF
S1130190EF900895EF92FF920F931F93CF93DF9305
S11301A0CDB7DEB728970FB6F894DEBF0FBECDBF2C
S11301B0F5D029833A834B835C836D837E838F835D
S11301C098875DD17C0170D3B09906C055B152FBBC
S11301D0552750F940E002C050E041E09701332731
S11301E02230310599F04CF421153105A9F0213064
S11301F03105A1F400E911E011C02330310549F0C3
S11302002430310559F40EE911E008C003E911E086
S113021005C008E911E002C009E811E01F925F93EC
S11302201F924F931F928F931F929F9388858F9352
S11302308F818F938E818F938D818F931F930F93D3
S113024083EA91E09F938F933CD40FB6F894DEBF7A
S11302500FBECDBF28960FB6F894DEBF0FBECDBF3C
S1130260DF91CF911F910F91FF90EF9008951FE1BF
S1130270E12EF12C00E010E020E030E04BE450E00F
S113028060E875E280E090E020D381E062D0D2D2D1
S113029072D08BB780648BBF85B7826085BF85B70A
S11302A08E7F85BF8B98939A8BB780688BBF85B7F9
S11302B0886085BF85B78B7F85BF32983A98B89898
S11302C0C098789422DF88E7DDD015D2C4E6D0E068
S11302D0EFD121972097E1F72FEF8FEF9EE0215088
S11302E080409040E1F700C0000088D2C1E052DFB6
S11302F080919002882319F0F1D010929002D6D107
S113030080919102882399F380910C01823099F0B5
S113031038F4813061F788E7C6D089E7B3D013C0D9
S1130320833069F0843019F782E79ED288E7AAD037
S1130330C0930C01DCCF89E7B6D08CE603C08CE611
S113034093D282E780D280910C018F5F80930C015D
S1130350CECF95B7906895BF96B7986096BF88231F
S113036019F080B7806280BF0895FC0180810895F0
S1130370FC016083089510929602109295021092E7
S113038098021092970210929A0210929902109277
S11303909C0210929B02109294020895CF93DF93D3
S11303A0CDB7DEB728970FB6F894DEBF0FBECDBF2A
S11303B080910D0160910D0120919502309196027A
S11303C0281B310944E6429FC001439F900D11242C
S11303D070E0AFD270939A026093990280910D01FC
S11303E060910D012091970230919802281B3109E8
S11303F0429FC001439F900D112470E09AD27093E4
S11304009C0260939B0288E0E5E9F2E0DE0111962C
S113041001900D928A95E1F729813A814B815C81A3
S11304206D817E818F81988528960FB6F894DEBF02
S11304300FBECDBFDF91CF910895B0DF80919902B7
S113044090919A028333910514F083E012C08E3C9C
S11304509F4F14F484E00DC080919B0290919C0204
S11304608333910514F081E004C08E3C9F4F24F443
S113047082E08093940208951092940208958091EA
S113048094020895883731F460910A0170910B0148
S113049082E007C0893731F460910A0170910B0141
S11304A081E02BC20895883759F480910A01909114
S11304B00B013ED290E090939602809395020CC07B
S11304C0893751F480910A0190910B0131D290E067
S11304D0909398028093970261DFAFCFCF93DF931D
S11304E086EE91E0FFD22FEF3FEF82E021503040C3
S11304F08040E1F700C000C0C4E1D0E060910A018F
S113050070910B0182E0F9D180E090EF0197F1F74F
S113051080910A0190910B010BD2909112019817CE
S113052010F4809312012197209741F78CEF91E00A
S1130530D9D29FEF2FEF32E0915020403040E1F7C5
S113054000C000C0C4E1D0E060910A0170910B01C9
S113055082E0D3D180E090EF0197F1F780910A0116
S113056090910B01E5D190911101891710F48093BA
S113057011012197209741F781E192E0B3D29FEFD7
S11305802FEF32E0915020403040E1F700C000C02E
S1130590C4E1D0E060910A0170910B0181E0ADD11A
S11305A080E090EF0197F1F780910A0190910B019F
S11305B0BFD190911001981710F4809310012197E6
S11305C0209741F78DE192E08DD29FEF2FEF32E03B
S11305D0915020403040E1F700C000C0C4E1D0E0B9
S11305E060910A0170910B0181E087D180E090EF66
S11305F00197F1F780910A0190910B0199D19091A3
S11306000F01891710F480930F012197209741F768
S113061030910F01209110019091110180911201EC
S11306201F923F931F922F931F929F931F928F931A
S11306308BE292E09F938F9344D28091100120919A
S11306400F0190E0821B91092DB73EB7265F3F4F03
S11306500FB6F8943EBF0FBE2DBF97FD019695953A
S1130660879580930E01809112012091110190E0F1
S1130670821B910997FD01969595879580930D01AD
S113068090910D0180910E011F929F931F928F9361
S113069085E592E09F938F9314D20F900F900F9063
S11306A00F900F900F90DF91CF91089577DEC5CE14
S11306B0E0911701F091180188E18083E09117011E
S11306C0F09118018083E0911701F09118019EE7E1
S11306D09083E0911701F09118019CE39083E091DD
S11306E01701F09118018083E0911901F0911A012A
S11306F08FE280830895E0911901F0911A018EEA46
S11307008083E0911901F0911A0181EA8083E091DC
S11307101901F0911A018AED8083E0911901F09199
S11307201A0182E18083E0911901F0911A0188ECA9
S11307308083E0911901F0911A0188EA8083E091A5
S11307401901F0911A018FE38083E0911901F0916E
S11307501A0185ED8083E0911901F0911A0180E876
S11307608083E0911901F0911A0181E88083E0917E
S11307701901F0911A0180E58083E0911901F0914B
S11307801A0189ED8083E0911901F0911A0181E247
S11307908083E0911901F0911A0180E28083E09155
S11307A01901F0911A011082E0911901F0911A01D6
S11307B08BED8083E0911901F0911A0180E380832D
S11307C0E0911901F0911A018DEA8083E0911901F9
S11307D0F0911A011082E0911901F0911A0184EA52
S11307E08083E0911901F0911A0186EA8083E091F7
S11307F01901F0911A018FEA8083089580E090E056
S113080060911301709114014091150150911601EA
S1130810649F9001659F300D749F300D11248217E1
S113082093073CF4E0911701F091180110820196AE
S1130830E7CF089510929D0210929E0210929F029B
S11308401092A00208958C3631F460910A017091DF
S11308500B0183E007C0823731F460910A01709183
S11308600B0184E04AC008958C3671F480910A012A
S113087090910B015DD080939E0224E6829FC0017B
S113088011249093A0020895823769F480910A019B
S113089090910B014DD080939D0224E6829FC0016C
S11308A0112490939F02089560919D0270919E027D
S11308B080919F029091A00208955D9BFECF8CB918
S11308C008955F9BFECF8CB10895EF92FF920F9332
S11308D01F93BB27A12F902F8F2D80BDE9B888E1EE
S11308E08AB9579A8EE880BD61E674E08DE594E09C
S11308F01F910F91FF90EF909AC0282FCB012230C7
S113090059F020F4213061F464E009C0233031F05F
S1130910243031F467E003C065E001C066E028CD0F
S11309208AE792E09F938F93CCD00F900F90089515
S11309301CCD97FB072E16F4009406D077FD08D043
S11309400BD007FC05D03EF4909581959F4F0895F8
S1130950709561957F4F0895AA1BBB1B51E107C099
S1130960AA1FBB1FA617B70710F0A61BB70B881F3B
S1130970991F5A95A9F780959095BC01CD010895CA
S11309808F929F92AF92BF92CF92DF92EF92FF929B
S1130990CF93DF93EC01688179818A819B81611512
S11309A071058105910521F464E279ED8BE597E009
S11309B02DE133EF41E050E073D449015A019B012A
S11309C0AC01A7EAB1E488D46B017C01ACEEB4EFCE
S11309D0A50194018DD4C60ED71EE81EF91EF7FE9C
S11309E006C081E0C81AD108E10880E8F80AC88284
S11309F0D982EA82FB82C6019F77DF91CF91FF9073
S1130A00EF90DF90CF90BF90AF909F908F9008951C
S1130A10B7CF80E091E0B4CFA0E0B0E080930001D4
S1130A2090930101A0930201B093030108950F93E1
S1130A301F93CF93DF93EC018B01009731F4611581
S1130A40710519F480E090E037C06EE070E081E059
S1130A5090E038D2FC010097A9F380E88383011564
S1130A60110571F01387028781E883838091A102C5
S1130A709091A202892B21F4F093A202E093A102A7
S1130A802097C9F0D187C087838182608383809156
S1130A90A3029091A402892B71F4F093A402E09331
S1130AA0A3028091A5029091A602892B21F4F093D0
S1130AB0A602E093A502CF01DF91CF911F910F9180
S1130AC00895A0E0B0E0E6E6F5E026C4FE01359620
S1130AD061917191AF018091A3029091A4022FD0F2
S1130AE0E2E036C40F931F93CF93DF93E091A30208
S1130AF0F091A402238121FF1BC0EC0100E010E06F
S1130B0089916091A3027091A402DB011896ED9182
S1130B10FC911997882331F00995892B89F30FEFFC
S1130B201FEFEECF8AE00995892B11F4C80102C0AA
S1130B308FEF9FEFDF91CF911F910F910895ACE05C
S1130B40B0E0E4EAF5E0D8C37C016B018A01FC0162
S1130B5017821682838181FFB0C1CE0101964C01B8
S1130B60F7019381F60193FD859193FF81916F01C4
S1130B70882309F49EC1853239F493FD859193FF4E
S1130B8081916F01853221F4B70190E0F9D2E8CF69
S1130B90512C312C20E02032A0F48B3269F030F457
S1130BA0803259F0833269F420612CC08D3239F0DF
S1130BB0803339F4216026C02260246023C0286079
S1130BC021C027FD27C030ED380F3A3078F426FFD6
S1130BD006C0FAE05F9E300D1124532E13C08AE044
S1130BE0389E300D1124332E20620CC08E3221F435
S1130BF026FD5FC1206406C08C3611F4206802C053
S1130C00883641F4F60193FD859193FF81916F013C
S1130C108111C1CF982F9F7D9554933028F40C5F98
S1130C201F4FFFE3F9830DC0833631F0833771F032
S1130C30833509F057C021C0F801808189830E5F94
S1130C401F4F44244394512C540114C03801F2E042
S1130C506F0E711CF801A080B18026FF03C0652DC2
S1130C6070E002C06FEF7FEFC5012C877ED22C01AC
S1130C7083012C852F77222E16C03801F2E06F0EE7
S1130C80711CF801A080B18026FF03C0652D70E0BF
S1130C9002C06FEF7FEFC5012C8755D22C012C8544
S1130CA02068222E830123FC19C0832D90E048166E
S1130CB05906A0F4B70180E290E062D23A94F5CFED
S1130CC0F50127FC859127FE81915F01B70190E032
S1130CD057D231103A94F1E04F1A5108411451049B
S1130CE079F7DEC0843611F0893631F5F80127FF33
S1130CF007C060817181828193810C5F1F4F08C09E
S1130D0060817181882777FD8095982F0E5F1F4F32
S1130D102F76B22E97FF09C09095809570956195B6
S1130D207F4F8F4F9F4F2068B22E2AE030E0A401FE
S1130D3059D2A82EA81843C0853729F42F7EB22E85
S1130D402AE030E025C0F22FF97FBF2E8F36C1F0A4
S1130D5018F4883579F0ADC0803719F0883721F060
S1130D60A8C02F2F2061B22EB4FE0DC08B2D84603D
S1130D70B82E09C024FF0AC09F2F9660B92E06C062
S1130D8028E030E005C020E130E002C020E132E09C
S1130D90F801B7FE07C060817181828193810C5F85
S1130DA01F4F06C06081718180E090E00E5F1F4F8D
S1130DB0A40118D2A82EA818FB2DFF77BF2EB6FECB
S1130DC00BC02B2D2E7FA51450F4B4FE0AC0B2FC28
S1130DD008C02B2D2E7E05C07A2C2B2D03C07A2C17
S1130DE001C0752C24FF0DC0FE01EA0DF11D8081A8
S1130DF0803311F4297E09C022FF06C073947394D2
S1130E0004C0822F867809F0739423FD12C020FF5A
S1130E1006C05A2C731418F4530C5718732C7314FB
S1130E2060F4B70180E290E02C87AAD173942C85FA
S1130E30F6CF731410F4371801C0312C24FF11C0FD
S1130E40B70180E390E02C879BD12C8522FF16C04C
S1130E5021FF03C088E590E002C088E790E0B70175
S1130E600CC0822F867851F021FD02C080E201C0BF
S1130E708BE227FD8DE2B70190E082D1A51430F416
S1130E80B70180E390E07CD15A94F8CFAA94F4019E
S1130E90EA0DF11D8081B70190E072D1A110F6CF67
S1130EA0332009F45DCEB70180E290E069D13A9431
S1130EB0F7CFF7018681978102C08FEF9FEF2C96C1
S1130EC0E2E136C20F931F93CF93DF93869F800195
S1130ED0879F100D969F100D1124C8010DD0EC01B1
S1130EE0009721F0A80160E070E038D1CE01DF91D5
S1130EF0CF911F910F910895CF93DF938230910585
S1130F0010F482E090E0E091A902F091AA0220E0BE
S1130F1030E0A0E0B0E0309739F1408151814817CA
S1130F205907B8F04817590771F4828193811097D3
S1130F3029F013969C938E9312972CC09093AA0237
S1130F408093A90227C02115310531F042175307B8
S1130F5018F0A901DB0101C0EF019A01BD01DF0115
S1130F600280F381E02DD7CF21153105F9F0281B3C
S1130F70390B2430310580F48A819B816115710518
S1130F8021F0FB019383828304C09093AA0280938F
S1130F90A902FE01329644C0FE01E20FF31F8193C1
S1130FA0919322503109398328833AC02091A702B2
S1130FB03091A802232B41F42091060130910701BE
S1130FC03093A8022093A7022091040130910501D7
S1130FD02115310541F42DB73EB7409108015091D8
S1130FE00901241B350BE091A702F091A802E21736
S1130FF0F307A0F42E1B3F0B2817390778F0AC0138
S11310004E5F5F4F2417350748F04E0F5F1F509314
S1131010A8024093A7028193919302C0E0E0F0E01C
S1131020CF01DF91CF910895CF93DF93009709F417
S113103087C0FC01329713821282C091A902D09119
S1131040AA02209781F420813181280F391F8091D1
S1131050A7029091A8028217930779F5F093A8024A
S1131060E093A7026DC0DE0120E030E0AE17BF07B9
S113107050F412964D915C9113979D0141155105C1
S113108009F1DA01F3CFB383A28340815181840F44
S1131090951F8A179B0771F48D919C911197840F6A
S11310A0951F02969183808312968D919C9113973C
S11310B0938382832115310529F4F093AA02E093E6
S11310C0A9023EC0D9011396FC93EE9312974D9159
S11310D05D91A40FB51FEA17FB0779F48081918114
S11310E0840F951F0296D90111969C938E93828149
S11310F0938113969C938E931297E0E0F0E08A819B
S11311009B81009719F0FE01EC01F9CFCE01029604
S113111028813981820F931F2091A7023091A80260
S11311202817390769F4309729F41092AA0210920B
S1131130A90202C013821282D093A802C093A7020C
S1131140DF91CF910895FC0105906150704001102A
S1131150D8F7809590958E0F9F1F0895DC0101C0EC
S11311606D9341505040E0F70895FC016150704088
S113117001900110D8F7809590958E0F9F1F0895C8
S11311800F931F93CF93DF93182F092FEB018B81BC
S113119081FD03C08FEF9FEF20C082FF10C04E81FE
S11311A05F812C813D81421753077CF4E881F981EA
S11311B09F012F5F3F4F39832883108306C0E88542
S11311C0F985812F0995892B29F72E813F812F5F7E
S11311D03F4F3F832E83812F902FDF91CF911F911B
S11311E00F910895FA01AA27283051F1203181F195
S11311F0E8946F936E7F6E5F7F4F8F4F9F4FAF4F1B
S1131200B1E03ED0B4E03CD0670F781F891F9A1F2D
S1131210A11D680F791F8A1F911DA11D6A0F711DE1
S1131220811D911DA11D20D009F468943F912AE0ED
S1131230269F11243019305D3193DEF6CF010895D5
S1131240462F4770405D4193B3E00FD0C9F7F6CF06
S1131250462F4F70405D4A3318F0495D31FD4052CE
S1131260419302D0A9F7EACFB4E0A6959795879564
S113127077956795BA95C9F7009761057105089543
S11312809B01AC010A2E06945795479537952795EF
S1131290BA95C9F7620F731F841F951FA01D089587
S11312A0052E97FB16F400940FD057FD05D05BD0A4
S11312B007FC02D046F408C050954095309521951E
S11312C03F4F4F4F5F4F089590958095709561956E
S11312D07F4F8F4F9F4F089568D0A59F900DB49F67
S11312E0900DA49F800D911D11240895B7FFF4CF94
S11312F0F3DF821B930B08952F923F924F925F92DC
S11313006F927F928F929F92AF92BF92CF92DF9211
S1131310EF92FF920F931F93CF93DF93CDB7DEB776
S1131320CA1BDB0B0FB6F894DEBF0FBECDBF09940A
S11313302A88398848885F846E847D848C849B8461
S1131340AA84B984C884DF80EE80FD800C811B816F
S1131350AA81B981CE0FD11D0FB6F894DEBF0FBE9E
S1131360CDBFED010895A1E21A2EAA1BBB1BFD01FE
S11313700DC0AA1FBB1FEE1FFF1FA217B307E40770
S1131380F50720F0A21BB30BE40BF50B661F771FC8
S1131390881F991F1A9469F76095709580959095A8
S11313A09B01AC01BD01CF010895A29FB001B39F81
S11313B0C001A39F700D811D1124911DB29F700D5A
S10F13C0811D1124911D0895F894FFCFA5
S11313CC010000000000AB02200000140180801911
S11313DCC819C8800008000012001053746172749C
S11313EC696E67205352414D20746573742E2E2EF2
S11313FC005352414D207465737420636F6D706C8F
S113140C6574656420776974680A202534642065E2
S113141C72726F727320696E2077726974652070B2
S113142C6861736520616E640A2534642065727288
S113143C6F727320696E2072657472696576616C63
S113144C2070686173650A0A0043454E5445520086
S113145C555000444F574E005249474854004C4590
S113146C4654004A4F593A2025732C20583A256487
S113147C2C20593A20256420090920534C495F6CCF
S113148C3A25642C20534C495F723A256420092078
S113149C6C5F42746E3A2025642C20725F42746E29
S11314AC3A2025640A004D6F7665204A4F59207402
S11314BC6F20746865207269676874004D6F766577
S11314CC204A4F5920746F20746865206C656674CB
S11314DC004D6F7665204A4F59207570004D6F761C
S11314EC65204A4F5920646F776E0063616C523AE1
S11314FC2025642C2063616C4C3A2025642C2063D9
S113150C616C55703A25642C2063616C446F776E62
S113151C3A25640A0043616C6962726174696F6E86
S113152C20646F6E652E2E206E657720564D3A2002
S113153C256420484D3A25640A0050726F626C652C
S113154C6D732077697468204144432E2E2E00005D
S9030000FC
