S013000050726F6A6563744D61696E2E73726563B5
S1130000B3C10000E0C10000EDC10000C9C100009F
S1130010C7C10000C5C10000C3C10000C1C10000C8
S1130020BFC10000BDC10000BBC10000B9C10000D8
S1130030B7C10000B5C10000B3C10000B1C10000E8
S1130040AFC10000ADC10000ABC10000AAC10000F7
S1130050A7C10000A5C10000A3C10000A1C1000008
S11300609FC100009DC100009BC1000099C1000018
S1130070000000000000000000065F5F06000000B2
S11300800007070007070000147F7F147F7F140018
S1130090242E6B6B3A120000466630180C66620020
S11300A0307A4F5D377A48000407030000000000EF
S11300B0001C3E63410000000041633E1C00000040
S11300C0082A3E1C1C3E2A0808083E3E0808000078
S11300D000A0E0600000000008080808080800000C
S11300E000006060000000006030180C060301008E
S11300F03E7F594D7F3E000042427F7F40400000DA
S1130100627359496F660000226349497F360000D3
S1130110181C16137F7F1000276745457D390000A2
S11301203C7E4B4979300000036371190F070000CE
S1130130367F49497F360000064F49693F1E00005B
S113014000006C6C0000000000A0EC6C00000000DB
S1130150081C366341000000141414141414000025
S1130160004163361C080000020351590F060000C9
S11301703E7F415D5D1F1E007C7E13137E7C00006C
S1130180417F7F49497F36001C3E63414163220021
S1130190417F7F41637F1C00417F7F495D41630054
S11301A0417F7F491D0103001C3E6341517372006E
S11301B07F7F08087F7F000000417F7F41000000AF
S11301C0307040417F3F0100417F7F081C7763000E
S11301D0417F7F41406070007F7F060C067F7F0077
S11301E07F7F060C187F7F001C3E6341633E1C002A
S11301F0417F7F49090F06001E3F21717F5E000089
S1130200417F7F19396F460026674D597B320000C4
S113021003417F7F410300007F7F40407F7F0000D8
S11302201F3F60603F1F00007F7F3018307F7F00DA
S113023063771C081C776300074F78784F0700002A
S11302406773594D47637100007F7F41410000008F
S11302500103060C183060000041417F7F0000005C
S1130260080C0603060C0800808080808080808053
S11302700000030704000000207454543C7840003C
S1130280413F7F44447C3800387C44446C2800005F
S1130290307848493F7F4000387C54545C18000053
S11302A0487E7F490302000098BCA4A4F87C0400A3
S11302B0417F7F08047C780000447D7D400000007D
S11302C040C484FD7D000000417F7F10386C4400F1
S11302D000417F7F400000007C7C0C180C7C78007F
S11302E07C7C04047C780000387C44447C38000026
S11302F084FCF8A4243C1800183C24A4F8FC8400D2
S1130300447C78441C180000485C54547424000055
S113031000043E7F442400003C7C40403C7C400080
S11303201C3C60603C1C00003C7C6030607C3C00F9
S1130330446C3810386C44009CBCA0A0FC7C0000C9
S11303404C64745C4C64000008083E774141000032
S113035000000077770000004141773E0808000064
S1130360020301030203010011241FBECFEFD4E0F6
S1130370DEBFCDBF12E0A0E0B1E0E6EBF4E102C0E5
S113038005900D92AC3BB107D9F722E0ACEBB2E09B
S113039001C01D92A73DB207E1F733D00C94590A6E
S11303A02FCE1F920F920FB60F9211248F938CB100
S11303B08093BF0281E08093BE028F910F900FBEA5
S11303C00F901F9018951F920F920FB60F92112441
S11303D08F9381E08093BD028F910F900FBE0F9099
S11303E01F9018951F920F920FB60F9211248F939E
S11303F081E08093BC028F910F900FBE0F901F90ED
S113040018951FE1E12EF12C00E010E020E030E02F
S11304104BE450E060E875E280E090E07FD381E057
S11304205FD03AD36FD08BB780648BBF85B78260BF
S113043085BF85B78E7F85BF8B98939A8BB780686D
S11304408BBF85B7886085BF85B78B7F85BF3298A2
S11304503A98B898C098789488E7D8D0EDD1A7D2C4
S113046060E070E084E090E06BD2C5D26AE070E0B6
S113047084E090E065D282EE91E0F2D2C1E0809116
S1130480BC02882319F0EED01092BC02D3D1809123
S1130490BD028823A1F380910801823099F038F4D9
S11304A0813069F788E7C3D089E7B0D013C08330BF
S11304B069F0843021F782E709D388E7A7D0C09395
S11304C00801DDCF89E7B3D08CE603C08CE6FED209
S11304D082E7EBD2809108018F5F80930801CFCF30
S11304E095B7906895BF96B7986096BF882319F022
S11304F080B7806280BF0895FC0180810895FC016B
S1130500608308951092C2021092C1021092C40234
S11305101092C3021092C6021092C5021092C80231
S11305201092C7021092C0020895CF93DF93CDB703
S1130530DEB728970FB6F894DEBF0FBECDBF80910B
S11305400901609109012091C1023091C202281B66
S1130550310944E6429FC001439F900D112470E08D
S113056011D37093C6026093C50280910901609112
S113057009012091C3023091C402281B3109429F12
S1130580C001439F900D112470E0FCD27093C80207
S11305906093C70288E0E1ECF2E0DE01119601907D
S11305A00D928A95E1F729813A814B815C816D81B5
S11305B07E818F81988528960FB6F894DEBF0FBE92
S11305C0CDBFDF91CF910895B0DF8091C5029091A6
S11305D0C6028333910514F083E012C08E3C9F4F12
S11305E014F484E00DC08091C7029091C802833353
S11305F0910514F081E004C08E3C9F4F24F482E006
S11306008093C00208951092C0020895883731F48F
S1130610609106017091070182E007C0893731F4C7
S1130620609106017091070181E090C208958837B6
S113063059F48091060190910701A3D290E0909320
S1130640C2028093C1020CC0893751F48091060123
S11306509091070196D290E09093C4028093C302D4
S113066064DFB2CFCF93DF9381EF91E00DD32FEF0F
S11306703FEF82E0215030408040E1F700C000C0ED
S1130680C4E1D0E0609106017091070182E05ED27E
S113069080E090EF0197F1F78091060190910701B6
S11306A070D290910E01981710F480930E01219747
S11306B0209741F787E092E0E7D29FEF2FEF32E0F7
S11306C0915020403040E1F700C000C0C4E1D0E0C8
S11306D0609106017091070182E038D280E090EFCA
S11306E00197F1F780910601909107014AD2909108
S11306F00D01891710F480930D012197209741F77C
S11307008CE192E0C1D29FEF2FEF32E09150204074
S11307103040E1F700C000C0C4E1D0E060910601C0
S11307207091070181E012D280E090EF0197F1F718
S1130730809106019091070124D290910C019817A1
S113074010F480930C012197209741F788E292E0FE
S11307509BD29FEF2FEF32E0915020403040E1F7E1
S113076000C000C0C4E1D0E06091060170910701AF
S113077081E0ECD180E090EF0197F1F780910601E0
S113078090910701FED190910B01891710F4809389
S11307900B012197209741F730910B0120910C0117
S11307A090910D0180910E011F923F931F922F9300
S11307B01F929F931F928F9386E392E09F938F9350
S11307C052D280910C0120910B0190E0821B91097F
S11307D02DB73EB7265F3F4F0FB6F8943EBF0FBE0E
S11307E02DBF97FD01969595879580930A01809179
S11307F00E0120910D0190E0821B910997FD019655
S113080095958795809309019091090180910A013A
S11308101F929F931F928F9380E692E09F938F93F2
S113082022D20F900F900F900F900F900F90DF91A6
S1130830CF9108957ADEC8CEE0911501F0911601AA
S11308408EEA8083E0911501F091160181EA80839C
S1130850E0911501F09116018AED8083E091150174
S1130860F091160182E18083E0911501F091160167
S113087088EC8083E0911501F091160188EA808369
S1130880E0911501F09116018FE38083E091150149
S1130890F091160185ED8083E0911501F091160128
S11308A080E88083E0911501F091160181E880834E
S11308B0E0911501F091160180E58083E091150126
S11308C0F091160189ED8083E0911501F0911601F4
S11308D081E28083E0911501F091160180E280832A
S11308E0E0911501F091160182E08083E0911501F9
S11308F0F09116018BED8083E0911501F0911601C2
S113090080E38083E0911501F09116018DEA8083E4
S1130910E0911501F09116011082E0911501F0911A
S1130920160184EA8083E0911501F091160186EAAC
S11309308083E0911501F09116018FEA8083089578
S11309400F931F93CF93DF93EC01C055DF4F062F16
S11309500F7084E0759567958A95E1F710E1160F9D
S11309601F920F931F921F93DF93CF9385E892E01A
S11309709F938F9378D1E0911501F0911601C08374
S1130980E0911501F09116010083E0911501F091B9
S1130990160110838DB79EB708960FB6F8949EBFC4
S11309A00FBE8DBFDF91CF911F910F910895CF930B
S11309B0DF93C0E0D0E08091110190911201C8173B
S11309C0D907B4F460E070E0CE01BADF80E090E0D3
S11309D020910F0130911001821793073CF4E091AC
S11309E01301F091140110820196F2CF2196E3CF06
S11309F0DF91CF910895E0911301F091140188E102
S1130A008083E0911301F09114018083E09113013C
S1130A10F09114019EE79083E0911301F091140189
S1130A209CE39083E0911301F09114018083089575
S1130A30805228E0829FC001112420E030E08059D8
S1130A409F4FFC01E20FF31FE491A0911301B091B9
S1130A501401EC932F5F3F4F2830310591F708952F
S1130A601F93CF93DF93EC0110E0812F90E0FE0100
S1130A7001900020E9F73197EC1BFD0B8E179F07BF
S1130A8038F4FE01E80FF91F8081D2DF1F5FEDCF3C
S1130A90DF91CF911F9108951092C9021092CA025A
S1130AA01092CB021092CC0208958C3631F46091EE
S1130AB006017091070183E007C0823731F4609129
S1130AC006017091070184E041C008958C3671F4E9
S1130AD0809106019091070154D08093CA0224E6C4
S1130AE0829FC00111249093CC020895823769F447
S1130AF0809106019091070144D08093C90224E6B5
S1130B00829FC00111249093CB0208955D9BFECF78
S1130B108CB908955F9BFECF8CB10895EF92FF923C
S1130B200F931F93BB27A12F902F8F2D80BDE9B862
S1130B3088E18AB9579A8EE880BD6AE875E086E84C
S1130B4095E01F910F91FF90EF9043C0282FCB01A8
S1130B50223059F020F4213061F464E009C02330DC
S1130B6031F0243031F467E003C065E001C066E091
S1130B70C6CC86EA92E09F938F9375D00F900F9026
S1130B800895BACC97FB072E16F4009406D077FD8F
S1130B9008D00BD007FC05D03EF4909581959F4F6B
S1130BA00895709561957F4F0895AA1BBB1B51E171
S1130BB007C0AA1FBB1FA617B70710F0A61BB70BC9
S1130BC0881F991F5A95A9F780959095BC01CD016E
S1130BD008950F931F93CF93DF93EC018B0100973C
S1130BE031F46115710519F480E090E037C06EE0CE
S1130BF070E081E090E038D2FC010097A9F380E82E
S1130C0083830115110571F01387028781E88383BB
S1130C108091CD029091CE02892B21F4F093CE02E3
S1130C20E093CD022097C9F0D187C0878381826089
S1130C3083838091CF029091D002892B71F4F09339
S1130C40D002E093CF028091D1029091D202892BFD
S1130C5021F4F093D202E093D102CF01DF91CF913E
S1130C601F910F910895A0E0B0E0E8E3F6E0FAC325
S1130C70FE01359661917191AF018091CF029091FF
S1130C80D0022FD0E2E00AC40F931F93CF93DF93D7
S1130C90E091CF02F091D002238121FF1BC0EC012F
S1130CA000E010E089916091CF027091D002DB01E5
S1130CB01896ED91FC911997882331F00995892BA9
S1130CC089F30FEF1FEFEECF8AE00995892B11F41A
S1130CD0C80102C08FEF9FEFDF91CF911F910F9159
S1130CE00895ACE0B0E0E6E7F6E0ACC37C016B014C
S1130CF08A01FC0117821682838181FFB0C1CE0173
S1130D0001964C01F7019381F60193FD859193FFC0
S1130D1081916F01882309F49EC1853239F493FDD2
S1130D20859193FF81916F01853221F4B70190E0A1
S1130D30F9D2E8CF512C312C20E02032A0F48B32B0
S1130D4069F030F4803259F0833269F420612CC0A8
S1130D508D3239F0803339F4216026C0226024605A
S1130D6023C0286021C027FD27C030ED380F3A305A
S1130D7078F426FF06C0FAE05F9E300D1124532E4E
S1130D8013C08AE0389E300D1124332E20620CC02B
S1130D908E3221F426FD5FC1206406C08C3611F426
S1130DA0206802C0883641F4F60193FD859193FFD3
S1130DB081916F018111C1CF982F9F7D95549330FC
S1130DC028F40C5F1F4FFFE3F9830DC0833631F025
S1130DD0833771F0833509F057C021C0F801808151
S1130DE089830E5F1F4F44244394512C540114C033
S1130DF03801F2E06F0E711CF801A080B18026FF6B
S1130E0003C0652D70E002C06FEF7FEFC5012C8732
S1130E107ED22C0183012C852F77222E16C0380117
S1130E20F2E06F0E711CF801A080B18026FF03C0B0
S1130E30652D70E002C06FEF7FEFC5012C8755D29E
S1130E402C012C852068222E830123FC19C0832DBC
S1130E5090E048165906A0F4B70180E290E062D20F
S1130E603A94F5CFF50127FC859127FE81915F0126
S1130E70B70190E057D231103A94F1E04F1A51087B
S1130E804114510479F7DEC0843611F0893631F506
S1130E90F80127FF07C060817181828193810C5F13
S1130EA01F4F08C060817181882777FD8095982F36
S1130EB00E5F1F4F2F76B22E97FF09C09095809535
S1130EC0709561957F4F8F4F9F4F2068B22E2AE017
S1130ED030E0A40159D2A82EA81843C0853729F4BC
S1130EE02F7EB22E2AE030E025C0F22FF97FBF2EEC
S1130EF08F36C1F018F4883579F0ADC0803719F019
S1130F00883721F0A8C02F2F2061B22EB4FE0DC067
S1130F108B2D8460B82E09C024FF0AC09F2F9660D1
S1130F20B92E06C028E030E005C020E130E002C060
S1130F3020E132E0F801B7FE07C06081718182814F
S1130F4093810C5F1F4F06C06081718180E090E047
S1130F500E5F1F4FA40118D2A82EA818FB2DFF77EF
S1130F60BF2EB6FE0BC02B2D2E7FA51450F4B4FE5D
S1130F700AC0B2FC08C02B2D2E7E05C07A2C2B2D66
S1130F8003C07A2C01C0752C24FF0DC0FE01EA0DAC
S1130F90F11D8081803311F4297E09C022FF06C02F
S1130FA07394739404C0822F867809F0739423FD9C
S1130FB012C020FF06C05A2C731418F4530C57188F
S1130FC0732C731460F4B70180E290E02C87AAD1EB
S1130FD073942C85F6CF731410F4371801C0312C98
S1130FE024FF11C0B70180E390E02C879BD12C85AE
S1130FF022FF16C021FF03C088E590E002C088E705
S113100090E0B7010CC0822F867851F021FD02C018
S113101080E201C08BE227FD8DE2B70190E082D12E
S1131020A51430F4B70180E390E07CD15A94F8CF52
S1131030AA94F401EA0DF11D8081B70190E072D108
S1131040A110F6CF332009F45DCEB70180E290E021
S113105069D13A94F7CFF7018681978102C08FEF67
S11310609FEF2C96E2E10AC20F931F93CF93DF9375
S1131070869F8001879F100D969F100D1124C80133
S11310800DD0EC01009721F0A80160E070E038D1A8
S1131090CE01DF91CF911F910F910895CF93DF93EC
S11310A08230910510F482E090E0E091D502F09155
S11310B0D60220E030E0A0E0B0E0309739F1408182
S11310C0518148175907B8F04817590771F48281BC
S11310D09381109729F013969C938E9312972CC0AA
S11310E09093D6028093D50227C02115310531F0A3
S11310F04217530718F0A901DB0101C0EF019A015F
S1131100BD01DF010280F381E02DD7CF2115310528
S1131110F9F0281B390B2430310580F48A819B8136
S11311206115710521F0FB019383828304C09093C0
S1131130D6028093D502FE01329644C0FE01E20F2E
S1131140F31F8193919322503109398328833AC044
S11311502091D3023091D402232B41F42091020137
S1131160309103013093D4022093D30220910001E3
S1131170309101012115310541F42DB73EB740915D
S1131180040150910501241B350BE091D302F09129
S1131190D402E217F307A0F42E1B3F0B28173907DC
S11311A078F0AC014E5F5F4F2417350748F04E0FBF
S11311B05F1F5093D4024093D3028193919302C052
S11311C0E0E0F0E0CF01DF91CF910895CF93DF937A
S11311D0009709F487C0FC01329713821282C091F0
S11311E0D502D091D602209781F420813181280F35
S11311F0391F8091D3029091D4028217930779F515
S1131200F093D402E093D3026DC0DE0120E030E01D
S1131210AE17BF0750F412964D915C9113979D0140
S11312204115510509F1DA01F3CFB383A28340815B
S11312305181840F951F8A179B0771F48D919C919E
S11312401197840F951F02969183808312968D9136
S11312509C911397938382832115310529F4F0938C
S1131260D602E093D5023EC0D9011396FC93EE93C7
S113127012974D915D91A40FB51FEA17FB0779F4FE
S113128080819181840F951F0296D90111969C93B8
S11312908E938281938113969C938E931297E0E0B0
S11312A0F0E08A819B81009719F0FE01EC01F9CFEF
S11312B0CE01029628813981820F931F2091D30297
S11312C03091D4022817390769F4309729F4109221
S11312D0D6021092D50202C013821282D093D40295
S11312E0C093D302DF91CF910895FC010590615022
S11312F070400110D8F7809590958E0F9F1F089528
S1131300DC0101C06D9341505040E0F70895FC01A9
S11313106150704001900110D8F7809590958E0F20
S11313209F1F08950F931F93CF93DF93182F092FB7
S1131330EB018B8181FD03C08FEF9FEF20C082FF03
S113134010C04E815F812C813D81421753077CF48C
S1131350E881F9819F012F5F3F4F398328831083F0
S113136006C0E885F985812F0995892B29F72E81F7
S11313703F812F5F3F4F3F832E83812F902FDF913B
S1131380CF911F910F910895FA01AA27283051F1A6
S1131390203181F1E8946F936E7F6E5F7F4F8F4FA2
S11313A09F4FAF4FB1E03ED0B4E03CD0670F781F01
S11313B0891F9A1FA11D680F791F8A1F911DA11DE6
S11313C06A0F711D811D911DA11D20D009F468941F
S11313D03F912AE0269F11243019305D3193DEF6C7
S11313E0CF010895462F4770405D4193B3E00FD07D
S11313F0C9F7F6CF462F4F70405D4A3318F0495D68
S113140031FD4052419302D0A9F7EACFB4E0A6954A
S11314109795879577956795BA95C9F7009761056C
S1131420710508959B01AC010A2E069457954795C2
S113143037952795BA95C9F7620F731F841F951FB7
S1131440A01D08952F923F924F925F926F927F92C8
S11314508F929F92AF92BF92CF92DF92EF92FF92C0
S11314600F931F93CF93DF93CDB7DEB7CA1BDB0B6C
S11314700FB6F894DEBF0FBECDBF09942A88398811
S113148048885F846E847D848C849B84AA84B98418
S1131490C884DF80EE80FD800C811B81AA81B98124
S11314A0CE0FD11D0FB6F894DEBF0FBECDBFED0138
S10914B00895F894FFCF3B
S11314B60000D7022000001401808019C819C880D2
S11314C6000800001200105374617274696E67207C
S11314D65352414D20746573742E2E2E005352417F
S11314E64D207465737420636F6D706C65746564E8
S11314F620776974680A20253464206572726F72D5
S11315067320696E207772697465207068617365EB
S113151620616E640A253464206572726F727320CA
S1131526696E2072657472696576616C2070686193
S113153673650A0A0043454E54455200555000440B
S11315464F574E005249474854004C454654004AAA
S11315564F593A2025732C20583A25642C20593AA1
S113156620256420090920534C495F6C3A25642CD4
S113157620534C495F723A25642009206C5F4274FB
S11315866E3A2025642C20725F42746E3A202564DC
S11315960A0053657420646966666963756C7479B8
S11315A6004D6F7665204A4F5920746F2074686524
S11315B6207269676874004D6F7665204A4F59201A
S11315C6746F20746865206C656674004D6F76656B
S11315D6204A4F59207570004D6F7665204A4F5941
S11315E620646F776E0063616C523A2025642C2068
S11315F663616C4C3A2025642C2063616C55703A07
S113160625642C2063616C446F776E3A25640A0066
S113161643616C6962726174696F6E20646F6E6592
S11316262E2E206E657720564D3A20256420484D8F
S11316363A25640A00726F773A202523782C0968C4
S11316466E69623A202523782C096C6E69623A2009
S1131656252378200A0050726F626C656D732077BB
S10F1666697468204144432E2E2E0000BD
S9030000FC
