S013000050726F6A6563744D61696E2E73726563B5
S113000037C0000063C0000070C000004CC0000096
S11300104AC0000048C0000046C0000044C00000C0
S113002042C0000040C000003EC000003CC00000D0
S11300303AC0000038C0000036C0000034C00000E0
S113004032C0000030C000002EC000002DC00000EF
S11300502AC0000028C0000026C0000024C0000000
S113006022C0000020C000001EC000001CC0000010
S113007011241FBECFEFD4E0DEBFCDBF12E0A0E05D
S1130080B1E0E0E8F0E102C005900D92A63BB107B3
S1130090D9F722E0A6EBB2E001C01D92AB3DB20756
S11300A0E1F792D0EBC7ACCF1F920F920FB60F922D
S11300B011248F938CB18093BB0281E08093BA02A8
S11300C08F910F900FBE0F901F9018951F920F9253
S11300D00FB60F9211248F9381E08093B9028F9110
S11300E00F900FBE0F901F9018951F920F920FB68E
S11300F00F9211248F9381E08093B8028F910F9017
S11301000FBE0F901F901895EF92FF920F931F93BD
S1130110CF93DF93CDB7DEB760970FB6F894DEBF09
S11301200FBECDBF48D26D877E878F87988B67D2ED
S11301307C01ADD26D837E838F839887C701992715
S11301408230910581F03CF4009799F0019799F47D
S113015004E811E010C08330910541F0049759F48C
S113016002E911E008C007E811E005C00CE811E05D
S113017002C00DE711E08E818F938D818F93888566
S11301808F938F818F9388898F938F858F938E859B
S11301908F938D858F931F930F9387E991E09F939E
S11301A08F9346D30FB6F894DEBF0FBECDBF6096D3
S11301B00FB6F894DEBF0FBECDBFDF91CF911F9174
S11301C00F91FF90EF9008951FE1E12EF12C00E0D4
S11301D010E020E030E04BE450E060E875E280E0BD
S11301E090E081D281E06AD08BB780648BBF85B701
S11301F0826085BF85B78E7F85BF8B98939A8898D8
S1130200909A8BB780688BBF85B7886085BF85B7A8
S11302108B7F85BF789488E74BD1C2ECD1E006EDA3
S113022011E0FF24F39470DF8091B802882319F061
S113023057D01092B8028091B702882349F08CE617
S113024014D21092B702DF93CF93F2D20F900F9093
S11302508091B602882349F082E707D21092B60251
S11302601F930F93E5D20F900F908091B9028823CA
S1130270D1F280910801823099F038F4813099F6F6
S113028088E748D189E714D113C0833069F08430FA
S113029051F682E7C8D188E7B5D1F0920801C3CFFF
S11302A089E738D18CE603C08CE6BDD182E7AAD1B8
S11302B0809108018F5F80930801B5CF95B790684E
S11302C095BF96B7986096BF882319F080B780626F
S11302D080BF0895FC0180810895FC016083089526
S11302E0CF93DF938BEE91E0B4D22FEF3FEF82E018
S11302F0215030408040E1F700C000C0C4E1D0E0AC
S1130300609106017091070182E005D280E090EFD0
S11303100197F1F7809106019091070117D290910E
S11303200E01981710F480930E012197209741F73E
S113033081E092E08ED29FEF2FEF32E09150204087
S11303403040E1F700C000C0C4E1D0E06091060194
S11303507091070182E0DFD180E090EF0197F1F71F
S11303608091060190910701F1D190910D018917B7
S113037010F480930D012197209741F786E192E0D4
S113038068D29FEF2FEF32E0915020403040E1F7E8
S113039000C000C0C4E1D0E0609106017091070183
S11303A081E0B9D180E090EF0197F1F780910601E7
S11303B090910701CBD190910C01981710F4809380
S11303C00C012197209741F782E292E042D29FEFFD
S11303D02FEF32E0915020403040E1F700C000C0E0
S11303E0C4E1D0E0609106017091070181E093D1EE
S11303F080E090EF0197F1F7809106019091070159
S1130400A5D190910B01891710F480930B012197CA
S1130410209741F730910B0120910C0190910D012F
S113042080910E011F923F931F922F931F929F93CF
S11304301F928F9380E392E09F938F93F9D18091E1
S11304400C0120910B0190E0821B91092DB73EB75E
S1130450265F3F4F0FB6F8943EBF0FBE2DBF97FDEA
S113046001969595879580930A0180910E012091BC
S11304700D0190E0821B910997FD01969595879552
S1130480809309019091090180910A011F929F9321
S11304901F928F938AE592E09F938F93C9D10F9017
S11304A00F900F900F900F900F90DF91CF910895C0
S11304B0883731F4609106017091070182E007C02A
S11304C0893731F4609106017091070181E023C1FD
S11304D008958091C0029091C1028333910514F074
S11304E083E012C08E3C9F4F14F484E00DC08091D1
S11304F0C2029091C3028333910514F081E004C0D9
S11305008E3C9F4F24F482E08093C402089510929D
S1130510C4020895883771F58091BD028F9380914C
S1130520BC028F938FE792E09F938F9381D1809148
S11305300601909107010AD190E09093BD02809347
S1130540BC022091090160910901AC01421B5109CF
S11305509A0144E6429FC001439F900D112470E02C
S1130560F6D07093C1026093C0020F900F900F9069
S11305700F9020C08937F1F4809106019091070112
S1130580E5D090E09093BF028093BE0220910A01CF
S113059060910A01AC01421B51099A0144E6429F51
S11305A0C001439F900D112470E0D1D07093C30219
S11305B06093C2028ECFCF93DF93CDB7DEB7289777
S11305C00FB6F894DEBF0FBECDBF88E0ECEBF2E0CF
S11305D0DE01119601900D928A95E1F729813A8105
S11305E04B815C816D817E818F81988528960FB6C1
S11305F0F894DEBF0FBECDBFDF91CF9108958091F7
S1130600C40208958C3631F460910601709107019B
S113061083E007C0823731F46091060170910701CD
S113062084E079C008958C3679F480910601909124
S113063007018CD090E09093C8028093C702109277
S1130640CC021092CB020895823771F48091060196
S1130650909107017BD090E09093C6028093C502ED
S11306601092CA021092C90208958C3639F481E0BE
S113067090E09093CE028093CD020895823731F4B6
S113068081E090E09093D0028093CF020895CF93BD
S1130690DF93CDB7DEB728970FB6F894DEBF0FBE51
S11306A0CDBF88E0E5ECF2E0DE01119601900D92F9
S11306B08A95E1F729813A814B815C816D817E8144
S11306C08F81988528960FB6F894DEBF0FBECDBFF4
S11306D0DF91CF9108955D9BFECF8CB908955F9B08
S11306E0FECF8CB10895EF92FF920F931F93BB2717
S11306F0A12F902F8F2D80BDE9B888E18AB9579A30
S11307008EE880BD6FE673E08BE693E01F910F9156
S1130710FF90EF9043C0282FCB01223059F020F4F2
S1130720213061F464E009C0233031F0243031F425
S113073067E003C065E001C066E0CFCD80EA92E0E7
S11307409F938F9375D00F900F900895C3CD97FB0F
S1130750072E16F4009406D077FD08D00BD007FCC2
S113076005D03EF4909581959F4F089570956195BD
S11307707F4F0895AA1BBB1B51E107C0AA1FBB1FD3
S1130780A617B70710F0A61BB70B881F991F5A9519
S1130790A9F780959095BC01CD0108950F931F93FF
S11307A0CF93DF93EC018B01009731F46115710550
S11307B019F480E090E037C06EE070E081E090E0F2
S11307C038D2FC010097A9F380E883830115110551
S11307D071F01387028781E883838091D10290911D
S11307E0D202892B21F4F093D202E093D102209714
S11307F0C9F0D187C0878381826083838091D302CB
S11308009091D402892B71F4F093D402E093D30233
S11308108091D5029091D602892B21F4F093D602CF
S1130820E093D502CF01DF91CF911F910F910895ED
S1130830A0E0B0E0EDE1F4E0FAC3FE013596619189
S11308407191AF018091D3029091D4022FD0E2E054
S11308500AC40F931F93CF93DF93E091D302F091D7
S1130860D402238121FF1BC0EC0100E010E0899138
S11308706091D3027091D402DB011896ED91FC9142
S11308801997882331F00995892B89F30FEF1FEF0E
S1130890EECF8AE00995892B11F4C80102C08FEFCD
S11308A09FEFDF91CF911F910F910895ACE0B0E0DD
S11308B0EBE5F4E0ACC37C016B018A01FC01178217
S11308C01682838181FFB0C1CE0101964C01F701EC
S11308D09381F60193FD859193FF81916F018823A4
S11308E009F49EC1853239F493FD859193FF81917A
S11308F06F01853221F4B70190E0F9D2E8CF512C91
S1130900312C20E02032A0F48B3269F030F48032B4
S113091059F0833269F420612CC08D3239F0803370
S113092039F4216026C02260246023C0286021C0DD
S113093027FD27C030ED380F3A3078F426FF06C083
S1130940FAE05F9E300D1124532E13C08AE0389EC6
S1130950300D1124332E20620CC08E3221F426FD7A
S11309605FC1206406C08C3611F4206802C088364A
S113097041F4F60193FD859193FF81916F018111FB
S1130980C1CF982F9F7D9554933028F40C5F1F4F4F
S1130990FFE3F9830DC0833631F0833771F083357B
S11309A009F057C021C0F801808189830E5F1F4F71
S11309B044244394512C540114C03801F2E06F0EC6
S11309C0711CF801A080B18026FF03C0652D70E082
S11309D002C06FEF7FEFC5012C877ED22C0183010B
S11309E02C852F77222E16C03801F2E06F0E711C71
S11309F0F801A080B18026FF03C0652D70E002C01D
S1130A006FEF7FEFC5012C8755D22C012C85206810
S1130A10222E830123FC19C0832D90E04816590629
S1130A20A0F4B70180E290E062D23A94F5CFF501E8
S1130A3027FC859127FE81915F01B70190E057D291
S1130A4031103A94F1E04F1A51084114510479F7E6
S1130A50DEC0843611F0893631F5F80127FF07C06E
S1130A6060817181828193810C5F1F4F08C0608116
S1130A707181882777FD8095982F0E5F1F4F2F7601
S1130A80B22E97FF09C090958095709561957F4F20
S1130A908F4F9F4F2068B22E2AE030E0A40159D234
S1130AA0A82EA81843C0853729F42F7EB22E2AE039
S1130AB030E025C0F22FF97FBF2E8F36C1F018F435
S1130AC0883579F0ADC0803719F0883721F0A8C097
S1130AD02F2F2061B22EB4FE0DC08B2D8460B82E52
S1130AE009C024FF0AC09F2F9660B92E06C028E0D3
S1130AF030E005C020E130E002C020E132E0F8013E
S1130B00B7FE07C060817181828193810C5F1F4FA2
S1130B1006C06081718180E090E00E5F1F4FA401E8
S1130B2018D2A82EA818FB2DFF77BF2EB6FE0BC037
S1130B302B2D2E7FA51450F4B4FE0AC0B2FC08C0BD
S1130B402B2D2E7E05C07A2C2B2D03C07A2C01C0B0
S1130B50752C24FF0DC0FE01EA0DF11D8081803348
S1130B6011F4297E09C022FF06C07394739404C053
S1130B70822F867809F0739423FD12C020FF06C0EB
S1130B805A2C731418F4530C5718732C731460F400
S1130B90B70180E290E02C87AAD173942C85F6CF1C
S1130BA0731410F4371801C0312C24FF11C0B7019D
S1130BB080E390E02C879BD12C8522FF16C021FF77
S1130BC003C088E590E002C088E790E0B7010CC05C
S1130BD0822F867851F021FD02C080E201C08BE2B1
S1130BE027FD8DE2B70190E082D1A51430F4B7015E
S1130BF080E390E07CD15A94F8CFAA94F401EA0DF2
S1130C00F11D8081B70190E072D1A110F6CF33209D
S1130C1009F45DCEB70180E290E069D13A94F7CF50
S1130C20F7018681978102C08FEF9FEF2C96E2E156
S1130C300AC20F931F93CF93DF93869F8001879FF0
S1130C40100D969F100D1124C8010DD0EC010097D2
S1130C5021F0A80160E070E038D1CE01DF91CF919E
S1130C601F910F910895CF93DF938230910510F473
S1130C7082E090E0E091D902F091DA0220E030E0E5
S1130C80A0E0B0E0309739F140815181481759070D
S1130C90B8F04817590771F482819381109729F0AD
S1130CA013969C938E9312972CC09093DA028093A0
S1130CB0D90227C02115310531F04217530718F026
S1130CC0A901DB0101C0EF019A01BD01DF0102802E
S1130CD0F381E02DD7CF21153105F9F0281B390B0D
S1130CE02430310580F48A819B816115710521F0DE
S1130CF0FB019383828304C09093DA028093D90228
S1130D00FE01329644C0FE01E20FF31F81939193DA
S1130D1022503109398328833AC02091D702309177
S1130D20D802232B41F42091020130910301309326
S1130D30D8022093D702209100013091010121159E
S1130D40310541F42DB73EB740910401509105019E
S1130D50241B350BE091D702F091D802E217F30778
S1130D60A0F42E1B3F0B2817390778F0AC014E5F17
S1130D705F4F2417350748F04E0F5F1F5093D8027A
S1130D804093D7028193919302C0E0E0F0E0CF0159
S1130D90DF91CF910895CF93DF93009709F487C033
S1130DA0FC01329713821282C091D902D091DA02E7
S1130DB0209781F420813181280F391F8091D70237
S1130DC09091D8028217930779F5F093D802E093B3
S1130DD0D7026DC0DE0120E030E0AE17BF0750F44B
S1130DE012964D915C9113979D014115510509F19E
S1130DF0DA01F3CFB383A28340815181840F951F1D
S1130E008A179B0771F48D919C911197840F951FFC
S1130E1002969183808312968D919C91139793836C
S1130E2082832115310529F4F093DA02E093D90283
S1130E303EC0D9011396FC93EE9312974D915D91A8
S1130E40A40FB51FEA17FB0779F480819181840F01
S1130E50951F0296D90111969C938E93828193815A
S1130E6013969C938E931297E0E0F0E08A819B8125
S1130E70009719F0FE01EC01F9CFCE01029628810A
S1130E803981820F931F2091D7023091D8022817FD
S1130E90390769F4309729F41092DA021092D902D2
S1130EA002C013821282D093D802C093D702DF917A
S1130EB0CF910895FC010590615070400110D8F75E
S1130EC0809590958E0F9F1F0895DC0101C06D934E
S1130ED041505040E0F70895FC016150704001908A
S1130EE00110D8F7809590958E0F9F1F08950F934A
S1130EF01F93CF93DF93182F092FEB018B8181FD73
S1130F0003C08FEF9FEF20C082FF10C04E815F812E
S1130F102C813D81421753077CF4E881F9819F01BC
S1130F202F5F3F4F39832883108306C0E885F985F6
S1130F30812F0995892B29F72E813F812F5F3F4F00
S1130F403F832E83812F902FDF91CF911F910F919B
S1130F500895FA01AA27283051F1203181F1E8944B
S1130F606F936E7F6E5F7F4F8F4F9F4FAF4FB1E098
S1130F703ED0B4E03CD0670F781F891F9A1FA11D93
S1130F80680F791F8A1F911DA11D6A0F711D811D94
S1130F90911DA11D20D009F468943F912AE0269F59
S1130FA011243019305D3193DEF6CF010895462FB8
S1130FB04770405D4193B3E00FD0C9F7F6CF462F99
S1130FC04F70405D4A3318F0495D31FD4052419302
S1130FD002D0A9F7EACFB4E0A695979587957795BF
S1130FE06795BA95C9F700976105710508959B0146
S1130FF0AC010A2E06945795479537952795BA95CF
S1131000C9F7620F731F841F951FA01D08952F92A7
S11310103F924F925F926F927F928F929F92AF9284
S1131020BF92CF92DF92EF92FF920F931F93CF93D1
S1131030DF93CDB7DEB7CA1BDB0B0FB6F894DEBF68
S11310400FBECDBF09942A88398848885F846E848E
S11310507D848C849B84AA84B984C884DF80EE80D8
S1131060FD800C811B81AA81B981CE0FD11D0FB6E1
S1131070F894DEBF0FBECDBFED010895F894FFCF05
S11310800000DB022000001401808019C819C85335
S113109074617274696E67205352414D2074657394
S11310A0742E2E2E005352414D20746573742063A8
S11310B06F6D706C6574656420776974680A2025A7
S11310C03464206572726F727320696E207772695E
S11310D0746520706861736520616E640A253464E8
S11310E0206572726F727320696E20726574726902
S11310F06576616C2070686173650A0A0043454E29
S113110054455200555000444F574E0052494748E9
S113111054004C454654004A4F593A2025732C201C
S1131120583A25642C20593A202564207C20534CBD
S1131130495F6C3A25642C20534C495F723A25640C
S11311400A006C65667420627574746F6E20636C3B
S113115069636B656400726967687420627574748E
S11311606F6E20636C69636B6564004D6F766520F8
S11311704A4F5920746F20746865207269676874D7
S1131180004D6F7665204A4F5920746F207468654E
S1131190206C656674004D6F7665204A4F59207542
S11311A070004D6F7665204A4F5920646F776E004A
S11311B063616C523A2025642C2063616C4C3A20A4
S11311C025642C2063616C55703A25642C2063617E
S11311D06C446F776E3A25640A0043616C696272ED
S11311E06174696F6E20646F6E652E2E206E657754
S11311F020564D3A20256420484D3A25640A005271
S113120041572058202564200A004A4F593A202586
S1131210732C20583A25642C20593A2025640A005E
S113122050726F626C656D732077697468204144F5
S1091230432E2E2E0000E7
S9030000FC
