S013000050726F6A6563744D61696E2E73726563B5
S1130000B3C10000E0C10000EDC10000FAC100006E
S1130010C7C10000C5C10000C3C10000C1C10000C8
S1130020BFC10000BDC10000BBC10000B9C10000D8
S1130030B7C10000B5C10000B3C10000B1C10000E8
S1130040EFC10000ADC10000ABC10000AAC10000B7
S1130050A7C10000A5C10000A3C10000A1C1000008
S11300609FC100009DC100009BC1000099C1000018
S1130070000000000000000000065F5F06000000B2
S11300800007070007070000147F7F147F7F140018
S1130090242E6B6B3A120000466630180C66620020
S11300A0307A4F5D377A48000407030000000000EF
S11300B0001C3E63410000000041633E1C00000040
S11300C0082A3E1C1C3E2A0808083E3E0808000078
S11300D000A0E0600000000008080808080800000C
S11300E000006060000000006030180C060301008E
S11300F03E7F594D7F3E000042427F7F40400000DA
S1130100627359496F660000226349497F360000D3
S1130110181C16137F7F1000276745457D390000A2
S11301203C7E4B4979300000036371190F070000CE
S1130130367F49497F360000064F49693F1E00005B
S113014000006C6C0000000000A0EC6C00000000DB
S1130150081C366341000000141414141414000025
S1130160004163361C080000020351590F060000C9
S11301703E7F415D5D1F1E007C7E13137E7C00006C
S1130180417F7F49497F36001C3E63414163220021
S1130190417F7F41637F1C00417F7F495D41630054
S11301A0417F7F491D0103001C3E6341517372006E
S11301B07F7F08087F7F000000417F7F41000000AF
S11301C0307040417F3F0100417F7F081C7763000E
S11301D0417F7F41406070007F7F060C067F7F0077
S11301E07F7F060C187F7F001C3E6341633E1C002A
S11301F0417F7F49090F06001E3F21717F5E000089
S1130200417F7F19396F460026674D597B320000C4
S113021003417F7F410300007F7F40407F7F0000D8
S11302201F3F60603F1F00007F7F3018307F7F00DA
S113023063771C081C776300074F78784F0700002A
S11302406773594D47637100007F7F41410000008F
S11302500103060C183060000041417F7F0000005C
S1130260080C0603060C0800808080808080808053
S11302700000030704000000207454543C7840003C
S1130280413F7F44447C3800387C44446C2800005F
S1130290307848493F7F4000387C54545C18000053
S11302A0487E7F490302000098BCA4A4F87C0400A3
S11302B0417F7F08047C780000447D7D400000007D
S11302C040C484FD7D000000417F7F10386C4400F1
S11302D000417F7F400000007C7C0C180C7C78007F
S11302E07C7C04047C780000387C44447C38000026
S11302F084FCF8A4243C1800183C24A4F8FC8400D2
S1130300447C78441C180000485C54547424000055
S113031000043E7F442400003C7C40403C7C400080
S11303201C3C60603C1C00003C7C6030607C3C00F9
S1130330446C3810386C44009CBCA0A0FC7C0000C9
S11303404C64745C4C64000008083E774141000032
S113035000000077770000004141773E0808000064
S1130360020301030203010011241FBECFEFD4E0F6
S1130370DEBFCDBF12E0A0E0B1E0E6E2F7E202C0EA
S113038005900D92A237B107D9F722E0A2E7B2E0B7
S113039001C01D92A73AB207E1F7B2D00C949113B1
S11303A02FCE1F920F920FB60F9211248F938CB100
S11303B08093970281E080937E028F910F900FBE0D
S11303C00F901F9018951F920F920FB60F92112441
S11303D08F9381E080937D028F910F900FBE0F90D9
S11303E01F9018951F920F920FB60F9211248F939E
S11303F081E080937C028F910F900FBE0F901F902D
S113040018951F920F920FB60F9211248F9381E0CB
S113041080937A028F910F900FBE0F901F901895C2
S11304201F920F920FB60F9211242F933F934F9365
S11304305F936F937F938F939F93AF93BF93EF9348
S1130440FF930DD780917B028F5F80937B02809115
S11304507B02823021F40E94640B10927B02FF9194
S1130460EF91BF91AF919F918F917F916F915F9128
S11304704F913F912F910F900FBE0F901F901895A1
S1130480EF92FF920F931F931FE1E12EF12C00E0F6
S113049010E020E030E04BE450E060E875E280E0FA
S11304A090E00E94410D88E491E00E94A31081E055
S11304B018D20E940F0D4FD20E94810C0E94180D79
S11304C023D46CD08BB780648BBF85B7826085BF23
S11304D085B78E7F85BF8B98939A8BB780688BBFC7
S11304E085B7886085BF85B78B7F85BF32983A987A
S11304F0B898C09878941F910F91FF90EF90089549
S1130500CF93DF93CDB7DEB7A1970FB6F894DEBFD4
S11305100FBECDBFB5DF07E110E0EE24E3949BE00E
S1130520F92E79D3209372023093730240937402AC
S113053050937502609376027093770280937802E9
S1130540909379021D870C87EE862F8760E0CE0199
S11305500C963BD080E090EF0197F1F780917C02FC
S1130560811143D680917A028823D9F26CE280E02B
S1130570ABD3682F6370A9F2CE0147968FD0FE01EA
S11305807796DE0111968F2D01900D928A95E1F7F1
S1130590CE0101964CD110927A02C3CFCF93DF9350
S11305A0CDB7DEB743E06BE280E090E0B9D340E63C
S11305B060E680E090E0B4D320E040E86FE080E0C3
S11305C090E0C7D3DF91CF910895CF93DF93CDB758
S11305D0DEB727970FB6F894DEBF0FBECDBF9E835C
S11305E08D836F838F81882F90E0009709F04DC031
S11305F08D819E81FC01808191819C838B838B8181
S11306008295880F807E482F62E380E090E088D353
S11306108B819C81969587959695879596958795D8
S1130620482F61E380E090E07BD38D819E81FC01C3
S11306308281482F65E380E090E072D386E389836A
S11306401A8215C08A81882F90E02D813E81820F05
S1130650931F0396FC018081482F698180E090E01C
S11306605FD389818F5F89838A818F5F8A838D813C
S11306709E81FC0192818A81891720F32FEF48E043
S113068060E380E090E065D3000027960FB6F8940D
S1130690DEBF0FBECDBFDF91CF9108950F931F939F
S11306A0CF93DF93CDB7DEB761970FB6F894DEBF73
S11306B00FBECDBF988B8F87698B8989882F90E077
S11306C08230910509F457C08330910521F08130BF
S11306D0910509F09FC061E680E090E0F5D2882F93
S11306E090E09D838C838C819D818C01000F111F70
S11306F0000F111F000F111F62E680E090E0E4D2AA
S1130700829586958770882F90E0802B912B9D830E
S11307108C8365E680E090E0D7D28E8386E6898379
S11307201A8214C08A81082F10E0698180E090E069
S1130730CBD2282FCE010796800F911FFC01208376
S113074089818F5F89838A818F5F8A839E818A8171
S1130750891740F320E041E06CE280E090E0F9D2B8
S11307608F8598892BE0FE013496DC0101900D926F
S11307702A95E1F74FC061E780E090E0A5D2882F89
S113078090E09D838C838C819D818C01000F111FCF
S1130790000F111F000F111F62E780E090E094D258
S11307A0829586958770882F90E0802B912B9D836E
S11307B08C8365E780E090E087D28E8386E7898327
S11307C01B8214C08B81082F10E0698180E090E0C7
S11307D07BD2282FCE010796800F911FFC01208326
S11307E089818F5F89838B818F5F8B839E818B81CE
S11307F0891740F320E042E06CE280E090E0A9D267
S11308008F8598892BE0FE013496DC0101900D92CE
S11308102A95E1F78F85988961960FB6F894DEBF23
S11308200FBECDBFDF91CF911F910F910895CF934C
S1130830DF9300D01F92CDB7DEB79B838A838A8172
S11308409B81FC018281282F30E08A819B81FC01FD
S113085080819181432F4F932F93292F2F938F932F
S113086088E191E0892F8F9388E191E08F930E9432
S11308708D100F900F900F900F900F900F90198282
S11308801FC08981882F90E02A813B81820F931FAA
S11308900396FC018081882F90E0292F2F938F935A
S11308A084E491E0892F8F9384E491E08F930E94F4
S11308B08D100F900F900F900F9089818F5F898317
S11308C08A819B81FC01928189818917D0F28AE017
S11308D090E00E949E100F900F900F90DF91CF91A7
S11308E0089595B7906895BF96B7986096BF88238A
S11308F019F080B7806280BF0895FC01808108955B
S1130900FC0160830895609106017091070182E003
S11309100C94D70E80910601909107010E94F30E6A
S113092090E090938102809380022091080160916D
S11309300801AC01421B51099A0144E6429FC001DF
S1130940439F900D112470E00E94F50E7093850270
S11309506093840208951092810210928002109292
S113096083021092820210928502109284021092E5
S113097087021092860210927F020895CF93DF932C
S113098041D460E070E080E090E086D48EE791E0AE
S1130990DCD42FEF8FEF92E0215080409040E1F7BC
S11309A000C000C0C4E1D0E060910601709107016D
S11309B082E00E94D70E2FEF8FE191E0215080401A
S11309C09040E1F700C0000080910601909107017A
S11309D00E94F30E90910D01981710F480930D016D
S11309E02197209709F760E070E081E090E054D40B
S11309F088E891E0AAD42FEF8FEF92E02150804055
S1130A009040E1F700C000C0C4E1D0E0609106016D
S1130A107091070182E00E94D70E2FEF8FE191E0E1
S1130A20215080409040E1F700C000008091060111
S1130A30909107010E94F30E90910C01891710F414
S1130A4080930C012197209709F760E070E082E021
S1130A5090E022D481E991E078D42FEF8FEF92E0F7
S1130A60215080409040E1F700C000C0C4E1D0E0D4
S1130A70609106017091070181E00E94D70E2FEF6B
S1130A808FE191E0215080409040E1F700C00000E8
S1130A9080910601909107010E94F30E90910B0141
S1130AA0981710F480930B012197209709F760E0C1
S1130AB070E083E090E0F0D388E991E046D42FEF32
S1130AC08FEF92E0215080409040E1F700C000C0D9
S1130AD0C4E1D0E0609106017091070181E00E94B9
S1130AE0D70E2FEF8FE191E0215080409040E1F745
S1130AF000C0000080910601909107010E94F30E4E
S1130B0090910A01891710F480930A012197209784
S1130B1009F780910B0120910A0190E0821B910951
S1130B2097FD0196959587958093090180910D0114
S1130B3020910C0190E0821B910997FD01969595F7
S1130B4087958093080160E070E084E090E0A4D38E
S1130B5081EA91E0FAD32FEF8FEF9EE0215080409D
S1130B609040E1F700C00000DF91CF9108958837ED
S1130B7009F4C9CE893739F46091060170910701EF
S1130B8081E00C94D70E0895883709F4C3CE8937D1
S1130B9001F580910601909107010E94F30E90E007
S1130BA0909383028093820220910901609109014C
S1130BB0AC01421B51099A0144E6429FC001439F84
S1130BC0900D112470E00E94F50E709387026093DB
S1130BD08602089580918402909185028B35910557
S1130BE014F083E012C0863A9F4F14F484E00DC0E1
S1130BF080918602909187028B35910514F081E0F3
S1130C0004C0863A9F4F24F482E080937F020895C3
S1130C1010927F020895CF93DF93CDB7DEB7289764
S1130C200FB6F894DEBF0FBECDBF6DDE82E68A95A7
S1130C30F1F700006FDE89E79ADF82E68A95F1F723
S1130C40000089E7A1DF88E0E0E8F2E0DE01119628
S1130C5001900D928A95E1F729813A814B815C815B
S1130C606D817E818F81988528960FB6F894DEBFBA
S1130C700FBECDBFDF91CF91089545DE82E68A9500
S1130C80F1F7000047DE89E772DF82E68A95F1F723
S1130C90000089E779DF9EDF80917F020895CF937A
S1130CA0C82FDFD680ECD3D68CEC94E00197F1F713
S1130CB000C000008C2FD9D68FEF9FE20197F1F787
S1130CC000C00000CF9108950F931F93CF93DF933B
S1130CD01F92CDB7DEB7182F6983C3D683E0B7D68A
S1130CE08CEC94E00197F1F700C000006981862F35
S1130CF0AED6B1D6082F812FB8D6802F0F90DF91B2
S1130D00CF911F910F91089580E0C9DF6EE080E0DC
S1130D10DBDF982F907E81E0903809F480E008951D
S1130D201F93CF93DF9300D0CDB7DEB7182F4A833C
S1130D30698397D682E08BD66981862F88D64A81CB
S1130D40842F85D6812F0F900F90DF91CF911F9123
S1130D508CC61F93CF93DF9300D01F92CDB7DEB71D
S1130D60182F2B834A8369837CD685E070D66981EA
S1130D70862F6DD64A81842F6AD62B81822F67D61F
S1130D80812F0F900F900F90DF91CF911F916DC61F
S1130D90CF93DF9337D260E070E080E090E07CD2C4
S1130DA08CEA91E0D2D260E070E083E090E074D20B
S1130DB0CEE0D0E082EB91E0C8D22FEF8FE797E04E
S1130DC0215080409040E1F700C000002197209717
S1130DD089F760E070E085E090E05ED284EB91E01A
S1130DE0B4D22FEF8FEF9CE2215080409040E1F786
S1130DF000C000C0DF91CF910895CF92DF92EF92AF
S1130E00FF920F931F93CF93DF938C016B017A01B1
S1130E10E90180918B0290918C02892B21F08DEB5A
S1130E2091E00E94A3108CE090E00E941C0FFC0152
S1130E3090938C0280938B02D382C28211830083AD
S1130E40CD2B39F0F582E48281E090E097838683AC
S1130E5004C01582148217821682DF91CF911F91EC
S1130E600F91FF90EF90DF90CF900895CF93DF9391
S1130E7086E190E0E1D7EC01909392028093910295
S1130E8083ED91E0998388831D8A1C8A85E090E034
S1130E909B838A8386E190E0CFD7FC0190939002F4
S1130EA080938F028CED91E091838083D58BC48BEA
S1130EB083E090E09383828320E030E040E050E0E0
S1130EC0BE018BEE91E099DF6091910270919202E4
S1130ED0E0918B02F0918C02DB011596FC93EE936A
S1130EE0149788EC96E09387828740918F02509103
S1130EF0900221E030E084EF91E07FDF6091910285
S1130F007091920280918B0290918C02FB019783E5
S1130F10868320E030E040E050E08FEF91E06DDF29
S1130F20609191027091920280918B0290918C0257
S1130F30DB0119969C938E93189720E030E040E0F3
S1130F4050E08AE092E059DF609191027091920240
S1130F50E0918B02F0918C02DB011B96FC93EE93E3
S1130F601A978EEB94E09387828720E030E040E08C
S1130F7050E084E192E041DFE0919102F09192022D
S1130F8080918B0290918C029587848710928C02B9
S1130F9010928B0260918F027091900220E030E0F9
S1130FA040E050E089E192E028DF60918F02709187
S1130FB0900280918B0290918C02FB019583848333
S1130FC020E030E040E050E08EE192E016DF6091F6
S1130FD08F027091900280918B0290918C02DB01C0
S1130FE017969C938E93169720E030E040E050E0F3
S1130FF085E292E002DFE0918F02F091900280910D
S11310008B0290918C0291878087DF91CF91089514
S1131010CF93DF93EC01CB01209741F06AE070E0BD
S11310203BD188819981DF91CF918FC18AE292E08F
S11310309F938F930E948D100F900F90DF91CF910B
S11310400895CF92DF92EF92FF920F931F93CF9365
S1131050DF938C016B01D6D028D37801C0E0D0E0B7
S1131060F2E0EF0EF11CCC15DD053CF4BE01F701F6
S113107082819381CDDF2196F3CF10938E0200936A
S11310808D021092890210928802F8018481958160
S113109090938C0280938B02DF91CF911F910F91DB
S11310A0FF90EF90DF90CF900895209188023091C7
S11310B0890212161306BCF4C901019790938902A0
S11310C080938802E0918D02F0918E022F5F3F4F52
S11310D0220F331FE20FF31F2081318130938C02E2
S11310E020938B02B4C10895E0918802F0918902A3
S11310F0A0918D02B0918E0212968D919C911397BE
S11311000197E817F90794F4CF01019690938902A7
S1131110809388023396EE0FFF1FEA0FFB1F208196
S1131120318130938C0220938B0291C110928902F9
S11311301092880214968D919C91159790938C022D
S113114080938B02B2D22FEF8FEF92E02150804038
S11311509040E1F700C000C00895E0918D02F09145
S11311608E0284899589009721F0FC016281738144
S113117068CF089580918D0290918E02FC01628166
S113118073815FDF16C0E0918B02F0918C0286813F
S11311909781892B31F084819581FC01628173816F
S11311A050CF0284F385E02D309711F00995E2CFFA
S11311B00895809188029091890249D180918A0290
S11311C0882391F05ADD823069F020F48130B1F740
S11311D06CDFF4CF833021F0843081F7BEDFEECFB3
S11311E0D2DFECCF81DFEACF089581E080938A02D9
S11311F03DDE8091910290919202FC0162817381A3
S113120020DFD7CF80E090E02091100130911101D0
S11312108217930748F4E0911201F0911301E80F4B
S1131220F91F10820196F0CF0895262F2F7034E015
S1131230759567953A95E1F7605F80559F4FE0910A
S11312401601F09117018083E0911601F0911701C6
S11312502083E0911601F09117016083089560E006
S113126070E080E090E0E1DF80E090E02091100108
S1131270309111018217930770F4E0911201F091FB
S11312801301E80FF91F2081E0911401F091150179
S113129020830196EBCF08959695982F88279795EC
S11312A08795860F971F2091120130911301280F03
S11312B0391F30930F0120930E010895CF93C62F49
S11312C0682F70E08C2F86958695869590E0E4DFF4
S11312D080910E0190910F0110DBC77021E030E086
S11312E001C0220FCA95EAF7822BE0910E01F0911A
S11312F00F018083CF9108950F931F93CF93DF93B2
S1131300805298E0899F80011124C0E0D0E0005908
S11313101F4FF801EC0FFD1F649170E080910E01E6
S113132090910F01EDDA80910E0190910F010196D9
S113133090930F0180930E012196C830D10549F78F
S1131340DF91CF911F910F9108951F93CF93DF9356
S1131350EC0110E0812F90E0FE0101900020E9F7FC
S11313603197EC1BFD0B8E179F0738F4FE01E80F35
S1131370F91F8081C1DF1F5FEDCFDF91CF911F91F6
S1131380089568E170E080910E0190910F01B8DA40
S113139080910E0190910F01019690930F0180931B
S11313A00E0168E170E0ACDA80910E0190910F01BA
S11313B0019690930F0180930E016EE770E0A0DA1E
S11313C080910E0190910F01019690930F018093EB
S11313D00E016CE370E094DA80910E0190910F019C
S11313E0019690930F0180930E0168E170E088DA12
S11313F080910E0190910F01019690930F018093BB
S11314000E0108951F93CF93DF93C0E0D0E0C8305E
S1131410D105C9F060E070E0CE013EDF15E060E088
S113142070E080910E0190910F016ADA80910E01B3
S113143090910F01019690930F0180930E0111502A
S113144071F72196E4CFDF91CF911F9108954F92C8
S11314505F926F927F928F929F92AF92BF92CF9240
S1131460DF92EF92FF920F931F93CF93DF93CDB749
S1131470DEB72C970FB6F894DEBF0FBECDBF109227
S11314809402109293022091950230919602821751
S11314909307F9F48B879C87B5DF60E070E08B8558
S11314A09C85FADE2C960FB6F894DEBF0FBECDBF36
S11314B0DF91CF911F910F91FF90EF90DF90CF902C
S11314C0BF90AF909F908F907F906F905F904F9060
S11314D058CFAE014A5F5F4F6A018E010F5F1F4F05
S11314E0281739070CF066C085E0FA01482F1192DD
S11314F04A95E9F7F80111928A95E9F7F8E05F2E29
S1131500E12CF12C88E0E816F10409F43CC0480110
S1131510A12CB12CB501C701BFDE80910E019091C1
S11315200F01EBD9F40181934F01FFEFAF1ABF0A0A
S113153045E0A416B10471F756014801612C712CE1
S1131540B301C701A9DEF40141904F01F501808187
S1131550881F8827881F642D70E0660F771F682B0B
S113156080910E0190910F01CBD9F50141925F0159
S1131570FFEF6F1A7F0A45E06416710409F75FEF05
S1131580E51AF50ABFCF80919302909194020197D6
S113159021F000C000C00000F6CF10929402109217
S11315A093025A9409F0ACCF8091950290919602DF
S11315B0019660C085E0FA01482F11924A95E9F737
S11315C0F80111928A95E9F768E0562E57E0E52E66
S11315D0F12C4801A12CB12CB501C7015DDE80912D
S11315E00E0190910F0189D9F40181934F01FFEF0E
S11315F0AF1ABF0A45E0A416B10471F756014801B9
S1131600612C712CB301C70147DEF40141904F01F5
S1131610F5016081F0E86F9FB0011124842D869557
S1131620682B80910E0190910F016AD9F5014192C6
S11316305F01FFEF6F1A7F0A45E06416710411F72A
S113164051E0E51AF10828F68091930290919402F2
S1131650019721F000C000C00000F6CF1092940260
S1131660109293025A9409F0B1CF8091950290910F
S11316709602019790939602809395022C960FB64A
S1131680F894DEBF0FBECDBFDF91CF911F910F91B4
S1131690FF90EF90DF90CF90BF90AF909F908F908E
S11316A07F906F905F904F900895ACDE809112010F
S11316B09091130190930F0180930E0162DE1092BA
S11316C0960210929502089581E090E0909394021E
S11316D08093930208957F928F929F92AF92BF92CC
S11316E0CF92DF92EF92FF920F931F93CF93DF93EA
S11316F0C82FD62F042F122F841308C01D1708F4E7
S11317008BC06D2F8C2FDADDDF5FF8CF621708F006
S113171042C06E3049F0673271F4C12CD12C3CE8E0
S1131720E32E31E4F32E26C0C12CD12C20EFE22E7F
S113173020ECF22E1FC0C12CD12C9CEDE92E91EC93
S1131740F92E18C0672D70E080E090E01DD2A5014D
S11317509401AFD1A7019601ACD120E030E0A901FA
S11317600DD2811103C0672D8C2FA8DD739417153A
S113177048F7CF5F0C1708F44FC06C2F70E080E07F
S113178090E002D220E030E040E05FE3ADD24B01D4
S11317905C017D2ED7CF6E3049F0683171F4C12CD5
S11317A0D12C8EE5E82E82E4F82E26C0C12CD12C53
S11317B0BEE0EB2EB2E4FB2E1FC0C12CD12CA1EA5B
S11317C0EA2EA2E4FA2E18C0672D70E080E090E0C3
S11317D0DBD1A50194016DD1A70196016AD120E066
S11317E030E0A901CBD1811103C0672D8C2F66DDB8
S11317F07394D71548F7CF5F0C1770F06C2F70E017
S113180080E090E0C1D120E030E040E05FEB6CD2BA
S11318104B015C01712ED8CFDF91CF911F910F91B5
S1131820FF90EF90DF90CF90BF90AF909F908F90FC
S11318307F90089527E24BE26EE08BE24CDF27E2D3
S113184043E56EE083E547DF21E34FE368E18FE39F
S113185042DF24E04FE36EE08BE23DDF28E14FE31B
S11318606EE08BE238DF21E34FE367E28BE233DFA4
S11318702EE043E564E08FE32EDF2EE043E564E0F1
S11318808FE329DF2EE043E568E18FE324DF27E2DD
S113189043E561E38FE31FDF80911201909113010F
S11318A085549F4F90930F0180930E0187E424DDAC
S11318B080911201909113018F5C9D4F90930F01C1
S11318C080930E0184E318DD80911201909113013D
S11318D08B5B9D4F90930F0180930E0186E30CCD9B
S11318E08AE392E030D4A6DF809112019091130133
S11318F084579C4F90930F0180930E018FE492E0E4
S113190024CDCF93E0911601F09117018EEA8083E4
S1131910E0911601F091170181EA8083E0911601AC
S1131920F09117018AED8083E0911601F09117017F
S113193082E18083E0911601F091170188EC8083A5
S1131940E0911601F091170188EA8083E091160175
S1131950F09117018FE38083E0911601F091170154
S113196085ED8083E0911601F091170180E8808372
S1131970E0911601F091170181E88083E09116014E
S1131980F0911701C0E5C083E0911601F0911701B1
S113199089ED8083E0911601F091170181E2808343
S11319A0E0911601F091170180E28083E091160125
S11319B0F09117011082E0911601F09117018BED5F
S11319C08083E0911601F091170180E38083E09118
S11319D01601F09117018DEA8083E0911601F091D0
S11319E017011082E0911601F091170184EA8083B7
S11319F0E0911601F091170186EA8083E0911601C7
S1131A00F09117018FEA8083FDDB6ADF83B78D6075
S1131A1083BF89B7816089BFC1BFCF9108951092F8
S1131A20990210929A0210929B0210929C020895BD
S1131A308BB780628BBF86B78E7F86BF87B3806B80
S1131A4087BB80E58DB981E08EB9C49A08958FB9BA
S1131A50779BFECF08958FEFFADF779BFECF8FB190
S1131A600895811101C0C4980895811101C0C49AD8
S1131A7008955D9BFECF8CB908955F9BFECF8CB11A
S1131A800895EF92FF920F931F93BB27A12F902FDE
S1131A908F2D80BDE9B888E18AB9579A8EE880BD58
S1131AA06DE37DE089E39DE01F910F91FF90EF903E
S1131AB0EAC25058BB27AA270ED0DCC0CDD030F0E4
S1131AC0D2D020F031F49F3F11F41EF4C2C00EF4C2
S1131AD0E095E7FBB8C0E92FDED080F3BA176207C0
S1131AE073078407950718F071F49EF5F6C00EF499
S1131AF0E0950B2EBA2FA02D0B01B90190010C011A
S1131B00CA01A0011124FF27591B99F0593F50F431
S1131B10503E68F11A16F040A22F232F342F442789
S1131B20585FF3CF469537952795A795F040539581
S1131B30C9F77EF41F16BA0B620B730B840BBAF051
S1131B409150A1F0FF0FBB1F661F771F881FC2F7BC
S1131B500EC0BA0F621F731F841F48F487957795D0
S1131B606795B795F7959E3F08F0B3CF9395880F87
S1131B7008F09927EE0F97958795089540D008F4BB
S1131B8081E00895E89409C097FB3EF49095809510
S1131B90709561957F4F8F4F9F4F9923A9F0F92F2F
S1131BA096E9BB279395F695879577956795B795AD
S1131BB0F111F8CFFAF4BB0F11F460FF1BC06F5F93
S1131BC07F4F8F4F9F4F16C0882311F096E911C0A5
S1131BD0772321F09EE8872F762F05C0662371F0C6
S1131BE096E8862F70E060E02AF09A95660F771FDA
S1131BF0881FDAF7880F9695879597F90895990FB6
S1131C000008550FAA0BE0E8FEEF16161706E807C2
S1131C10F907C0F012161306E407F50798F0621BE3
S1131C20730B840B950B39F40A2661F0232B242BB8
S1131C30252B21F408950A2609F4A140A6958FEFD7
S1131C40811D811D089597F99F6780E870E060E029
S1131C5008959FEF80EC089500240A941616170641
S1131C6018060906089500240A9412161306140689
S1131C7005060895092E0394000C11F4882352F0EC
S1131C80BB0F40F4BF2B11F460FF04C06F5F7F4FA4
S1131C908F4F9F4F089557FD9058440F551F59F08B
S1131CA05F3F71F04795880F97FB991F61F09F3F45
S1131CB079F087950895121613061406551FF2CF6E
S1131CC04695F1DF08C0161617061806991FF1CFBE
S1131CD086957105610508940895E894BB276627E5
S1131CE07727CB0197F908950BD0C4CFB5DF28F03F
S1131CF0BADF18F0952309F0A6CFABCF1124EECFAD
S1131D00CADFA0F3959FD1F3950F50E0551F629F52
S1131D10F001729FBB27F00DB11D639FAA27F00D40
S1131D20B11DAA1F649F6627B00DA11D661F829F67
S1131D302227B00DA11D621F739FB00DA11D621F4C
S1131D40839FA00D611D221F749F3327A00D611D69
S1131D50231F849F600D211D822F762F6A2F11244B
S1131D609F5750408AF0E1F088234AF0EE0FFF1F9E
S1131D70BB1F661F771F881F91505040A9F79E3FD5
S1131D80510570F060CFAACF5F3FECF3983EDCF3CF
S1131D90869577956795B795F795E7959F5FC1F712
S1131DA0FE2B880F911D9695879597F90895282FF6
S1131DB0CB01223059F020F4213069F464E009C0E9
S1131DC0233031F0243039F467E003C065E001C00A
S1131DD066E00C9480048DE592E09F938F939DD1EF
S1131DE00F900F9008950C947D0497FB072E16F422
S1131DF0009406D077FD08D00BD007FC05D03EF444
S1131E00909581959F4F0895709561957F4F0895A2
S1131E10AA1BBB1B51E107C0AA1FBB1FA617B7070C
S1131E2010F0A61BB70B881F991F5A95A9F7809528
S1131E309095BC01CD010895CF93DF938230910535
S1131E4010F482E090E0E0919F02F091A00220E083
S1131E5030E0A0E0B0E0309739F14081518148177B
S1131E605907B8F04817590771F482819381109784
S1131E7029F013969C938E9312972CC09093A002F2
S1131E8080939F0227C02115310531F04217530773
S1131E9018F0A901DB0101C0EF019A01BD01DF01C6
S1131EA00280F381E02DD7CF21153105F9F0281BED
S1131EB0390B2430310580F48A819B8161157105C9
S1131EC021F0FB019383828304C09093A00280934A
S1131ED09F02FE01329644C0FE01E20FF31F81937C
S1131EE0919322503109398328833AC020919D026D
S1131EF030919E02232B41F4209102013091030181
S1131F0030939E0220939D022091000130910101A3
S1131F102115310541F42DB73EB74091040150918C
S1131F200501241B350BE0919D02F0919E02E217FE
S1131F30F307A0F42E1B3F0B2817390778F0AC01E8
S1131F404E5F5F4F2417350748F04E0F5F1F5093C5
S1131F509E0240939D028193919302C0E0E0F0E0E1
S1131F60CF01DF91CF910895CF93DF93009709F4C8
S1131F7087C0FC01329713821282C0919F02D091D4
S1131F80A002209781F420813181280F391F80918C
S1131F909D0290919E028217930779F5F0939E0219
S1131FA0E0939D026DC0DE0120E030E0AE17BF0774
S1131FB050F412964D915C9113979D014115510572
S1131FC009F1DA01F3CFB383A28340815181840FF5
S1131FD0951F8A179B0771F48D919C911197840F1B
S1131FE0951F02969183808312968D919C911397ED
S1131FF0938382832115310529F4F093A002E093A1
S11320009F023EC0D9011396FC93EE9312974D9113
S11320105D91A40FB51FEA17FB0779F480819181C4
S1132020840F951F0296D90111969C938E938281F9
S1132030938113969C938E931297E0E0F0E08A814B
S11320409B81009719F0FE01EC01F9CFCE010296B5
S113205028813981820F931F20919D0230919E0225
S11320602817390769F4309729F41092A0021092C6
S11320709F0202C013821282D0939E02C0939D02DB
S1132080DF91CF9108950F931F93CF93DF93EC01CA
S11320908B01009731F46115710519F480E090E02B
S11320A037C06EE070E081E090E03DD2FC01009723
S11320B0A9F380E883830115110571F01387028762
S11320C081E883838091A1029091A202892B21F45B
S11320D0F093A202E093A1022097C9F0D187C087B0
S11320E08381826083838091A3029091A402892BCF
S11320F071F4F093A402E093A3028091A50290915D
S1132100A602892B21F4F093A602E093A502CF0145
S1132110DF91CF911F910F910895A0E0B0E0E2E923
S1132120F0E1D8C2FE01359661917191AF018091C1
S1132130A3029091A40234D0E2E0E8C26091A30229
S11321407091A40227C20F931F93CF93DF93E09162
S1132150A302F091A402238121FF1BC0EC0100E043
S113216010E089916091A3027091A402DB0118969A
S1132170ED91FC911997882331F00995892B89F306
S11321800FEF1FEFEECF8AE00995892B11F4C801F8
S113219002C08FEF9FEFDF91CF911F910F910895B0
S11321A0ACE0B0E0E5EDF0E185C27C016B018A01B1
S11321B0FC0117821682838181FFB0C1CE01019692
S11321C04C01F7019381F60193FD859193FF819171
S11321D06F01882309F49EC1853239F493FD8591FA
S11321E093FF81916F01853221F4B70190E0D2D140
S11321F0E8CF512C312C20E02032A0F48B3269F04E
S113220030F4803259F0833269F420612CC08D326D
S113221039F0803339F4216026C02260246023C061
S1132220286021C027FD27C030ED380F3A3078F4FC
S113223026FF06C0FAE05F9E300D1124532E13C012
S11322408AE0389E300D1124332E20620CC08E3269
S113225021F426FD5FC1206406C08C3611F4206889
S113226002C0883641F4F60193FD859193FF819174
S11322706F018111C1CF982F9F7D9554933028F41D
S11322800C5F1F4FFFE3F9830DC0833631F08337B2
S113229071F0833509F057C021C0F801808189832A
S11322A00E5F1F4F44244394512C540114C0380131
S11322B0F2E06F0E711CF801A080B18026FF03C00C
S11322C0652D70E002C06FEF7FEFC5012C8757D1F9
S11322D02C0183012C852F77222E16C03801F2E0C1
S11322E06F0E711CF801A080B18026FF03C0652D1C
S11322F070E002C06FEF7FEFC5012C872ED12C0157
S11323002C852068222E830123FC19C0832D90E0A4
S113231048165906A0F4B70180E290E03BD13A9404
S1132320F5CFF50127FC859127FE81915F01B70167
S113233090E030D131103A94F1E04F1A5108411431
S1132340510479F7DEC0843611F0893631F5F8018D
S113235027FF07C060817181828193810C5F1F4FC9
S113236008C060817181882777FD8095982F0E5F62
S11323701F4F2F76B22E97FF09C0909580957095C8
S113238061957F4F8F4F9F4F2068B22E2AE030E037
S1132390A40132D1A82EA81843C0853729F42F7E72
S11323A0B22E2AE030E025C0F22FF97FBF2E8F36FF
S11323B0C1F018F4883579F0ADC0803719F088374A
S11323C021F0A8C02F2F2061B22EB4FE0DC08B2D9A
S11323D08460B82E09C024FF0AC09F2F9660B92ECE
S11323E006C028E030E005C020E130E002C020E172
S11323F032E0F801B7FE07C0608171818281938168
S11324000C5F1F4F06C06081718180E090E00E5F19
S11324101F4FA401F1D0A82EA818FB2DFF77BF2EC3
S1132420B6FE0BC02B2D2E7FA51450F4B4FE0AC0AB
S1132430B2FC08C02B2D2E7E05C07A2C2B2D03C098
S11324407A2C01C0752C24FF0DC0FE01EA0DF11D8C
S11324508081803311F4297E09C022FF06C0739461
S1132460739404C0822F867809F0739423FD12C0FC
S113247020FF06C05A2C731418F4530C5718732CED
S1132480731460F4B70180E290E02C8783D07394D6
S11324902C85F6CF731410F4371801C0312C24FFA7
S11324A011C0B70180E390E02C8774D02C8522FF03
S11324B016C021FF03C088E590E002C088E790E0E1
S11324C0B7010CC0822F867851F021FD02C080E252
S11324D001C08BE227FD8DE2B70190E05BD0A5142B
S11324E030F4B70180E390E055D05A94F8CFAA9421
S11324F0F401EA0DF11D8081B70190E04BD0A110E9
S1132500F6CF332009F45DCEB70180E290E042D0EB
S11325103A94F7CFF7018681978102C08FEF9FEF3E
S11325202C96E2E1E3C00F931F93CF93DF93869F32
S11325308001879F100D969F100D1124C8017CDC2B
S1132540EC01009721F0A80160E070E011D0CE0109
S1132550DF91CF911F910F910895FC010590615077
S113256070400110D8F7809590958E0F9F1F0895A5
S1132570DC0101C06D9341505040E0F70895FC0127
S11325806150704001900110D8F7809590958E0F9E
S11325909F1F08950F931F93CF93DF93182F092F35
S11325A0EB018B8181FD03C08FEF9FEF20C082FF81
S11325B010C04E815F812C813D81421753077CF40A
S11325C0E881F9819F012F5F3F4F3983288310836E
S11325D006C0E885F985812F0995892B29F72E8175
S11325E03F812F5F3F4F3F832E83812F902FDF91B9
S11325F0CF911F910F910895FA01AA27283051F124
S1132600203181F1E8946F936E7F6E5F7F4F8F4F1F
S11326109F4FAF4FB1E03ED0B4E03CD0670F781F7E
S1132620891F9A1FA11D680F791F8A1F911DA11D63
S11326306A0F711D811D911DA11D20D009F468949C
S11326403F912AE0269F11243019305D3193DEF644
S1132650CF010895462F4770405D4193B3E00FD0FA
S1132660C9F7F6CF462F4F70405D4A3318F0495DE5
S113267031FD4052419302D0A9F7EACFB4E0A695C8
S11326809795879577956795BA95C9F700976105EA
S1132690710508959B01AC010A2E06945795479540
S11326A037952795BA95C9F7620F731F841F951F35
S11326B0A01D08952F923F924F925F926F927F9246
S11326C08F929F92AF92BF92CF92DF92EF92FF923E
S11326D00F931F93CF93DF93CDB7DEB7CA1BDB0BEA
S11326E00FB6F894DEBF0FBECDBF09942A8839888F
S11326F048885F846E847D848C849B84AA84B98496
S1132700C884DF80EE80FD800C811B81AA81B981A1
S1132710CE0FD11D0FB6F894DEBF0FBECDBFED01B5
S10927200895F894FFCFB8
S11327260000A70220000014808019C819C8001CE4
S11327360004001C00120010726563656976656406
S1132746206D6573736167653A2069643A20256470
S11327562C206C656E6774683A2025642C206461AD
S113276674613A00202563000A3D3D3D3D3D3D3DF3
S11327763D3D3D3D3D3D3D3D3D3D3D3D3D3D535452
S113278641525455503D3D3D3D3D3D3D3D3D3D3D14
S11327963D3D3D3D3D3D3D3D3D3D3D3D3D004A4F7D
S11327A659205249474854004A4F59204C454654EB
S11327B6004A4F59205550004A4F5920444F574E0E
S11327C60043414C494220444F4E45005354415224
S11327D654002A005955504949203A290043726544
S11327E66174696E67206E657874206974656D2EF0
S11327F62E2E004D61696E4D656E750044696666E0
S11328066963756C74794D656E75004E65772047FE
S1132816616D6500446966666963756C7479004820
S113282669676873636F726573004A6F79204361E1
S11328366C696200496E666F0065617379006D6547
S11328466469756D0068617264004E554C4C207065
S11328566F696E7465722E2E2E0072756E207370FB
S11328666C6173682073637265656E2E2E2E004745
S1132876726F757020343620536F66740050726F11
S1132886626C656D732077697468204144432E2E0B
S10528962E000E
S9030000FC
